:020000040800F2
:1000000030160020610100080521000807210008C2
:100010000B2100080F210008132100080000000038
:100020000000000000000000000000001721000890
:100030001921000800000000770100081B210008BA
:100040007B0100087B0100087B0100087B010008A0
:100050007B0100087B0100087B0100087B01000890
:100060007B0100087B0100087B0100087B01000880
:100070007B0100087B0100087B0100087B01000870
:100080007B0100087B0100087B0100087B01000860
:100090007B0100087B0100087B0100087B01000850
:1000A0007B0100087B0100087B0100087B01000840
:1000B0007B0100087B0100087B0100087B01000830
:1000C0007B0100087B0100087B0100087B01000820
:1000D0007B0100087B0100087B0100087B01000810
:1000E0007B0100087B0100087B0100087B01000800
:1000F0007B0100087B0100087B0100087B010008F0
:100100007B0100087B0100087B0100087B010008DF
:100110007B0100087B010008272100087B01000803
:100120007B0100087B0100087B0100087B010008BF
:100130007B0100087B0100087B0100087B010008AF
:100140007B0100087B010008DFF810D002F068FA9C
:1001500000480047C1200008AFF30080301600209F
:100160000648804706480047FEE7FEE7FEE7FEE751
:10017000FEE7FEE7FEE7FEE7FEE7FEE7DF02000838
:1001800049010008002040F2596172B600BFDC4A04
:10019000126902F00202022A03D00A1EA1F1010133
:1001A000F5D100BFD74A126822F00072D54B1A6011
:1001B0001A46126842F000721A6000BFD04A1068F6
:1001C00020F4C06040F48060106040F2596100BFCC
:1001D000CB4A126902F002021AB10A1EA1F1010112
:1001E000F6D140F2596100BFC54A126902F002021D
:1001F000022A03D00A1EA1F10101F5D162B67047AF
:10020000F0B50024002500270026BF48006840F410
:100210008030BD49086000BFBB480068C0F340465D
:100220007F1C16B9B7F5005FF6D1B7480068C0F378
:1002300040461EB9B548B6490860F0BDFFF7A2FFB9
:10024000B448006820F00300B2490860084600681E
:1002500040F001000860AC484068AB49486008467F
:10026000406840F4005048600846406840F4A06090
:10027000486008464068A8490840A34948600846C5
:10028000006C20F0030008640846446844F480349D
:10029000056C44F4003400BF44F460144460056409
:1002A000006840F08070086000BF9748006800F068
:1002B00000700028F9D09448406820F0030092496B
:1002C00048600846406840F00300486000BF8E4820
:1002D000406800F00C000C28F9D100BFADE710B564
:1002E0008E48006840F470008C4908608648406A77
:1002F00040F0040084494862084640688849084044
:100300008149486008460068864908407E4908607F
:100310000846006820F4802008600846406882494A
:100320000840794948604FF4E040C86240100863D3
:100330000020486308647D4888600846C06940F032
:100340008050C8616E48006800F48060B0F5806F2E
:100350000CD100BF6B48006820F00070694908604C
:100360000846006840F00070086000BF69480068F7
:1003700040F09000674908600846006800F480700B
:1003800020B10846006820F400700860FFF738FFCD
:100390004FF0006061498039086010BD70B50021E0
:1003A0000020002300240022574D6D6805F00C0149
:1003B000554D6D6AC5F3021231B104290AD00829DE
:1003C0000CD00C294DD10DE0594D55F82250504E0E
:1003D00035604CE0574D4E4E356048E0564D4C4E22
:1003E000356044E0484D6D68544E05EA0600464DC0
:1003F0006D6805F48033444D2D6C05F0020400F067
:1004000000651DB9022505EB904004E04FF4F87536
:10041000C5EB9045681C73B93B4D2D6C05F001058B
:1004200025B1454D45433A4E356012E0414D4543B7
:10043000374E35600DE0344D6D6805F4003525B15B
:10044000324D4543324E356003E03B4D4543304E1F
:100450003560022C04D12E4D2D686D082C4E356070
:1004600005E0334D55F82250294E356000BF00BFDE
:10047000254D6D68C5F30315314E715D244D2D6812
:10048000CD40234E356070BD002040F2596172B6F8
:1004900000BF1B4A126902F00202022A03D00A1EA0
:1004A000A1F10101F5D100BF164A126822F00072D5
:1004B000144B1A601A4612681A6000BF104A10687E
:1004C00020F4C06040F4C060106040F2596100BF89
:1004D0000B4A126902F002021AB10A1EA1F10101CF
:1004E000F6D140F2596100BF054A126902F00202DA
:1004F000022A03D00A1EA1F10101F5D162B67047AC
:1005000000700040201800400010024000093D002B
:100510000000002000200240FFFFC0F788ED00E04F
:1005200000C0FFF8FFFFF6FEFFFF00070080BF04DA
:10053000A42600080024F40000127A0000003C0801
:100540009426000831490143314A1160704770B563
:10055000002100230F22C47804B32D4C246804F436
:10056000E064C4F5E064210AC1F10403CA404478A0
:1005700004FA03F18478144021430901254C0678DC
:10058000A155047804F01F050124AC4005786D11D5
:10059000AD0005F1E025C5F8004109E0047804F05C
:1005A0001F050124AC401C4D0678761145F8264005
:1005B00070BD1A4A0A400243154B1B1F1A60704750
:1005C00039B1134A121D12680243114B1B1D1A60E8
:1005D00006E00F4A121D126882430D4B1B1D1A6064
:1005E0007047042808D14FF0E021096941F0040167
:1005F0004FF0E022116107E04FF0E021096921F09E
:1006000004014FF0E0221161704700000000FA057C
:100610000CED00E000E400E080E100E080FFFF1F5F
:1006200010B504460121480601F007FB00214FF0F8
:10063000007001F002FB10BD30B50246002000231F
:10064000146824F002041460146844F00104146077
:1006500000E05B1C546804F001041CB94FF6FF7401
:10066000A342F6D1546804F001040CB900206CE0F8
:100670008C79012C04D1146844F08004146003E0E8
:10068000146824F080041460CC79012C04D114681F
:1006900044F04004146003E0146824F04004146043
:1006A0000C7A012C04D1146844F02004146003E097
:1006B000146824F0200414604C7A012C04D11468CE
:1006C00044F01004146003E0146824F01004146073
:1006D0008C7A012C04D1146844F00804146003E0FF
:1006E000146824F008041460CC7A012C04D1146836
:1006F00044F00404146003E0146824F0040414605B
:100700008C78A407CD7844EA05640D7944EA054461
:100710004D7944EA05540D886D1E2C43D46114684C
:1007200024F001041460002300E05B1C546804F012
:1007300001041CB14FF6FF74A342F6D1546804F0D3
:1007400001040CB1002000E0012030BD10B50021F3
:10075000837A012202FA03F1FE4A126842F0010292
:10076000FC4B1A60FB4A1C3212688A43F94B1C335B
:100770001A60027BCAB9F74A0C3212688A43F54BF9
:100780000C331A604288C38842EA0343F14A40327C
:10079000847A42F834300288838842EA0343ED4A7F
:1007A0004032847A02EBC4025360027B012A19D1E1
:1007B000E84A0C3212680A43E64B0C331A6042884E
:1007C000038842EA0343E34A4032847A42F83430F1
:1007D000C288838842EA0343DE4A4032847A02EBCD
:1007E000C4025360C27A3AB9DA4A121D12688A43C7
:1007F000D84B1B1D1A6006E0D64A121D12680A4328
:10080000D44B1B1D1A60028932B9D24A14321268C5
:100810008A43D04B14331A600289012A06D1CD4A8B
:10082000143212680A43CB4B14331A60427B012AFC
:1008300006D1C84A1C3212680A43C64B1C331A60E0
:10084000C44A126822F00102C24B1A6010BD002196
:100850008171C171017241728172C1728170C17006
:10086000032101710221417101210180704721B1F1
:10087000026842F48032026003E0026822F48032AF
:1008800002607047E1B1026842F0800202604FF4FA
:10089000C272125842F480734FF4C27213504FF474
:1008A000CA72125842F480734FF4CA7213504FF454
:1008B000D272125842F480734FF4D27213501BE07C
:1008C000026822F0800202604FF4C272125822F4D1
:1008D00080734FF4C27213504FF4CA72125822F44C
:1008E00080734FF4CA7213504FF4D272125822F42C
:1008F00080734FF4D2721350704710B50246002037
:10090000936803F08063B3F1806F00D110E09368C7
:1009100003F00063B3F1006F01D1012008E0936898
:1009200003F08053B3F1805F01D1022000E0042086
:10093000042874D002F5C07303EB00131B6803F0A6
:10094000010402F5C07303EB00131C600B7A7BB942
:100950004B7A0C8843EA445302F5C07404EB00144C
:100960002468234302F5C07404EB0014236010E0F4
:100970000B7A4C6843EAC4034C7A234302F5C074F3
:1009800004EB00142468234302F5C07404EB001444
:1009900023608B7A03F00F038B7202F5C07303EBB5
:1009A00000135B6823F00F0402F5C07303EB001320
:1009B0005C6002F5C07303EB00135B688C7A234321
:1009C00002F5C07404EB001463608B7B1C064B7B48
:1009D00044EA03440B7B44EA0323CC7A234302F525
:1009E000C07404EB0014A3608B7C1C064B7C44EAAF
:1009F00003440B7C44EA0323CC7B234302F5C074FD
:100A000004EB0014E36002F5C07303EB00131B68F2
:100A100043F0010402F5C07303EB00131C6010BD2A
:100A200010B50246002321B1012907D002290FD1B8
:100A300009E09068484C00EA04030BE09068474CDA
:100A400000EA040306E09068454C00EA040301E074
:100A5000002300BF00BF434C181BA34216D007DC85
:100A600083B16FF08060184470B1022818D111E092
:100A7000B0F5007F10D03C4C204448B1B0F5003FA9
:100A80000ED10BE002230DE000230BE0002309E070
:100A9000002307E0012305E0012303E0012301E037
:100AA000002300BF00BFD8B210BD21B1012905D07D
:100AB00002290BD106E08022826008E04FF4004258
:100AC000826004E04FF40002826000E000BF00BFDB
:100AD000704710B500F5D87303EB01131B6803F0E2
:100AE00004031372137A53B900F5D87303EB01139F
:100AF0001B6840F2FF7404EA5353136009E000F5E9
:100B0000D87303EB01131B686FF0604404EAD3034E
:100B1000536000F5D87303EB01131B6803F0020365
:100B2000537200F5D87303EB01135B6803F00F03F6
:100B3000937200F5D87303EB01135B681B0AD3743F
:100B400000F5D87303EB01139B68D37200F5D873DB
:100B50000CE00000006600400300000400030008F1
:100B600000000310000100080001FFF703EB011370
:100B70009B681C0A147300F5D87303EB01139B6880
:100B80001C0C547300F5D87303EB01139B681B0E08
:100B9000937300F5D87303EB0113DB68D37300F58F
:100BA000D87303EB0113DB681C0A147400F5D873C7
:100BB00003EB0113DB681C0C547400F5D87303EBD2
:100BC0000113DB681B0E937421B9C36843F0200343
:100BD000C36003E0036943F02003036110BD21B942
:100BE000C26842F02002C26003E0026942F02002C3
:100BF000026170470246002019B9D36803F0030070
:100C000006E0012903D1136903F0030000E000208E
:100C1000704710B502460B4600204FF6FF71BBB976
:100C2000146824F0020444F00104146000E0491E3A
:100C3000546804F00304012C01D00029F7D1546852
:100C400004F00304012C01D0002032E0012030E048
:100C5000012B13D1146824F00304146000E0491E32
:100C6000546804F003040CB10029F8D1546804F06E
:100C700003040CB100201CE001201AE0022B17D164
:100C8000146824F0010444F00204146000E0491EDA
:100C9000546804F00304022C01D00029F7D15468F1
:100CA00004F00304022C01D0002002E0012000E047
:100CB000002010BD014600200A6822F0010242F027
:100CC00002020A604A6802F00302022A00D10120EF
:100CD000704701464FF6FF7200200B6823F00203B5
:100CE0000B6000E0521E4B6803F00203022B01D19F
:100CF000002AF7D14B6803F00203022B00D0012039
:100D00007047014600208A6902F070007047014672
:100D100000208A69100E7047014600208A69C2F3DC
:100D2000074070471AB143690B43436102E04369CE
:100D30008B434361704710B50246002001F47003F5
:100D400043B19369C1F3130423400BB101202DE09B
:100D500000202BE001F0807343B15368C1F313040A
:100D600023400BB1012021E000201FE001F00063CF
:100D700043B19368C1F3130423400BB1012015E084
:100D8000002013E001F0007343B1D368C1F31304F2
:100D900023400BB1012009E0002007E01369C1F3F3
:100DA000130423400BB1012000E0002010BD0022FD
:100DB000804B994202D10023836111E0C1F31302F9
:100DC00001F000730BB1C2600AE001F080630BB167
:100DD000026105E001F000630BB1826000E0426057
:100DE00070470246002002EA01030BB1012000E037
:100DF0000020704770B504460D4600266069284003
:100E0000002871D0B5F5807F5CD010DC082D35D07E
:100E100006DC012D20D0022D24D0042D72D127E034
:100E2000102D31D0202D35D0402D6BD138E0B5F5C7
:100E3000004F60D009DCB5F5007F49D0B5F5806F73
:100E40004CD0B5F5006F5DD14FE0B5F5803F2DD0AA
:100E5000B5F5003F56D12FE0A0685749FFF7C1FF15
:100E6000064651E0E0680321FFF7BBFF06464BE072
:100E7000E0680821FFF7B5FF064645E0E06810216D
:100E8000FFF7AFFF06463FE020690321FFF7A9FF08
:100E9000064639E020690821FFF7A3FF064633E044
:100EA00020691021FFF79DFF06462DE060680821AC
:100EB000FFF797FF064627E060681021FFF791FFD4
:100EC000064621E0A0690121FFF78BFF06461BE0E3
:100ED000A0690221FFF785FF064615E0A0690421FD
:100EE000FFF77FFF06460FE00FE0A0697021FFF7D4
:100EF00078FF064608E060680421FFF772FF0646A7
:100F000002E0FFE7002600BF00E00026304670BD8B
:100F1000B1F5007F3AD00FDC202928D006DC01296A
:100F20001CD004291DD0082940D11DE0402921D022
:100F3000B1F5807F3AD126E0B1F5004F31D006DC23
:100F4000B1F5806F25D0B1F5006F2FD124E0B1F558
:100F5000803F12D0B1F5003F28D111E0164A8260DF
:100F600025E00822C26022E01022C2601FE00822B1
:100F700002611CE01022026119E00822426016E0C2
:100F80001022426013E00422426010E0042242601A
:100F90000DE0042242600AE00022826104224260E5
:100FA00005E0002282610422426000E000BF00BF31
:100FB000704700007000F030010101002DE9F041A0
:100FC00004460025002600274FF6FF78FE4884429D
:100FD00008D10121042000F023FE0021042000F0AC
:100FE0001FFE25E0F948844208D10121082000F0C5
:100FF00017FE0021082000F013FE19E0F448844297
:1010000008D10121102000F00BFE0021102000F07B
:1010100007FE0DE0EF48844208D10121202000F0B6
:10102000FFFD0021202000F0FBFD01E0BDE8F08184
:1010300069E00120A84000EA0806002E62D0E648D8
:10104000A90850F82170A807010F0F208840074019
:10105000DD48844201D100200AE0DC48844201D10D
:10106000012005E0DA48844201D1022000E003209B
:10107000A907090F8840B84221D1D8480068B04379
:10108000D6490860081D0068B043091D0860081DA6
:101090000068B043091D0860081D0068B043091DC1
:1010A0000860A807010F0F2000FA01F7CA48A90835
:1010B00050F82100B843C849AA0841F82200206826
:1010C0006A00032191408843206005F0080038B190
:1010D000606A6907CA0E0F2191400843606206E00A
:1010E000206A6907CA0E0F21914008432062616897
:1010F0000120A84081436160E0686A0003219140BB
:101100008843E0606D1C28FA05F0002891D100BFEB
:101110008CE710B50121084600F082FD0021012076
:1011200000F07EFD10BDF0B5034600250020002430
:1011300000220026E3E00F884FF0010C0CFA02FCBD
:1011400007EA0C06002E6FD055008F68022F07D0DB
:101150008F68122F04D08F6817B18F68032F25D1A5
:1011600002F008078FB1586A57074FEAD76C0F276C
:1011700007FA0CF7B8434FEA427C4FEADC6CCF68C1
:1011800007FA0CF73843586210E0186A57074FEA1D
:10119000D76C0F2707FA0CF7B8434FEA427C4FEAA7
:1011A000DC6CCF6807FA0CF7384318621C680F7ABA
:1011B00007F00F000327AF40BC4300FA05F73C439C
:1011C0001C60DC680F7907F003000327AF40BC43C5
:1011D00000FA05F73C43DC600F7A07F003076FB1B4
:1011E0008F68032F0AD0DC6A8F7807F0030003278B
:1011F000AF40BC4300FA05F73C43DC629868012726
:101200009740B843CF7807F001079740384398607C
:101210000F79022F09D19F6A4FF0010C0CFA02FCE2
:1012200047EA0C079F620BE068E00F79012F07D1B6
:101230009F694FF0010C0CFA02FC47EA0C079F6112
:101240008F68012F08D08F68022F05D08F68112F6B
:1012500002D08F68122F09D1586801279740B843F0
:101260000F7AC7F300179740384358608F6807F02C
:101270008057002F42D0594F386801279740B84314
:101280008F6807F48037B7F5803F02D10127974078
:101290003843524F38603F1D386801279740B843A4
:1012A0008F6807F40037B7F5003F02D10127974058
:1012B00038434A4F3F1D38603F1D3868012797402B
:1012C000B8438F6807F48017B7F5801F02D1012754
:1012D00097403843414F083738603F1D3868012731
:1012E0009740B8438F6807F40017B7F5001F02D185
:1012F000012797403843394F0C373860521C0F880C
:101300001741002F7FF417AFF0BD4FF6FF7101803A
:101310000021C17081600F21C160002101718170C5
:1013200070470246002013690B400BB1012000E01A
:10133000002070470146086980B2704702460020CD
:1013400053690B400BB1012000E0002070470146BB
:10135000486980B2704781617047816170478162DE
:1013600070470AB1816100E0816270474161704756
:101370004FF480320A43C261C161C261C269C2696D
:101380007047F0B503461546002200200BB90E4EFB
:1013900008E0012B01D10D4E04E0022B01D10C4ECF
:1013A00000E00C4E344601F00806CEB101F0070211
:1013B000606A97000F26BE40B043960005FA06F615
:1013C0003043606218E0000000080140000C01405A
:1013D00000100140001401400400014000040140DD
:1013E00001F00702206A97000F26BE40B043960026
:1013F00005FA06F630432062F0BD70B502460020C3
:1014000000240AB93E4D08E0012A01D13D4D04E017
:10141000022A01D13C4D00E03C4D2B4601F008056D
:1014200055B101F00704586AA6000F25B540A8433E
:1014300040F00300586209E001F00704186AA600B2
:101440000F25B540A84340F00300186270BD304935
:10145000C861704730B502462E4B8C1053F82430CB
:101460008C07250F0324AC40A3432A4C8D1044F86D
:10147000253023468C1053F824308C07240F02FAB1
:1014800004F41C43234B8D1043F8254030BD0A461D
:101490000021204B1B1F196801238340994302FA46
:1014A00000F319431B4B1B1F1960704702460020B5
:1014B000092A11D1174B1B1F186820F4007011293D
:1014C00002D140F4007003E020F0F00040EA011087
:1014D000104B1B1F186011E0082A0FD10D4B1B1F6A
:1014E000186820F48070102902D140F4807002E066
:1014F00020F00F000843074B1B1F186070470000C7
:1015000000080140000C014000100140001401409F
:101510000000204204000140F848406A40F0040006
:10152000F649486208464068F5490840F349486072
:1015300008460068F3490840F0490860084600681A
:1015400020F48020086008464068EF490840EB49D5
:1015500048604FF4E040C8624010086300204863D0
:101560000864EA4888607047E449096821F48031DA
:10157000E24A11601146096821F480211160B0F53A
:10158000803F03D0B0F5802F0ED106E0DB4909681B
:1015900041F48031D94A116007E0D849096841F423
:1015A000A021D64A116000E000BF00BF704710B50F
:1015B00001460022002300204A11012A02D1CF4C0B
:1015C000236806E0022A02D1CC4C236A01E0CB4C0E
:1015D000636A01F01F02012494401C400CB10120F9
:1015E00000E0002010BD38B5002000900024002548
:1015F00000BF3120FFF7DBFF05460098401C00903C
:101600000098B0F5005F01D0002DF2D03120FFF737
:10161000CEFF08B1012400E00024204638BDB749C0
:10162000096821F00101B54A1160012805D1114670
:10163000096841F00101116000E000BF00BF704780
:1016400038B5002000900024002500BF2120FFF7BE
:10165000AEFF05460098401C00900098B0F5A06FC2
:1016600001D0002DF2D02120FFF7A1FF08B1012405
:1016700000E00024204638BD014600209F4A106843
:1016800020F07C0040EA810010607047A0490860AB
:1016900070479A4A526A22F07002984B5A621A4670
:1016A000526A0A435A6238B104280CD11A46526A67
:1016B00042F004025A6207E0904A526A22F00402A1
:1016C0008E4B5A6200E000BF00BF704738B5002063
:1016D00000900024002500BF6320FFF768FF054647
:1016E0000098401C00900098B0F5A06F01D0002D2C
:1016F000F2D06320FFF75BFF08B1012400E0002473
:10170000204638BD014600207C4A506A20F4FF0084
:1017100040EAC130506270477E490860704730B57A
:101720000B46144600210022744D69682A6C7A4DDC
:10173000294022F0030208B1012804D1194340EAEC
:1017400004052A4303E040EA0305294322436B4D85
:1017500069602A6430BD6E49086670470146002002
:10176000664A506820F003000843506070476348A1
:10177000406800F00C007047014600205F4A506846
:1017800020F0F000084350607047014600205B4A9B
:10179000506820F4E0600843506070470146002024
:1017A000564A506820F4605040EAC10050607047CB
:1017B00031B1524A926842EA0022504B9A6005E0E9
:1017C0004E4A926822EA00224C4B9A607047504978
:1017D000D831086041084E4AC2F8DC107047014613
:1017E0000020464AD06A20F000500843D06270477B
:1017F00001460020414AD06A20F0F8500843D062E8
:101800007047024600203D4BD86A20F4003020F497
:10181000F83010430843D862704702460020374B27
:10182000D86A20F4F87009B1104302E0104320F4A4
:101830008070324BD8627047014600202F4AD06A30
:1018400020F00F000843D0627047024600202B4B67
:10185000186B20F4003020F47840104308431863DC
:10186000704730B12549096B41F48021234A116347
:1018700005E02249096B21F48021204A1163704759
:1018800010B5024600201D4B186B20F40070104369
:10189000186329B11B6B43F08003184C236305E0E8
:1018A000164B1B6B23F08003144C236310BD1349AC
:1018B000096B21F48071114A11631146096B0143D0
:1018C0001163704729B10D4A526B02430B4B5A63A7
:1018D00004E00A4A526B8243084B5A63704731B1A5
:1018E000064A526B42EA0012044B5A6305E0034A6F
:1018F000526B22EA0012014B5A63704700100240FB
:1019000000C0FFF8FEFFF6FEFFFF00F70080BF04F7
:101910000000424288044242FFFFC0F729B1EF4A6B
:10192000D2690243ED4BDA6104E0EC4AD2698243AA
:10193000EA4BDA61704710B5044601210807FFF74A
:10194000EDFFE748006840F48070E5490860E3482F
:10195000406B20F00700E14948630846406B204394
:10196000486310BDDD48406B00F007007047DB495D
:10197000496B21F01801D94A51631146496B014363
:1019800051637047D548406B00F01800704729B18B
:10199000D24A526C0243D14B5A6404E0CF4A526C93
:1019A0008243CE4B5A64704729B1CC4A526C0243F1
:1019B000CA4B5A6404E0C94A526C8243C74B5A640A
:1019C0007047C649496C0143C44A516470470021BD
:1019D000C44A11686FF30801B0F5007F02DB40F2E2
:1019E000FF1001E0C0F308000143BE4A11607047D8
:1019F000F0B505460E46002701210807FFF78EFFC8
:101A0000B748006840F48070B5490860B348046A7C
:101A100024F00D0465B1012D02D0042D18D112E07F
:101A200044F00104AD4804623046FFF7D0FF10E0F7
:101A300000BFAA480462002700E07F1C40F2FF704C
:101A40008742FAD305E044F00404A448046200E0AD
:101A500000BF00BFF0BDA449086070479F49096AF4
:101A600021F440719D4A11621146096A01431162D5
:101A700070479A48006A00F4407070479A494439A8
:101A8000086070479549096A21F02001934A116264
:101A90001146096A0143116270479048006A00F0DC
:101AA00020007047F0B5002100BF0023002600246D
:101AB00000258A4F7F68DFF834C207EA0C03874F9E
:101AC0007F6807F48036854F7F6AC7F3021503F0FD
:101AD00000671FB9022707EB934304E04FF4F87740
:101AE000C7EB93477B1C66B97C4F3F6C07F001073F
:101AF0001FB17F4F03FB07F20FE07E4F03FB07F29E
:101B00000BE0764F7F6807F400371FB17A4F03FB75
:101B100007F202E0764F03FB07F2704F3F6C07F0CD
:101B2000020707B152086D4F7F6807F00C0131B111
:101B3000042909D008290AD00C290DD10AE06F4FD9
:101B400057F8257007600CE06A4F076009E0684F9E
:101B5000076006E0026004E0684F57F825700760F0
:101B600000BF00BF5D4F7F6807F0F0010909644FB7
:101B70007C5C0768E7404760584F7F6807F4E06186
:101B8000090A5F4F7C5C4768E7408760534F7F6876
:101B900007F46051C90A5A4F7C5C4768E740C76048
:101BA0004E4FFF6A07F00F01564F7C5C4768B7FB4A
:101BB000F4F74761494FFF6A07F4F871090901F02A
:101BC0000F07DFF844C13CF81740B2FBF4F7076198
:101BD000F0BD29B1414A52690243404B5A6104E0C9
:101BE0003E4A526982433D4B5A61704729B13B4A94
:101BF00092690243394B9A6104E0384A9269824300
:101C0000364B9A61704729B1344A926A0243334B8A
:101C10009A6204E0314A926A8243304B9A6270477A
:101C200029B12E4AD26802432C4BDA6004E02B4AD9
:101C3000D2688243294BDA60704729B1274A12697A
:101C40000243264B1A6104E0244A12698243234B63
:101C50001A61704724494039086070472B49C864AD
:101C60007047214974390860704700201B49096A90
:101C700001F0100109B1012000E000207047014689
:101C80000020164A506820F07040084350607047AA
:101C900001460020114A506820F0E06040EA0160EF
:101CA000506070470D48406A40F080700B494862B0
:101CB0000846406A20F08070486270470146002064
:101CC000064A92680A400AB1012000E000207047ED
:101CD000024989680143014A91607047001002403F
:101CE00000700040081800408004424200003C0898
:101CF00000127A000024F40000093D0000270008CB
:101D0000C0260008D0260008E02600080000424255
:101D100010B50446E548844209D101218803FFF744
:101D20007FFF00214FF48040FFF77AFF32E0E04868
:101D3000844209D101214804FFF77FFF00214FF4BD
:101D40000030FFF77AFF25E0DA48844209D101210B
:101D50008804FFF772FF00214FF48020FFF76DFF2A
:101D600018E0D548844209D101214804FFF758FF03
:101D700000214FF40030FFF753FF0BE0CF488442BF
:101D800008D101218804FFF74BFF00214FF4802088
:101D9000FFF746FF10BD2DE9F04786B005460F4618
:101DA0000024A24600BF00BF0026B88900B100BFD2
:101DB0002E462C8A4CF6FF700440F88804432C828F
:101DC000AC894EF6F3100440B88839890843798904
:101DD00008430443AC81AC8A4FF6FF400440B88905
:101DE0000443AC826846FFF75DFEB048864205D0EA
:101DF000B148864202D0B148864202D1DDF80CA03B
:101E000001E0DDF808A00AEBCA0000EB0A1039680F
:101E10008900B0FBF1F86420B8FBF0F00401200960
:101E2000642101FB1089322000EB0910B0FBF1F0B6
:101E300000F00F0004432C8106B0BDE8F0874FF49A
:101E40001651016000218180C18001810C214181F6
:101E500000218181704710B502460020108A4FF2A0
:101E6000FF0318400B884C8823438C882343CC887D
:101E700023431843108210BD0021018041808180DE
:101E8000C180704721B1828942F40052828104E00E
:101E900082894DF6FF731A4082817047F0B5034680
:101EA000002400260025002040F66A17B94200D120
:101EB00000BF1846C1F3421401F01F06012707FABC
:101EC00006F5012C01D10C3004E0022C01D11030B8
:101ED00000E014301AB107682F43076002E007687A
:101EE000AF430760F0BD1AB1838A0B43838202E0DF
:101EF000838A8B4383827047028A4FF6F0731A40BD
:101F00000282028A0A430282704782894FF2FF737B
:101F10001A40828182890A438281704721B1828975
:101F200042F00202828104E082894FF6FD731A407A
:101F300082817047028A4FF6DF731A400282028A5A
:101F40000A430282704721B1028A42F4804202822F
:101F500004E0028A4BF6FF731A4002827047C1F315
:101F600008028280704701468888C0F308007047E5
:101F7000818941F0010181817047028BD2B20283D5
:101F8000028B42EA012202837047028B02F47F42F5
:101F90000283028B0A430283704721B1828A42F096
:101FA0002002828204E0828A4FF6DF731A40828226
:101FB000704721B1828A42F01002828204E0828A54
:101FC0004FF6EF731A408282704721B1828A42F045
:101FD0000802828204E0828A4FF6F7731A408282F6
:101FE0007047828A4FF6FB731A408282828A0A43C4
:101FF0008282704721B1828A42F00202828204E02A
:10200000828A4FF6FD731A40828270470246002092
:10201000B1F5007F00D100BF13880B400BB1012048
:1020200000E00020704701F40072B2F5007F00D19B
:1020300000BFCA430280704770B5024600240023E7
:102040000025002040F66A16B14200D100BFC1F35E
:10205000421501F01F03012606FA03F3012D02D1F8
:102060009689334006E0022D02D1168A334001E002
:10207000968A33400C12012606FA04F4168834407E
:1020800013B10CB1012000E0002070BD10B500229A
:10209000002340F66A14A14200D100BF0A120124B5
:1020A0009440A3B2DC43048010BD0000003801401E
:1020B00000440040004800400050014000540140EE
:1020C00000F046FA09A000F0BDFA0D48006800F0E3
:1020D000F1F900F0DCF800F05BF800F09BF803E0A9
:1020E00000F04CF900F07FF9FAE700000D0A204CEF
:1020F0006F6F704261636B5F43414E0D0A000000D9
:1021000000000020704700BFFEE700BFFEE700BFF1
:10211000FEE700BFFEE7704770470F480068401CAD
:102120000D490860704710B50C48007800EB80003E
:102130000B4901EB800200210A48FEF7CAFC074860
:1021400001780078401C054A10700A2902DB002043
:102150001146087010BD00001C0000200500002082
:10216000640000200064004008B54FF4C060FEF732
:10217000E9F936208DF8000000208DF801008DF877
:10218000020001208DF803006846FEF7E0F908BD63
:102190001FB56846FFF7B9F801210520FFF726FDB6
:1021A0004FF40060ADF800000020029001208DF88F
:1021B000040003906946A448FEF7B5FF4FF4805031
:1021C000ADF800000220029069469F48FEF7ABFF81
:1021D0001FBD1FB500208DF80A008DF80B000120EF
:1021E0008DF80C00C003ADF80000ADF8020000202F
:1021F000ADF80400ADF80600ADF8080001208DF838
:102200000D006846FEF7A2FA012202218F48FEF770
:1022100089FD1FBD0EB501214806FFF77FFB8B48E6
:10222000FEF7FEF96846FEF712FB00208DF8060067
:102230008DF807008DF808008DF809008DF80A0068
:1022400001208DF80B008DF8020000208DF80300AE
:1022500009208DF8040004208DF805000220ADF857
:10226000000069467948FEF7E7F9FFF7B2FFFFF78C
:102270007BFF012202217548FEF754FD0EBD70B5AB
:1022800004460D4629462046FEF737FB70BD002068
:102290004FF480616E4A1160002111725172082161
:1022A000917200BF06E06B490A5C69490B310A5420
:1022B000411CC8B20828F6DB674A65498A610422D6
:1022C0000A7700224A7708228A77002006E06349CD
:1022D0000A5C5F491F310A54411CC8B20828F6DB6A
:1022E00070470146087A18B90868B0F5806F06D1C2
:1022F000087A042805D1584A4868904201D0002045
:102300007047487A08B10020FAE7887A082801D097
:102310000020F5E7C87A012802D0C87A082829D118
:10232000087B022802D0087B072823D1487B03289A
:1023300002D0487B06281DD1887B042802D0887BE8
:10234000052817D1C87B052802D0C87B042811D1E5
:10235000087C062802D0087C03280BD1487C07287B
:1023600002D0487C022805D1887C082804D0887CCB
:10237000012801D00020C3E70120C1E710B50024E7
:10238000374800783749097888422BD03549097891
:1023900001EB8101344A02EB8100FFF7A2FF18B97B
:1023A00032A000F04FF902E038A000F04BF9002411
:1023B0000BE000212B48007800EB80002A4A02EB5A
:1023C00080000B300155601CC4B2082CF1DB25489D
:1023D00001780078401C234A10700A2902DB002093
:1023E0001146087010BD70B500264FF6FF742F48D7
:1023F000006800F094F8B0F57A7F24D92B4800F0FB
:102400009DF82B48057805EBD5704010A5EB4000F2
:1024100000EB80000E4A02EB80010C48FFF72FFF13
:10242000064601E0601E84B231460848FEF7F8FA1D
:10243000012801D0002CF5D14FF6FF741C4800781C
:10244000401C1B49087070BD00080140006400403A
:102450003C00002007000020785634120F000020B6
:102460000500002006000020640000200D0A204323
:102470006865636B205258204D65737361676520F2
:102480004661696C6564200D0A0000000D0A204356
:102490006865636B205258204D65737361676520D2
:1024A000506173736564200D0A000000180000205D
:1024B0000400002070B503464FF47A70B3FBF0F1CE
:1024C000481EB0F1807F01D301201BE0481E4FF071
:1024D000E022506150170F22002804DB1407250E5C
:1024E000184C255406E01407260E174C00F00F0573
:1024F0002D1F665500BF00204FF0E022906107209D
:102500001061002008B100BFFEE770BD4FF0E02071
:10251000006920F001004FF0E0210861704701469A
:102520000A480068884203D308480068401A704788
:10253000C1F1FF30054A12681044F8E70349096801
:102540000160704700E400E018ED00E01C0000208E
:1025500000B589B005A8FEF7D8FE01210520FFF7D8
:1025600045FB01218803FFF741FB4FF40070ADF8F4
:1025700014000220079000208DF817000420089016
:1025800005A92448FEF7CFFD4FF4E130019000206B
:10259000ADF80800ADF80A00ADF80C00ADF8100079
:1025A0000820ADF80E0001A91B48FFF7F4FB01213C
:1025B0001948FFF767FC09B000BD70B504460D4629
:1025C0000D2C03D101201549086016E00A2C11D109
:1025D0001248006850B90D210F48FFF7C0FC00BF3A
:1025E00040210D48FFF712FD0028F9D000200B49CB
:1025F000086002E0002009490860E1B20648FFF7E0
:10260000AEFC00BF40210448FFF700FD0028F9D0D0
:10261000204670BD00080140003801402000002025
:10262000064C074D06E0E06840F0010394E807001F
:1026300098471034AC42F6D3FDF78AFD1C270008FA
:102640003C270008014A024900F013B8BB250008E6
:102650002400002002E008C8121F08C1002AFAD195
:1026600070477047002001E001C1121F002AFBD112
:1026700070472DE9F04116460F460446002503E059
:102680003946B047641C6D1C20780028F8D12846D4
:10269000BDE8F0810000000000000000010203041A
:1026A00006070809A0860100400D0300801A0600F5
:1026B00000350C0040420F0080841E0000093D00E0
:1026C00000000000010203040102030406070809D8
:1026D00001020406080A0C102020202020202020BF
:1026E000010002000400060008000A000C001000AF
:1026F00020004000800000010001000100010001F5
:10270000A0860100400D0300801A060000350C0071
:1027100040420F0080841E0000093D003C27000855
:10272000000000202800000054260008642700084C
:102730002800002008160000642600080090D0033E
:102740000000000102030405060708080706050447
:102750000302010000000000000000000000000073
:042760000000000075
:0400000508000149A5
:00000001FF
