:020000040800F2
:10000000401700205D010008F11E0008850B000864
:10001000ED1E000819020008112B00080000000066
:10002000000000000000000000000000F1230008B4
:10003000A50500080000000073010008E92400087D
:1000400077010008770100087701000877010008B0
:1000500077010008770100087701000877010008A0
:100060007701000877010008770100087701000890
:100070007701000877010008770100087701000880
:10008000A10200083D03000877010008770100087D
:100090007701000877010008770100087701000860
:1000A0007701000877010008770100087701000850
:1000B000770100087701000877010008090C0008A3
:1000C000890B000877010008770100087701000814
:1000D0007701000877010008770100087701000820
:1000E0007701000877010008770100087701000810
:1000F0007701000877010008770100087701000800
:1001000077010008770100087701000877010008EF
:1001100077010008770100087701000877010008DF
:1001200077010008770100087701000877010008CF
:1001300077010008770100087701000877010008BF
:100140007701000877010008DFF80CD000F040F8D4
:10015000004800471D2E0008401700200648804731
:1001600006480047FEE7FEE7FEE7FEE7FEE7FEE79C
:10017000FEE7FEE7FEE7FEE7ED2400084901000880
:1001800040EA01039B0703D009E008C9121F08C019
:10019000042AFAD203E011F8013B00F8013B521E99
:1001A000F9D2704730B50B460146002020220124C9
:1001B00009E021FA02F59D4205D303FA02F5491B35
:1001C00004FA02F52844151EA2F10102F1DC30BD4B
:1001D000064C074D06E0E06840F0010394E8070094
:1001E00098471034AC42F6D3FFF7B2FF1C32000838
:1001F0003C32000810B5034607E018780C78A0429E
:1002000001D0002010BD5B1C491C101EA2F101048E
:10021000A2B2F2D10120F5E700BFFEE7002040F2D4
:10022000596172B600BF1C4A126902F00202022A2A
:1002300003D00A1EA1F10101F5D100BF174A1268CF
:1002400022F00072154B1A601A46126842F00072D2
:100250001A6000BF104A106820F4C06040F480604B
:10026000106040F2596100BF0B4A126902F00202AD
:100270001AB10A1EA1F10101F6D140F2596100BF85
:10028000054A126902F00202022A03D00A1EA1F1F5
:100290000101F5D162B6704700700040201800409F
:1002A00010B52249080100F0FDF858B32048008835
:1002B00000F0010010B300211D48183801F08EFA3B
:1002C00000211A486C3000F08DF800BF1949184819
:1002D000183801F04FFB0028F8D0012114481838D5
:1002E00001F004FB00BF4FF400311148183801F051
:1002F00041FB0028F7D102200F4908700B49080183
:1003000000F052F80949C80000F0CCF818B10749CC
:10031000C80000F049F80549480100F0C3F818B1D9
:100320000249480100F040F810BD00000000024002
:1003300018540040040000103000002010B5174988
:10034000080200F0AFF8A8B11548008800F00100DD
:1003500060B100211248183801F040FA012110481C
:10036000183801F0C3FA00200E4908700B49080242
:1003700000F01AF80949C80100F094F818B10749CB
:10038000C80100F011F80549480200F08BF818B1D7
:100390000249480200F008F810BD000000000240C9
:1003A000185400403000002070B504460D4604B1DA
:1003B00005E040F2CB12034903A002F0A7FC6C60F9
:1003C00070BD0000D42F000849535F444D415F4386
:1003D0004C4541525F464C414728444D41466C6173
:1003E0006729000070B504460D461E4884421BD0A4
:1003F0001C481430844217D01A482830844213D045
:1004000018483C3084420FD01648503084420BD0FC
:1004100014486430844207D012487830844203D0B4
:1004200010488C30844200D105E04FF487720E49A9
:100430000EA002F06BFC0DB1012D00D105E040F2E1
:100440000F12094910A002F061FC25B1206840F0AC
:100450000100206004E020684FF6FE710840206033
:1004600070BD000008000240D42F000849535F44CB
:100470004D415F414C4C5F50455249504828444DD6
:10048000414368782900000049535F46554E435464
:10049000494F4E414C5F535441544528436D6429A4
:1004A000000000002DE9F04104460D46002600271B
:1004B000012C55D0022C53D0042C51D0082C4FD0F5
:1004C000102C4DD0202C4BD0402C49D0802C47D024
:1004D000B4F5807F44D0B4F5007F41D0B4F5806F8F
:1004E0003ED0B4F5006F3BD0B4F5805F38D0B4F5A2
:1004F000005F35D0B4F5804F32D0B4F5004F2FD027
:10050000B4F5803F2CD0B4F5003F29D0B4F5802F4E
:1005100026D0B4F5002F23D0B4F5801F20D0B4F539
:10052000001F1DD0B4F5800F1AD0B4F5000F17D0FE
:10053000B4F1807F14D0B4F1007F11D0B4F1806F9A
:100540000ED0B4F1006F0BD0B4F1805F08D0B4F1DD
:10055000005F05D0B4F1804F02D0B4F1004F00D15C
:1005600005E04FF4C572074907A002F0CFFB2F68E2
:1005700007EA040008B1012600E000263046BDE885
:10058000F0810000D42F000849535F444D415F477C
:1005900045545F464C414728444D41466C616729AC
:1005A00000000000704700002DE9F04706460C46A9
:1005B0004FF000090025A8460027AA46FD488642BC
:1005C00008D0FD48864205D0FC48864202D0FC484F
:1005D000864200D104E0E422FA49FBA002F096FB37
:1005E000A06830B3A068012823D0A068112820D0CB
:1005F000A06802281DD0A06812281AD0F949A06866
:10060000884216D0F849A068884212D0F749A068FD
:1006100088420ED0F649A06888420AD0F549A06801
:10062000884206D0F449A068884202D0A068032816
:1006300000D104E0E522E349F0A002F067FB0020CE
:1006400010B9208800B104E0E622DE49F6A002F0ED
:100650005DFB207928B12079012802D02079022879
:1006600000D104E0E722D749F8A002F04FFBE07880
:1006700010B1E078012800D104E0E822D149FEA0C1
:1006800002F044FB69E220880121B94000EA010A36
:10069000BAF1000F7ED04FEA4709A068022807D0C0
:1006A000A068122804D0A06810B1A068032872D1F5
:1006B000E068002870D0E0680128FBD0E0680028DE
:1006C000F8D0E0680128F5D0E0680028F2D0E068B2
:1006D0000128EFD0E0680028ECD0E06801285BD06A
:1006E000E068002858D0E068012855D0E06800286C
:1006F00052D0E06801284FD0E06800284CD0E06874
:10070000012849D0E068002846D0E068012843D09D
:10071000E068032840D0E06802283DD0E068052862
:100720003AD0E068022837D0E068052834D0E06885
:10073000022831D0E06805287ED0E06802287BD00E
:10074000E068052878D0E068022875D0E0680528C0
:1007500072D0E06802286FD0E06805286CD0E068AD
:10076000042869D0E068052866D0E068042863D0D2
:10077000E068052860D0E06804285DD0E0680628BD
:100780005AD0E068042857D0E068062854D0E068C2
:10079000042802E00CE171E04EE04DD0E06806284C
:1007A0004AD0E068042847D0E068062844D0E068D2
:1007B000042841D0E06806283ED0E06807283BD0F6
:1007C000E068062838D0E068072835D0E0680628B9
:1007D00032D0E06807282FD0E06806282CD0E068E7
:1007E000072829D0E068082826D0E068072823D009
:1007F000E068082820D0E06807281DD0E0680828B5
:100800001AD0E068072817D0E068092814D0E068FB
:10081000072811D0E06809280ED0E06807280BD01F
:10082000E0680A2808D0E0680B2805D0E0680F28A7
:1008300002D0E0680F2800D104E0F82261499BA0B3
:1008400002F064FA07F0080060B1756A7807C10E1B
:100850000F20884085437907C90EE068884005432A
:1008600075620BE0356A7807C10E0F20884085431A
:100870007907C90EE068884005433562D6F80080E4
:10088000207A00F00F05032000FA09F028EA00089A
:1008900005FA09F040EA0808C6F80080D6F80C808E
:1008A000207900F00305032000FA09F028EA000887
:1008B00005FA09F040EA0808C6F80C80207A00F032
:1008C000030020B3A068032821D0A07840B1A0780D
:1008D000102805D0A078012802D0A078112800D1D6
:1008E00005E040F21B1237497BA002F00FFAD6F860
:1008F0002C80A07800F00305032000FA09F028EA14
:10090000000805FA09F040EA0808C6F82C80B56826
:100910000120B8408543E07800F00100B84005436D
:10092000B5602079022805D1B06A0121B940084399
:10093000B06206E02079012803D1B169B8400143D3
:10094000B161A068012808D0A068022805D0A0687D
:10095000112802D0A068122809D175680120B8407A
:100960008543207AC0F30010B84005437560A06845
:1009700000F08050E0B1644805680120B84085432C
:10098000A06800F48030B0F5803F02D10120B8406B
:1009900005435D480560001D05680120B84085439A
:1009A000A06800F40030B0F5003F02D10120ADE0B6
:1009B000D2E0ADE000080140000C01400010014011
:1009C000001401401C30000849535F4750494F5FF5
:1009D000414C4C5F504552495048284750494F7848
:1009E000290000000000111000002110000031104B
:1009F00000001210000022100000321049535F471F
:100A000050494F5F4D4F4445284750494F5F496E0D
:100A100069745374727563742D3E4750494F5F4D2E
:100A20006F6465290000000049535F4750494F5FDC
:100A300050494E284750494F5F496E69745374724C
:100A40007563742D3E50696E2900000049535F475D
:100A500050494F5F50554C4C284750494F5F496EA5
:100A600069745374727563742D3E4750494F5F50DB
:100A7000756C6C290000000049535F4750494F5F77
:100A8000534C45575F52415445284750494F5F49A1
:100A90006E69745374727563742D3E4750494F5F8D
:100AA000536C65775F5261746529000049535F4755
:100AB00050494F5F4146284750494F5F496E69741E
:100AC0005374727563742D3E4750494F5F416C7487
:100AD00065726E617465290049535F4750494F5FE5
:100AE00043555252454E54284750494F5F496E690D
:100AF000745374727563742D3E4750494F5F43754C
:100B00007272656E7429000000040140B84005430C
:100B100015480560001D05680120B8408543A068A0
:100B200000F48010B0F5801F02D10120B8400543C9
:100B30000D48001D0560001D05680120B840854373
:100B4000A06800F40010B0F5001F02D10120B840E9
:100B500005430548083005607F1C2088384100287F
:100B60007FF491ADBDE8F087040401404FF6FF71BA
:100B700001800021C17081600F21C16000210171DD
:100B80008170704700BFFEE710B51A491A4800F09F
:100B9000F1FEC0B11948007820B10121164800F0DB
:100BA00061FE0CE014481830008800F0010030B1FC
:100BB0000121114800F09AFE0320114908700D49E7
:100BC0000D4800F0A3F90F490B4800F0D3FE80B1A7
:100BD00009481830008800F0010030B101210648B2
:100BE00000F084FE0320064908700649024800F020
:100BF0008DF910BD000400100054004008000020D2
:100C0000300000200001001010B5634800F052FFD2
:100C100004466249601A8C427BD008DC6FF4403095
:100C2000204448B101282CD03F2829D12AE00228AD
:100C300051D00428F9D175E05948007810B9022044
:100C40005849087058480078012813D1574800784F
:100C500030B95748017800224F4801F0E1F80FE021
:100C60005348017801224C4801F0DAF800204F493E
:100C7000087005E04E4801780022474801F0D0F89E
:100C800088E087E0444801F0A9F84A4909680870FB
:100C900048480068401C4749086047480088401E93
:100CA0004549088008460088012807D100213A48B4
:100CB00000F06CF90121384800F018FE3E48008829
:100CC00040B900224FF4E061334800F0A3F900205E
:100CD000344908705EE03248007888B1002030491D
:100CE000087000224FF4E0612B4800F093F90121D5
:100CF000294800F0FBFD00202A4908704AE008E07E
:100D00002E480178244801F0CFF8012027490870C7
:100D100040E025480078012803D101211E4800F059
:100D2000A1FD37E02048007810BB2548008800BBB3
:100D30000121194800F0DAFD4FF4C820214908606C
:100D400008E0204801680068401E1E4A106009B98A
:100D500002F006F94FF400310F4800F00BFE0028B6
:100D6000EFD101200E49087001210B4800F07AFDF7
:100D70000FE0154802880088401C134B1880134868
:100D8000815C054801F090F80D480088401E0C4930
:100D9000088000BF00BF10BD005400408000070065
:100DA0000800002030000020100000200900002072
:100DB000120000201C0000202E0000201400002043
:100DC0002C0000200C0000202A000020220000201F
:100DD0002DE9F04705460C460027B9460026B046E7
:100DE0003448854202D03448854200D105E040F2C3
:100DF0000142324932A001F089FF364884423DD099
:100E0000B4F1021F3AD03448844237D0B4F5020F0F
:100E100034D0B4F5901F31D0304884422ED03048C1
:100E200084422BD02F48844228D02A48801C8442F8
:100E300024D02948001D844220D02B4884421DD054
:100E4000102C1BD02948844218D02948844215D040
:100E50002648401C844211D024483F3084420DD0A3
:100E60002348801C844209D0001F844206D01F48BA
:100E7000C01D844202D0B4F5806F00D105E040F27D
:100E800002420E491BA001F041FFB5F814902E8BD1
:100E9000360449EA060020F07F4707EA0400A04232
:100EA00002D14FF0010801E04FF000084046BDE8D4
:100EB000F0870000005400400058004064300008F3
:100EC00049535F4932435F5045524950482849329F
:100ED000437829008200060080008600400002005E
:100EE0004000820040001200840016000100030050
:100EF0008200070049535F4932435F4556542849F1
:100F000032435F4556454E542900000070B50446F3
:100F10000D4600260E48844202D00E48844200D17D
:100F200005E040F2A5420C490CA001F0EFFE42F2B0
:100F3000FF00284008B905B105E040F2A642064985
:100F40000BA001F0E3FE25F07F46F043A08270BDC8
:100F500000540040005800406430000849535F4985
:100F600032435F504552495048284932437829005E
:100F700049535F4932435F434C525F464C414728D7
:100F80004932435F464C41472900000070B5044692
:100F90000D461148844202D01048844200D105E039
:100FA00040F2C7120E490FA001F0B0FE0DB1012DA5
:100FB00000D105E04FF4E47209490FA001F0A6FE4C
:100FC00025B1208840F48060208004E020884FF61E
:100FD000FF310840208070BD0054004000580040A0
:100FE0006430000849535F4932435F5045524950CD
:100FF000482849324378290049535F46554E4354A7
:10100000494F4E414C5F535441544528436D642928
:101010000000000070B504460D461646154884428F
:1010200002D01548844200D105E040F22A2213493B
:1010300013A001F06BFE0EB1012E00D105E040F2CD
:101040002B220E4913A001F061FE4FF6FF0028404D
:1010500008B905B105E04FF40B72084914A001F07E
:1010600055FE1EB1A0882843A08002E0A088A843B6
:10107000A08070BD0054004000580040643000085B
:1010800049535F4932435F504552495048284932DD
:101090004378290049535F46554E4354494F4E41CA
:1010A0004C5F535441544528436D642900000000AF
:1010B00049535F4932435F4346475F494E5428498D
:1010C00032435F495429000010B504461148844258
:1010D00002D01148844200D104E0AF220F4910A091
:1010E00001F014FE0B48844209D10121480501F0AA
:1010F0003DF800214FF4001001F038F808E001211C
:10110000880501F033F800214FF4800001F02EF83B
:1011100010BD00000054004000580040643000083A
:1011200049535F4932435F5045524950482849323C
:101130004378290000B589B005A8FFF717FD012104
:10114000480500F0C7FF2C48FFF7BEFF012108202B
:1011500001F058F80121082001F054F8C020ADF842
:10116000140000208DF8170012200790012008902D
:101170008DF8180005A92148FFF716FA1E48FFF759
:10118000A3FF0020ADF808004BF6FF70ADF80A0091
:10119000FF20ADF80C004FF48060ADF80E000001A8
:1011A000ADF810001648019001A9134800F0B0FCFA
:1011B0004FF4A06000F038FF1F208DF800000120E0
:1011C0008DF8020000208DF8010001208DF8030049
:1011D000684600F08FFE20208DF8000000208DF87A
:1011E00002008DF8010001208DF80300684600F030
:1011F00081FE09B000BD000000540040000C014019
:10120000801A060070B504460D46164600201F4998
:10121000087001201E490870A0201E4908801E4841
:10122000058000201D490870324621461C48FEF703
:10123000A7FF00201B4908801B48068001211B488E
:10124000FFF7A4FE01224FF4E0611848FFF7E2FE29
:101250004FF4C8201649086008E015480168006886
:10126000401E134A106009B901F07AFE4FF40031B4
:101270000E4800F07FFB0028EFD101210B4800F061
:10128000F1FA00F0B5F900F047FA70BD1000002047
:10129000300000201200002014000020090000206F
:1012A000220000202A0000202C00002000540040D2
:1012B0000C00002070B504460E4615464FF4C820B9
:1012C000C649086008E0C54801680068401EC34A76
:1012D000106009B901F044FE4FF40031C04800F03D
:1012E00049FB0028EFD1BE48008820F40060BC49CB
:1012F00008800121BA48FFF749FE0121B84800F0F3
:10130000B1FA4FF4C820B549086008E0B348016855
:101310000068401EB14A106009B901F021FEB149D0
:10132000AF48FFF755FD0028F0D00022A021AC48BF
:1013300000F076FD4FF4C820A849086008E0A748EF
:1013400001680068401EA54A106009B901F008FE56
:10135000A549A348FFF73CFD0028F0D00121A04893
:1013600000F0F8F9F1B29E4800F09EFD4FF4C8205D
:101370009A49086008E0994801680068401E974A49
:10138000106009B901F0ECFD9749891C9448FFF7FA
:101390001FFD0028EFD00121914800F063FA4FF4BF
:1013A000C8208E49086008E08C4801680068401E2B
:1013B0008A4A106009B901F0D3FD8A498848FFF7CD
:1013C00007FD0028F0D00122A021854800F028FD6B
:1013D0004FF4C8208149086008E08048016800682F
:1013E000401E7E4A106009B901F0BAFD7F497C4871
:1013F00000F0C0FA0028F0D0012D0ED1002178486D
:10140000FFF7C4FD7648143000887548183000880E
:101410000121734800F06AFA1CE0022D10D17048D7
:10142000008840F400606E4908806D4814300088E0
:101430006B481830008800216948FFF7A7FD09E0D4
:1014400001216748FFF7A2FD654814300088644811
:1014500018300088BDE0032D7EDC012D1CD14FF437
:10146000C8205E49086008E05C4801680068401ECA
:101470005A4A106009B901F073FD5C493E31584881
:1014800000F078FA0028EFD0554800F0A7FC207053
:10149000641C681E85B29CE0022D27D14FF4C82041
:1014A0004E49086008E04D4801680068401E4B4AFC
:1014B000106009B901F054FD4C49891C484800F0FE
:1014C00059FA0028EFD00121454800F00FFA4448AE
:1014D00000F084FC2070641C681E85B2404800F057
:1014E0007DFC2070641C681E85B272E04FF4C82039
:1014F0003A49086008E0394801680068401E374AE8
:10150000106009B901F02CFD3849891C344800F0FD
:1015100031FA0028EFD000213148FFF737FD30487D
:1015200000F05CFC2070641C681E85B24FF4C8207B
:101530002A49086008E0294801680068401E274AD7
:10154000106009B901F00CFD2849891C244800F0FD
:1015500011FA0028EFD000E012E00121204800F04D
:10156000C5F91F4800F03AFC2070641C681E85B263
:101570001B4800F033FC2070641C681E85B228E014
:101580004FF4C8201549086008E014480168006855
:10159000401E124A106009B901F0E2FC11493F31C6
:1015A0000F48FFF715FC0028EFD00D4800F016FC9F
:1015B0002070641C681E85B20C49891C084800F024
:1015C000D9F930B1064800F009FC2070641C681E8F
:1015D00085B2002D7FF43FAF70BD00000C000020ED
:1015E00000540040010003008200070002000010C8
:1015F00010B54FF4C8200849086008E006480168A3
:101600000068401E044A106009B901F0A9FC0348B3
:1016100000780028F2D110BD0C000020300000201E
:1016200070B504460D4616464FF400310C4800F0E4
:10163000A1F900B170BD0B4804600B4805800B4850
:10164000068007E0094802880748018805480068C5
:1016500000F00EF8054800880028F3DC00BFE9E739
:10166000005400401C000020200000201600002034
:101670002DE9F04782460D4614464FF0000800263B
:10168000B14600272846E91705EB5171C910A5EBB3
:10169000C10101F0FF09C9F10800C7B22046E117F6
:1016A00004EB5171C1F3C708E11704EB5171C91084
:1016B000A4EBC101CEB2002016490870B9F1000FA9
:1016C00013D1B8F1000F07D10846067032462946FB
:1016D0005046FFF797FD1BE008200E4908700822CE
:1016E00029465046FFF78EFD12E0B8F1000F07D1F2
:1016F00008480670324629465046FFF783FD07E04A
:1017000037B1044807703A4629465046FFF77AFD3C
:10171000BDE8F087180000200A4800680A490978E7
:1017200008440849086009480088074909780844BE
:10173000064908800648008803490978401A044988
:10174000088070471C0000201800002020000020A6
:101750001600002070B504460D461148844202D0A0
:101760001048844200D105E04FF4AA720E490FA040
:1017700001F0CCFA0DB1012D00D105E040F2551277
:1017800009490FA001F0C2FA25B1208840F00100FC
:10179000208004E020884FF6FE710840208070BD54
:1017A00000540040005800406430000849535F492D
:1017B00032435F5045524950482849324378290006
:1017C00049535F46554E4354494F4E414C5F535425
:1017D00041544528436D64290000000070B504465B
:1017E0000D461148844202D01048844200D105E0E1
:1017F00040F26B120E490FA001F088FA0DB1012DD5
:1018000000D105E04FF4B67209490FA001F07EFA4D
:1018100025B1A08840F40060A08004E0A0884FF2C9
:10182000FF710840A08070BD005400400058004087
:101830006430000849535F4932435F504552495074
:10184000482849324378290049535F46554E43544E
:10185000494F4E414C5F535441544528436D6429D0
:101860000000000070B504460D461148844202D0C5
:101870001048844200D105E040F299120E490FA0B1
:1018800001F044FA0DB1012D00D105E04FF4CD7205
:1018900009490FA001F03AFA25B1208840F4807080
:1018A000208004E020884FF6FF610840208070BD52
:1018B00000540040005800406430000849535F491C
:1018C00032435F50455249504828493243782900F5
:1018D00049535F46554E4354494F4E414C5F535414
:1018E00041544528436D64290000000070B504464A
:1018F0000D461148844202D01048844200D105E0D0
:101900004FF4D8720E490FA001F000FA0DB1012D6D
:1019100000D105E040F2B11209490FA001F0F6F93B
:1019200025B1208840F40070208004E020884FF624
:10193000FF510840208070BD005400400058004016
:101940006430000849535F4932435F504552495063
:10195000482849324378290049535F46554E43543D
:10196000494F4E414C5F535441544528436D6429BF
:10197000000000007CB505460C46002600200190C2
:1019800000903748854202D03648854200D105E0B4
:1019900040F25B42344935A001F0B8F9B4F5000FCC
:1019A0003FD0B4F5800F3CD0B4F5001F39D0B4F56A
:1019B000801F36D0B4F5802F33D0B4F5003F30D03F
:1019C000B4F5803F2DD02E4884422AD02D48844241
:1019D00027D0B4F1102F24D02B48844221D02B489B
:1019E00084421ED02A4884421BD02A48844218D000
:1019F00028488038844214D02648C038844210D009
:101A00002448F03884420CD02248F838844208D068
:101A1000001F844205D0801E844202D0401E8442B2
:101A200000D105E040F25C420F491BA001F06EF9C5
:101A30000095200F019024F07F44019818B1009880
:101A40001430009003E0240C0098183000900098A7
:101A50000068204008B1012600E0002630467CBD29
:101A600000540040005800406430000849535F496A
:101A700032435F5045524950482849324378290043
:101A8000008000100040001000080010000400104A
:101A9000000200100001001049535F4932435F47C4
:101AA00045545F464C4147284932435F464C4147C5
:101AB000290000002DE9F0410446002600270025FA
:101AC0000B48844202D00B48844200D105E040F22A
:101AD0002A42094909A001F019F9A78A258B2D048A
:101AE00047EA050020F07F463046BDE8F08100005F
:101AF00000540040005800406430000849535F49DA
:101B000032435F50455249504828493243782900B2
:101B10002DE9F04387B005460C460026B146042760
:101B2000DFF87C815F48854202D05F48854200D162
:101B300004E0CF225D495EA001F0E8F8206820B102
:101B400060492068884200D804E0D02257495EA04E
:101B500001F0DCF8A08828B1A088022802D0A08873
:101B60000A2800D104E0D122504962A001F0CEF849
:101B7000E088B0F5804F04D0E0884BF6FF718842D2
:101B800000D104E0D222494965A001F0BFF82089C4
:101B9000B0F5806F00DA04E0D32244496DA001F073
:101BA000B5F86089B0F5806F01D0608900B904E0B4
:101BB000D4223E4972A001F0A9F8A089B0F5804F67
:101BC00003D0A089B0F5404F00D104E0D5223749B9
:101BD00076A001F09BF8AE884FF6C070064001A8D1
:101BE00000F05CFBDDF80C803648B8FBF0F01FFA23
:101BF00080F946EA0906AE8028884FF6FE71084053
:101C0000288000267449206888420CD8206840004B
:101C1000B8FBF0F087B2042F00DA04273E4309F145
:101C20000100288427E0E0884BF6FF71884206D146
:101C3000206800EB4000B8FBF0F087B209E02068B4
:101C400000EBC00101EB0010B8FBF0F087B247F4E5
:101C50008047C7F30B0008B947F0010747F400407D
:101C600006434FF4967009FB00F04FF47A7190FB35
:101C7000F1F0401C2884AE83288840F001002880C1
:101C80002E884FF6F5300640A08861890843064348
:101C90002E80A08921890843288107B0BDE8F08300
:101CA00000127A00005400400058004064300008E0
:101CB00049535F4932435F504552495048284932A1
:101CC0004378290040420F0049535F4932435F4344
:101CD0004C4B5F5350454544284932435F496E6938
:101CE000745374727563742D3E436C6B53706565E9
:101CF0006429000049535F4932435F4255535F4DA9
:101D00004F4445284932435F496E69745374727574
:101D100063742D3E4275734D6F64652900000000A9
:101D200049535F4932435F464D5F445554595F43C1
:101D300059434C45284932435F496E697453747264
:101D40007563742D3E466D447574794379636C6593
:101D50002900000049535F4932435F4F574E5F41AE
:101D600044445231284932435F496E697453747256
:101D70007563742D3E4F776E4164647231290000A3
:101D800049535F4932435F41434B5F53544154458C
:101D9000284932435F496E69745374727563742DB8
:101DA0003E41636B456E61626C65290049535F4932
:101DB00032435F414444525F4D4F444528493243CA
:101DC0005F496E69745374727563742D3E41646427
:101DD000724D6F6465290000A086010010B50446AD
:101DE0000748844202D00748844200D105E040F20F
:101DF0004F22054905A000F089FF208AC0B210BD1E
:101E000000540040005800406430000849535F49C6
:101E100032435F504552495048284932437829009F
:101E200070B504460E4615460F48844202D00F484E
:101E3000844200D105E04FF418720D490DA000F066
:101E400065FF0DB1012D00D105E040F26122084986
:101E50000DA000F05BFF15B146F0010602E04FF661
:101E6000FE700640268270BD0054004000580040BD
:101E70006430000849535F4932435F50455249502E
:101E8000482849324378290049535F4932435F4427
:101E90004952454354494F4E284932435F44697281
:101EA000656374696F6E290070B504460D46074876
:101EB000844202D00648844200D105E040F242222A
:101EC000044905A000F022FF258270BD00540040A7
:101ED000005800406430000849535F4932435F5066
:101EE00045524950482849324378290000BFFEE74F
:101EF000704700002DE9F0410446002500270F2619
:101F0000E07810B1E078012800D104E07E2222A11F
:101F100031A000F0FBFE6078102800DA04E07F2298
:101F20001DA13C4800F0F2FEA078102800DA04E081
:101F3000802219A1384800F0E9FEE07800B3374864
:101F4000006800F4E060C0F5E060050AC5F1040730
:101F5000EE40607800FA07F5A078304005432D0187
:101F60002F4822788554207800F01F0101208840F6
:101F700021784911890001F1E021C1F8000109E04F
:101F8000207800F01F010120884026492278521154
:101F900041F82200BDE8F0812E2E5C2E2E5C2E2E04
:101FA0005C2E2E5C2E2E5C2E2E5C6669726D776127
:101FB00072655C6E33326C3430785F7374645F705A
:101FC00065726970685F6472697665725C7372636A
:101FD0005C6D6973632E630049535F46554E4354ED
:101FE000494F4E414C5F5354415445284E56494346
:101FF0005F496E69745374727563742D3E4E564911
:10200000435F4952514368616E6E656C436D64294C
:1020100000000000CC310008883100080CED00E021
:1020200000E400E080E100E010B50446B4F5E06FA4
:102030000BD0B4F5C06F08D0B4F5A06F05D0B4F5DF
:10204000806F02D0B4F5407F00D104E06D2204A17E
:1020500013A000F05BFE1D4820431D49086010BD21
:102060002E2E5C2E2E5C2E2E5C2E2E5C2E2E5C2EAA
:102070002E5C6669726D776172655C6E33326C34AA
:1020800030785F7374645F7065726970685F6472E2
:10209000697665725C7372635C6D6973632E63004D
:1020A00049535F4E5649435F5052494F5249545924
:1020B0005F47524F5550284E5649435F5072696FE3
:1020C0007269747947726F75702900000000FA0513
:1020D0000CED00E070B504460D461148204008B9EB
:1020E00004B105E04FF4C7620E490FA000F00EFEE8
:1020F0000DB1012D00D105E040F23962094913A06C
:1021000000F004FE2DB11848C06920431649C8618B
:1021100004E01548C069A0431349C86170BD0000C0
:1021200000F0194DAC30000849535F5243435F4102
:102130005042315F504552495048285243435F4115
:1021400050423150657269706829000049535F46FA
:10215000554E4354494F4E414C5F535441544528CA
:10216000436D6429000000000010024070B5044671
:102170000D461148204008B904B105E040F28762DD
:102180000E490FA000F0C2FD0DB1012D00D105E0F8
:102190004FF4D162094913A000F0B8FD2DB11848E1
:1021A000006920431649086104E015480069A0430E
:1021B0001349086170BD000000F0194DAC300008F3
:1021C00049535F5243435F415042315F504552494A
:1021D0005048285243435F41504231506572697004
:1021E0006829000049535F46554E4354494F4E41BC
:1021F0004C5F535441544528436D6429000000004E
:102200000010024070B504460D461148204008B940
:1022100004B105E040F21A620E490FA000F076FD0D
:102220000DB1012D00D105E040F21B62094913A058
:1022300000F06CFD2DB11848806920431649886173
:1022400004E015488069A0431349886170BD00000F
:10225000C287F1FFAC30000849535F5243435F41EE
:102260005042325F504552495048285243435F41E3
:1022700050423250657269706829000049535F46C8
:10228000554E4354494F4E414C5F53544154452899
:10229000436D64290000000000100240F0B50021E9
:1022A00000BF0023002600240025484F7F68DFF888
:1022B00020C107EA0C03454F7F6807F48036434F7F
:1022C0007F6AC7F3021503F000671FB9022707EB07
:1022D000934304E04FF4F877C7EB93477B1C66B950
:1022E0003A4F3F6C07F001071FB13A4F03FB07F26B
:1022F0000FE0394F03FB07F20BE0344F7F6807F420
:1023000000371FB1354F03FB07F202E0314F03FBEB
:1023100007F22E4F3F6C07F0020707B152082B4F10
:102320007F6807F00C0131B1042909D008290AD0CF
:102330000C290DD10AE02A4F57F8257007600CE0F0
:10234000254F076009E0234F076006E0026004E0C4
:10235000234F57F82570076000BF00BF1B4F7F68F1
:1023600007F0F00109091F4F7C5C0768E7404760F0
:10237000164F7F6807F4E061090A1A4F7C5C4768D2
:10238000E7408760114F7F6807F46051C90A154F15
:102390007C5C4768E740C7600C4FFF6A07F00F019D
:1023A000114F7C5C4768B7FBF4F74761074FFF6A42
:1023B00007F4F871090901F00F07DFF830C03CF8A5
:1023C0001740B2FBF4F70761F0BD000000100240B7
:1023D00000003C0800127A000024F40000093D00CF
:1023E000B82F0008782F0008882F0008982F0008C1
:1023F00070470000F0B5002400250027002635486E
:10240000006840F480303349086000BF31480068FC
:10241000C0F340467F1C16B9B7F5005FF6D12D48D2
:102420000068C0F340461EB92B482C490860F0BD37
:10243000FDF7F4FE2A48006820F0030028490860F0
:102440000846006840F001000860224840682149C1
:1024500048600846406840F40050486008464068BC
:1024600040F4A0604860084640681E490840194989
:1024700048600846006C20F0030008640846446881
:1024800044F48034056C44F4003400BF44F4601418
:1024900044600564006840F08070086000BF0D482B
:1024A000006800F000700028F9D00A48406820F069
:1024B0000300084948600846406840F0030048604F
:1024C00000BF0448406800F00C000C28F9D100BFA0
:1024D000ADE700000010024000093D0000000020B0
:1024E00000200240FFFFC0F77047000010B52F48E2
:1024F000006840F470002D4908602D48406A40F0A3
:1025000004002B494862084640682A490840284987
:102510004860084600682849084025490860084680
:10252000006820F48020086008464068234908407D
:102530001F4948604FF4E040C86240100863002023
:10254000486308641E4888600846C06940F08050AF
:10255000C8611C48006800F48060B0F5806F0CD141
:1025600000BF1948006820F000701749086008464D
:10257000006840F00070086000BF1448006840F038
:102580009000124908600846006800F4807020B18D
:102590000846006820F400700860FFF72BFF4FF03A
:1025A000006002498039086010BD000088ED00E03D
:1025B0000010024000C0FFF8FFFFF6FEFFFF00071B
:1025C0000080BF040070004020180040002002403E
:1025D00070B504460D46164884420BD01548844217
:1025E00008D01548844205D01448844202D01448CB
:1025F000844200D105E04FF4A672124912A000F007
:1026000085FB0DB1012D00D105E040F24D120D49C1
:1026100014A000F07BFB25B1A08940F40050A081FC
:1026200004E0A0894DF6FF710840A08170BD000054
:102630000038014000440040004800400050014084
:10264000005401403C31000849535F5553415254F6
:102650005F414C4C5F5045524950482855534152B8
:102660005478290049535F46554E4354494F4E41D3
:102670004C5F535441544528436D642900000000C9
:1026800070B505460C460026264885420BD02648E4
:10269000854208D02548854205D02548854202D08C
:1026A0002448854200D105E04FF44372224923A01B
:1026B00000F02CFB012C13D0802C11D0402C0FD01B
:1026C000202C0DD0102C0BD0B4F5807F08D0B4F5A1
:1026D000007F05D0082C03D0042C01D0022C00D19F
:1026E00005E040F20D3214491BA000F00FFBB4F5D9
:1026F000007F0FD10B48854205D00B48854202D0A0
:102700000A48854200D105E040F211320A4919A079
:1027100000F0FCFA2888204008B1012600E00026DD
:10272000304670BD00380140004400400048004081
:1027300000500140005401403C31000849535F55AE
:10274000534152545F414C4C5F50455249504828C8
:10275000555341525478290049535F5553415254BF
:102760005F464C41472855534152545F464C4147C0
:102770002900000049535F55534152545F313233B1
:102780005F504552495048285553415254782900CA
:102790002DE9F04786B005460C460026B24600BF3C
:1027A00000BF0027644885420BD06448854208D0AA
:1027B0006348854205D06348854202D0624885421D
:1027C00000D104E0B722614961A000F09FFA2068BF
:1027D00020B166492068884200D204E0B8225B49F3
:1027E00063A000F093FAA08818B1A088B0F5805FCC
:1027F00000D104E0B922554969A000F087FAE088C9
:1028000058B1E088B0F5805F07D0E088B0F5005F90
:1028100003D0E088B0F5405F00D104E0BA224B4914
:102820006CA000F073FA208938B12089B0F5806F70
:1028300003D02089B0F5C06F00D104E0BB2243492A
:1028400070A000F063FA60894FF6F371084010B988
:10285000608900B104E0BC223C4975A000F056FA42
:10286000A08958B1A089B0F5807F07D0A089B0F5C4
:10287000007F03D0A089B0F5407F00D104E0BD22E5
:102880003249754800F042FAA08970B12A48854261
:1028900005D02A48854202D02948854200D104E06B
:1028A000C1222A496DA000F031FA2F462E8A4CF63B
:1028B000FF700640E08806432E82AE894EF6F31084
:1028C0000640A08821890843618908430643AE81F8
:1028D000AE8A4FF6FF400640A0890643AE826846A6
:1028E000FFF7DCFC1448874205D01648874202D027
:1028F0001548874202D1DDF80CA001E0DDF808A000
:102900000AEBCA0000EB0A1021688900B0FBF1F85D
:102910006420B8FBF0F006013009642101FB108946
:10292000322000EB0910B0FBF1F000F00F0006437D
:102930002E8106B0BDE8F087003801400044004019
:102940000048004000500140005401403C31000864
:1029500049535F55534152545F414C4C5F5045526F
:10296000495048285553415254782900997F3300E3
:1029700049535F55534152545F424155445241546B
:10298000452855534152545F496E697453747275AA
:1029900063742D3E426175645261746529000000C4
:1029A00049535F55534152545F574F52445F4C4512
:1029B0004E4754482855534152545F496E697453E9
:1029C00074727563742D3E576F72644C656E6774D4
:1029D0006829000049535F55534152545F53544F87
:1029E00050424954532855534152545F496E6974BB
:1029F0005374727563742D3E53746F7042697473AF
:102A00002900000049535F55534152545F504152D1
:102A10004954592855534152545F496E697453744F
:102A2000727563742D3E50617269747929000000DB
:102A300049535F55534152545F4D4F4445285553B8
:102A40004152545F496E69745374727563742D3EBC
:102A50004D6F646529000000F430000849535F554C
:102A6000534152545F3132335F50455249504828E8
:102A7000555341525478290070B504460D4612480A
:102A800084420BD01148844208D01148844205D0BA
:102A90001048844202D01048844200D105E040F240
:102AA00033220E490EA000F031F9B5F5007F00DAAF
:102AB00005E04FF40D72094910A000F027F9C5F3A5
:102AC0000800A08070BD00000038014000440040B4
:102AD0000048004000500140005401403C310008D3
:102AE00049535F55534152545F414C4C5F504552DE
:102AF00049504828555341525478290049535F554D
:102B0000534152545F444154412844617461290047
:102B100000BFFEE70FB4054B10B503A9044A0298A5
:102B200000F018F810BC5DF814FB0000452D0008FB
:102B30003800002002E008C8121F08C1002AFAD19C
:102B400070477047002001E001C1121F002AFBD12D
:102B5000704700002DE9FF4F8BB09A460F4605469F
:102B6000002606E025280BD052460D9990476D1C93
:102B7000761C28780028F5D10FB03046BDE8F08FDC
:102B80000024A0460122604900E0044315F8013FFB
:102B9000203B02FA03F00842F7D128782E2817D1FB
:102BA00015F8010F44F004042A280ED06FF02F020C
:102BB0002878A0F1300109290AD808EB880102EB36
:102BC000410100EB01086D1CF2E757F8048B6D1C06
:102BD000287869283ED006DC0028CDD063280BD0A9
:102BE000642804D136E0732810D075284BD05246A3
:102BF0000D999047761C85E017F8040B8DF80000BE
:102C000000208DF80100E946012003E057F8049BFD
:102C10004FF0FF3061074FF0000401D40AE0641C5C
:102C200044450DDA8442FADB19F804100029F6D184
:102C300006E0641C8442FCDB19F804100029F8D17A
:102C4000264404E019F8010B52460D999047641E82
:102C5000F8D257E001CF4FF00A0B002802DA4042C9
:102C60002D2102E0210504D52B218DF8241001210E
:102C700003E0E10705D02021F7E70DF120090891D5
:102C80000CE00021F9E701CF4FF00A0BF9E75946B4
:102C9000FDF788FA01F1300209F8012D0028F6D17C
:102CA000ADEB090000F1200B600701D44FF00108E3
:102CB000D84502DDA8EB0B0000E000208046002490
:102CC00006E009A85246005D0D999047641C761CE9
:102CD00008988442F5DB04E0302052460D99904775
:102CE000761CB8F10001A8F10108F5DC05E019F83F
:102CF000010B52460D999047761CBBF10001ABF1D8
:102D0000010BF4DC6D1C34E70928010004460D4674
:102D1000164633462A46214602A0FFF7FBFE00BFB7
:102D2000FEE70000617373657274696F6E206661FF
:102D3000696C65643A206025736020617420257396
:102D40003A25640070B504460D460D2C03D10120D0
:102D50001349086016E00A2C11D11148006850B9D7
:102D60000D211048FFF788FE00BF40210D48FFF7F6
:102D700087FC0028F9D000200949086002E0002003
:102D800007490860E1B20748FFF776FE00BF40211F
:102D90000448FFF775FC0028F9D0204670BD0000FC
:102DA000340000200038014000B589B005A8FDF7C7
:102DB000DDFE01210520FFF725FA01218803FFF739
:102DC00021FA4FF40070ADF81400022007900020A3
:102DD0008DF817000420089005A90E48FDF7E4FBC4
:102DE0004FF4E13001900020ADF80800ADF80A0082
:102DF000ADF80C00ADF810000820ADF80E0001A9E8
:102E00000548FFF7C5FC01210348FFF7E1FB09B0C6
:102E100000BD000000080140003801400024FFF719
:102E2000C3FF1AA0FFF776FEFEF784F900BF03E0A8
:102E30001D490C55601C84B2FF2CF9DD1BA0FFF767
:102E400069FE4FF4807200211748FEF7E9FB1DA0D0
:102E5000FFF760FE4FF4807200212048FEF72AFA47
:102E60004FF480721D491048FDF7C4F91C490870E1
:102E700008460078012803D11AA0FFF74BFE02E0B4
:102E800027A0FFF747FE00BFFEE7000074686973E4
:102E900020697320612049324320454550524F4DEF
:102EA0002064656D6F0D0A003C0000205772697444
:102EB0006520746F2049324320454550524F4D0DD7
:102EC0000A000000526561642066726F6D2049320D
:102ED0004320454550524F4D0D0A00003C01002053
:102EE0000400002074686520777269746520616E43
:102EF0006420726561642064617461206172652080
:102F00007468652073616D652C49324320454550D6
:102F1000524F4D207465737420706173730D0A00F5
:102F200074686520777269746520616E64207265CB
:102F30006164206461746120617265206469666601
:102F40006572656E742C49324320454550524F4D91
:102F50002074657374206661696C0D0A00000000BE
:102F600002A0FFF7D7FD00BFFEE700006572726F99
:102F7000722121210D0A000000000000010203045B
:102F8000010203040607080901020406080A0C10DE
:102F90002020202020202020010002000400060024
:102FA00008000A000C001000200040008000000112
:102FB0000001000100010001A0860100400D030096
:102FC000801A060000350C0040420F0080841E006D
:102FD00000093D002E2E5C2E2E5C2E2E5C2E2E5CCB
:102FE0002E2E5C2E2E5C6669726D776172655C6E4A
:102FF00033326C3430785F7374645F7065726970FB
:10300000685F6472697665725C7372635C6E33329A
:103010006C3430785F646D612E6300002E2E5C2E60
:103020002E5C2E2E5C2E2E5C2E2E5C2E2E5C666967
:10303000726D776172655C6E33326C3430785F73B9
:1030400074645F7065726970685F647269766572D6
:103050005C7372635C6E33326C3430785F677069B6
:103060006F2E63002E2E5C2E2E5C2E2E5C2E2E5C80
:103070002E2E5C2E2E5C6669726D776172655C6EB9
:1030800033326C3430785F7374645F70657269706A
:10309000685F6472697665725C7372635C6E33320A
:1030A0006C3430785F6932632E6300002E2E5C2E04
:1030B0002E5C2E2E5C2E2E5C2E2E5C2E2E5C6669D7
:1030C000726D776172655C6E33326C3430785F7329
:1030D00074645F7065726970685F64726976657246
:1030E0005C7372635C6E33326C3430785F7263632E
:1030F0002E63000049535F55534152545F4841527B
:1031000044574152455F464C4F575F434F4E5452D0
:103110004F4C2855534152545F496E697453747231
:103120007563742D3E4861726477617265466C6F99
:1031300077436F6E74726F6C290000002E2E5C2E28
:103140002E5C2E2E5C2E2E5C2E2E5C2E2E5C666946
:10315000726D776172655C6E33326C3430785F7398
:1031600074645F7065726970685F647269766572B5
:103170005C7372635C6E33326C3430785F7573618C
:1031800072742E630000000049535F4E5649435F3E
:103190005355425F5052494F52495459284E56494F
:1031A000435F496E69745374727563742D3E4E5655
:1031B00049435F4952514368616E6E656C53756255
:1031C0005072696F726974792900000049535F4E2B
:1031D0005649435F505245454D5054494F4E5F50FC
:1031E00052494F52495459284E5649435F496E69D6
:1031F000745374727563742D3E4E5649435F495241
:10320000514368616E6E656C507265656D7074696E
:103210006F6E5072696F7269747929003C320008D0
:10322000000000203C000000342B00087832000829
:103230003C00002004170000442B00080090D0033D
:103240000000000000000000004006000000000038
:10325000000000000000000000000000000000006E
:10326000000000000000000000000000000000005E
:08327000000000000000000056
:0400000508000149A5
:00000001FF
