:020000040800F2
:1000000090050020D90000085D1700081D140008A5
:1000100000000000000000000000000000000000E0
:10002000000000000000000000000000391D000872
:100030000000000000000000B1170008911E000839
:10004000EB00000800000000EB000008EB000008D7
:10005000EB000008EB000008EB000008EB000008D4
:10006000EB000008EB000008EB000008EB000008C4
:10007000EB000008EB000008EB000008EB000008B4
:1000800000000000CD1E000800000000000000007D
:1000900000000000EB000008EB000008EB00000887
:1000A00000000000EB000008000000003121000803
:1000B0000000000000000000000000000000000040
:1000C0000448854600F0A6FB00480047692C00085C
:1000D000C046C046900500200448804704480047B9
:1000E000FEE7FEE7FEE7FEE7FEE7FEE7951E0008F7
:1000F000C100000830B50B46014600202022012433
:1001000009E00D46D5409D4205D31D469540491B4B
:100110002546954040191546521E002DF1DC30BD94
:1001200003460B439B0703D009E008C9121F08C010
:10013000042AFAD203E00B780370401C491C521EBB
:10014000F9D27047F8B502464A40D40F42004B003E
:1001500052085B089A4202D20246084611464A00FB
:1001600023D0C30D4A00DDB2120EAD1A202D35DAB0
:1001700049020126490AF6058A19002C00D052428C
:1001800020214F1B1146B9402A411018C20D9A4236
:1001900021D0002C17D0012D08DCDA05801AD20FEF
:1001A0008019D207DBB200F09DFAF8BDDA05801A9B
:1001B000012340001B06C01880185A428018CA0F3D
:1001C0001043490007E04908C2071143DA05801AC5
:1001D00080194008801800F07DFAF8BD6100012206
:1001E000511A001BF7E70122D2075140AAE701226A
:1001F000D2075040A6E7024670B54A40D30FDB074E
:1002000040002DD04A002AD0010E140E0002120226
:100210000919400A520A8418E50104465443000AA9
:10022000120A2E045043A4194219200CC543AA18DF
:10023000120C0125AD03521C521912047F392404FB
:1002400000D0521C104301D44000491EC2B20C061B
:10025000C0092018401C4008802A02D003E000207A
:1002600070BD40084000002900DA0020184370BD2E
:1002700070B502464A40D50F40004A00ED074008DD
:100280005208002814D0002A12D0C40DD30D410208
:100290000120C0055202490A520AE41A091812182C
:1002A0007D34914201D3641C00E04900002C01DA46
:1002B000002070BD0023914201D3891A03434008F6
:1002C00049000028F7D100290AD0914202D101212A
:1002D000C90705E0914201D2012101E00121C94392
:1002E000E005C018401900F0F5F970BDF0B50746FB
:1002F0000846584087B0C00F049048000E46590089
:1003000040084908BC1A884105D2384631461E4685
:1003100017460B4602465800400810434DD0300D9A
:10032000039040055900400D490D0590401A029078
:10033000402873DA18030121000B090508430190D6
:1003400004980092002806D01146019A49420020E4
:10035000904100910190029840210A1A0199009859
:1003600000F084F905460C466B4607CB00F09FF978
:10037000C0197141039A0E0D0023D71756401A4633
:100380007A40164344D0049A002A2DD0029A012ABA
:10039000039A15DC1205C01A914101263605001C8E
:1003A0007141D20F059ED2070093019202962A4610
:1003B000234600F0DDF907B0F0BD38463146FAE7D4
:1003C0001605234A0F46B218C01AB7410121090584
:1003D000001C4F4100187F41114618187941E20F67
:1003E00010436D19644113E0E2076D08154364087A
:1003F000C2071443039A01261205C01A914136051B
:10040000001C7141CE07400830434908C0185141D3
:100410002A46234600F09FF9CDE7FFE70498012222
:100420004000C117121A00238B4104983146C417AB
:10043000381AA141EEE730B40124E407634030BC30
:1004400054E730B40124E407614030BC4EE70000BB
:100450000000E0FFF0B51FB488B00B9909980024A4
:1004600048400999C00F490049080991C0070B99F4
:100470000090490049080B9109990898A64608433D
:100480001CD00B990A98084318D009980124400001
:10049000420D4800410D099824050003000B20433C
:1004A00009900B980003000B20430B9050181C4937
:1004B0004018002201901446104605E00020014635
:1004C0000DB0F0BD032801DA034600E003239C468B
:1004D000C11A0AAE0AE05F0008ADED5B4F00F75BA2
:1004E0007D430027AA187C41491C5B1E6145F2DD53
:1004F000410004AB5A522104120C0A43240C401C44
:100500000828DFDB01980290009970460191009065
:10051000059B049A0799069800F02AF9D0E7000095
:100520000DFCFFFFC217C10F504010B54018CA079D
:100530009623002100F0D6F810BD00000EB5054945
:100540000291002100910A460B46019100F010F93A
:1005500003B000BD33040000410040020122400A04
:10056000D205090E80187F2901DA002070479629EC
:1005700003DC9622511AC84070479639884070476C
:100580004A0009030123090B1B051943094B10B548
:10059000520D9A4201DA002010BD064B34339A42C4
:1005A00003DC9A1A00F072F810BD03495118884014
:1005B00010BD0000FF030000CDFBFFFFC20FD207FC
:1005C000400040080BD0C10D0723DB01C9184002D1
:1005D0000905400A1143C208400711437047002033
:1005E0000146704710B5002904DB0124E4074042AE
:1005F0008C412146002B04DB1C460123DB075242C1
:10060000A3418B4200D1824210BD000010B50029E9
:1006100004DB0124E40740428C412146002B04DB2B
:100620001C460123DB075242A341994200D190426C
:1006300010BD0000CB0FDB07490010B5490802468A
:100640000A4307D00A0D07240903E401090B121B12
:10065000002A01DC002010BDC900440F0C43C1007A
:10066000E018D205801800F035F810BD10B5202A2A
:1006700004DB0146203A9140002010BD9140202328
:100680009C1A0346E3401943904010BD10B5202A40
:1006900004DB0846203AD040002110BD0B46D34071
:1006A000D0402024A21A91400843194610BD10B52D
:1006B000202A06DBCB170846203A1041C1170B430E
:1006C00006E00B461341D0402024A21A9140084373
:1006D000194610BD002904DA401C490001D1400828
:1006E0004000704770B40024050C05D110240004AC
:1006F00002D1002921D01124050E01D100020834B5
:10070000050F01D10001241D850F01D18000A41C1B
:10071000002801DB4000641C002908D020252E1B86
:100720000D46F540A14000D00121294308430106B0
:100730001B1B000ADB1D02D5002070BC7047DB05C7
:10074000181880180029F8DA401C4900F5D170BC4F
:1007500040084000704710B5002B08DA0024401C08
:10076000614192185B411A4301D14008400010BD1D
:10077000F0B51FB482B005460C0003D0084602F065
:10078000F1F902E002F0EEF9203002460090214635
:100790002846FFF76BFF049B059A04460F46184353
:1007A0001143084314D0184610431BD00098402131
:1007B0000A1A18460599FFF769FF05460E46009A82
:1007C00005990498FFF752FF084305D0012004E083
:1007D0002046394607B0F0BD0020C11705430E433F
:1007E0002C43374300990E986305401A7905E40AB3
:1007F00000220C43FD0A0A3002D500200146E9E739
:100800000105101969410C9C0D9D00196941FFF704
:10081000A2FFDFE7064C0125064E05E0E36807CCA2
:100820002B430C3C98471034B442F7D3FFF74CFCF1
:10083000042F0008242F000870B588B00121080596
:1008400001F09AF90121C80401F096F9012148024A
:1008500001F0AEF90C200590032569460D760024C1
:10086000CC761A4E05A9304600F07CFD0722032104
:10087000304600F0BCFD07220221304600F0B7FDF3
:100880001020059069460D76CC76114D05A92846B5
:1008900000F068FD07220421284600F0A8FD0D4D58
:1008A000284600F02BF8684600F068F801206946F9
:1008B0000870029403940494284600F041F8012142
:1008C000284600F00EF808B070BD0000000C00488B
:1008D00000080048002401408162426170470160C5
:1008E0007047002904D0816801221143816070475C
:1008F00081680222114381607047000010B50649EB
:10090000884208D144150121204601F05FF90021F9
:10091000204601F05BF910BD00240140006C80B25C
:10092000704702460020CB0104D5926801231B06C4
:100930009A4300E012680A4200D00120704700008C
:1009400030B5C268074B1A408C684B680D7823435A
:10095000CC686D032C43096923430B431343C360E5
:1009600030BD000000D2FFFF816804221143816086
:100970007047816810221143816070470021017027
:1009800041608160C160016170470000F8B5204C92
:100990000022207C1F49002836D0012833D1088846
:1009A000642830D90A80032001F08EF9A08201204A
:1009B00001F08AF9E082022001F086F920830546E1
:1009C000E08AFFF7BBFD144E144F32463B46FFF75B
:1009D00041FDFFF72FFE124908602846FFF7AEFDE4
:1009E00032463B46FFF736FDFFF724FE0D4908600F
:1009F000A08AFFF7A3FD0C4A0C4BFFF72BFDFFF776
:100A000019FE0B490860F8BD0A8001202074F8BD6A
:100A1000080000203E0000201F85EB51B81E553F06
:100A200044000020480000206666666666664A3F0D
:100A30004C0000203EB50121480401F09DF8012141
:100A40006A4611710020907108250095D07151718E
:100A50000924E4066946204600F084FCA5613EBDF9
:100A600001494880704700006A00002010B50B491A
:100A7000488800280CD00C7809230822DB06002CBB
:100A800007D0401E80B24880002801D108709A62C9
:100A900010BD012008709A6110BD00006A0000209E
:100AA000F8B53148092200780823D20600242F4DDA
:100AB00002280AD12E480078012806D02D482E4958
:100AC00000780978002803D008E093622C73F8BD01
:100AD0006E7B8E4202D193622C73F8BD274E0227A3
:100AE0003288002822D0297B002908D0012917D07C
:100AF0000229F2D1688A8242EFD92C73F8BDFFF740
:100B00001DFD1F4A1F4BFFF7A5FC00221E4BFFF7E0
:100B1000EDFBFFF735FD6882348001202873F8BDB6
:100B2000688A8008FFF79CFF2F73F8BD287B002898
:100B300011D0012813D00228F7D1FF209130824232
:100B4000F3D9A87B401CC0B2A8732C738842ECD1A7
:100B5000AC736973F8BD348001202873F8BDC820D8
:100B6000FFF77EFF2F73F8BD28000020080000204B
:100B70002F000020520000205000002034000020F0
:100B80003D0AD7A3703D06C000D08440F0B585B0C3
:100B9000EF48F04900780C6801280ED0EE4D02288D
:100BA00018D003287DD0ED4884427BDAE848022142
:100BB0000170EB48017005B0F0BDE848844205DAE9
:100BC000E34902200870E6490870F4E7E449002090
:100BD0000870F0E7E34801780129ECD102210170A7
:100BE000E149FF220869D205D04202D312025040E7
:100BF00008610F460869DD49DD4E884208DDDD49A0
:100C0000FFF7F9FAFFF7A8FC8000DC38307001E04C
:100C100000203070D848D9490268D3488A424069D8
:100C200004DAD7490A68D5498A420ADBC821C84292
:100C300003DDD44A022111700DE0D24903220A706B
:100C400009E0C6498C4203DACE4A0021117002E065
:100C5000CC4904220A703946002801DA4042486132
:100C6000C1487F218069C905FFF76CFAC649FFF7C3
:100C7000FFFA0446C548C069FFF7A0FCC44AC54B4B
:100C8000FFF734FB06460F462046FFF797FC324637
:100C90003B4602910390FFF7B9FC11D3BB48C069F2
:100CA00001E0C4E050E1FFF789FCB94AB94BFFF716
:100CB000C2FB02460B4602990398FFF793FC3CD215
:100CC000B548844202DB0120287034E0B3488442F6
:100CD00002DB022028702EE0B148844202DB0320B0
:100CE000287028E0AF48844202DB0420287022E00C
:100CF000AD48844202DB052028701CE0AB488442EA
:100D000002DB0620287016E0A948844202DB072097
:100D1000287010E0A748844202DB082028700AE00F
:100D2000A548844202DD0920287004E0A3488442DB
:100D300001DD0A2028709548C4618B49FF22C868EC
:100D4000D205D04202D312025040C8600F46496912
:100D50009B4B9C4C9C48FA2921DA874A874D1268A4
:100D6000AA4206DA864E3668AE4202DA01220270E4
:100D700022E0AA4208DB824E3668AE4204DB022241
:100D8000027003221A7017E0AA4204DB02220270EA
:100D900001221A7010E0022202701A700CE0FA6848
:100DA000A24205DA894A914202DA0122027003E086
:100DB0000222027004221A70664A684D1268844B3F
:100DC000AA4211DAFE68A6420EDA1B887D22D20002
:100DD00093420FD95E4B02221A70614B1A70694B15
:100DE00000221A70027005E0AA4203DD5C4A00206E
:100DF000107018806048614A0468764B76489442C7
:100E000007DA5F4C2468944203DA7D22D2009142D3
:100E100002DD0021018019700188704A914200D8DA
:100E2000C9E6002101801878401C1870C3E66C48A0
:100E300001786C480029008816D1962814D96A4890
:100E400001210068C905401A684A6949904208D2E0
:100E50000878401CC0B208700A28E1D90020087048
:100E6000A9E600200870A6E69628D9D97F21C905F1
:100E70002046FFF767F94449FFF7FAF90446384876
:100E800000780228CCD14148C069FFF797FB404A5F
:100E9000404BFFF72BFA06460F462046FFF78EFB26
:100EA00032463B4600910190FFF7B0FB0ED3374826
:100EB000C069FFF783FB364A364BFFF7BCFA0246A0
:100EC0000B4600990198FFF78DFBA9D23248844266
:100ED00002DB0120287034E03048844202DB02202B
:100EE00028702EE02E48844202DB0320287028E080
:100EF0002C48844202DB0420287022E02A488442E5
:100F000002DB052028701CE02848844202DB062012
:100F1000287016E02648844202DB0720287010E083
:100F20002448844202DB082028700AE022488442D8
:100F300002DD0920287004E02048844201DD0A20F7
:100F400028701248C46136E605480021017032E677
:100F5000280000204C0000202E000020000040400F
:100F60002900002030000020600200203333333F8E
:100F7000520000200000C842440000209A993940E5
:100F8000480000202A0000200000A04108000020A6
:100F90007B14AE47E17A943F713D8240CDCC8040D6
:100FA000713D7A404260754077BE6F4017D9664008
:100FB000295C5F40C976564083C04A400AD7334017
:100FC0002D000020CDCC4C3F2C00002070170000DD
:100FD0005E000020420000204000002060EA000087
:100FE0005C00002036000020580000209A99193E2D
:100FF0005D000020F3B581B00021584C5848A3781B
:1010000000780022834201D0E271A07004280AD047
:10101000E679554F534D3888330001F0BAFD060983
:101020001A1E304499085149514801F02DF8FEBD6F
:10103000019B40224F4880210125012B05D0816270
:10104000826102206070E571FEBD8262816165701F
:10105000F9E73A800220E071FEBD0298012806D02F
:101060004249434801F010F80420E071FEBD3D49BB
:101070003F48491E01F008F80320E071FEBDC1079A
:1010800005D14008281A81B2394800F0FDFF39889F
:101090007D2000018142F1D33449354800F0F4FF4E
:1010A0000520E071FEBD344EC20732D13278012AEC
:1010B00006D0022A0AD0032A17D0042A26D123E018
:1010C0007D21C9004018281A81B21FE0FFF736FAC7
:1010D00000222A4BFFF7BEF90022294BFFF706F941
:1010E000FFF74EFA281A81B210E0FFF727FA002224
:1010F000244BFFF7AFF90022214BFFF7F7F8FFF77A
:101100003FFA281A81B201E01649491E184800F03A
:10111000BBFF39887D2000018142C3D3307801288C
:1011200004D0022807D003280FD10AE0164910483E
:1011300000F0AAFF09E07D2149010D4800F0A4FF5D
:1011400003E000210A4800F09FFF0520E071FEBD8A
:101150000E4902200870E271FEBD00000800002068
:101160002A0000201027000038000020282300005B
:10117000002C0140000800485000002000000440FE
:1011800000408F4000001240581B00002B00002040
:10119000F8B5384838490078002805D0C87A0027C3
:1011A000364C012803D005E00120C872F8BDCF728B
:1011B0008F722780324E8B7A3278324D934204D12F
:1011C0002088A84201D32580F8BD2F482F4993429B
:1011D00040D02F4B1E682F4B9E421DDA2E4E366894
:1011E0009E4219DA012A06D0022A08D0032A0BD01F
:1011F000042A0FD10CE0294900F046FF0AE07D21C6
:10120000490100F041FF05E0002100F03DFF01E051
:1012100000F03AFF278018E0012A06D0022A08D001
:10122000032A0BD0042A0FD10CE01C4900F02CFF3C
:101230000AE07D21490100F027FF05E0002100F0D0
:1012400023FF01E000F020FF25800D4801780A48C7
:101250008172F8BD0B4E2388643EB342F9D3042A51
:1012600004D00F4900F010FF2580F8BD00F00CFFFE
:10127000FAE700002A0000200800002054000020A7
:10128000500000201C0C0000002C01400F27000023
:10129000440000200000204048000020581B0000AF
:1012A00028230000F8B5284801260078274D032898
:1012B0000BD0002809D026480178002905D0697A8A
:1012C0000227244C012906D00EE02349234800F0D0
:1012D000DBFE6E72F8BD00216972214A1278042A81
:1012E0001DD0297221700670297A0078814202D1BE
:1012F0002278022AEED0814201D02872267001287D
:1013000012D0022815D0032818D00428E2D10221D7
:101310000846FFF76FFE277003206870F8BD0421B0
:10132000297227700170DFE701210846FFF762FE8E
:10133000F8BD02210120FFF75DFEF8BD022108463D
:10134000FFF758FEF8BD000028000020080000202C
:101350002A0000202B0000200F270000002C014055
:1013600050000020F0B500220325012393400C68B3
:101370001C409C422BD10C79012C01D0022C13D1A2
:10138000876854002E46A640B74387604E79A64032
:1013900084682643866044689C43446043688C7933
:1013A0009440A4B223434360066853002C469C40FB
:1013B000A64306600E7907689E403E430660C668F5
:1013C000A643C660CC799C40C3681C43C460521CD1
:1013D000102ACAD30A7A002A04D0026B09688A4309
:1013E0000263F0BD026B09680A430263F0BD10B5E9
:1013F0004B07DB0E9A40C90889000818016A0F24C0
:101400009C40A1430162016A1143016210BD08B50D
:1014100000900121684600F091FC08BDFEE7000045
:101420003EB50121080500F0A7FB01216A461171B4
:101430000020907110250095D0715171034C6946C0
:101440002046FFF78FFFA5613EBD0000000C00485D
:101450000249014808607047CCCC000000300040D1
:1014600010B5074800F022F8052000F013F87D20A1
:10147000C00000F015F800F005F8FFF7E9FF10BD17
:10148000555500000249014808607047AAAA0000AB
:1014900000300040014948607047000000300040C3
:1014A0000149886070470000003000400149086031
:1014B0007047000000300040F0B5304900200B4676
:1014C0009C885A88641C4F78A5B2521CDC882C4E2C
:1014D00092B23B0001F05DFB050412253B400A007F
:1014E0003369DB08DB0702D048808880F0BD4A8082
:1014F000142AFBD1488001204870F0BD4A808D80BD
:1015000033691B0705D5641CCC8002224A704880D1
:10151000F0BD1C4B9A42FBD94880032048700870EC
:10152000F0BD8D80FF23F5339D420CD23369DB087B
:10153000DB0701D04880F0BD4A80022AFBD14880F9
:1015400001204870F0BD888004204870F0BD3269E9
:101550001207FBD54870F0BD012C04D0022C05D039
:10156000032C08D105E001220A7004E002220A706F
:1015700001E004220A70C8804870F0BD62000020BB
:1015800000080048DC05000030B5194B1878002829
:101590002BD0184D2978032927D0012200240128B7
:1015A00006D0022808D0032811D004281CD113E04B
:1015B000022919D02A7017E0022915D10E4908789E
:1015C000401CC0B2087005280ED10A700CE00B4810
:1015D00004700B48047007E0022905D1094801781E
:1015E000022903D0022101701C7030BD0270FBE79C
:1015F0006200002028000020500000202A00002067
:101600002C0000202F0000200EB50121C80400F09E
:10161000B3FA002069460871082000900120C871C3
:101620000148FFF79FFE0EBD00080048FEB50121EE
:10163000480400F0A1FA0121C80400F09DFA012439
:101640006846047100258571022000906846C571C6
:10165000447109206946C006FFF784FE684604719C
:10166000857180270097C57144710C4E69463046DC
:10167000FFF778FE68460471857140200090684647
:10168000C571447169463046FFF76CFE022009219E
:10169000C9068862B7624020B062FEBD00080048FB
:1016A000F0B58BB00121880400F066FA0121C80270
:1016B00000F07EFA10200890022508A80571012686
:1016C000467100248471C471184F08A93846FFF789
:1016D00049FE032204213846FFF789FE1F21684690
:1016E0008182C482124F06978483847705A91148AA
:1016F00000F0CCFC70216846018046800421818086
:10170000029785810821C18149010182448269468D
:10171000084800F06FFC0121064800F037FC012169
:10172000044800F041FC0BB0F0BD0000000400488C
:101730000F270000002C01400748FF210288F531E7
:101740008A4207D3002101800920C0064169022294
:101750005140416170470000600000207047000068
:1017600030B5827801240178002A16D08B080E4A01
:101770009B009A1813688907C90EFF258D40AB435B
:101780004578AD072D0E8D401D4315600078C006CD
:10179000C00E84400548046030BDC806C00E8440B9
:1017A00002488030046030BD00E400E000E100E069
:1017B0007047000070B58A488A4D0078030001F038
:1017C000E8F90BF407152F49637D97B1CBE5F400D9
:1017D0000A26002407E02B78204619460A4601F025
:1017E00029F9641CE4B2B442F5D3F5E009260024DB
:1017F00007E02B78204619460A4601F01BF9641CC5
:10180000E4B2B442F5D3344607E000231A46194641
:10181000204601F00FF9641CE4B20A2CF5D3DBE09A
:101820000826002407E02B78204619460A4601F0D6
:1018300001F9641CE4B2B442F5D3344607E0002356
:101840001A461946204601F0F5F8641CE4B20A2C49
:10185000F5D3C1E00726002407E02B78204619467F
:101860000A4601F0E7F8641CE4B2B442F5D334460A
:1018700007E000231A461946204601F0DBF8641CF5
:10188000E4B20A2CF5D3A7E00626002407E02B7863
:10189000204619460A4601F0CDF8641CE4B2B44271
:1018A000F5D3344607E000231A461946204601F0D6
:1018B000C1F8641CE4B20A2CF5D38DE0052600249F
:1018C00007E02B78204619460A4601F0B3F8641C5D
:1018D000E4B2B442F5D3344607E000231A46194671
:1018E000204601F0A7F8641CE4B20A2CF5D373E09B
:1018F0000426002407E02B78204619460A4601F00A
:1019000099F8641CE4B2B442F5D3344607E00023EE
:101910001A461946204601F08DF8641CE4B20A2CE0
:10192000F5D359E00326002407E02B78204619461A
:101930000A4601F07FF8641CE4B2B442F5D33446A1
:1019400007E000231A461946204601F073F8641C8C
:10195000E4B20A2CF5D33FE00226002407E000237E
:101960002A781946204601F065F8641CE4B2B442B6
:10197000F5D3344607E000231A461946204601F005
:1019800059F8641CE4B20A2CF5D325E001260024A2
:1019900007E000232A781946204601F04BF8641C22
:1019A000E4B2B442F5D3344608E00AE000231A4614
:1019B0001946204601F03EF8641CE4B20A2CF5D327
:1019C0000AE0002400231A461946204601F032F8A6
:1019D000641CE4B20A2CF5D301F00AF870BD0000D3
:1019E0002E000020510000203EB50121480400F0E7
:1019F000C3F801216A4611710020907104250095F9
:101A0000D07151710924E40669462046FFF7AAFC0B
:101A1000A5623EBD30B51649164C0A79207882423F
:101A200001D1012808D1087109230422DB0601280D
:101A300003D0032800D19A6230BD9A610E4801227A
:101A40000270487900230D4D00280DD00128F3D1F4
:101A500028880B4DA842EFD902202070094C227033
:101A6000094A10704B7130BD2B804A7130BD0000A7
:101A700008000020280000202A0000203A00002052
:101A800070170000500000202F000020F8B5044619
:101A900000260020009020780125022801D16678D8
:101AA00002256019314601F0C3F80146A819225CED
:101AB00000194078120202438A4201D00120F8BD89
:101AC000681C81B2605D6518042848D1254E6A46BD
:101AD0003146284601F079F8234C20606A463146A9
:101AE000284601F072F86060204F6A463946284661
:101AF00001F076F8A0606A463946284601F070F891
:101B0000E0600098083000906A461949284601F0C4
:101B10005CF820616946284601F077F860616A4602
:101B20003146284601F051F8A061124E6A4631460E
:101B3000284601F055F8E0616A463146284601F032
:101B40004FF820620098083000906946284601F05E
:101B50005CF860626946284601F057F8A0620020F0
:101B6000F8BD000000002041600200200000C842D3
:101B700000007A4400401C46054A002903D0516900
:101B800001435161704751698143516170470000C1
:101B900000100240054A002903D0D1690143D161F8
:101BA0007047D1698143D161704700000010024045
:101BB000054A002903D091690143916170479169F9
:101BC000814391617047000000100240054A0029DE
:101BD00003D0D1680143D1607047D1688143D1609F
:101BE0007047000000100240F8B5044630494868CC
:101BF0000C2210402F4E002804D0042804D00C28BA
:101C000006D103E0266004E0266002E02A48206056
:101C10002660274D6868F0210840000927494000E8
:101C2000095A27683846FEF765FA60606968072236
:101C300012021140090A214A083A515CC84005467F
:101C4000A0601F480169890F06D00169890F012929
:101C50000FD06808E06012E01548C030806A1F218C
:101C600089060840810E891C1648FEF743FAE06099
:101C700005E00069800F022801D0A808E0600C4848
:101C8000016BC90601D4266100E02761016B890759
:101C90000AD0016B8907890F012907D0006BC04367
:101CA000800700D16661F8BD6561F8BD6761F8BD68
:101CB000001002400048E80150BD0100E42E000879
:101CC000002401400090D00370B50446194D284609
:101CD000FEF74FFE04212846FEF701FE012C04D03A
:101CE000022C08D0032C11D10BE007220421284636
:101CF000FEF7F2FD0AE0072208212846FEF7ECFD78
:101D000004E0072210212846FEF7E6FD01212846BF
:101D1000FEF707FE0028F9D02846FEF725FE04212D
:101D20002846FEF7FEFD0028F9D02846FEF7F6FD0E
:101D300070BD00000024014070470000F3B581B081
:101D40000C462146019800F073FF0646FF2201323F
:101D50000221124FE0B2944203D839700225787004
:101D600005E003213970210A79700325B8707819CC
:101D700022460199FEF7D4F92819C1B2320A481C4B
:101D8000C0B27A54411CCAB23E540320511CC9B29D
:101D9000B854024800F05EFAFEBD00008C0200203C
:101DA00010B50A48006A010C80B201420AD1084904
:101DB0000A68C2064005120E800E0002024308683F
:101DC0001043086000F006F810BD000000F8FF1F87
:101DD0000010024030B585B00023049303930293B2
:101DE000019300932748016801242143016025499C
:101DF000C0318A6A0F25ED02AA438A628A6A0725E2
:101E0000ED022A438A62204D022102680A400392B1
:101E1000049A521C0492039A002A02D1049AAA42FC
:101E2000F3D10268920701D5039400E00393039A6B
:101E3000012A24D1154A13680293029BDB08DB00B8
:101E40000293029B0B431360416801910199F022B8
:101E500091430191019941604168009107220099E5
:101E600012029143009100994160416889088900FC
:101E700041604168416041680907890FFBD105B0A5
:101E800030BD000000100240FFFF000000200240B3
:101E90007047000010B50A48016801221143016033
:101EA0004168084A11404160016B1322914301636C
:101EB00000248460FFF774FF0348446310BD0000F2
:101EC000001002401CB8FFF84020024010B5204C22
:101ED0000121204600F075F8002837D00121204666
:101EE00000F050F81B490888401C08801A490888EF
:101EF000401C088019480188491C01801848018845
:101F0000491C018017480188491C01801648018836
:101F1000491C018015490888401C08801448018824
:101F2000491C018013490888401C08801249088810
:101F3000401C088011480188491C01801048018814
:101F4000491C0180FFF7B8FAFEF790FD10BD0000B4
:101F5000001000406000002002000020320000203D
:101F60003400002036000020380000203A00002015
:101F70003C0000203E0000204000002054000020D3
:101F80005E000020C94389B201617047002904D076
:101F9000016801221143016070470168014A114044
:101FA00001607047FEFF0000002905D0416C01224E
:101FB000D203114341647047416C4904490C4164A8
:101FC00070470246002013690B40D2680A40002B7C
:101FD00002D0002A00D001207047002A03D0C26836
:101FE0000A43C2607047C268C94389B20A40C260EE
:101FF0007047000070B5026A1D4B1A400262026A07
:1020000094B2426893B2826992B21A4D2A401A4D34
:102010002A400D782D062D0C1543202294438A89E1
:102020001205160C26434A881205120C3243134C33
:10203000A04217D1124C23400C8AA404240C1C4348
:1020400080239A43CB891B051B0C134340229343E7
:102050008A881205120C1A430A4B1C404B8A9B04B7
:102060001B0C23434360856189688163026270BDF4
:10207000EFFF0000FF8F0000FFFC0000002C01407C
:10208000FFFB0000FFF700008163704710B5026896
:1020900092B20F4B984203D00124A407A04203D16F
:1020A0007024A2434C8822430A4CA04203D00A4C1D
:1020B00022400C89224302604A68C2620A88826216
:1020C000984201D1897A01630121416110BD00006C
:1020D000002C014000100040FFFC00001FB5012152
:1020E0001020FFF757FD104802901F206946888096
:1020F00000208881C8800D4C01A92046FFF7C6FF4B
:10210000012211462046FFF768FF01212046FFF714
:102110003DFF1120694608700120487088706846AC
:10212000FFF71EFB1FBD0000E7030000001000408A
:1021300070B5144CE069144D800609D52021204665
:1021400000F095F8606A29784A1C2A700F4A5054AA
:10215000E069C0060BD5002028700D4901200870E9
:102160001021204600F083F8204600F0F1F8E169E4
:10217000090706D50821204600F079F8204600F02E
:10218000E7F870BD00380140000000206001002029
:1021900004000020F0B58BB0064601210805FFF7CA
:1021A000EBFC01218803FFF703FD022108A8017160
:1021B000002484710891C471012545711D4F08A93F
:1021C0003846FFF7CFF8012211463846FFF70FF9DE
:1021D0004020089008A88571C47108A93846FFF707
:1021E000C1F8012206213846FFF701F9029607944B
:1021F0000C2006900594049403940F4E02A93046D7
:1022000000F05AF80121304600F033F801220B4962
:10221000304600F03AF801220949304600F035F81E
:102220001B21684601714471857101A8FFF798FA76
:102230000BB0F0BD000C004800380140050105005E
:10224000040104000249CA691206FCD5886270477D
:102250000038014010B504460B4605E02078FFF732
:10226000F1FF641C5B1EDBB2002BF7D110BD0162D5
:102270007047002904D001680122114301607047B2
:102280000168490849000160704710B50B041C0E35
:1022900001238B40022C02D0032C02D002E0001D4F
:1022A00000E00830002A03D001681943016010BD26
:1022B00001689943016010BD30B587B004460D46F2
:1022C00020684008400020606068032109038843BB
:1022D000A9680143616020681A490840EA68696892
:1022E00011432A69024311432160A06803210902B6
:1022F000884369690143A16001A8FFF775FC124892
:10230000844201D1069800E003982168090404D5AD
:1023100040002968FDF7EEFE02E02968FDF7EAFEBD
:102320002A6852088A4200D8401C2168090404D552
:102330000107490F054A1040084380B2E06007B02A
:1023400030BD0000F3E9FFFF00380140F0FF00005E
:10235000406AC005C00D7047F8B52048204C007891
:102360000025022806D01F4885614561C5600561CA
:10237000E573F8BDE07B0126002810D01B4A1A4FF8
:102380001178012810D03A461288022820D003285C
:10239000EFD1012920D0642AEBD3E573F8BD0420E6
:1023A000FFF735F8E673F8BD012903D00320E07389
:1023B0003D80F8BD15700E48FFF768FB0D490222FD
:1023C000002803D00A703D80E273F8BD0E70FAE772
:1023D000642AFAD3E573F8BDE673F8BD280000203F
:1023E00008000020600200203C00002004000020C3
:1023F000600100203000002070B52F482F4D00787C
:10240000012813D0022828D003283DD0042847D023
:10241000002400231A461946204600F00BFB641CDA
:10242000E4B20A2CF5D300F0E3FA70BD00240022D8
:102430002B781146204600F0FDFA641CE4B2052C0E
:10244000F5D3052400231A461946204600F0F2FA77
:10245000641CE4B20A2CF5D3E5E7002400231A46F5
:102460001946204600F0E6FA641CE4B2052CF5D3C8
:10247000052400222B781146204600F0DBFA641C6C
:10248000E4B20A2CF5D3CEE7002400222B781146C3
:10249000204600F0CFFA641CE4B20A2CF5D3C2E760
:1024A000002400231A461946204600F0C3FA641C93
:1024B000E4B20A2CF5D3B6E72D000020510000202D
:1024C0000348102181618161816181627047000050
:1024D000000C0048054810218161816181618161A2
:1024E000816181618161816181627047000C004876
:1024F00070B593480088FA2819D80125002407E010
:10250000FF2300221946204600F094FA641CE4B22E
:10251000AC42F5D32C4607E000231A461946204664
:1025200000F088FA641CE4B20A2CF5D304E1FF2120
:10253000F531884219D80225002407E0FF23002244
:102540001946204600F076FA641CE4B2AC42F5D39A
:102550002C4607E000231A461946204600F06AFA86
:10256000641CE4B20A2CF5D3E6E07649884219D817
:102570000325002407E0FF2300221946204600F02F
:1025800059FA641CE4B2AC42F5D32C4607E00023B0
:102590001A461946204600F04DFA641CE4B20A2C93
:1025A000F5D3C9E07D21C900884219D8042500244B
:1025B00007E0FF2300221946204600F03BFA641C86
:1025C000E4B2AC42F5D32C4607E000231A46194684
:1025D000204600F02FFA641CE4B20A2CF5D3ABE0DD
:1025E0005949884219D80525002407E0FF23002215
:1025F0001946204600F01EFA641CE4B2AC42F5D342
:102600002C4607E000231A461946204600F012FA2D
:10261000641CE4B20A2CF5D38EE04B49FA318842AF
:1026200019D80625002407E0FF230022194620467A
:1026300000F000FA641CE4B2AC42F5D32C4607E08B
:1026400000231A461946204600F0F4F9641CE4B24F
:102650000A2CF5D370E03D49884219D8072500249B
:1026600007E0FF2300221946204600F0E3F9641C2E
:10267000E4B2AC42F5D32C4607E000231A461946D3
:10268000204600F0D7F9641CE4B20A2CF5D353E0DD
:102690007D210901884219D80825002407E0FF237D
:1026A00000221946204600F0C5F9641CE4B2AC4291
:1026B000F5D32C4607E000231A461946204600F0C1
:1026C000B9F9641CE4B20A2CF5D335E020498842FC
:1026D00019D80925002407E0FF23002219462046C7
:1026E00000F0A8F9641CE4B2AC42F5D32C4607E034
:1026F00000231A461946204600F09CF9641CE4B2F7
:102700000A2CF5D318E00A25002407E0FF23002255
:102710001946204600F08EF9641CE4B2AC42F5D3B1
:102720002C4607E000231A461946204600F082F99D
:10273000641CE4B20A2CF5D300F05AF970BD000015
:102740003A000020EE020000E2040000D60600007D
:10275000CA0800000A4A3228117802D2491C1170B6
:1027600001E0491E11701078002801D1012010707D
:102770001078322801D9322010701078704700008C
:1027800008000020F8B5904DE878FFF7E3FF064613
:102790008E480078030000F0FCF90BF407152F4970
:1027A000637D97B1CBE5F4000A27002407E03346A8
:1027B00032463146204600F03DF9641CE4B2BC428A
:1027C000F5D3F5E00927002407E0334632463146C9
:1027D000204600F02FF9641CE4B2BC42F5D33C461D
:1027E00007E000231A461946204600F023F9641C2E
:1027F000E4B20A2CF5D3DBE00827002407E03346D7
:1028000032463146204600F015F9641CE4B2BC4261
:10281000F5D33C4607E000231A461946204600F04F
:1028200009F9641CE4B20A2CF5D3C1E0072700249F
:1028300007E0334632463146204600F0FBF8641C80
:10284000E4B2BC42F5D33C4607E000231A461946E1
:10285000204600F0EFF8641CE4B20A2CF5D3A7E0A0
:102860000627002407E0334632463146204600F072
:10287000E1F8641CE4B2BC42F5D33C4607E0002317
:102880001A461946204600F0D5F8641CE4B20A2C1A
:10289000F5D38DE00527002407E033463246314664
:1028A000204600F0C7F8641CE4B2BC42F5D33C46B5
:1028B00007E000231A461946204600F0BBF8641CC6
:1028C000E4B20A2CF5D373E00427002407E0334672
:1028D00032463146204600F0ADF8641CE4B2BC42FA
:1028E000F5D33C4607E000231A461946204600F07F
:1028F000A1F8641CE4B20A2CF5D359E003270024A4
:1029000007E0334632463146204600F093F8641C17
:10291000E4B2BC42F5D33C4607E000231A46194610
:10292000204600F087F8641CE4B20A2CF5D33FE09F
:102930000227002407E0002332461946204600F013
:1029400079F8641CE4B2BC42F5D33C4607E00023AE
:102950001A461946204600F06DF8641CE4B20A2CB1
:10296000F5D325E00127002407E00023324619466D
:10297000204600F05FF8641CE4B2BC42F5D33C464C
:1029800008E00AE000231A461946204600F052F8F3
:10299000641CE4B20A2CF5D30AE0002400231A4692
:1029A0001946204600F046F8641CE4B20A2CF5D320
:1029B000E878401CC0B2E870642801D10020E870BB
:1029C00000F016F8F8BD0000080000202E000020DE
:1029D00070B50024054DFEF723FDE02003E02870CC
:1029E0006D1C641CA4B2F02CF9D370BD70000020E3
:1029F00070B500240D4D012080F310880C49102083
:102A00008862FA2000F02AF92878E0280AD0FFF737
:102A100061FD6D1C641CA4B2F02CF5D3002080F382
:102A2000108870BDFFF74CFDF3E700007000002038
:102A3000000C0048F0B5002418267043124EFF2504
:102A40008019E026082C07D20F0601D5055500E0B5
:102A500006554906090E12E0102C07D2170601D5BB
:102A6000055500E006555206120E08E0182C06D255
:102A70001F0601D5055500E006555B061B0E641CBC
:102A8000E4B2182CDED3F0BD7000002070B52D48E4
:102A90000188142930D3002505802B482B4E01785E
:102AA000002917D02A480329007801D1002811D025
:102AB000012922D0032823D002282DD025482649D9
:102AC000007801282BD002282CD003282DD00428F0
:102AD0002FD12DE0002400231A4619462046FFF787
:102AE000A9FF641CE4B20A2CF5D3FFF781FF35700F
:102AF0001A4805701A48057070BDFFF7F9FC70BDE3
:102B00000024FF231A4619462046FFF793FF641C52
:102B1000E4B20A2CF5D370BDFFF734FE70BDCC20B3
:102B2000087006E08020087003E01E20087000E0B6
:102B30000D703078012802D0FFF75EFC70BDFEF703
:102B400039FE70BD02000020280000202C0000206B
:102B50002900002050000020510000202D000020FE
:102B60002E0000202021020C01D010211046020A64
:102B700001D010460839020901D01046091F820809
:102B800001D01046891E420801D0881E7047081ADD
:102B9000704730B47446641E2578641CAB4200D282
:102BA0001D46635D5B00E31830BC184702E008C8AF
:102BB000121F08C1002AFAD170477047002001E0B7
:102BC00001C1121F002AFBD1704710B50C461146F7
:102BD00000F011F8FDF7A6FC2146FDF749FB10BDFA
:102BE00010B50C46114600F010F8FDF79BFC21468D
:102BF000FDF73EFB10BD0A68835C1B02401C105CA5
:102C0000034318B2921C0A60704710B50A68C31CCF
:102C1000845CD35C24062343441C145D801C105C3C
:102C20002404000204432343121D0A60184610BD09
:102C300070B5034600200022074C09E01D78060A03
:102C400075406D005B1C655B00024540A8B2521CDC
:102C50008A42F3D370BD0000DC2C00080146401E00
:102C600080B20029FAD17047FEF7E0FCFDF7E2FEE2
:102C7000FDF7E2FDFFF7ACFEFEF7B6FEFEF7C4FC83
:102C8000E1204002FFF786FAFEF70AFDFFF726FA79
:102C9000FEF7E6FB0E49012008700F490D48086059
:102CA000FEF74AFDFEF770FCFFF7F0FEFEF7B2FEFE
:102CB000FEF7F8FAFEF76CFAFDF7F2FEFFF74CFBB1
:102CC000FDF764FEFDF762FFFEF7DCFBE8E70000BE
:102CD00062000020333353404C00002000002110DC
:102CE000422063308440A550C660E7700881299176
:102CF0004AA16BB18CC1ADD1CEE1EFF1311210021E
:102D000073325222B5529442F772D66239931883C5
:102D10007BB35AA3BDD39CC3FFF3DEE362244334E9
:102D200020040114E664C774A44485546AA54BB515
:102D300028850995EEE5CFF5ACC58DD553367226BD
:102D400011163006D776F6669556B4465BB77AA765
:102D500019973887DFF7FEE79DD7BCC7C448E55809
:102D60008668A7784008611802282338CCC9EDD9B5
:102D70008EE9AFF9488969990AA92BB9F55AD44A5D
:102D8000B77A966A711A500A333A122AFDDBDCCB05
:102D9000BFFB9EEB799B588B3BBB1AABA66C877C29
:102DA000E44CC55C222C033C600C411CAEED8FFD55
:102DB000ECCDCDDD2AAD0BBD688D499D977EB66EFD
:102DC000D55EF44E133E322E511E700E9FFFBEEFA5
:102DD000DDDFFCCF1BBF3AAF599F788F8891A98167
:102DE000CAB1EBA10CD12DC14EF16FE18010A10051
:102DF000C230E3200450254046706760B983989341
:102E0000FBA3DAB33DC31CD37FE35EF3B1029012A0
:102E1000F322D2323542145277625672EAB5CBA50C
:102E2000A89589856EF54FE52CD50DC5E234C324F0
:102E3000A01481046674476424540544DBA7FAB7E0
:102E40009987B8975FE77EF71DC73CD7D326F23640
:102E50009106B01657667676154634564CD96DC92C
:102E60000EF92FE9C899E9898AB9ABA94458654890
:102E700006782768C018E1088238A3287DCB5CDB80
:102E80003FEB1EFBF98BD89BBBAB9ABB754A545AE0
:102E9000376A167AF10AD01AB32A923A2EFD0FED4C
:102EA0006CDD4DCDAABD8BADE89DC98D267C076C30
:102EB000645C454CA23C832CE01CC10C1FEF3EFF20
:102EC0005DCF7CDF9BAFBABFD98FF89F176E367E80
:102ED000554E745E932EB23ED10EF01E00000000DF
:102EE00001020304010006000100010001000100CD
:102EF00001000100020004000800100040008000F2
:102F000000010002242F00080000002070000000D3
:102F1000AC2B0008942F0008700000202005000052
:102F2000BC2B0008000000000000000001000000B1
:102F30000000000000000000000000000000000091
:102F40000000000000000000000000000000000081
:102F50000000000000000000000000000000000071
:102F60000000000000000000000000000000000061
:102F70000000000000000000000000000000000051
:102F80000100000000000000000000000000000040
:042F9000000000003D
:04000005080000C12E
:00000001FF
