:020000040800F2
:1000000090050020D5000008ED1D0008C319000868
:1000100000000000000000000000000000000000E0
:10002000000000000000000000000000E1240008C3
:100030000000000000000000611E0008B526000856
:10004000E700000800000000E7000008E7000008E3
:10005000E7000008E7000008E7000008E7000008E4
:10006000E7000008E7000008E7000008E7000008D4
:10007000E7000008E7000008E7000008E7000008C4
:1000800000000000FD260008000000000000000045
:1000900000000000E7000008E7000008E700000893
:1000A00000000000E700000800000000A929000887
:1000B0000000000000000000000000000000000040
:1000C0000348854600F0B6FB00480047E1360008CB
:1000D000900500200448804704480047FEE7FEE7FB
:1000E000FEE7FEE7FEE7FEE7B9260008C1000008CC
:1000F00030B50B46014600202022012409E00D46C0
:10010000D5409D4205D31D469540491B2546954047
:1001100040191546521E002DF1DC30BD03460B433D
:100120009B0703D009E008C9121F08C0042AFAD2AD
:1001300003E00B780370401C491C521EF9D2704733
:10014000F8B502464A40D40F42004B0052085B0803
:100150009A4202D20246084611464A0023D0C30DF5
:100160004A00DDB2120EAD1A202D35DA4902012601
:10017000490AF6058A19002C00D0524220214F1B53
:100180001146B9402A411018C20D9A4221D0002CC4
:1001900017D0012D08DCDA05801AD20F8019D2079A
:1001A000DBB200F0AFFAF8BDDA05801A0123400097
:1001B0001B06C01880185A428018CA0F1043490005
:1001C00007E04908C2071143DA05801A8019400880
:1001D000801800F08FFAF8BD61000122511A001B4F
:1001E000F7E70122D2075140AAE70122D207504087
:1001F000A6E7024670B54A40D30FDB0740002DD07A
:100200004A002AD0010E140E000212020919400AF7
:10021000520A8418E50104465443000A120A2E04C7
:100220005043A4194219200CC543AA18120C0125E9
:10023000AD03521C521912047F39240400D0521C01
:10024000104301D44000491EC2B20C06C009201858
:10025000401C4008802A02D003E0002070BD400806
:100260004000002900DA0020184370BD70B5024636
:100270004A40D50F40004A00ED07400852080028C8
:1002800014D0002A12D0C40DD30D41020120C005A4
:100290005202490A520AE41A091812187D3491428E
:1002A00001D3641C00E04900002C01DA002070BD7D
:1002B0000023914201D3891A0343400849000028D2
:1002C000F7D100290AD0914202D10121C90705E0E6
:1002D000914201D2012101E00121C943E005C0188A
:1002E000401900F007FA70BDF0B5074608465840BF
:1002F00087B0C00F049048000E46590040084908D6
:10030000BC1A884105D2384631461E4617460B4670
:1003100002465800400810434CD0300D0390400571
:100320005900400D490D0590401A0290402872DA9C
:1003300018030121000B090508430190049800925D
:10034000002805D001995242002088410092019076
:10035000029840210A1A0199009800F097F9054681
:100360000C466B4607CB00F0B2F9C0197141039AF5
:100370000E0D0023D71756401A467A40164344D034
:10038000049A002A2DD0029A012A039A15DC12053C
:10039000C01A914101263605001C7141D20F059EFD
:1003A000D2070093019202962A46234600F0F0F904
:1003B00007B0F0BD38463146FAE71605224A0F4627
:1003C000B218C01AB74101210905001C4F4100189D
:1003D0007F41114618187941E20F10436D196441AD
:1003E00013E0E2076D0815436408C2071443039A3B
:1003F00001261205C01A91413605001C7141CE0735
:10040000400830434908C01851412A46234600F0AD
:10041000B2F9CDE7FFE7049801224000C117121A94
:1004200000238B4104983146C417381AA141EEE7E6
:1004300030B40124E407634030BC55E730B40124F4
:10044000E407614030BC4FE70000E0FFF0B51FB4A7
:1004500088B00B990998002448400999C00F4900B9
:1004600049080991C0070B990090490049080B9170
:1004700009990898A64608431CD00B990A98084386
:1004800018D0099801244000420D4800410D0998F8
:1004900024050003000B204309900B980003000B78
:1004A00020430B9050181C4940180022019014461C
:1004B000104605E0002001460DB0F0BD032801DA2A
:1004C000034600E003239C46C11A0AAE0AE05F001F
:1004D00008ADED5B4F00F75B7D430027AA187C4118
:1004E000491C5B1E6145F2DD410004AB5A522104F8
:1004F000120C0A43240C401C0828DFDB01980290F0
:100500000099704601910090059B049A07990698FE
:1005100000F03EF9D0E700000DFCFFFFC217C10F4D
:10052000504010B54018CA079623002100F0EAF8A1
:1005300010BD00000EB505490291002100910A4648
:100540000B46019100F024F903B000BD3304000014
:10055000410040020122400AD205090E80187F297D
:1005600001DA00207047962903DC9622511AC84010
:1005700070479639884070474A0009030123090BE8
:100580001B051943094B10B5520D9A4201DA0020A0
:1005900010BD064B34339A4203DC9A1A00F086F8F9
:1005A00010BD03495118884010BD0000FF03000032
:1005B000CDFBFFFFC20FD207400040080BD0C10D9A
:1005C0000723DB01C91840020905400A1143C2088C
:1005D00040071143704700200146704710B50029BD
:1005E00004DB0124E40740428C412146002B04DB5C
:1005F0001C460123DB075242A3418B4200D18242B9
:1006000010BD000010B5002904DB0124E4074042BE
:100610008C412146002B04DB1C460123DB075242A0
:10062000A341994200D1904210BD0000CB0FDB07DF
:10063000490010B5490802460A4307D00A0D0724AD
:100640000903E401090B121B002A01DC002010BD84
:10065000C900440F0C43C100E018D205801800F017
:1006600049F810BD0122D207002800DB101A00292A
:1006700000DB511A814270470122D207002800DBBB
:10068000101A002900DB511A8842704710B5202A41
:1006900004DB0146203A9140002010BD9140202308
:1006A0009C1A0346E3401943904010BD10B5202A20
:1006B00004DB0846203AD040002110BD0B46D34051
:1006C000D0402024A21A91400843194610BD10B50D
:1006D000202A06DBCB170846203A1041C1170B43EE
:1006E00006E00B461341D0402024A21A9140084353
:1006F000194610BD002904DA401C490001D1400808
:100700004000704770B40024050C05D1102400048B
:1007100002D1002921D01124050E01D10002083494
:10072000050F01D10001241D850F01D18000A41CFB
:10073000002801DB4000641C002908D020252E1B66
:100740000D46F540A14000D0012129430843010690
:100750001B1B000ADB1D02D5002070BC7047DB05A7
:10076000181880180029F8DA401C4900F5D170BC2F
:1007700040084000704710B5002B08DA0024401CE8
:10078000614192185B411A4301D14008400010BDFD
:10079000F0B51FB482B005460C0003D0084602F045
:1007A00007FF02E002F004FF2030024600902146DD
:1007B0002846FFF76BFF049B059A04460F46184333
:1007C0001143084314D0184610431BD00098402111
:1007D0000A1A18460599FFF769FF05460E46009A62
:1007E00005990498FFF752FF084305D0012004E063
:1007F0002046394607B0F0BD0020C11705430E431F
:100800002C43374300990E986305401A7905E40A92
:1008100000220C43FD0A0A3002D500200146E9E718
:100820000105101969410C9C0D9D00196941FFF7E4
:10083000A2FFDFE7064C0125064E05E0E36807CC82
:100840002B430C3C98471034B442F7D3FFF73CFCE1
:10085000A0390008C039000800B589B00121080599
:1008600001F02AFD0121C80401F026FD0121480202
:1008700001F042FD0C20069003216846017700211B
:10088000C17706A9194801F01FF80722032117486C
:1008900001F06DF807220221144801F068F81020D9
:1008A00006900321684601770021C17706A9104808
:1008B00001F00AF8072204210D4801F058F80D480C
:1008C00000F032F801A800F079F8012168460171C2
:1008D000002003900490059001A9064800F050F80C
:1008E0000121044800F014F809B000BD000C0048D4
:1008F000000800480024014010B50B460021836227
:1009000000BF0C4614432146416110BD0160704791
:10091000002904D0826801231A43826003E08268C0
:1009200002231A438260704710B50446054884428A
:1009300007D10121401501F0EFFC0021601501F005
:10094000EBFC10BD002401400146086C80B27047EA
:1009500030B5024600200023012424060C40002C60
:1009600005D0946801252D06AC43234600E01368AA
:100970001C460C40002C01D0012000E0002030BDBE
:1009800010B50022C268074B1A400B785B034C6815
:1009900023438C682343CC6823430C6923431A43C5
:1009A000C26010BD00D2FFFF816804221143816044
:1009B00070478168102211438160704700210170E7
:1009C00041608160C160016170470000F8B529484D
:1009D0000078002802D0012848D106E000202649EE
:1009E000088001202349087041E0234800886428DA
:1009F0003BDD002020490880032001F033FD1F4922
:100A00000880012001F02EFD1D490880022001F020
:100A100029FD1C4908801A480088FFF78BFD06460F
:100A2000194A1A4BFFF712FD0446FFF7FFFD18495C
:100A3000086014480088FFF77DFD0646124A134BF4
:100A4000FFF704FD0446FFF7F1FD124908600B486B
:100A50000088FFF76FFD04460F4A104BFFF7F6FCC6
:100A60000646FFF7E3FD0E49086000E000BF00BF47
:100A7000F8BD00001B0000203E0000201C000020EC
:100A80001E000020200000201F85EB51B81E553F9E
:100A900044000020480000206666666666664A3F9D
:100AA0004C0000200EB50121480401F005FC012195
:100AB0006846017100218171082000906846C1716B
:100AC0000121417169460920C00600F0FDFE0820A1
:100AD0000921C90688620EBD0149088070470000DF
:100AE0006C0000200F48008800281ADD0E480078AE
:100AF000002807D101200C49087008200921C906E7
:100B000088610EE007480088401E064908800846B4
:100B10000088002805D10449087008200921C90669
:100B2000886270476C0000206E000020FEB54B48C4
:100B30000078022803D14A480078012807D108200C
:100B40000921C9068862002046490870FEBD464852
:100B5000007800280DD14548007845490978884239
:100B600007D108200921C906886200203D49087084
:100B7000ECE73D480078002838D03A480078002853
:100B800004D001281DD002282ED123E03648007859
:100B9000FFF7D0FC0446374A374BFFF757FC0646B1
:100BA0000022364BFFF7A0FB01910090FFF7E4FC19
:100BB0003349088000203349088001202949087002
:100BC00013E02F4909888810FFF786FF0220254986
:100BD00008700AE02B48008829490988884202DD0C
:100BE00000202049087000E000BF34E01D48007874
:100BF000002804D0012809D002282AD10DE00020C5
:100C00002049088001201749087023E0C820FFF719
:100C100063FF0220134908701CE01A480088FF2176
:100C20009131884214DD18480078401C164908703C
:100C300000200C490870144800780D490978884252
:100C400006D100201049087009480078074908704B
:100C500000E000BF00BF00BF78E7000028000020D0
:100C60002F0000201400002052000020150000205A
:100C7000500000203D0AD7A3703D06C000D084403C
:100C80001800002034000020160000207FB5002648
:100C9000FE480078012804D0022814D0032870D11F
:100CA00059E2FB480068FFF785FC04460022F94B37
:100CB000FFF794FC03D20220F749087002E00020FD
:100CC000F549087043E3F548007801287ED10220F9
:100CD000F2490870F24908690021FFF7C3FC06D207
:100CE000EF4800690121C9074840ED490861EC4916
:100CF0000869FFF75FFC0446EA4AEB4BFFF782FC0A
:100D00000CD8E7490869E949FFF773FA0446FFF789
:100D10001FFC8000DC38E649087002E00020E4494E
:100D20000870E4480068FFF745FC0446E24AE34BDC
:100D3000FFF768FC09D3E2480068FFF73BFC044674
:100D4000DD4ADE4BFFF75EFC0DD2D5484069C72176
:100D5000C943884203DD0220DA49087015E0032008
:100D6000D849087011E0CA480068FFF723FC044620
:100D70000022C84BFFF732FC04D20020D149087092
:100D800003E0D2E20420CF490870C548406900283A
:100D900004DAC34840694042C1494861C049886992
:100DA000C949FFF763FA0646C8480068FFF702FC26
:100DB0000446C74AC74BFFF797FA039102903046A3
:100DC000FFF7F8FB01910090039B00E0C2E1029A5B
:100DD000FFF718FC14D3BD480068FFF7EBFB04468F
:100DE000BB4ABC4BFFF724FB039102903046FFF750
:100DF000E1FB01910090039B029AFFF7EFFB76D293
:100E00003046FFF7D7FB0446AB4A5242B24BFFF7DE
:100E1000F9FB03D20120B149087075E03046FFF7B5
:100E2000C9FB0446AE4AAF4BFFF7ECFB03D20220EE
:100E3000AA49087068E03046FFF7BCFB04469E4AAA
:100E4000A94BFFF7DFFB03D20320A44908705BE046
:100E50003046FFF7AFFB0446A44AA54BFFF7D2FB91
:100E600003D204209D4908704EE03046FFF7A2FBF4
:100E70000446A04AA04BFFF7C5FB03D205209749C3
:100E8000087041E03046FFF795FB0446994A52420C
:100E90009A4BFFF7B7FB03D206209049087033E066
:100EA0003046FFF787FB04468D4A954BFFF7AAFBB8
:100EB00003D207208949087026E03046FFF77AFB05
:100EC000044600228F4BFFF79DFB03D20820834985
:100ED000087019E03046FFF76DFB04468A4A8B4BD9
:100EE000FFF790FB04D209207C4908700CE00DE06C
:100EF0003046FFF75FFB0446754A854BFFF782FBE0
:100F000002D20A2075490870704806606449C868B2
:100F10000021FFF7A7FB06D26148C0680121C9077D
:100F200048405F49C8605E484069FA2849DA61482C
:100F30000068FFF73FFB04465F4A604BFFF74EFB3C
:100F40000DD25F480068FFF735FB04465A4A5B4BF9
:100F5000FFF744FB03D201206E4908704BE055486F
:100F60000068FFF727FB0446534A544BFFF74AFB40
:100F700010D253480068FFF71DFB04464E4A4F4B02
:100F8000FFF740FB06D20220624908700320624945
:100F9000087030E047480068FFF70CFB0446464AFB
:100FA000464BFFF72FFB06D202205A49087001205A
:100FB000594908701FE002205649087056490870C8
:100FC00019E03749C868FFF7F5FA0446354A524236
:100FD000524BFFF703FB08D2314840695049884221
:100FE00003DA01204B49087005E0022049490870E6
:100FF00004204949087026480068FFF7DBFA0446D8
:101000000022244BFFF7EAFA19D22549C868FFF7F6
:10101000D1FA0446234A5242404BFFF7DFFA0ED280
:10102000404800887D21C900884217DD02201A4906
:101030000870002023490870364908700EE01448F3
:101040000068FFF7B7FA04460022124BFFF7DAFAFE
:1010500004D2002010490870324908801548006801
:10106000FFF7A8FA0446144A144BFFF7CBFA5ED3F5
:1010700013480068FFF79EFA04460F4A0F4BFFF72C
:10108000C1FA54D3064840697D214DE02800002074
:101090004C00002000000840290000203000002003
:1010A00060020020666666666666E63F0000C8422B
:1010B00052000020440000203333333333330740E1
:1010C000480000202A0000200000A0412400002049
:1010D0007B14AE47E17A943FCC4C10402E000020A8
:1010E000295C8FC2F528104033330F408FC2F5289A
:1010F0005C8F0E40E17A14AE47E10D40B81E0D4002
:10110000F5280C4000000B4048E17A14AE47094036
:10111000E17A06402C0000202D0000209999E93F3B
:10112000701700005E000020C900884204DD002026
:10113000884908808849087086480088874988421D
:1011400008DD00208349088083480078401C8249DC
:10115000087000BFFBE082480078002823D1814856
:10116000008896281FDD80480068FFF723FA0446B0
:101170007E4A7F4BFFF732FA11D200217A4800688D
:10118000FFF77AFA0BD27B480078401C7949087047
:10119000084600780A2801DD00200870C4E000201D
:1011A00074490870C0E06F4800889628F6DD7F21FA
:1011B000C90571480068FEF7C3FF04466F49FFF791
:1011C00055F806466E4800780228E7D16D48006859
:1011D000FFF7F0F904466C4A6C4BFFF785F8039172
:1011E00002903046FFF7E6F901910090039B029AC6
:1011F000FFF708FA14D363480068FFF7DBF90446E9
:10120000614A624BFFF714F9039102903046FFF7F1
:10121000D1F901910090039B029AFFF7DFF974D294
:101220003046FFF7C7F90446594A5A4BFFF7EAF927
:1012300003D201205849087074E03046FFF7BAF92C
:101240000446564A564BFFF7DDF903D202205249B5
:10125000087067E03046FFF7ADF904464C4A514B41
:10126000FFF7D0F903D203204B4908705AE030460B
:10127000FFF7A0F904464C4A4C4BFFF7C3F903D2E1
:101280000420454908704DE03046FFF793F90446C5
:10129000474A484BFFF7B6F903D205203E4908708C
:1012A00040E03046FFF786F90446434A434BFFF7D8
:1012B000A9F903D206203849087033E03046FFF719
:1012C00079F904463E4A3F4BFFF79CF903D20720C9
:1012D0003149087026E03046FFF76CF904463A4A77
:1012E0003A4BFFF78FF903D208202B49087019E019
:1012F0003046FFF75FF90446354A364BFFF782F96F
:1013000004D20920244908700CE00DE03046FFF7B4
:1013100051F904461C4A304BFFF774F902D20A20F7
:101320001D4908701748066011E013480068FFF770
:1013300041F904460022294BFFF750F903D202205D
:101340000F49087002E000200D49087000BF00BF7F
:101350007FBD0000400000204200002060EA000045
:101360005C00002036000020580000203333333367
:101370003333D33F5D0000204C0000200000A0412B
:1013800029000020240000207B14AE47E17A943F1E
:1013900048E17A14AE4710402E0000209A9999999E
:1013A00099191040AE470F4079E9263108AC0E403C
:1013B0002B8716D9CEF70D404260E5D022DB0C40DA
:1013C000EC51B81E85EB0B40022B8716D9CE0A4094
:1013D000F2D24D6210580940E17A06400000084000
:1013E00070B586B005460E460024804800788049D6
:1013F0000978884206D000207E4908707C48007831
:101400007A4908707A480078042805D17A497B48DF
:1014100001F076FA06B070BD76480078030002F05D
:10142000DEF806041B223457DAE1012D08D14020F2
:10143000734988628020886101207249087007E042
:1014400080206F4988624020886102206D490870C1
:10145000012068490870C6E000206B49088002201E
:1014600064490870BFE0012E07D16849634801F064
:1014700047FA03205F49087006E05F495F4801F0C2
:101480003FFA04205B490870ADE05F490888C10F4E
:10149000091849104900411A0CD15B490888C10F4D
:1014A00009184C105948001B401C84B2214653486F
:1014B00001F026FA544800887D210901884206DBA4
:1014C0004D494E4801F01CFA05204A4908708AE04F
:1014D0004D490888C10F091849104900411A51D1D6
:1014E0004B480078012806D002280FD0032827D0C7
:1014F000042841D13EE0444800887D21C9004018BD
:1015000084B24248001B401C84B236E03E4800884A
:10151000FFF710F800223F4B01910090FEF796FF75
:1015200000223D4B03910290FEF7DEFE05910490F0
:10153000FFF722F884B23548001B401C84B21CE03F
:1015400031480088FEF7F6FF0022344B01910090ED
:10155000FEF77CFF0022304B03910290FEF7C4FEA1
:1015600005910490FFF708F884B22848001B401C3E
:1015700084B202E0254C00E000BF00BF21461F48B6
:1015800001F0BEF9204800887D210901884221DB55
:101590001F480078012806D0022809D003280DD062
:1015A000042812D10FE01E49144801F0A9F90DE0FA
:1015B0007D214901114801F0A3F907E000210F48FE
:1015C00001F09EF902E0114C00E000BF00BF0520D1
:1015D0000849087007E002201249087000200549F8
:1015E000087000E000BF00BF00BF13E70A00002042
:1015F0002A0000200F00002028230000002C0140BA
:101600000008004809000020380000200F270000D3
:10161000500000200000044000408F4000001240B5
:10162000581B00002B00002070B55348007800289C
:1016300003D101205149087070BD5048007801283D
:1016400006D100204D4908704D4908704D49088069
:101650004B4800784C490978884208D149480088AD
:101660004A49884203DB084646490880E4E7444883
:10167000007845490978884263D045480068FEF7FC
:1016800099FF04460022434BFEF7A8FF2FD24248A1
:101690000068FEF78FFF044600223E4BFEF79EFFD8
:1016A00025D239480078012806D0022809D003281D
:1016B0000DD0042815D10FE03849394801F020F940
:1016C00010E07D214901364801F01AF90AE00021B5
:1016D000334801F015F905E03249314801F010F9BD
:1016E00000E000BF00BF00202649088024E0264813
:1016F0000078012806D0022809D003280DD004283C
:1017000015D10FE02549264801F0FAF810E07D21B7
:101710004901234801F0F4F80AE00021204801F0D3
:10172000EFF805E01F491E4801F0EAF800E000BFAD
:1017300000BF164813490880134800781049087004
:1017400017E01048008811496439884211DB0E48BF
:101750000078042804D11349114801F0D1F804E0BD
:1017600011490F4801F0CCF800BF00BF07480549F8
:10177000088000BF60E700002A000020130000205E
:101780001200002054000020500000201C0C00001B
:10179000440000200000044048000020581B0000C6
:1017A000002C01400F2700002823000010B53D4801
:1017B0000078032807D03B480078002803D03A4837
:1017C0000078002807D13949394801F099F80120FB
:1017D0003849087010BD37480078012817D100201B
:1017E0003449087034480078042808D13349087017
:1017F00002203349087004202B49087007E00020BC
:101800002E4908702E4908700120274908702B487E
:10181000007825490978884204D1294800780228AF
:1018200000D1D7E7254800781F490978884206D0BB
:101830001D480078214908700120214908701E4880
:101840000078042804D11949194801F059F8C1E772
:1018500015480078012806D0022809D003280CD0AA
:1018600004281AD10EE001210846FFF7B9FD15E062
:1018700002210120FFF7B4FD10E002210846FFF726
:10188000AFFD0BE002210846FFF7AAFD02200C493C
:10189000087003200B49087000E000BF00BF00BFC4
:1018A00098E70000280000202A0000200F270000F1
:1018B000002C0140110000205000002010000020EA
:1018C0002B00002009000020F0B500220023002496
:1018D00000BF3DE0012595402B460D681D402C467C
:1018E0009C4234D10D79012D02D00D79022D16D1F3
:1018F000856857000326BE40B54385604D79560084
:10190000B540866835438560456801269640B543F5
:10191000456045688E799640B6B2354345600568A6
:1019200057000326BE40B54305600D795600B5400B
:10193000066835430560C56857000326BE40B543B9
:10194000C560CD795600B540C6683543C560521CA8
:10195000102ABFD30D7A002D04D1056B0E683543D4
:10196000056303E0056B0E68B5430563F0BDF0B594
:10197000002300244D07EE0E1546B5402B46CD1032
:10198000AE0005462035AD594E07F70E0F26BE4076
:10199000B543CE10B60007462037BD51CD10AE007E
:1019A0003D46AD591D432C46CD10AD003E46745109
:1019B000F0BD38B5044600940121684600F092FD60
:1019C00038BD00BFFEE700000EB50121080500F09C
:1019D00073FC012168460171002181711020009083
:1019E0006846C1710121417169460348FFF76CFFE8
:1019F0001020014988610EBD000C004801480249D1
:101A000008607047CCCC00000030004010B507489B
:101A100000F022F8052000F013F87D20C00000F04F
:101A200015F800F005F8FFF7E9FF10BD5555000067
:101A30000148024908607047AAAA0000003000402F
:101A4000014948607047000000300040014988604B
:101A500070470000003000400149086070470000F6
:101A60000030004000B551480078030001F0B7FD98
:101A700005041F49747E9B004D4800690007C00F94
:101A800000280ED14B480088401C4A49088008466F
:101A9000008814280AD100200880012043490870DA
:101AA00004E0002043490880434908807BE0414826
:101AB0000088401C3F4908803F480088401C3E4940
:101AC00008803B4800690007C00F00280BD03B4846
:101AD0000088401C394908800220344908700020E1
:101AE000344908800CE0334800883549884207DDD6
:101AF00000203049088003202C49087031490870C3
:101B000051E02D480088401C2B4908800846008879
:101B1000FF21F531884218DA254800690007C00F17
:101B200000280ED123480088401C2249088008461E
:101B3000008802280FD10020088001201B4908706E
:101B400009E000201B49088005E000201A490880B0
:101B500004201649087026E0154800690007C00FE8
:101B6000002802D00020114908701CE013480088AA
:101B7000012804D0022806D003280CD107E0012058
:101B80001049087008E002200E49087004E00420A3
:101B90000C49087000E000BF00BF00200749088022
:101BA0000249087000BF00BF00BD000065000020B2
:101BB0000008004866000020680000206A0000203D
:101BC000DC0500006400002023480078002803D0D2
:101BD00022480078032800D170471F480078012868
:101BE00006D002280CD003281AD004282ED11DE0DC
:101BF0001A480078022802D001201849087025E010
:101C00001648007802280AD115480078401C14496B
:101C1000087008460078052801D10120087015E0F9
:101C2000002010490870104908700FE00B48007838
:101C300002280AD10D480078022803D101200B495F
:101C4000087002E002200949087000BF00BF0020B0
:101C50000149087000BFBFE7640000202800002091
:101C6000500000202A0000202C0000202F0000201F
:101C70000EB50121C80400F01FFB00216846017168
:101C80000820009001216846C17169460148FFF7AC
:101C90001BFE0EBD000800480EB50121480400F0EF
:101CA0000BFB0121C80400F007FB0121684601710C
:101CB00000218171022000906846C17101214171AB
:101CC00069460920C006FFF7FFFD01216846017142
:101CD00000218171802000906846C171012141710D
:101CE00069460E48FFF7F0FD0121684601710021A9
:101CF0008171402000906846C1710121417169469F
:101D00000648FFF7E1FD02200921C906886280200C
:101D100002498862402088620EBD00000008004829
:101D200000B58BB00121880400F0C6FA0121C80279
:101D300000F0E2FA10200890022108A801710121A8
:101D4000417100218171C17108A91B48FFF7BCFDD9
:101D5000032204211848FFF70AFE1F2168468182EA
:101D60000021C1821548069068468183817705A9C4
:101D7000134800F0C7FD70216846018001214180B1
:101D8000042181800D48029002216846818108214A
:101D9000C18149010182002141826946084800F061
:101DA0005BFD0121064800F01BFD0121044800F005
:101DB00025FD0BB000BD0000000400480F27000007
:101DC000002C014008480088FF21F53188420ADBD9
:101DD0000020054908800920C006406902214840CA
:101DE0000921C90648617047620000207047000061
:101DF00000218278002A27D0184A03231B02D21818
:101E000003789B109B00D15802789207D30EFF22D3
:101E10009A400B469343194642789207120E037874
:101E20009B07DB0E9A4011430C4A03231B02D21876
:101E300003789B109B00D1500278D306DB0E012261
:101E40009A40064B1A6007E00278D306DB0E0122A7
:101E50009A40024B80331A607047000000E100E0B6
:101E60007047000070B590480078030001F0B7FBA0
:101E70000BEF0716314C67829DB8D3F0EF000A25AF
:101E8000002408E08948037802780178204601F0B0
:101E9000BFFA601CC4B2AC42F4DB01E109250024A6
:101EA00008E08248037802780178204601F0B0FA11
:101EB000601CC4B2AC42F4DB2C4607E000231A4697
:101EC0001946204601F0A4FA601CC4B20A2CF5DBC6
:101ED000E6E00825002408E07448037802780178D9
:101EE000204601F095FA601CC4B2AC42F4DB2C46EB
:101EF00007E000231A461946204601F089FA601CC3
:101F0000C4B20A2CF5DBCBE00725002408E06748C3
:101F1000037802780178204601F07AFA601CC4B296
:101F2000AC42F4DB2C4607E000231A461946204653
:101F300001F06EFA601CC4B20A2CF5DBB0E0062595
:101F4000002408E05948037802780178204601F01F
:101F50005FFA601CC4B2AC42F4DB2C4607E00023FD
:101F60001A461946204601F053FA601CC4B20A2CE6
:101F7000F5DB95E00525002408E04C48037802785D
:101F80000178204601F044FA601CC4B2AC42F4DB94
:101F90002C4607E000231A461946204601F038FA7D
:101FA000601CC4B20A2CF5DB7AE00425002408E0AA
:101FB0003E48037802780178204601F029FA601C37
:101FC000C4B2AC42F4DB2C4607E000231A461946A3
:101FD000204601F01DFA601CC4B20A2CF5DB5FE05C
:101FE0000325002408E03148037802780178204670
:101FF00001F00EFA601CC4B2AC42F4DB2C4607E0E0
:1020000000231A461946204601F002FA601CC4B2A9
:102010000A2CF5DB44E00225002408E000232348D5
:1020200002781946204601F0F3F9601CC4B2AC42B4
:10203000F4DB2C4607E000231A461946204601F03F
:10204000E7F9601CC4B20A2CF5DB29E000E01AE0D5
:102050000125002408E00023144802781946204690
:1020600001F0D6F9601CC4B2AC42F4DB2C4607E0A8
:1020700000231A461946204601F0CAF9601CC4B272
:102080000A2CF5DB0CE0002407E000231A46194671
:10209000204601F0BDF9601CC4B20A2CF5DB00BF7C
:1020A00000BF01F08FF970BD2E000020510000200C
:1020B0000EB50121480400F0FFF8012168460171C6
:1020C00000218171042000906846C1710121417195
:1020D00069460920C006FFF7F7FB04200921C9065D
:1020E00088620EBD2348007823490978884204D1CC
:1020F00021480078012800D070471F4800781D490A
:1021000008701D480078012802D003282ED128E04D
:1021100004200921C906886101201849087018485F
:102120000078002802D0012819D106E000201549C6
:10213000088001201249087011E0124800881249F5
:1021400088420BDD02200C49087001200F490870FD
:1021500002200F49087000200949087000BF00BF25
:1021600005E004200921C906886200E000BF00BF25
:1021700000BFC1E70C000020280000202A0000203A
:102180000D0000203A0000207017000050000020D1
:102190002F000020F0B585B00446002003900025F4
:1021A0000026009029466D1C605C0390039802286D
:1021B00002D0032806D104E02846691C8DB2265CB3
:1021C00000E000BF00BF6019314601F06BFA07461E
:1021D000A819205C0002A919491C615C0143B9429D
:1021E00002D0012005B0F0BD2846691C8DB2205CEC
:1021F0000190601902900198042850D16A4629493B
:10220000029801F009FA284908606A4625490298AF
:1022100001F002FA244948606A462449029801F014
:102220000BFA214988606A462049029801F004FAB5
:102230001D49C8600098083000906A461C49029801
:1022400001F0EAF9184908616946029801F012FAAA
:10225000154948616A461349029801F0DDF91249AF
:1022600088616A461349029801F0E6F90E49C8618F
:102270006A461049029801F0DFF90B49086200989C
:10228000083000906946029801F0F4F90649486266
:102290006946029801F0EEF90349886200BF00BF69
:1022A00000209FE700002041600200200000C8429B
:1022B00000007A4400401C46002905D0054A5269B6
:1022C0000243044B5A6104E0024A52698243014BC3
:1022D0005A61704700100240002905D0054AD269B2
:1022E0000243044BDA6104E0024AD2698243014BA3
:1022F000DA61704700100240002905D0054A926952
:102300000243044B9A6104E0024A92698243014B02
:102310009A61704700100240002905D0054AD26832
:102320000243044BDA6004E0024AD2688243014B64
:10233000DA6070470010024070B5044600250026A0
:10234000414840680C2108400546002D04D0042D6A
:1023500005D00C2D09D105E03C48206008E03B4841
:10236000206005E03A48206000BF3848206000BF88
:1023700000BF35484068F021084005462D09680037
:1023800034490E5A31462068FDF7B2FE60602E488F
:10239000406807210902084005462D0A2E48465D7F
:1023A0006068F040A0602D480069800F8007002819
:1023B0000DD12548C030806A1F2189060840054696
:1023C000AD0EA91C2648FDF793FEE06016E02348F9
:1023D0000069800F800701218907884203D0A06827
:1023E0004008E0600AE01D480069800F8007012175
:1023F000C907884202D0A0688008E0601248006BDC
:1024000010210840102802D01048206101E0206807
:1024100020610D48006B8007800F002802D1A06862
:10242000606110E00848006B8007800F012802D12E
:102430002068606107E00448006B8007800F032874
:1024400001D10248606170BD001002400048E801FF
:1024500050BD010078390008983900080024014077
:102460000090D00370B5044600251C48FEF7A1FA81
:1024700004211A48FEF74AFA012C04D0022C08D095
:10248000032C12D10BE0072204211448FEF734FA82
:102490000BE0072208211148FEF72EFA05E007227B
:1024A00010210E48FEF728FA00BF00BF00BF01212F
:1024B0000A48FEF74DFA0028F9D00848FEF774FAEA
:1024C00000BF04210548FEF743FA0028F9D003486D
:1024D000FEF73AFA0546284670BD00000024014088
:1024E00070470000F8B506460D46002429463046E0
:1024F00001F0D8F80746FF20013085420BDC0222AC
:102500002046611CCCB21B490A542046611CCCB247
:1025100018490D5410E003222046611CCCB2154925
:102520000A542A122046611CCCB212490A54204691
:10253000611CCCB20F490D540E4908192A46314688
:10254000FDF7ECFD6019C4B23A122046611CCCB212
:1025500008490A542046611CCCB206490F54032294
:102560002046611CCCB203490A542146014800F0C0
:10257000C9FAF8BD8C020020F8B500250026002716
:102580000020009000240E48056A280C0090ACB290
:102590000098204000280FD10A4807680A480740E1
:1025A000E006000E6105890E09020843064605484B
:1025B000006830430349086000F008F8F8BD0000E7
:1025C00000F8FF1F001002400700FFFF85B0002049
:1025D000049003900290019000903348006801211C
:1025E0000843314908603048C030806A0F21C90271
:1025F00088432D49C03188620846806A0721C90294
:1026000008432949C031886200BF27480068022179
:10261000084003900498401C04900398002803D1BC
:10262000224904988842F0D11F48006802210840DE
:10263000002802D00120039001E0002003900398BD
:1026400001282FD11A48006802900298C008C000E3
:102650000290022102980843154908601248406818
:102660000190F0210198884301900F49019848603A
:1026700008464068009007210902009888430090AE
:102680000949009848600846406880088000486012
:1026900008464068486000BF034840680C21084075
:1026A0000028F9D105B0704700100240FFFF00007C
:1026B000002002407047000010B50D48006801215D
:1026C00008430B490860084640680A490840084921
:1026D00048600846006B13218843054908630020C1
:1026E0008860FFF749FF00200349486310BD0000E0
:1026F000001002401CB8FFF84020024010B5012134
:10270000274800F088F8002848D00121244800F02C
:1027100063F824480088401C224908802248008829
:10272000401C2149088021480088401C1F4908801E
:102730001F480088401C1E4908801E480088401C15
:102740001C4908801C480088401C1B4908801B4805
:102750000088401C1949088019480088401C184905
:10276000088018480088401C1649088016480088D0
:10277000401C1549088015480088401C13490880F2
:1027800013480088401C1249088012480088401CE9
:1027900010490880FFF766F9FEF7A4F910BD0000A4
:1027A00000100040620000200200002032000020E3
:1027B0003400002036000020380000203A000020BD
:1027C0003C0000203E00002040000020540000207B
:1027D0005E00002060000020CA4392B20261704790
:1027E000002904D0026801231A43026003E0026852
:1027F000014B1A4002607047FEFF0000002905D01F
:10280000426C0123DB031A43426403E0426C52042E
:10281000520C4264704730B5024600200023002469
:1028200015690D402B46D5680D402C46002B03D072
:10283000002C01D0012000E0002030BD10B5002A9E
:1028400003D0C3680B43C36004E0C368CC43A4B2A5
:102850002340C36010BD000070B500240022002397
:10286000056A214E35400562056AAAB24568ABB2D9
:102870008569ACB21D4D2C401D4D2C400D782D06A8
:102880002D0C2C43184D103D2A408D892D052D0C03
:102890002A434D882D052D0C2A43164DA8421CD1E4
:1028A000154D2B400D8AAD042D0C2B430546A84237
:1028B00013D10D4D703D2A40CD892D052D0C2A4395
:1028C000094D303D2A408D882D052D0C2A430B4D96
:1028D0002B404D8AAD042D0C2B43436084618D68E1
:1028E0008563026270BD0000EFFF0000FF8F0000F3
:1028F000FFFC0000002C0140FFFB0000FFF7000080
:1029000081637047002203689AB20F4B984203D04C
:1029100001239B07984203D10C4B1A404B881A4362
:102920000B4B984203D00B4B1A400B891A430260A1
:102930004B68C3620B888362034B984201D18B7A48
:102940000363012343617047002C01408FFF0000A7
:1029500000100040FFFC00001FB501211020FFF710
:10296000BBFC0F4802901F216846818000218181B5
:10297000C18001A90B48FFF7C5FF01221146094894
:10298000FFF75CFF01210748FFF72AFF1121684686
:102990000170012141708170FFF72AFA1FBD00000C
:1029A000E70300000010004010B51C48C06920215A
:1029B000084000280DD0194800F0B1F81748406AC7
:1029C000C1B2174802780078401C154B18701548A2
:1029D00081541248C06910210840002810D01048C6
:1029E00000781149087000200D49087001200F4936
:1029F00008701021094800F092F8084800F02AF900
:102A00000648C06908210840002805D0034800F0A6
:102A100086F8024800F01EF910BD000000380140A1
:102A200001000020600100200000002004000020C0
:102A300010B58AB0044601210805FFF73DFC0121CD
:102A40008803FFF759FC022108A80170002181705A
:102A50000220079008A8C1700121417007A91F48F2
:102A6000FEF732FF012211461C48FEF780FF40208E
:102A70000790012108A881700021C17007A917489B
:102A8000FEF722FF012206211448FEF770FF019491
:102A9000002006900C2005900020049003900290E6
:102AA00001A90F4800F06AF801210D4800F039F83B
:102AB00001220C490A4800F040F801220A4908485E
:102AC00000F03BF81B216846017000214170012194
:102AD0008170FFF78DF90AB010BD0000000C0048AE
:102AE00000380140050105000401040000BF04494D
:102AF000C969802211400029F9D0014988627047D4
:102B00000038014010B503460C4605E01878FFF781
:102B1000EDFF5B1C601EC4B2002CF7D110BD01623A
:102B20007047002904D0026801231A43026003E0C1
:102B300002685208520002607047F8B5034600244C
:102B4000002600960025002018460E04340ECEB252
:102B500000960127009EB7403D46022C01D1001D82
:102B600002E0032C00D10830002A03D006682E436F
:102B7000066002E00668AE430660F8BDF0B587B0B7
:102B800004460D46002700200690002620684008D5
:102B900040002060666803210903304688430646EA
:102BA000A86806436660266827480640E9686868A2
:102BB00008432969084306432660A66803210902E1
:102BC00030468843064668690643A6606846FFF7B4
:102BD000B3FB1E48844202D10598069001E002989A
:102BE000069020680121C903084000280CD02968FC
:102BF000069A5000FDF77CFA07462968069A5000AD
:102C0000FDF776FA0E4609E029680698FDF770FA96
:102C1000074629680698FDF76BFA0E4628684008B3
:102C2000B04200D87F1C20680121C9030840002859
:102C300006D03807460F3846054908403043074656
:102C4000B8B2E06007B0F0BDF3E9FFFF0038014023
:102C5000F0FF00000146486AC005C00D7047000043
:102C600010B532480078022808D000203049886129
:102C70004861C86008612F49087010BD2D48007870
:102C8000002806D0012813D0022833D0032848D1C9
:102C900038E029480088002809DD274800880A28EC
:102CA00005DA0420FEF785FE01202249087039E08C
:102CB00022480078012816D10020204908702048B9
:102CC000FFF768FA0446002C03D101201D49087063
:102CD00002E002201B49087000201B4908800220E6
:102CE0001449087005E003201249087000201649B5
:102CF000088017E014480088642802DB00200D4992
:102D000008700FE00D480078012802D109490870C9
:102D100006E00D480088642802DB002005490870A1
:102D200000E000BF00BF00BFA7E7000028000020B0
:102D3000600200201A000020020000200400002091
:102D400060010020300000203C00002010B5354814
:102D50000078012806D002281ED0032836D0042887
:102D60004FD141E0002408E02F48037800221146AB
:102D7000204600F04DFB601CC4B2052CF4DB05249A
:102D800007E000231A461946204600F041FB601C6C
:102D9000C4B20A2CF5DB41E0002407E000231A4608
:102DA0001946204600F034FB601CC4B2052CF5DB4C
:102DB000052408E01C48037800221146204600F054
:102DC00027FB601CC4B20A2CF4DB27E0002408E0D7
:102DD0001548037800221146204600F019FB601CBC
:102DE000C4B20A2CF4DB19E0002407E000231A46E1
:102DF0001946204600F00CFB601CC4B20A2CF5DB1F
:102E00000CE0002407E000231A461946204600F093
:102E1000FFFA601CC4B20A2CF5DB00BF00BF00F053
:102E2000D1FA10BD2D0000205100002010200349D0
:102E3000886188618861886270470000000C0048E2
:102E4000102005498861886188618861886188618E
:102E50008861886188627047000C004870B5002561
:102E60009D480088FA2819DC0125002407E0FF238B
:102E700000221946204600F0CBFA601CC4B2AC42D6
:102E8000F5DB2C4607E000231A461946204600F0E1
:102E9000BFFA601CC4B20A2CF5DB1AE18E48008828
:102EA000FF21F531884219DC0225002407E0FF23C9
:102EB00000221946204600F0ABFA601CC4B2AC42B6
:102EC000F5DB2C4607E000231A461946204600F0A1
:102ED0009FFA601CC4B20A2CF5DBFAE07E48008839
:102EE0007E49884219DC0325002407E0FF230022E5
:102EF0001946204600F08CFA601CC4B2AC42F5DBE7
:102F00002C4607E000231A461946204600F080FAB6
:102F1000601CC4B20A2CF5DBDBE06F4800887D2121
:102F2000C900884219DC0425002407E0FF230022A1
:102F30001946204600F06CFA601CC4B2AC42F5DBC6
:102F40002C4607E000231A461946204600F060FA96
:102F5000601CC4B20A2CF5DBBBE05F480088604906
:102F6000884219DC0525002407E0FF2300221946CA
:102F7000204600F04DFA601CC4B2AC42F5DB2C4692
:102F800007E000231A461946204600F041FA601C6B
:102F9000C4B20A2CF5DB9CE04F4800885049FA3156
:102FA000884219DC0625002407E0FF230022194689
:102FB000204600F02DFA601CC4B2AC42F5DB2C4672
:102FC00007E000231A461946204600F021FA601C4B
:102FD000C4B20A2CF5DB7CE03F48008841498842B6
:102FE00019DC0725002407E0FF23002219462046AC
:102FF00000F00EFA601CC4B2AC42F5DB2C4607E0D0
:1030000000231A461946204600F002FA601CC4B29A
:103010000A2CF5DB5DE0304800887D2109018842FB
:1030200019DC0825002407E0FF230022194620466A
:1030300000F0EEF9601CC4B2AC42F5DB2C4607E0B0
:1030400000231A461946204600F0E2F9601CC4B27B
:103050000A2CF5DB3DE0204800882349884219DC32
:103060000925002407E0FF2300221946204600F02E
:10307000CFF9601CC4B2AC42F5DB2C4607E000235C
:103080001A461946204600F0C3F9601CC4B20A2C47
:10309000F5DB1EE0104800881349FA31884218DC3D
:1030A0000A25002407E0FF2300221946204600F0ED
:1030B000AFF9601CC4B2AC42F5DB2C4607E000233C
:1030C0001A461946204600F0A3F9601CC4B20A2C27
:1030D000F5DB00F077F970BD3A000020EE02000049
:1030E000E2040000D6060000CA08000001463229AA
:1030F00005DA0E480078401C0C4A107004E00B48BA
:103100000078401E094A107008480078012802DA49
:103110000120064A107005480078322802DD32206E
:10312000024A107001480078704700000800002033
:1031300070B5002692480078FFF7D8FF0646914800
:103140000078030000F04BFA0BF407152F49637D5C
:1031500097B1CBE5F4000A25002407E03346324658
:103160003146204600F054F9601CC4B2AC42F5DB95
:10317000F7E00925002407E0334632463146204671
:1031800000F046F9601CC4B2AC42F5DB2C4607E007
:1031900000231A461946204600F03AF9601CC4B2D2
:1031A0000A2CF5DBDDE00825002407E03346324633
:1031B0003146204600F02CF9601CC4B2AC42F5DB6D
:1031C0002C4607E000231A461946204600F020F955
:1031D000601CC4B20A2CF5DBC3E00725002407E01D
:1031E000334632463146204600F012F9601CC4B224
:1031F000AC42F5DB2C4607E000231A461946204670
:1032000000F006F9601CC4B20A2CF5DBA9E0062523
:10321000002407E0334632463146204600F0F8F8F5
:10322000601CC4B2AC42F5DB2C4607E000231A4612
:103230001946204600F0ECF8601CC4B20A2CF5DBFD
:103240008FE00525002407E033463246314620460C
:1032500000F0DEF8601CC4B2AC42F5DB2C4607E09F
:1032600000231A461946204600F0D2F8601CC4B26A
:103270000A2CF5DB75E00425002407E033463246CE
:103280003146204600F0C4F8601CC4B2AC42F5DB05
:103290002C4607E000231A461946204600F0B8F8ED
:1032A000601CC4B20A2CF5DB5BE00325002407E0B8
:1032B000334632463146204600F0AAF8601CC4B2BC
:1032C000AC42F5DB2C4607E000231A46194620469F
:1032D00000F09EF8601CC4B20A2CF5DB41E0022528
:1032E000002407E0002332461946204600F090F8FB
:1032F000601CC4B2AC42F5DB2C4607E000231A4642
:103300001946204600F084F8601CC4B20A2CF5DB94
:1033100027E00125002407E0002332461946204615
:1033200000F076F8601CC4B2AC42F5DB2C4608E035
:103330000AE000231A461946204600F069F8601C8E
:10334000C4B20A2CF5DB0CE0002407E000231A4687
:103350001946204600F05CF8601CC4B20A2CF5DB6C
:1033600000BF00BF06480078401C054908700846A9
:103370000078642801D10020087000F023F870BDA7
:103380000B0000202E00002070B500240C4DFEF72D
:103390001BFB04E0E02028706D1C601C84B2F02C44
:1033A000F8DB002407E0E0B200231A46194600F0DB
:1033B0002FF8601C84B20A2CF5DB00F003F870BD16
:1033C0007000002070B500240F4D012080F310889C
:1033D00000BF00BF0AE02878E02802D1FFF726FDF1
:1033E00001E0FFF72DFD6D1C601C84B2F02CF2DBB8
:1033F000102006498862FA2000F06AF9002080F364
:10340000108800BF70BD000070000020000C004854
:10341000F0B50446002000BF42E0082813DA8025FA
:103420000D40002D06D0FF26182565431E4FED19CF
:103430002E5405E0E026182565431B4FED192E5448
:103440004D06290E2AE0102813DA80251540002D9C
:1034500006D0FF2618256543134FED192E5405E0BD
:10346000E02618256543104FED192E5455062A0EF7
:1034700014E0182812DA80251D40002D06D0FF2602
:1034800018256543084FED192E5405E0E026182550
:103490006543054FED192E545D062B0E451CE8B211
:1034A0001828BADBF0BD00007000002010B53848C5
:1034B0000088142800DA10BD0020354908803548FE
:1034C0000078002807D033480078032819D1324803
:1034D0000078002815D1002407E000231A46194679
:1034E0002046FFF795FF601CC4B20A2CF5DBFFF7FE
:1034F00069FF002029490870294908702949087086
:10350000D9E724480078012802D1FFF7A7FCD2E7C9
:103510002148007803280CD1002407E0FF231A4635
:1035200019462046FFF774FF601CC4B20A2CF5DB75
:10353000C1E719480078022802D1FFF7F9FDBAE780
:1035400019480078012806D0022808D003280AD09C
:10355000042810D10BE0CC20144908700CE0802026
:103560001249087008E01E201049087004E000208D
:103570000E49087000E000BF00BF0848007801282D
:1035800002D1FEF76FFC01E0FFF7E0FB00BF92E71E
:103590000200002028000020290000202C0000202C
:1035A0002D0000202E00002050000020510000209F
:1035B0002021020C01D010211046020A01D0104631
:1035C0000839020901D01046091F820801D01046AF
:1035D000891E420801D0881E7047081A704730B40F
:1035E0007446641E2578641CAB4204D3635D5B00A3
:1035F000E31830BC18471D46F8E702E008C8121F60
:1036000008C1002AFAD170477047002001E001C1CB
:10361000121F002AFBD17047F8B505460E46144626
:103620002146284600F018F80090FCF777FF07467F
:103630003146FCF71BFEF8BDF8B505460E461446AC
:103640002146284600F016F80090FCF767FF074671
:103650003146FCF70BFEF8BD10B502460B68D35C93
:103660001B020C68641C145D234318B20B689B1C7E
:103670000B6010BD10B502460B68D35C1B060C68CE
:10368000641C145D240423430C68A41C145D2402F0
:1036900023430C68E41C145D234318460B681B1D70
:1036A0000B6010BD30B50246002000230BE01478FB
:1036B000521C05126C402406E40D044D2C5B0502DF
:1036C0006C40A0B25B1C8B42F1D330BD7837000850
:1036D00000BF0146421E90B20029FAD17047000097
:1036E000FEF7DAFAFDF7DEF9FDF7B6F8FFF734F981
:1036F000FFF74AFE00201B49088000BF19480088D8
:10370000FF21F5318842F9DBFEF7D2FCFEF7B0FA73
:10371000E1204002FFF78CF9FEF702FBFEF776F995
:103720000120114908701148114908600020114911
:10373000088015E0FEF746FBFEF746FAFFF7B6FEF7
:10374000FEF7D0FCFEF732F8FDF76EFFFDF7EEF95D
:10375000FFF786FAFDF73AF9FDF798FAFEF768F9F0
:10376000E8E700006000002064000020333353408D
:103770004C0000203A00002000002110422063305D
:103780008440A550C660E770088129914AA16BB1B9
:103790008CC1ADD1CEE1EFF1311210027332522261
:1037A000B5529442F772D662399318837BB35AA309
:1037B000BDD39CC3FFF3DEE3622443342004011431
:1037C000E664C774A44485546AA54BB52885099559
:1037D000EEE5CFF5ACC58DD5533672261116300601
:1037E000D776F6669556B4465BB77AA719973887A9
:1037F000DFF7FEE79DD7BCC7C448E5588668A778C1
:103800004008611802282338CCC9EDD98EE9AFF9F8
:10381000488969990AA92BB9F55AD44AB77A966AA0
:10382000711A500A333A122AFDDBDCCBBFFB9EEB48
:10383000799B588B3BBB1AABA66C877CE44CC55C70
:10384000222C033C600C411CAEED8FFDECCDCDDD98
:103850002AAD0BBD688D499D977EB66ED55EF44E40
:10386000133E322E511E700E9FFFBEEFDDDFFCCFE8
:103870001BBF3AAF599F788F8891A981CAB1EBA13C
:103880000CD12DC14EF16FE18010A100C230E320B8
:103890000450254046706760B9839893FBA3DAB360
:1038A0003DC31CD37FE35EF3B1029012F322D23208
:1038B0003542145277625672EAB5CBA5A895898530
:1038C0006EF54FE52CD50DC5E234C324A014810458
:1038D0006674476424540544DBA7FAB79987B89700
:1038E0005FE77EF71DC73CD7D326F2369106B016A8
:1038F00057667676154634564CD96DC90EF92FE9C0
:10390000C899E9898AB9ABA94458654806782768F7
:10391000C018E1088238A3287DCB5CDB3FEB1EFB9F
:10392000F98BD89BBBAB9ABB754A545A376A167A47
:10393000F10AD01AB32A923A2EFD0FED6CDD4DCD6F
:10394000AABD8BADE89DC98D267C076C645C454C97
:10395000A23C832CE01CC10C1FEF3EFF5DCF7CDF3F
:103960009BAFBABFD98FF89F176E367E554E745EE7
:10397000932EB23ED10EF01E0100060001000100A0
:103980000100010001000100020004000800100015
:10399000400080000001000200000000010203045A
:1039A000C03900080000002070000000FA3500084F
:1039B000303A000870000020200500000A36000898
:1039C00000000000000000000100000000000000F6
:1039D00000000000000000000000000000000000E7
:1039E00000000000000000000000000000000000D7
:1039F00000000000000000000000000000000000C7
:103A000000000000000000000000000000000000B6
:103A100000000000000000000000000001000000A5
:103A20000000000000000000000000000000000096
:04000005080000C12E
:00000001FF
