:020000040800F2
:10000000E80700209D010008411D0008891A00082A
:1000100000000000000000000000000000000000E0
:100020000000000000000000000000003D23000868
:100030000000000000000000951D00089524000845
:10004000AF01000800000000AF010008AF01000888
:10005000AF010008AF010008AF010008AF010008C0
:10006000AF010008AF010008AF010008AF010008B0
:10007000AF010008AF010008AF010008AF010008A0
:1000800000000000D1240008000000000000000073
:1000900000000000AF010008AF010008AF01000838
:1000A00000000000AF010008000000003527000834
:1000B0000000000000000000000000000000000040
:1000C00000F002F800F03EF80CA030C80838241800
:1000D0002D18A246671EAB4654465D46AC4201D180
:1000E00000F030F87E460F3E0FCCB6460126334274
:1000F00000D0FB1AA246AB4633431847CC3600006B
:10010000EC360000103A02D378C878C1FAD852070A
:1001100001D330C830C101D504680C6070470000BD
:100120000023002400250026103A01D378C1FBD813
:10013000520700D330C100D50B6070471FB51FBDFB
:1001400010B510BD00F022FE1146FFF7F7FF03F0D7
:1001500065F800F03AFE03B4FFF7F2FF03BC00F0CD
:100160006FFE000070B505460C46164602E00FCC47
:100170000FC5103E102EFAD2082E02D303CC03C5B1
:10018000083E042E07D301CC01C5361F03E02178B9
:100190002970641C6D1C761EF9D270BD074880471B
:1001A00007480047FEE7FEE7FEE7FEE7FEE7FEE75B
:1001B00004480549054A064B704700009924000889
:1001C000C1000008E8030020E8070020E80500203F
:1001D000E8050020F8B5042A2CD3830712D00B7849
:1001E000491C0370401C521E83070BD00B78491C1E
:1001F0000370401C521E830704D00B78491C037007
:10020000401C521E8B079B0F05D0C91ADF0020230C
:10021000DE1B08C90AE0FFF7A5FFF8BD1D4608C9A7
:10022000FD401C46B4402C4310C0121F042AF5D2D6
:10023000F308C91A521EF0D40B78491C0370401CF5
:10024000521EEAD40B78491C0370401C012AE4D4E6
:1002500009780170F8BD002203098B422CD3030AF0
:100260008B4211D300239C464EE003460B433CD403
:10027000002243088B4231D303098B421CD3030A6B
:100280008B4201D394463FE0C3098B4201D3CB019B
:10029000C01A524183098B4201D38B01C01A5241CB
:1002A00043098B4201D34B01C01A524103098B42CF
:1002B00001D30B01C01A5241C3088B4201D3CB00BA
:1002C000C01A524183088B4201D38B00C01A52419D
:1002D00043088B4201D34B00C01A5241411A00D24D
:1002E00001465241104670475DE0CA0F00D04942B6
:1002F000031000D34042534000229C4603098B4226
:100300002DD3030A8B4212D3FC22890112BA030AAD
:100310008B420CD3890192118B4208D3890192112F
:100320008B4204D389013AD0921100E08909C309B4
:100330008B4201D3CB01C01A524183098B4201D3B6
:100340008B01C01A524143098B4201D34B01C01AA1
:10035000524103098B4201D30B01C01A5241C30819
:100360008B4201D3CB00C01A524183088B4201D388
:100370008B00C01A5241D9D243088B4201D34B00A3
:10038000C01A5241411A00D20146634652415B10E5
:10039000104601D34042002B00D5494270476346C6
:1003A0005B1000D3404201B50020C046C04602BDEC
:1003B00070477047704700000246C80FC00781436E
:1003C0004B0030B54B405B009B0D20D01923DB0662
:1003D000C91801231B05994220DB0324A407042527
:1003E0001346AB400BD3002B04D1EB0613409B000C
:1003F000E34204D401246407002312195941FF2366
:100400001B0599420BD2C9000143500F09E0CB02F2
:1004100004D501430803024305D0054830BDFF2140
:10042000C905084330BD084607210905884330BD8A
:100430000000C07FF0B50C46871A9C410D46861A15
:100440009D4103D2C01BA141D21963410D0D1F0D67
:10045000C94EEC1BAE435CD07F057F0D0026002FFC
:1004600051D02D05AC46A943DD020123ED0A1B0541
:100470001D4320231B1B24D41746E7403818714125
:100480002F46E740CC199D402818314661410C0D9C
:1004900027D161449A4013D50023401C5941520092
:1004A0000ED14008400001224B005205D34207D331
:1004B00005204007C14201D5B04900E0B0493046AF
:1004C000F0BD6B00002A00D001229A181F23203CA7
:1004D0001B1B01D5002302E0E540281871410C0DDB
:1004E000D7D0012424050919C407CD0740084908BD
:1004F000E40F28436144002CD5D00024401C614106
:100500009A40D0D1CDE76A05520DD9D1C90FC9079C
:10051000D5E79C4D4E00002801D0012400E00024C6
:1005200034195F00002A01D0012600E00026BE1920
:10053000954FAC420CD8AE420AD8B44206D0012541
:100540006D05EC42BCD010461946F0BD9942FCD076
:1005500000203946F0BDF0B51FB40C460F46811A95
:100560009F412546861A9D4106D20125ED076F4021
:10057000401ABC4152187B41210D1E0D8D1BAC460B
:100580007D4D8D437ED075056D0D7CD00D05AE463D
:10059000AC431B031B0B794D52429D412023664601
:1005A0009B1B14D31746F74038180026009074415F
:1005B00060462F460741E41900989D40281866417F
:1005C00016D4714671189A4025D5012320E093185E
:1005D0002A466A415200002B00D0521C1E23203EA6
:1005E0009B1B002B61DD3541EE1728186641E8D5CD
:1005F000001876415B1C9A4000D3401C4B05F31851
:100600001524E34010D3002B52D071467118D30F3C
:10061000C01802D3491C05B0F0BD0123DB079A4284
:10062000F9D140084000F6E701225205B21801D185
:10063000002853D00123CC0ADB029943891E002AEB
:1006400008D1020C03D0020C0004103902E002466B
:10065000002020390023550B05D112020823550B29
:1006600001D152010D23550C01D112011B1DD50CD6
:1006700001D192009B1C150D01D152005B1C20255D
:10068000EE1A01E02CE022E00546F54015439840C3
:10069000CA1AE10769181305C918002ABBDA032032
:1006A00040070818C10FC9070FE071466118B2E78B
:1006B000F10740080843711071444A000CD001232F
:1006C0005B059A42A7D2C90FC9070020A3E74905D5
:1006D000490D26D1002001E00028F4D100219AE73D
:1006E000284D6600002801D0012100E0002171188A
:1006F0005F00002A01D0012600E00026BE19224F2B
:10070000A94210D8AE420ED8B14208D001256D05DD
:10071000E94206D01946A802414010467BE79C42B8
:1007200001D0214677E70020394674E710B50C4622
:100730005C4005D50124E4076340FFF70CFF10BDC2
:10074000FFF778FE10BD30B40C465C4004D50124A0
:10075000E407634030BC6DE630BCFCE670B50124B4
:10076000E40761400D465D4002D4FFF763FE70BDB3
:100770006340FFF7F0FE70BDFF0700000000F0FFD0
:100780000000F07F0000E0FF0000F87F0346CA028F
:10079000400D10B510430A1504D00124E40720438E
:1007A000002A05DB0A4CA21A04D4D040FF2A00DD3F
:1007B000002010BD4A00002B01D0012000E00020E5
:1007C000101801225205D042F2D8C817C04310BDFC
:1007D0001E0400001F22030C02D10F22000402D0CD
:1007E000030E03D004E00020014670470002083ADF
:1007F000030F01D10001121F830F01D18000921E4F
:10080000002801DB4000521E120551184205C0129B
:10081000411810467047C10FC90700D0404201225D
:1008200092071143D6E701218907D3E7F0B58B4C36
:100830000F09254689B0BD437BD01D092646AE432E
:10084000FAD00E465E402740F60F3E43254071D059
:1008500024012142FBD0FF24AD19A4042D1B0395D4
:1008600001252D05DB02DB0AC9022B43C90A2943F6
:100870001E010901040F130F050121431701880B05
:10088000820391432D098C46A90B1E438A0395438D
:10089000B30B9A0396433F09BA0B9403A7430296FE
:1008A0002E467E430497B6464E19D7190C4601963C
:1008B000544305977E43371B7646BF1B3601B64629
:1008C000BE0B361900967646BC043719009C01D33E
:1008D000641C00946400002F01D001263443029E62
:1008E000049F754366467E430496760034196E0075
:1008F00034190094029C019E1C196643751BAE4678
:10090000069465464519059C05956C435943754603
:100910000891691A0191049E01465143A41B049158
:10092000611A009C0791E10605D06109012211437B
:1009300002E072E06EE06109089D00272C0A2D0696
:100940006918049D7C412A0A2D066918019D62419F
:10095000AC0DAD026D185441079A910D92025519D4
:100960006141029A644658435443069B059A5A4390
:10097000121A131B9A0E9B015B187A41010B00059A
:10098000C3185141220A200644195A419A4200D202
:10099000491C01204002814203D315230226F6435D
:1009A00002E014230326F6432020C51AA940174667
:1009B000AF40DA400A4320460399D840091473181F
:1009C00019055118039A3843D2075140AC4009D059
:1009D0000122944006D30022401C5141002C01D139
:1009E000400840001E4A934212D301220398920607
:1009F000904207DB0520400709181A480143C0123E
:100A0000414004E0032040070818C10FC907002037
:100A100009B0F0BD0020F107FAE705180C464C417B
:100A200011486D42A04115D394181A465A410E48F8
:100A3000644290410ED301204A004005824209D30E
:100A40005A00824206D35940C90F084AC9070020FC
:100A50001143DDE700200649DAE700000000FF0748
:100A6000FE070000FFFFFF7F0000E0FF0000F07FB7
:100A70000000F87F0121C9050123411842001B062F
:100A8000D3185B0E0AD0C1100722D206891840077E
:100A90005242D14201D5520089187047090208D547
:100AA0000146002A03D0C10FC90700207047104635
:100AB0007047420202D00020024970470721090511
:100AC0000143F4E70000F87FF0B5FF252D04C609C7
:100AD000C209FF2704462E400137CB093E43484058
:100AE0002A402B400746002A6BD0002B69D0AA422F
:100AF00067D0AB4265D0002800DA32460125ED050B
:100B000029432C4309022002090AD21A4B0C7F24E4
:100B1000E31A434C000A7C44E35C7D24240412194C
:100B200014145B00A218884201D3521C00E040005C
:100B300049420C465C4324115C43DB016415E31815
:100B4000040A5C43C502200D0C4644436419250A7F
:100B50005D432303EC0C0D46654300030019EB18BD
:100B60004C42A34201D35B18401CD4052018002B33
:100B700007D05B00C91804D3401C002901D14008EC
:100B800040003F2189048A4209D3002A08DC11066B
:100B9000090F04D0032149074018C00FC007F0BD5A
:100BA00001224100120689187F2252069142F6D294
:100BB00005214907C84201D59010F0BDFF20C005AE
:100BC000F0BD002F00DA32461648AA4207D2AB42E7
:100BD00005D21902090E17D0F80FC007F0BDFF2586
:100BE00063002D06AB42F9D84900A942F6D8AB42C2
:100BF00001D1A942F2D0A94201D1002101E0610056
:100C00004908D0050843F0BD1102090EFBD0FF20B2
:100C10000243D005F0BD0A460146104654E70000E5
:100C20006E2C00000000C07F0102C21504D0012319
:100C3000DB071943002A0ADB9E239A1A02D40846CE
:100C4000D0407047FF2241001206914201D9002096
:100C50007047C017C04370471F22030C02D10F22F8
:100C600000041CD0030E01D10002083A030F01D189
:100C70000001121F830F01D18000921E002801DBAA
:100C80004000521ED20551180212511819229040EC
:100C900004D3491C002801D149084900084670477F
:100CA000C10FC90700D04042012292071143D3E788
:100CB00001218907D0E70000F8B5224C4E00069DBF
:100CC000A6420AD8A64201D1002806D15E00A6425B
:100CD00003D8A6420AD1002A08D00D2424042542B4
:100CE0002CD02946002000F02FF8F8BD0C461C43FC
:100CF0000CD4994202D0EFF30080F8BD904202D0AC
:100D0000EFF30080F8BDEFF30080F8BD092424075D
:100D1000E5008B4206D0EFF30080A043591A06D2BB
:100D2000284304E0101A05D3EFF30080A04380F3BA
:100D30000088F8BDEFF30080A043F1E7009500F0D4
:100D40001BF8F8BD0000E0FFC80212D54803400FB1
:100D5000002804D0C803C043012188407047EFF346
:100D600000800001000903210907084380F300887F
:100D7000704700207047000010B500200249029A19
:100D800000F02BF810BD00000000F87F754600F061
:100D900053F8AE46050069465346C008C000854674
:100DA00018B020B5FFF704FA60BC00274908B64622
:100DB0000026C0C5C0C5C0C5C0C5C0C5C0C5C0C56A
:100DC000C0C5403D49008D46704710B50446C04639
:100DD000C0462046FFF7BFF910BD10B50C461107FD
:100DE000090F092904D00A290AD008290CD104E0E6
:100DF00011460820FFF7A8FF06E0510606D501E0DE
:100E0000510601D50120C007214610BDD10607D5E6
:100E100001010909CC084907000E0006044309E056
:100E2000410F20024907000A0143200E00061D223F
:100E3000D14101430846E7E7004870478803002096
:100E400001491820ABBEFEE72600020070470000F3
:100E500070B588B00121080501F090F90121C8049E
:100E600001F08CF90121480201F0A4F90C20059051
:100E7000032569460D760024CC761A4E05A9304626
:100E800000F0A6FD07220321304600F0E6FD072210
:100E90000221304600F0E1FD1020059069460D76F4
:100EA000CC76114D05A9284600F092FD07220421B9
:100EB000284600F0D2FD0D4D284600F02BF868467C
:100EC00000F068F8012069460870029403940494C5
:100ED000284600F041F80121284600F00EF808B03D
:100EE00070BD0000000C00480008004800240140CC
:100EF00081624261704701607047002904D08168B7
:100F00000122114381607047816802221143816090
:100F10007047000010B50649884208D144150121E8
:100F2000204601F055F90021204601F051F910BD8D
:100F300000240140006C80B2704702460020CB01C3
:100F400004D5926801231B069A4300E012680A4206
:100F500000D001207047000030B5C268074B1A402E
:100F60008C684B680D782343CC686D032C4309696A
:100F700023430B431343C36030BD000000D2FFFF87
:100F800081680422114381607047816810221143F7
:100F9000816070470021017041608160C160016122
:100FA00070470000F8B52E4C0022A07B2D49002888
:100FB0003ED001283BD10888642838D90A80032014
:100FC00001F084F96082012001F080F9A082022002
:100FD00001F07CF9E0820546A08AFFF724FC224E4E
:100FE000224F32463B46FFF721FCFFF7E5F9204947
:100FF00008602846FFF717FC32463B46FFF716FC11
:10100000FFF7DAF91B4908601B4801781B480029E3
:1010100012D0008864280AD9608AFFF704FC184AB5
:10102000184BFFF703FCFFF7C7F917490860F8BD35
:101030000A800120A073F8BD00886428FBD9608A6B
:10104000FFF7F1FB0022114BFFF7F0FB0022104BE2
:10105000FFF76CFBFFF7B0F90E490860F8BD000020
:10106000080000203A0000201F85EB51B81E553FB4
:1010700040000020440000205800002032000020E2
:101080003333333333539A3F48000020008080BF0E
:1010900000803040540000203EB50121480401F09A
:1010A0006DF801216A4611710020907108250095A4
:1010B000D07151710924E4066946204600F088FC8D
:1010C000A5623EBD014948807047000066000020CF
:1010D00010B50B49488800280CD00C780923082249
:1010E000DB06002C07D0401E80B24880002801D1CA
:1010F00008709A6210BD012008709A6110BD00004E
:1011000066000020F8B53148092200780823D2068D
:1011100000242F4D02280AD12E480078012806D03D
:101120002D482E4900780978002803D008E0936202
:10113000AC72F8BDEE7A8E4202D19362AC72F8BD09
:10114000274E02273288002822D0A97A002908D009
:10115000012917D00229F2D1288A8242EFD9AC7234
:10116000F8BDFFF760FB1F4A1F4BFFF75FFB002234
:101170001E4BFFF7DBFAFFF709FB288234800120C2
:10118000A872F8BD288A8008FFF79CFFAF72F8BDEF
:10119000A87A002811D0012813D00228F7D1FF2007
:1011A00091308242F3D9287B401CC0B22873AC72C4
:1011B0008842ECD12C73E972F8BD34800120A8720A
:1011C000F8BDC820FFF77EFFAF72F8BD24000020F5
:1011D000080000202B0000204E0000204C000020C2
:1011E000300000203D0AD7A3703D06C000D08440E7
:1011F000F0B5204F387800280FD01F481F4A867955
:10120000002402251188330001F0ACFF0604080E0B
:1012100015192707148001218171F0BD7D22D200AC
:101220009142FAD98571F0BD154A202191613D7036
:1012300003218171F0BD148004218171F0BDFF2371
:10124000F5339942FAD90F4B012119701480092105
:10125000C9068D6205218171F0BDFF23F5339942E6
:10126000FAD908490C7014800921C9068D6104213E
:101270008171F0BD25000020080000203200002010
:101280000008004858000020F0B585B0E948017812
:10129000E9480129006811D07F27FF05E74D0229A1
:1012A00016D003297ED0E649884205DDE1480321B6
:1012B0000170E4490120087005B0F0BDE0498842A2
:1012C000FADDDC4903200870DE4901200870F3E7ED
:1012D000DD4801780129EFD102210170DB4CFF21AB
:1012E0002069C905C84202D3090248402061D84993
:1012F0002069D84E884208DDD74902F071F8FFF71F
:1013000093FC8000DC38307001E000203070D3485E
:10131000D3490268CD488A42406904DAD1490A6853
:10132000CF498A420ADBC821C84203DDCE4A0221E6
:10133000117006E0CC4A0321117002E0CA49042270
:101340000A70002801DA40426061C048394680696D
:1013500002F000F8C549FFF7B7FB0446C4488069AE
:10136000FFF788FBC34AC44BFFF7E0F906460F4678
:101370002046FFF77FFB32463B460291039001F087
:10138000B5FF0ED3BA488069FFF774FBB94ABA4B70
:10139000FFF7D9F902460B460299039801F074FF52
:1013A0003ED200E0B7E0B548844202DB012028705D
:1013B00034E0B348844202DB022028702EE0B148BA
:1013C000844202DB0320287028E0AF48844202DB1D
:1013D0000420287022E0AD48844202DB05202870FA
:1013E0001CE0AB48844202DB0620287016E0A948C6
:1013F000844202DB0720287010E0A748844202DB09
:10140000082028700AE0A548844202DD09202870DF
:1014100004E0A348844201DD0A20287094488461D6
:101420008A49FF22C868D205D04202D31202504036
:10143000C8600F4649699B4B9B4D9C48FA2921DAAD
:10144000864A874C1268A24206DA864E3668A64261
:1014500002DA0122027022E0A24208DB814E3668E5
:10146000A64204DB0222027003221A7017E0A24295
:1014700004DB0222027001221A7010E002220270C4
:101480001A700CE0FA68AA4205DA894A914202DA37
:101490000122027003E00222027004221A70664ADE
:1014A000674B16687D24834AE4009E4210DDFB688A
:1014B000AB420DDA1288A2420CD95E4B03221A709D
:1014C000604B01221A70684B00221A70027001E012
:1014D000002010806148624A0568774B7748954242
:1014E00005DA604D2D68954201DAA14202DD002146
:1014F000018019700188724A914200D8DCE600210F
:1015000001801878401CC0B218701E28F6D34949D3
:1015100003200870D0E66B490A786B49002A0988D5
:1015200019D1962917D9694801210068C905401ABF
:10153000674A684990420BD20878401CC0B20870D4
:101540000A28DBD900200870634920208862B3E6AE
:1015500000200870B0E69629D0D9394601F0FAFE8D
:101560004249FFF7B1FA0446364800780228C5D14F
:101570003F488069FFF77EFA3E4A3F4BFFF7D6F8B7
:1015800006460F462046FFF775FA32463B46009165
:10159000019001F0ABFE0ED335488069FFF76AFA7F
:1015A000344A354BFFF7CFF802460B4600990198B5
:1015B00001F06AFEA2D23148844202DB0120287089
:1015C00034E02F48844202DB022028702EE02D48B0
:1015D000844202DB0320287028E02B48844202DB8F
:1015E0000420287022E02948844202DB052028706C
:1015F0001CE02748844202DB0620287016E02548BC
:10160000844202DB0720287010E02348844202DB7A
:10161000082028700AE02148844202DD0920287051
:1016200004E01F48844201DD0A20287010488461CC
:1016300042E6000024000020480000202A0000208C
:1016400000002042250000202C0000205C02002029
:101650003333333F4E0000200000C84240000020DA
:101660009A99394044000020260000200000A04143
:10167000080000207B14AE47E17A943F713D824020
:10168000CDCC8040713D7A404260754077BE6F405E
:1016900017D96640295C5F40C976564083C04A40EE
:1016A0000AD7334029000020CDCC4C3F2800002031
:1016B000701700005A0000203E0000203C0000206F
:1016C00060EA000058000020320000205400002092
:1016D0009A99193E5900002000080048F3B581B0DE
:1016E0000021554C5548A37800780022834201D050
:1016F000E271A07004280AD0E679524F504D388824
:10170000330001F02FFD06091A1E304494084E499B
:101710004E4800F0BBFFFEBD019B40224C4880219B
:101720000125012B05D08162826102206070E57184
:10173000FEBD826281616570F9E73A800220E07146
:10174000FEBD0298012806D03F49404800F09EFFA8
:101750000420E071FEBD3A493C48491E00F096FF66
:101760000320E071FEBDC10705D14008281A81B2EF
:10177000364800F08BFF39887D2000018142F1D38B
:101780003149324800F082FF0520E071FEBD314E44
:10179000C2072DD13278012A04D0022A08D0032AA8
:1017A00023D114E07D21C9004018281A81B21CE021
:1017B000FFF739F80022284BFFF738F80022274BB3
:1017C000FEF7B4FFFEF7E2FF281A81B20DE0FFF743
:1017D0002AF80022224BFFF729F800221F4BFEF7C0
:1017E000A5FFFEF7D3FF281A81B2184800F04EFF7C
:1017F00039887D2000018142C8D33078012804D087
:10180000022807D003280FD10AE016490F4800F03C
:101810003DFF09E07D2149010C4800F037FF03E05E
:1018200000210A4800F032FF0520E071FEBD0E499C
:1018300002200870E271FEBD080000202600002092
:10184000102700003400002028230000002C014055
:10185000000800484C0000200000044000408F4079
:1018600000001240581B000027000020F8B528484F
:10187000284E2A4C437A3278274D2188934203D14F
:10188000A94201D32580F8BD2548934236D0254989
:10189000254E0F687D2325495B01B74217DA244F97
:1018A0003F68B74213DA012A04D0022A05D0032A7E
:1018B0000AD106E000F0EAFE06E0194600F0E6FE76
:1018C00002E0002100F0E2FE0020208011E0012A69
:1018D00004D0022A05D0032A0AD106E000F0D6FE81
:1018E00006E0194600F0D2FE02E0002100F0CEFE34
:1018F00025800848017806484172F8BD064A643AD6
:101900009142FAD30B4900F0C1FE2580F8BD0000DA
:10191000080000204C0000201C0C0000500000209B
:10192000002C01404000002000002040581B000017
:10193000440000202823000070B51F4800780328C9
:1019400021D000281FD01D4D1D48297A00781D4C3C
:10195000814202D12278022A14D0814202D0287218
:1019600001212170012818D002281BD003281ED085
:10197000042807D102210846FFF7B0FE022020709C
:101980000320687070BD104880218162402181620F
:1019900000210E4800F07AFE70BD01210846FFF7D5
:1019A0009DFE70BD02210120FFF798FE70BD02214F
:1019B0000846FFF793FE70BD2400002008000020B9
:1019C000260000202700002000080048002C0140CD
:1019D000F0B500220325012393400C681C409C4273
:1019E0002BD10C79012C01D0022C13D18768540023
:1019F0002E46A640B74387604E79A64084682643AA
:101A0000866044689C43446043688C799440A4B2E7
:101A100023434360066853002C469C40A64306605F
:101A20000E7907689E403E430660C668A643C660BE
:101A3000CC799C40C3681C43C460521C102ACAD392
:101A40000A7A002A04D0026B09688A430263F0BD57
:101A5000026B09680A430263F0BD10B54B07DB0E49
:101A60009A40C90889000818016A0F249C40A143C4
:101A70000162016A1143016210BD08B500900121A5
:101A8000684600F05DFC08BDFEE700003EB50121A0
:101A9000080500F073FB01216A4611710020907166
:101AA00010250095D0715171034C69462046FFF70F
:101AB0008FFFA5613EBD0000000C0048F0B5304925
:101AC00000200B469C885A88641C4F78A5B2521C93
:101AD000DC882C4E92B23B0001F044FB0504122539
:101AE0003B400A003369DB08DB0702D0488088806E
:101AF000F0BD4A80142AFBD1488001204870F0BD17
:101B00004A808D8033691B0705D5641CCC80022276
:101B10004A704880F0BD1C4B9A42FBD94880032094
:101B200048700870F0BD8D80FF23F5339D420CD2C4
:101B30003369DB08DB0701D04880F0BD4A80022A08
:101B4000FBD1488001204870F0BD88800420487097
:101B5000F0BD32691207FBD54870F0BD012C04D0EE
:101B6000022C05D0032C08D105E001220A7004E004
:101B700002220A7001E004220A70C8804870F0BD99
:101B80005E00002000080048DC05000030B51A4C5B
:101B9000207800282DD0194A1178032929D0012353
:101BA0000025012806D0022808D0032811D00428D7
:101BB0001ED115E002291BD0137019E0022917D19C
:101BC0000F490878401CC0B20870042810D10B706F
:101BD0000EE0032010700B4805700B48057007E0FD
:101BE000022905D109480178022903D00221017098
:101BF000257030BD0370FBE75E000020240000204C
:101C00004C00002026000020280000202B0000208F
:101C10000EB50121C80400F0B1FA00206946087130
:101C2000082000900120C8710148FFF7D1FE0EBDC9
:101C300000080048FEB50121480400F09FFA012188
:101C4000C80400F09BFA01246846047100258571E0
:101C5000022000906846C571447109206946C0069B
:101C6000FFF7B6FE68460471857180270097C5713D
:101C700044710C4E69463046FFF7AAFE684604716F
:101C80008571402000906846C571447169463046B0
:101C9000FFF79EFE02200921C9068862B762402034
:101CA000B062FEBD00080048F0B58BB00121880489
:101CB00000F064FA0121C80200F07CFA10200890BC
:101CC000022508A805710126467100248471C4719B
:101CD000184F08A93846FFF77BFE03220421384637
:101CE000FFF7BBFE1F2168468182C482124F069710
:101CF0008483847705A9114800F0CAFC70216846E6
:101D00000180468004218180029785810821C1815C
:101D10004901018244826946084800F06DFC0121B6
:101D2000064800F035FC0121044800F03FFC0BB0F0
:101D3000F0BD0000000400480F270000002C014007
:101D40007047000030B5827801240178002A16D04F
:101D50008B080E4A9B009A1813688907C90EFF2545
:101D60008D40AB434578AD072D0E8D401D4315606A
:101D70000078C006C00E84400548046030BDC80627
:101D8000C00E844002488030046030BD00E400E0B2
:101D900000E100E07047000070B58A488A4D007885
:101DA000030001F0DFF90BF407152F49637D97B1AC
:101DB000CBE5F4000A26002407E02B7820461946DC
:101DC0000A4601F03BF9641CE4B2B442F5D3F5E0F5
:101DD0000926002407E02B78204619460A4601F020
:101DE0002DF9641CE4B2B442F5D3344607E0002375
:101DF0001A461946204601F021F9641CE4B20A2C67
:101E0000F5D3DBE00826002407E02B7820461946AE
:101E10000A4601F013F9641CE4B2B442F5D3344627
:101E200007E000231A461946204601F007F9641C12
:101E3000E4B20A2CF5D3C1E00726002407E02B7892
:101E4000204619460A4601F0F9F8641CE4B2B4428F
:101E5000F5D3344607E000231A461946204601F020
:101E6000EDF8641CE4B20A2CF5D3A7E006260024A2
:101E700007E02B78204619460A4601F0DFF8641C7B
:101E8000E4B2B442F5D3344607E000231A461946BB
:101E9000204601F0D3F8641CE4B20A2CF5D38DE09F
:101EA0000526002407E02B78204619460A4601F053
:101EB000C5F8641CE4B2B442F5D3344607E000230D
:101EC0001A461946204601F0B9F8641CE4B20A2CFF
:101ED000F5D373E00426002407E02B78204619464A
:101EE0000A4601F0ABF8641CE4B2B442F5D33446C0
:101EF00007E000231A461946204601F09FF8641CAB
:101F0000E4B20A2CF5D359E00326002407E02B782D
:101F1000204619460A4601F091F8641CE4B2B44226
:101F2000F5D3344607E000231A461946204601F04F
:101F300085F8641CE4B20A2CF5D33FE002260024A5
:101F400007E000232A781946204601F077F8641C40
:101F5000E4B2B442F5D3344607E000231A461946EA
:101F6000204601F06BF8641CE4B20A2CF5D325E09E
:101F70000126002407E000232A781946204601F0B4
:101F80005DF8641CE4B2B442F5D3344608E00AE0DC
:101F900000231A461946204601F050F8641CE4B2AA
:101FA0000A2CF5D30AE0002400231A4619462046DD
:101FB00001F044F8641CE4B20A2CF5D301F01CF8DB
:101FC00070BD00002A0000204D000020FEB5012158
:101FD000480400F0D3F80124684604710025857197
:101FE00004270097C571447109206946C006FFF7B0
:101FF000EFFC68460471857120260096C571447116
:10200000044C69462046FFF7E3FC0920C0068762BE
:10201000A662FEBD0008004830B51649164C0A7984
:102020002078824201D1012808D1087109230422B5
:10203000DB06012803D0032800D19A6230BD9A61E3
:102040000E4801220270487900230D4D00280DD062
:102050000128F3D128880B4DA842EFD90220207027
:10206000094C2270094A10704B7130BD2B804A71A7
:1020700030BD0000080000202400002026000020C1
:1020800036000020701700004C0000202B000020BC
:10209000F8B504460026002000902078012502288B
:1020A00001D1667802256019314601F09BF801469E
:1020B000A819225C00194078120202438A4201D01A
:1020C0000120F8BD681C81B2605D6518042848D104
:1020D000254E6A463146284601F051F8234C2060CF
:1020E0006A463146284601F04AF86060204F6A4649
:1020F0003946284601F04EF8A0606A46394628461F
:1021000001F048F8E0600098083000906A461949EC
:10211000284601F034F820616946284601F04FF85E
:1021200060616A463146284601F029F8A061124EE6
:102130006A463146284601F02DF8E0616A4631468C
:10214000284601F027F82062009808300090694680
:10215000284601F034F860626946284601F02FF8FD
:10216000A0620020F8BD0000000020415C020020B9
:102170000000C84200007A4400401C46054A00297D
:1021800003D05169014351617047516981435161E5
:102190007047000000100240054A002903D0D169B1
:1021A0000143D1617047D1698143D161704700001B
:1021B00000100240054A002903D091690143916152
:1021C000704791698143916170470000001002409F
:1021D000054A002903D0D1680143D1607047D16816
:1021E0008143D1607047000000100240F8B50446FA
:1021F000304948680C2210402F4E002804D0042893
:1022000004D00C2806D103E0266004E0266002E03A
:102210002A4820602660274D6868F02108400009A0
:1022200027494000095A27683846FEF714F86060CD
:102230006968072212021140090A214A083A515CD2
:10224000C8400546A0601F480169890F06D0016992
:10225000890F01290FD06808E06012E01548C030EE
:10226000806A1F2189060840810E891C1648FDF7E7
:10227000F2FFE06005E00069800F022801D0A808A5
:10228000E0600C48016BC90601D4266100E02761BB
:10229000016B89070AD0016B8907890F012907D0D3
:1022A000006BC043800700D16661F8BD6561F8BD71
:1022B0006761F8BD001002400048E80150BD010010
:1022C00068370008002401400090D00370B5044630
:1022D000194D2846FEF759FE04212846FEF70BFE4D
:1022E000012C04D0022C08D0032C11D10BE00722C2
:1022F00004212846FEF7FCFD0AE0072208212846B3
:10230000FEF7F6FD04E0072210212846FEF7F0FD57
:1023100001212846FEF711FE0028F9D02846FEF7D5
:102320002FFE04212846FEF708FE0028F9D0284693
:10233000FEF700FE70BD0000002401407047000061
:10234000F3B581B00C462146019800F04BFF0646DC
:10235000FF2201320221124FE0B2944203D83970B9
:102360000225787005E003213970210A7970032570
:10237000B870781922460199FDF72CFF2819C1B2CF
:10238000320A481CC0B27A54411CCAB23E540320DF
:10239000511CC9B2B854024800F05EFAFEBD0000FC
:1023A0008802002010B50A48006A010C80B2014280
:1023B0000AD108490A68C2064005120E800E0002C2
:1023C000024308681043086000F006F810BD0000E2
:1023D00000F8FF1F0010024030B585B000230493C1
:1023E000039302930193009327480168012421433A
:1023F00001602549C0318A6A0F25ED02AA438A622D
:102400008A6A0725ED022A438A62204D022102686A
:102410000A400392049A521C0492039A002A02D1A1
:10242000049AAA42F3D10268920701D5039400E00E
:102430000393039A012A24D1154A13680293029B3D
:10244000DB08DB000293029B0B43136041680191A0
:102450000199F022914301910199416041680091F5
:10246000072200991202914300910099416041684E
:102470008908890041604168416041680907890F06
:10248000FBD105B030BD000000100240FFFF00008E
:10249000002002407047000010B50A480168012280
:1024A000114301604168084A11404160016B1322E9
:1024B0009143016300248460FFF774FF0348446381
:1024C00010BD0000001002401CB8FFF84020024080
:1024D00010B5204C0121204600F075F8002837D0B7
:1024E0000121204600F050F81B490888401C088054
:1024F0001A490888401C088019480188491C018035
:1025000018480188491C018017480188491C01802E
:1025100016480188491C018015490888401C08801C
:1025200014480188491C018013490888401C088010
:1025300012490888401C088011480188491C018004
:1025400010480188491C0180FFF7B8FAFEF7C0FD6A
:1025500010BD0000001000405C00002002000020C0
:102560002E00002030000020320000203400002027
:1025700036000020380000203A0000203C000020F7
:10258000500000205A000020C94389B20161704701
:10259000002904D0016801221143016070470168DD
:1025A000014A114001607047FEFF0000002905D07C
:1025B000416C0122D203114341647047416C4904CC
:1025C000490C416470470246002013690B40D268F1
:1025D0000A40002B02D0002A00D001207047002AB8
:1025E00003D0C2680A43C2607047C268C94389B257
:1025F0000A40C2607047000070B5026A1D4B1A4065
:102600000262026A94B2426893B2826992B21A4D2F
:102610002A401A4D2A400D782D062D0C15432022F4
:1026200094438A891205160C26434A881205120C17
:102630003243134CA04217D1124C23400C8AA404FD
:10264000240C1C4380239A43CB891B051B0C13438A
:10265000402293438A881205120C1A430A4B1C40ED
:102660004B8A9B041B0C234343608561896881630B
:10267000026270BDEFFF0000FF8F0000FFFC000052
:10268000002C0140FFFB0000FFF700008163704752
:1026900010B5026892B20F4B984203D00124A407F0
:1026A000A04203D17024A2434C8822430A4CA0428A
:1026B00003D00A4C22400C89224302604A68C2625D
:1026C0000A888262984201D1897A016301214161BD
:1026D00010BD0000002C014000100040FFFC000075
:1026E0001FB501211020FFF757FD104802901F2051
:1026F0006946888000208881C8800D4C01A9204649
:10270000FFF7C6FF012211462046FFF768FF0121AF
:102710002046FFF73DFF11206946087001204870F0
:1027200088706846FFF70EFB1FBD0000E70300003E
:102730000010004070B5144CE069144D800609D5B6
:102740002021204600F095F8606A29784A1C2A70FA
:102750000F4A5054E069C0060BD5002028700D497F
:10276000012008701021204600F083F8204600F078
:10277000F1F8E169090706D50821204600F079F84B
:10278000204600F0E7F870BD00380140000000204E
:102790005C01002004000020F0B58BB0064601214A
:1027A0000805FFF7EBFC01218803FFF703FD022179
:1027B00008A80171002484710891C4710125457134
:1027C0001D4F08A93846FFF703F901221146384684
:1027D000FFF743F94020089008A88571C47108A943
:1027E0003846FFF7F5F8012206213846FFF735F99C
:1027F000029607940C2006900594049403940F4EBF
:1028000002A9304600F05AF80121304600F033F8B2
:1028100001220B49304600F03AF8012209493046BE
:1028200000F035F81B21684601714471857101A8DB
:10283000FFF788FA0BB0F0BD000C004800380140EB
:1028400005010500040104000249CA691206FCD50D
:10285000886270470038014010B504460B4605E019
:102860002078FFF7F1FF641C5B1EDBB2002BF7D171
:1028700010BD01627047002904D001680122114394
:10288000016070470168490849000160704710B550
:102890000B041C0E01238B40022C02D0032C02D00F
:1028A00002E0001D00E00830002A03D0016819434F
:1028B000016010BD01689943016010BD30B587B05B
:1028C00004460D46206840084000206060680321EF
:1028D00009038843A9680143616020681A490840D8
:1028E000EA68696811432A69024311432160A068BC
:1028F00003210902884369690143A16001A8FFF728
:1029000075FC1248844201D1069800E003982168C2
:10291000090404D540002968FDF79DFC02E0296800
:10292000FDF799FC2A6852088A4200D8401C2168A9
:10293000090404D50107490F054A1040084380B235
:10294000E06007B030BD0000F3E9FFFF0038014050
:10295000F0FF0000406AC005C00D7047F8B5204880
:10296000204C00780025022806D01F48856145616B
:10297000C56005616573F8BD607B0126002810D035
:102980001B4A1A4F1178012810D03A4612880228A3
:1029900020D00328EFD1012920D0642AEBD365731E
:1029A000F8BD0420FFF769F86673F8BD012903D06C
:1029B000032060733D80F8BD15700E48FFF768FB7B
:1029C0000D490222002803D00A703D806273F8BDD1
:1029D0000E70FAE7642AFAD36573F8BD6673F8BD22
:1029E00024000020080000205C02002038000020A5
:1029F000040000205C0100202C00002070B52F484E
:102A00002F4D0078012813D0022828D003283DD06C
:102A1000042847D0002400231A461946204600F017
:102A20000DFB641CE4B20A2CF5D300F0E5FA70BD8E
:102A3000002400222B781146204600F0FFFA641C87
:102A4000E4B2052CF5D3052400231A461946204686
:102A500000F0F4FA641CE4B20A2CF5D3E5E7002494
:102A600000231A461946204600F0E8FA641CE4B236
:102A7000052CF5D3052400222B781146204600F0C2
:102A8000DDFA641CE4B20A2CF5D3CEE70024002260
:102A90002B781146204600F0D1FA641CE4B20A2CCF
:102AA000F5D3C2E7002400231A461946204600F059
:102AB000C5FA641CE4B20A2CF5D3B6E7290000205D
:102AC0004D00002003481021816181618161816294
:102AD00070470000000C00480548102181618161A9
:102AE0008161816181618161816181618162704700
:102AF000000C004870B59348FF210088F5318842EA
:102B000019D80125002407E0FF230022194620469A
:102B100000F094FA641CE4B2AC42F5D32C4607E012
:102B200000231A461946204600F088FA641CE4B2D5
:102B30000A2CF5D303E17D21C900884219D802256A
:102B4000002407E0FF2300221946204600F076FA11
:102B5000641CE4B2AC42F5D32C4607E000231A46CD
:102B60001946204600F06AFA641CE4B20A2CF5D338
:102B7000E5E07549884219D80325002407E0FF23C2
:102B800000221946204600F059FA641CE4B2AC4217
:102B9000F5D32C4607E000231A461946204600F0DC
:102BA0004DFA641CE4B20A2CF5D3C8E07D2109017A
:102BB000884219D80425002407E0FF230022194683
:102BC000204600F03BFA641CE4B2AC42F5D32C463C
:102BD00007E000231A461946204600F02FFA641C2D
:102BE000E4B20A2CF5D3AAE05849884219D8052541
:102BF000002407E0FF2300221946204600F01EFAB9
:102C0000641CE4B2AC42F5D32C4607E000231A461C
:102C10001946204600F012FA641CE4B20A2CF5D3DF
:102C20008DE04B49884219D80625002407E0FF2390
:102C300000221946204600F001FA641CE4B2AC42BE
:102C4000F5D32C4607E000231A461946204600F02B
:102C5000F5F9641CE4B20A2CF5D370E03D498842D2
:102C600019D80725002407E0FF2300221946204633
:102C700000F0E4F9641CE4B2AC42F5D32C4607E062
:102C800000231A461946204600F0D8F9641CE4B225
:102C90000A2CF5D353E07D214901884219D8082533
:102CA000002407E0FF2300221946204600F0C6F961
:102CB000641CE4B2AC42F5D32C4607E000231A466C
:102CC0001946204600F0BAF9641CE4B20A2CF5D388
:102CD00035E02149884219D80925002407E0FF235F
:102CE00000221946204600F0A9F9641CE4B2AC4267
:102CF000F5D32C4607E000231A461946204600F07B
:102D00009DF9641CE4B20A2CF5D318E00A250024CE
:102D100007E0FF2300221946204600F08FF9641CCB
:102D2000E4B2AC42F5D32C4607E000231A4619461C
:102D3000204600F083F9641CE4B20A2CF5D300F0BD
:102D40005BF970BD36000020DC050000C4090000FE
:102D5000B80B0000AC0D0000941100000A4A3228A4
:102D6000117802D2491C117001E0491E11701078CF
:102D7000002801D1012010701078322801D93220AA
:102D8000107010787047000008000020F8B5904DD2
:102D9000E878FFF7E3FF06468E480078030000F06E
:102DA000E1F90BF407152F49637D97B1CBE5F400EA
:102DB0000A27002407E0334632463146204600F019
:102DC0003DF9641CE4B2BC42F5D3F5E009270024C8
:102DD00007E0334632463146204600F02FF9641CA6
:102DE000E4B2BC42F5D33C4607E000231A4619463C
:102DF000204600F023F9641CE4B20A2CF5D3DBE092
:102E00000827002407E0334632463146204600F0CA
:102E100015F9641CE4B2BC42F5D33C4607E000233C
:102E20001A461946204600F009F9641CE4B20A2C3F
:102E3000F5D3C1E00727002407E033463246314688
:102E4000204600F0FBF8641CE4B2BC42F5D33C46DB
:102E500007E000231A461946204600F0EFF8641CEC
:102E6000E4B20A2CF5D3A7E00627002407E0334696
:102E700032463146204600F0E1F8641CE4B2BC4220
:102E8000F5D33C4607E000231A461946204600F0D9
:102E9000D5F8641CE4B20A2CF5D38DE00527002494
:102EA00007E0334632463146204600F0C7F8641C3E
:102EB000E4B2BC42F5D33C4607E000231A4619466B
:102EC000204600F0BBF8641CE4B20A2CF5D373E092
:102ED0000427002407E0334632463146204600F0FE
:102EE000ADF8641CE4B2BC42F5D33C4607E00023D5
:102EF0001A461946204600F0A1F8641CE4B20A2CD8
:102F0000F5D359E00327002407E033463246314623
:102F1000204600F093F8641CE4B2BC42F5D33C4672
:102F200007E000231A461946204600F087F8641C83
:102F3000E4B20A2CF5D33FE00227002407E0002387
:102F400032461946204600F079F8641CE4B2BC42CF
:102F5000F5D33C4607E000231A461946204600F008
:102F60006DF8641CE4B20A2CF5D325E00127002497
:102F700007E0002332461946204600F05FF8641C43
:102F8000E4B2BC42F5D33C4608E00AE000231A460E
:102F90001946204600F052F8641CE4B20A2CF5D31E
:102FA0000AE0002400231A461946204600F046F89D
:102FB000641CE4B20A2CF5D3E878401CC0B2E87077
:102FC000642801D10020E87000F016F8F8BD000078
:102FD000080000202A00002070B50024054DFEF7EF
:102FE00055FDE02003E028706D1C641CA4B2F02C99
:102FF000F9D370BD6C00002070B500240D4D012088
:1030000080F310880C4910208862FA2000F000F943
:103010002878E0280AD0FFF75FFD6D1C641CA4B27D
:10302000F02CF5D3002080F3108870BDFFF74AFD27
:10303000F3E700006C000020000C0048F0B500240D
:1030400018267043124EFF258019E026082C07D25F
:103050000F0601D5055500E006554906090E12E098
:10306000102C07D2170601D5055500E0065552066B
:10307000120E08E0182C06D21F0601D5055500E0F7
:1030800006555B061B0E641CE4B2182CDED3F0BDA3
:103090006C00002070B52B48018814292ED3002520
:1030A00005802948294E0178002915D02848032990
:1030B000007801D100280FD0012920D0032821D089
:1030C00002282BD0234824490078012829D002283F
:1030D0002AD003282DD12AE0002400231A461946BD
:1030E0002046FFF7ABFF641CE4B20A2CF5D3FFF7D0
:1030F00083FF3570194805701948057070BDFFF7DA
:10310000F9FC70BD0024FF231A4619462046FFF73C
:1031100095FF641CE4B20A2CF5D370BDFFF736FEB0
:1031200070BDCC20087004E08020087001E01E20F3
:1031300008703078012802D0FFF760FC70BDFEF700
:103140002BFE70BD0200002024000020280000207B
:10315000250000204C0000204D0000202900002008
:103160002A00002030B47446641E2578641CAB42EB
:1031700000D21D46635D5B00E31830BC184710B5F4
:103180000C46114600F011F8FDF78AFD2146FDF7C7
:103190009BFC10BD10B50C46114600F010F8FDF771
:1031A0007FFD2146FDF790FC10BD0A68835C1B0281
:1031B000401C105C034318B2921C0A60704710B5A3
:1031C0000A68C31C845CD35C24062343441C145D3E
:1031D000801C105C2404000204432343121D0A6077
:1031E000184610BD70B5034600200022074C09E0C8
:1031F0001D78060A75406D005B1C655B000245404A
:10320000A8B2521C8A42F3D370BD0000603500089A
:103210000146401E80B20029FAD17047FEF70AFD30
:10322000FDF73AFFFDF714FEFFF7D6FEFEF7CEFEE0
:10323000FEF7EEFCE1204002FFF7AEFAFEF734FDA8
:10324000FFF74EFA0E480069C008C00702D10D49C9
:1032500001200870FEF79AFCFFF71CFFFEF7DCFE6A
:10326000FDF7C6FFFEF768FBFEF700FBFDF74AFF20
:10327000FFF774FBFDF796FEFEF706F8EAE700009D
:10328000000800485E00002070B501250C002D05E7
:103290001C4310D4EC4206D4AC420AD4994200D06C
:1032A00070BD904270BDE94217D4EB4215D49942EB
:1032B00070BD894270BDEC4206D5AC42F9D58B4257
:1032C00000D070BD824270BD6D004C00EC4204D253
:1032D0005C00EC4201D28B4270BD034C30B4FDF770
:1032E000EBFC30BC70BD00BF1900160470B50125A1
:1032F0001C002D050C4310D4EC4206D4AC420AD479
:103300008B4200D070BD824270BDEB4217D4E942BF
:1033100015D48B4270BD9B4270BDEC4206D5AC42C9
:10332000F9D5994200D070BD904270BD6D005C002F
:10333000EC4204D24C00EC4201D2994270BD0FB471
:10334000034C0CBC03BC30B4FDF7B6FC30BC70BD04
:103350001900160470B501250400ED074C4020D477
:10336000441A01D2001B0919C60D4B00F2B2FF2A04
:1033700029D01B0E2CD000020C02D31A2C43DC40A7
:103380002843051910D2280A02D3401C6D0611D01B
:10339000761EF6058019FF2A00DA70BDC00DC00543
:1033A00070BD694000F07AF801200543C541521C08
:1033B000761CE8E764089C40C90161408900E7D1B8
:1033C0000124A043E4E71B0E440200D0034870BD73
:1033D000002AFCD1C00FC00770BD00BF0000C07F35
:1033E00070B5420064414B005C41120E39D01B0E97
:1033F00038D0FF2A3CD0FF2B3AD040024902400A85
:10340000490A060045184E43000A090AD2184843E3
:10341000ED017F3A0104731A4019190C4318990FF2
:1034200004D001215B0849075B1A521CD80904D358
:10343000401CF50301D19D0607D0FF2A08D2D5050F
:1034400006D0E4072043401970BD0125A843F4E7E6
:10345000002A01DCE00770BD2402FF202043C005E4
:1034600070BD1B0EFF2A03D0FF2B01D0E00770BDFB
:10347000FF2645003606B54206D84D00B54203D8B2
:10348000D218FF2A00D0E7E7004870BD0000C07FD7
:1034900070B501250400ED074C4022D4441A02D235
:1034A0006C40001B0919C60D4B00F2B2FF2A4BD02D
:1034B0001B0E50D000020C02D31A2C43DC40A84350
:1034C000051B05D5AD0019D36D08761E521E37D0E9
:1034D000F605280A01D2801970BD70416D0603D02F
:1034E00070BD6940FFF73CFF9C4009026140490004
:1034F00001D0401E70BD0124A04370BD6D081DD0D9
:1035000001202B0C01D12D0410302B0E01D12D02E6
:1035100008302B0F01D12D01001DAB0F01D1AD00E3
:10352000801CEB0F01D16D00401C6D00361A121A81
:10353000680AF5054019012A02DB70BD002070BD44
:10354000C036300AC00770BD1B0E440201D1FF2BEC
:1035500000D1024870BD002AF0D070BD0000C07FCD
:1035600000002110422063308440A550C660E770FF
:10357000088129914AA16BB18CC1ADD1CEE1EFF1A7
:103580003112100273325222B5529442F772D6624F
:10359000399318837BB35AA3BDD39CC3FFF3DEE3F7
:1035A0006224433420040114E664C774A44485549F
:1035B0006AA54BB528850995EEE5CFF5ACC58DD547
:1035C0005336722611163006D776F6669556B446EF
:1035D0005BB77AA719973887DFF7FEE79DD7BCC797
:1035E000C448E5588668A77840086118022823383F
:1035F000CCC9EDD98EE9AFF9488969990AA92BB9E7
:10360000F55AD44AB77A966A711A500A333A122A8E
:10361000FDDBDCCBBFFB9EEB799B588B3BBB1AAB36
:10362000A66C877CE44CC55C222C033C600C411CDE
:10363000AEED8FFDECCDCDDD2AAD0BBD688D499D86
:10364000977EB66ED55EF44E133E322E511E700E2E
:103650009FFFBEEFDDDFFCCF1BBF3AAF599F788FD6
:103660008891A981CAB1EBA10CD12DC14EF16FE1B6
:103670008010A100C230E3200450254046706760EE
:10368000B9839893FBA3DAB33DC31CD37FE35EF306
:10369000B1029012F322D23235421452776256723E
:1036A000EAB5CBA5A89589856EF54FE52CD50DC556
:1036B000E234C324A014810466744764245405448E
:1036C000DBA7FAB79987B8975FE77EF71DC73CD7A6
:1036D000D326F2369106B0165766767615463456DE
:1036E0004CD96DC90EF92FE9C899E9898AB9ABA9F6
:1036F0004458654806782768C018E1088238A3282E
:103700007DCB5CDB3FEB1EFBF98BD89BBBAB9ABB45
:10371000754A545A376A167AF10AD01AB32A923A7D
:103720002EFD0FED6CDD4DCDAABD8BADE89DC98D95
:10373000267C076C645C454CA23C832CE01CC10CCD
:103740001FEF3EFF5DCF7CDF9BAFBABFD98FF89FE5
:10375000176E367E554E745E932EB23ED10EF01E1D
:103760000000000001020304010006000100010046
:103770000100010001000100020004000800100027
:103780004000800000010002818283848586878852
:10379000898B8C8D8E8F919293959697999A9C9DFB
:1037A0009FA0A2A3A5A7A8AAACAEB0B2B3B5B7B963
:1037B000BCBEC0C2C5C7C9CCCED1D4D7D9DCDFE22C
:1037C000E6E9ECF0F3F7FAFEE83700080000002025
:1037D0006C00000004010008543800086C00002050
:1037E0007C0700002001000800000000000000002D
:1037F00001000000000000000000000000000000C8
:1038000000000000000000000000000000000000B8
:1038100000000000000000000000000000000000A8
:103820000000000000000000000000000000000098
:103830000000000000000000000000000000000088
:103840000100000000000000000000000000000077
:043850000000000074
:04000005080000C12E
:00000001FF
