:020000040800F2
:10000000E80700209D010008411F0008AF1C000800
:1000100000000000000000000000000000000000E0
:10002000000000000000000000000000B9240008EB
:100030000000000000000000991F00081D250008B6
:10004000AF01000800000000AF010008AF01000888
:10005000AF010008AF010008AF010008AF010008C0
:10006000AF010008AF010008AF010008AF010008B0
:10007000AF010008AF010008AF010008AF010008A0
:10008000000000000D260008000000000000000035
:1000900000000000AF010008AF010008AF01000838
:1000A00000000000AF01000800000000392800082F
:1000B0000000000000000000000000000000000040
:1000C00000F002F800F03EF80CA030C80838241800
:1000D0002D18671EA246AB4654465D46AC4201D180
:1000E00000F030F87E460F3EB6460FCC0126334274
:1000F00000D0FB1A3343A246AB461847D037000066
:10010000F0370000103A02D378C878C1FAD8520705
:1001100001D330C830C101D504680C6070470000BD
:100120000023002400250026103A01D378C1FBD813
:10013000520700D330C100D50B6070471FB51FBDFB
:1001400010B510BD00F064FE1146FFF7F7FF03F095
:1001500051F800F07CFE03B4FFF7F2FF03BC00F09F
:10016000DBFE000070B505460C46164602E00FCCDB
:100170000FC5103E102EFAD2082E02D303CC03C5B1
:10018000083E042E07D301CC01C5361F03E02178B9
:100190002970641C6D1C761EF9D270BD074880471B
:1001A00007480047FEE7FEE7FEE7FEE7FEE7FEE75B
:1001B00004480549054A064B704700002125000800
:1001C000C1000008E8030020E8070020E80500203F
:1001D000E8050020F8B5042A2CD3830712D00B7849
:1001E000491C0370401C521E83070BD00B78491C1E
:1001F0000370401C521E830704D00B78491C037007
:10020000401C521E8B079B0F05D0C91ADF0020230C
:10021000DE1B08C90AE0FFF7A5FFF8BD1D4608C9A7
:10022000FD401C46B4402C4310C0121F042AF5D2D6
:10023000F308C91A521EF0D40B78491C0370401CF5
:10024000521EEAD40B78491C0370401C012AE4D4E6
:1002500009780170F8BD0000002203098B422CD3FD
:10026000030A8B4211D300239C464EE003460B4306
:100270003CD4002243088B4231D303098B421CD368
:10028000030A8B4201D394463FE0C3098B4201D35A
:10029000CB01C01A524183098B4201D38B01C01A92
:1002A000524143098B4201D34B01C01A5241030909
:1002B0008B4201D30B01C01A5241C3088B4201D3B8
:1002C000CB00C01A524183088B4201D38B00C01A65
:1002D000524143088B4201D34B00C01A5241411A8C
:1002E00000D201465241104670475DE0CA0F00D06F
:1002F0004942031000D3404253409C460022030968
:100300008B422DD3030A8B4212D38901FC2212BAED
:10031000030A8B420CD3890192118B4208D38901C5
:1003200092118B4204D389013AD0921100E08909DD
:10033000C3098B4201D3CB01C01A524183098B42BE
:1003400001D38B01C01A524143098B4201D34B01A7
:10035000C01A524103098B4201D30B01C01A52410A
:10036000C3088B4201D3CB00C01A524183088B4291
:1003700001D38B00C01A5241D9D243088B4201D31A
:100380004B00C01A5241411A00D201465241104658
:1003900063465B1001D34042002B00D549427047B1
:1003A00063465B1000D3404201B50549002802DCDA
:1003B000491C084000E00846C046C04602BD00BFD8
:1003C000FFFFFF7F70477047704700000246C80F6D
:1003D000C00781434B0030B54B405B009B0D20D0E4
:1003E0001923DB06C91801231B05994220DB0324CE
:1003F000A40704251346AB400BD3002B04D1EB0616
:1004000013409B00E34204D4012464070023121923
:100410005941FF231B0599420BD2C9000143500FDC
:1004200009E0CB0204D501430803024305D0054887
:1004300030BDFF21C905084330BD08460721090525
:10044000884330BD0000C07FF0B50C46871A9C4140
:100450000D46861A9D4103D2C01BA141D2196341AA
:100460000D0D1F0DC94EEC1BAE435CD07F057F0DFB
:100470000026002F51D02D05AC46A943DD020123F3
:10048000ED0A1B051D4320231B1B24D41746E74000
:10049000381871412F46E740CC199D402818314645
:1004A00061410C0D27D161449A4013D50023401CB3
:1004B000594152000ED14008400001224B00520524
:1004C000D34207D305204007C14201D5B04900E01F
:1004D000B0493046F0BD6B00002A00D001229A18C6
:1004E0001F23203C1B1B01D5002302E0E5402818F8
:1004F00071410C0DD7D0012424050919C407CD077B
:1005000040084908E40F28436144002CD5D000245A
:10051000401C61419A40D0D1CDE76A05520DD9D136
:10052000C90FC907D5E79C4D4E00002801D0012412
:1005300000E0002434195F00002A01D0012600E009
:100540000026BE19954FAC420CD8AE420AD8B44230
:1005500006D001256D05EC42BCD010461946F0BD11
:100560009942FCD000203946F0BDF0B51FB40C46CE
:100570000F46811A9F412546861A9D4106D20125C4
:10058000ED076F40401ABC4152187B41210D1E0DF2
:100590008D1BAC467D4D8D437ED075056D0D7CD099
:1005A0000D05AE46AC431B031B0B794D52429D41DA
:1005B000202366469B1B14D31746F74038180026A5
:1005C0000090744160462F460741E41900989D4011
:1005D0002818664116D4714671189A4025D5012312
:1005E00020E093182A466A415200002B00D0521C8A
:1005F0001E23203E9B1B002B61DD3541EE17281882
:100600006641E8D5001876415B1C9A4000D3401C37
:100610004B05F3181524E34010D3002B52D071463C
:100620007118D30FC01802D3491C05B0F0BD0123C7
:10063000DB079A42F9D140084000F6E70122520553
:10064000B21801D1002853D00123CC0ADB02994310
:10065000891E002A08D1020C03D0020C00041039B4
:1006600002E00246002020390023550B05D112027A
:100670000823550B01D152010D23550C01D1120154
:100680001B1DD50C01D192009B1C150D01D15200F0
:100690005B1C2025EE1A01E02CE022E00546F54027
:1006A00015439840CA1AE10769181305C918002AAA
:1006B000BBDA032040070818C10FC9070FE07146D5
:1006C0006118B2E7F10740080843711071444A000D
:1006D0000CD001235B059A42A7D2C90FC90700209D
:1006E000A3E74905490D26D1002001E00028F4D1F7
:1006F00000219AE7284D6600002801D0012100E082
:10070000002171185F00002A01D0012600E00026B8
:10071000BE19224FA94210D8AE420ED8B14208D01D
:1007200001256D05E94206D01946A8024140104650
:100730007BE79C4201D0214677E70020394674E7E9
:1007400010B50C465C4005D50124E4076340FFF773
:100750000CFF10BDFFF778FE10BD30B40C465C40B6
:1007600004D50124E407634030BC6DE630BCFCE6F0
:1007700070B50124E40761400D465D4002D4FFF7E7
:1007800063FE70BD6340FFF7F0FE70BDFF07000021
:100790000000F0FF0000F07F0000E0FF0000F87FA5
:1007A00030B50346CA02400D1043164D164C0A15CB
:1007B00002D02043002A06DBAA1A002A12DDD0400C
:1007C000FF2A0BDC30BD5205520D01D1400040081C
:1007D000AA1A07D4D0404042FF2A01DD002030BDD4
:1007E0000028FCDD4A00002B01D0012000E00020A1
:1007F000101801225205D042F0D8C817C0436040FB
:1008000030BD00001E040000000000801F22030C09
:1008100002D10F22000402D0030E03D004E0002016
:10082000014670470002083A030F01D10001121F70
:10083000830F01D18000921E002801DB4000521E70
:10084000120551184205C012411810467047C10FD9
:10085000C90700D04042012292071143D6E7012187
:100860008907D3E7F0B58B4C0F09254689B0BD4306
:100870007BD01D092646AE43FAD00E465E40274087
:10088000F60F3E43254071D024012142FBD0FF24C6
:10089000AD19A4042D1B039501252D05DB02DB0AF0
:1008A000C9022B43C90A29431E010901040F130F72
:1008B000050121431701880B820391432D098C46C2
:1008C000A90B1E438A039543B30B9A0396433F0932
:1008D000BA0B9403A74302962E467E430497B6466E
:1008E0004E19D7190C460196544305977E43371B82
:1008F0007646BF1B3601B646BE0B361900967646C5
:10090000BC043719009C01D3641C00946400002FC0
:1009100001D001263443029E049F754366467E4300
:100920000496760034196E0034190094029C019EDE
:100930001C196643751BAE46069465464519059C11
:1009400005956C43594375460891691A0191049EB7
:1009500001465143A41B0491611A009C0791E106D2
:1009600005D061090122114302E072E06EE06109E5
:10097000089D00272C0A2D066918049D7C412A0A2F
:100980002D066918019D6241AC0DAD026D185441F0
:10099000079A910D920255196141029A6446584393
:1009A0005443069B059A5A43121A131B9A0E9B0135
:1009B0005B187A41010B0005C3185141220A200639
:1009C00044195A419A4200D2491C012040028142F6
:1009D00003D315230226F64302E014230326F6432D
:1009E0002020C51AA9401746AF40DA400A432046E6
:1009F0000399D8400914731819055118039A3843FC
:100A0000D2075140AC4009D00122944006D30022C5
:100A1000401C5141002C01D1400840001E4A934225
:100A200012D3012203989206904207DB052040076B
:100A300009181A480143C012414004E0032040074E
:100A40000818C10FC907002009B0F0BD0020F10748
:100A5000FAE705180C464C4111486D42A04115D3E8
:100A600094181A465A410E48644290410ED3012010
:100A70004A004005824209D35A00824206D35940B7
:100A8000C90F084AC90700201143DDE700200649C5
:100A9000DAE700000000FF07FE070000FFFFFF7F0E
:100AA0000000E0FF0000F07F0000F87F0121C90591
:100AB0000123411842001B06D3185B0E0AD0C11057
:100AC0000722D206891840075242D14201D552006E
:100AD00089187047090208D50146002A03D0C10FC2
:100AE000C9070020704710467047420202D000201C
:100AF00002497047072109050143F4E70000F87F28
:100B0000F0B5FF252D04C609C209FF2704462E4073
:100B10000137CB093E4348402A402B400746002A74
:100B20006BD0002B69D0AA4267D0AB4265D00028B9
:100B300000DA32460125ED0529432C430902200243
:100B4000090AD21A4B0C7F24E31A434C000A7C4456
:100B5000E35C7D242404121914145B00A21888425B
:100B600001D3521C00E0400049420C465C43241172
:100B70005C43DB016415E318040A5C43C502200DE5
:100B80000C4644436419250A5D432303EC0C0D46CF
:100B9000654300030019EB184C42A34201D35B18D4
:100BA000401CD4052018002B07D05B00C91804D3C3
:100BB000401C002901D1400840003F2189048A429D
:100BC00009D3002A08DC1106090F04D003214907C4
:100BD0004018C00FC007F0BD01224100120689185D
:100BE0007F2252069142F6D205214907C84201D51B
:100BF0009010F0BDFF20C005F0BD002F00DA324696
:100C00001648AA4207D2AB4205D21902090E17D0E4
:100C1000F80FC007F0BDFF2563002D06AB42F9D8E1
:100C20004900A942F6D8AB4201D1A942F2D0A9426B
:100C300001D1002101E061004908D0050843F0BD61
:100C40001102090EFBD0FF200243D005F0BD0A4679
:100C50000146104654E70000122B00000000C07F40
:100C600010B501469E240002CA15A307002A02D02F
:100C70001843002A04DBA21A002A0CDDD04010BD64
:100C80001206120E01D140004008A21A03D4D0402F
:100C900040420028F3DDFF2248001206904201D9AD
:100CA000002010BDC817C043584010BD1F22030CC0
:100CB00002D10F2200041CD0030E01D10002083A19
:100CC000030F01D10001121F830F01D18000921E7A
:100CD000002801DB4000521ED205511802125118A3
:100CE0001922904004D3491C002801D14908490029
:100CF00008467047C10FC90700D040420122920741
:100D00001143D3E701218907D0E70000F8B5264C4D
:100D10004E00069DA6420AD8A64201D1002806D15F
:100D20005E00A64203D8A6420AD1002A08D00D24AC
:100D30002404254233D02946002000F090F8F8BD65
:100D40000C461C4311D4994207D0C81A02D3EFF3C2
:100D50000080F8BDEFF30080F8BD801A02D3EFF3F6
:100D60000080F8BDEFF30080F8BD09242407E500FA
:100D70008B4207D0581A02D3EFF3008006E0EFF35E
:100D8000008007E0101A03D3EFF30080A04303E0D4
:100D9000EFF30080A043284380F30088F8BD00955E
:100DA00000F074F8F8BD00000000E0FF10B5FF236C
:100DB0001B0644009C421DD84C009C421AD8034696
:100DC000124A0B4307D4401A02D3EFF3008010BD40
:100DD000EFF3008010BD081A03D3EFF300809043B7
:100DE00005E0EFF3008001219043C907084380F339
:100DF000008810BD0D231B041A4204D011460020A8
:100E000000F02DF810BD00F04BF810BD0000009070
:100E1000754600F04DF8AE46050069465346C008D9
:100E2000C000854618B020B5FFF7C2F960BCB646D1
:100E300000260027C0C5C0C5C0C5C0C5C0C5C0C547
:100E4000C0C5C0C5403D490849008D46704710B532
:100E50000446C046C0462046FFF77DF910BDC802D3
:100E600012D54803400F002804D0C803C043012115
:100E700088407047EFF30080000100090321090753
:100E8000084380F3008870470020704710B50020A9
:100E90000249029A00F010F810BD00000000F87F2F
:100EA00010B5024800F008F810BD00000000C07F37
:100EB000004870470800002010B50C461107090FC4
:100EC000092904D00A290AD008290CD104E01146C6
:100ED0000820FFF7C4FF06E0510606D501E05106E1
:100EE00001D50120C007214610BDD10607D501015B
:100EF0000909CC084907000E0006044309E0410F28
:100F000020024907000A0143200E00061D22D1419C
:100F100001430846E7E7000001491820ABBEFEE7A1
:100F20002600020070470000F0B589B001242005BA
:100F3000214601F0FFF9E004214601F0FBF96002CF
:100F4000214601F00FFA06AD00200090E87103275A
:100F50002F710C2006901A48294600F049FE0726FA
:100F6000174839463246174B9847022114483246F3
:100F7000144B98470098E8712F7110200690124F7B
:100F80003846294600F034FE0421384632460D4BDF
:100F900098471D4D284600F027F801AE304600F076
:100FA00061F834700098059004900390284631460B
:100FB00000F03CF82846214600F00DF809B0F0BDDD
:100FC000000C00487F1C0008000800488162426154
:100FD000704701607047002901D0012100E0022123
:100FE00082680A438260704710B50749884200D082
:100FF00010BD01214C02204601F0C0F9002120461D
:1010000001F0BCF910BDC04600240140006C80B264
:101010007047CA0101D4006803E00122120680680B
:1010200090430840411E88417047000070B5C26877
:10103000064B13400E1D74CE1A4309784903114321
:10104000214329433143C16070BDC04600D2FFFF38
:10105000816804220A4382607047816810220A4333
:10106000826070470021017041608160C160016150
:101070007047000070B5884E707A002838D0294833
:10108000018865294CD3002101800320264CA0470C
:10109000B0810120A047F0810220A047FFF7DFFBCD
:1010A000224C234D22462B46FFF7DCFBFFF78EF93F
:1010B00020490860F089FFF7D2FB22462B46FFF754
:1010C000D1FBFFF783F91C490860A0480088A049BC
:1010D0000978002912D0652822D3B089FFF7BFFB19
:1010E000164A174BFFF7BEFBFFF770F9154916E0DC
:1010F000012070720B480021018070BD65280FD35C
:10110000B089FFF7ACFB00240F4B2246FFF7AAFB88
:101110000E4B2246FFF714FBFFF758F90C49086005
:1011200070BDC0468C000020552400081F85EB517F
:10113000B81E553F8800002084000020333333332D
:1011400033539A3F9C000020008080BF00803040D5
:1011500094000020BFB50121480401F0EBF8FF2006
:1011600002300290082501950920C40601A92046F5
:1011700000F03EFDA562BFBD0D4948807047C046E6
:101180000B484188002906D00278002A04D0491E65
:101190004180090406D07047012101706D48082183
:1011A00001607047002101706A48082101617047A1
:1011B00080000020B0B536480078022822D133489C
:1011C000007801281ED033480078002821D0324D05
:1011D000A979022935D001293AD0002955D12F49C2
:1011E00000240C800121A971FFF739FB2C4A2D4BFB
:1011F000FFF738FB2C4B2246FFF7A2FAFFF7D0FA95
:101200006881B0BD2A48082101602348002181710E
:10121000B0BD26480078204CE179814204D12448B1
:101220000821016000201EE0A17902291DD00129BA
:1012300015D0002929D10120A07118480021018072
:10124000B0BD68891549098881421ED9002004E093
:1012500068898008FFF790FF0220A871B0BDC82000
:10126000FFF78AFF0220A071B0BDFF2192310B4A27
:1012700012888A4209D30021A171227A521C22725B
:10128000D2B2824201D1E0712172B0BD8F00002044
:10129000B100002090000020680000209200002093
:1012A0003D0AD7A3703D06C000D08440AC000020AA
:1012B0002800004823490878002842D022480278B4
:1012C000052A3ED87A4412795200974402040C143D
:1012D0001A2B012110E01D490988204A914230D380
:1012E0000221017070471C4A202313600322027000
:1012F0000220087070470421017014480021018009
:1013000070477D218A0011490B88934219D9104AF0
:101310000123137000220A80052101700D4802216B
:10132000016170477D218A0008490B88934208D9E2
:10133000074A002313700B80042101700548022125
:101340000160704798000020990000209A0000205A
:10135000000000201800004818080048E9030000B9
:10136000F0B587B0FE4C2078032810D0022838D082
:101370000128FC480068FC4901F0A9FF002800D0C2
:101380004EE2FA48012101700320207048E2F8483B
:101390000088F849097800296CD197286AD3F64863
:1013A000056800242846214601F091FF064628469C
:1013B000FFF77CFB002E00D09FE0F04AF04B01F0DD
:1013C0004DFF002800D098E0EE480178491C0170DC
:1013D000C9B20B2900D223E20470EB48202101603E
:1013E0001EE2EA480178012900D019E202210291A7
:1013F0000170E74F3D6900242846214601F05CFF5B
:10140000002803D10120C00745403D612846FFF771
:101410004DFBE04AE04B01F044FF0646DF49284619
:1014200002F060F8FFF71CFC002E01D18400243488
:10143000DB480470DB480068FFF738FB0446CF4AFE
:10144000D94B069101F015FF0028049409D1D74823
:101450000068FFF72BFBC94AD34B01F015FF0028AA
:1014600052D17A69C620C043824249DBD04802216A
:1014700001704DE0972800D2D2E1BA4800687F2180
:10148000C90501F095FFCB49FFF73AFB0446B74881
:101490000078022800D0C3E12046FFF707FB05468D
:1014A0000E460591C4480068FFF700FB0746069406
:1014B0000C46C24AC24BFFF743F92A46334601F0B5
:1014C000F0FE0646BF4B38462146069CFB4AFFF716
:1014D00037F9002E059E06D12A46334601F0D4FE88
:1014E000002800D09CE1F84AF84B2846314601F02C
:1014F000C0FE002868D00120C7E1A24804708FE137
:10150000AB480321017005E0A948042101707A6904
:10151000002A01D552427A610592B8697F21C90536
:1015200001F046FFE249FFF7EBFA0190FFF7BEFA40
:1015300004460F46E0480068FFF7B8FA05460E4635
:10154000DE4ADF4BFFF7FCF822463B4601F0A9FEDE
:101550000390DC4B284625463146D84AFFF7F0F881
:10156000039A002A06D12A463B4601F08DFE002848
:1015700000D0A3E0D44AD54B2846394601F079FE85
:10158000002802D00120019C94E0D14AD14B28468A
:10159000394601F06EFE00280298019C00D089E0D7
:1015A000CD4ACE4B2846394601F063FE002801D0D3
:1015B00003207FE0CA4ACB4B2846394601F059FE4A
:1015C00000280BD0042075E0C14AC24B28463146A2
:1015D00001F04FFE00280BD0022056E1C24AC34B57
:1015E0002846394601F045FE00280BD0052061E071
:1015F000B94ABA4B2846314601F03BFE00280BD0D1
:10160000032042E1BA4ABB4B2846394601F031FE7D
:1016100000280BD006204DE0B14AB24B2846314697
:1016200001F027FE00280BD004202EE1B24AB34B74
:101630002846394601F01DFE00280BD0072039E06E
:10164000A94AAA4B2846314601F013FE00280BD0C8
:1016500005201AE1AA4AAB4B2846394601F009FE9B
:1016600000280BD0082025E0A14AA24B284631468D
:1016700001F0FFFD00280BD0062006E1944AA24BA2
:101680002846394601F0F5FD00280CD0092011E06C
:10169000994A9A4B2846314601F0EBFD002800D1CB
:1016A000DFE00720F1E09949204601F010FE002814
:1016B00002D10A20964908707F480460964CE7687A
:1016C00000263846314601F0F7FD0028049D03D17D
:1016D0000120C0074740E760059CF92C2ADC8D4AB1
:1016E0008E4B2846069901F0B9FD002809D18C4897
:1016F0000068FFF7DBF9874A884B01F0AFFD00284F
:1017000024D0844A854B2846069901F0BDFD002867
:101710005AD188480299017081480068FFF7C6F9DC
:101720007C4A7E4B01F0B0FD002800D097E0804855
:1017300003214DE03846FFF7B9F97A4A944208DCB4
:10174000794A7A4B01F08AFD002802D179480121BB
:101750003EE07748042101707648029938E0C0469F
:10176000B10000209C0000200000204298000020D2
:101770009A0000200000002094000020333333330F
:101780003333D33FB400002028080048B9000020BC
:10179000B8020020666666666666E63F0000C842DC
:1017A0009000002084000020333307408800002090
:1017B000A80000200000A041A00000207B14AE473C
:1017C000E17A943FE17A94BF5948029901705948EF
:1017D000017036480068584901F079FD04463846E2
:1017E000FFF764F9002C304C0ED14F4A4F4B01F0FB
:1017F00035FD002808D12F480121017003202070F9
:10180000F94806704B480670424A444B28460699F0
:1018100001F02FFD002805D04A4806704748068091
:1018200007B0F0BDCB480068FFF740F97D22D20039
:10183000059B9342F0DC374A384B01F025FD002828
:10184000EAD03E4801883E4A9142E9D306803D48AD
:101850000178491C0170C8B21E28E1D394E53448D0
:1018600075E7274A274B2846314601F002FD00283C
:1018700001D0082009E0164A234B2846314601F0E2
:10188000F8FC002806D00920069C0B4A2049087065
:101890001460C5E71D49069C204601F018FD00288C
:1018A000054AF5D10A20F1E7B10000209C00002094
:1018B0000000A04198000020A00000207B14AE474B
:1018C000E17A943FE17A94BF9EEFA7C64B37104070
:1018D0000AD7A3703D0A1040DD24068195430F40CE
:1018E00004560E2DB29D0E40EC51B81E85EB0D40F6
:1018F0006891ED7C3F350D40C520B07268910C4079
:10190000E17A14AE47E10B403D0A0B400000404035
:10191000B000002033333333B802002033330740A4
:10192000880000206F1700009A9999999999E93FCA
:10193000B5020020B402002000002042B6000020C2
:1019400061EA0000B500002070B54A4A12784A4D9D
:10195000EB78934202D0EA7000232B71042A04D161
:101960004E484D4900F018FF70BD2A79052A4DD820
:101970007A441279520097440223293115444022B7
:1019800080210128144600D00C46494B1C610128D7
:1019900000D01146196001212971012800D00220D0
:1019A000A87070BD364E3088C10750D135490978CE
:1019B000032931D0022934D0012942D136493EE0F1
:1019C000022028712E480021018070BD3348012972
:1019D0001DD1364900F0E0FE032049E0284E308852
:1019E000C1072E4C07D140082949081A81B2204668
:1019F00000F0D2FE308800097D2807D32649204612
:101A000033E0002028711D480221017070BD224979
:101A100000F0C2FE04202BE0FEF721FF00241A4B49
:101A200003E0FEF71CFF00241A4B2246FEF71AFFC4
:101A3000164B2246FEF784FEFEF7B2FE1449081A42
:101A400000E0002081B2154800F0A6FE30880009B1
:101A50007D28DBD30B480078401EC1B2022906D88E
:101A600040B280000EA109580C4800F095FE0520F8
:101A7000287170BDA8000020680000208E000020A2
:101A8000AA000020AC0000200000124000408F405F
:101A9000102700000000044028230000002C014013
:101AA000581B0000A00F0000000000000F270000DE
:101AB00018080048F8B5224C224D2888DB490E78DA
:101AC000214F3978B14203D122466432904207D87F
:101AD000B14208D1A04205D94148204900F05CFE3E
:101AE00065342C80F8BD19480068194901F0E4FB01
:101AF00000280AD117480068154901F0DDFB0028CD
:101B000003D1032E0FD0002402E06534032E0ED043
:101B1000022E04D0012E0ED131480F4909E07D205C
:101B200041012F4805E02E480024214601E02C48C1
:101B3000002100F031FEBD482C8000783870F8BDDF
:101B4000B70B0000A6000020A400002084000020A5
:101B50000000204088000020581B000028230000BF
:101B600070B5AE480078032801D0002809D11B4881
:101B70008021016040210160EE48002100F00CFE50
:101B800070BD184DA7480078184E7179814202D176
:101B90002A78022AF4D0814202D001212970707182
:101BA000401E0328ECD8C0467844007940008744A2
:101BB0000103060B012003E00120022101E00220C5
:101BC0000146FFF7C1FE70BD022420462146FFF703
:101BD000BBFE0320B0702C7070BDC04628080048C2
:101BE000002C01408E000020A8000020680000208A
:101BF000FEB50A6800231C460192202B35D0012730
:101C0000A7403A422ED0029403259D40ED430C4656
:101C10000E79721E012A13D882682A408260627986
:101C20009A4000958568154385604268BA434260D2
:101C3000A27902998A4092B2456815434560009D99
:101C400002682A4002609E40026832430260C26815
:101C50002A40C260E1799940C2680A43C260019A91
:101C60002146029C9B1C641CC7E7097A002902D00C
:101C7000016B914301E0016B11430163FEBD10B59F
:101C80004B07DB0E0F249C40C90889004018016AED
:101C9000A14301629A40016A1143016210BDE0B59F
:101CA00001AA10700121104600F008FC8CBDFEE76F
:101CB000BFB50121080500F03DFBFF200230029076
:101CC00010250195034C01A92046FFF791FFA5615E
:101CD000BFBDC046000C00483148417804294CD8AB
:101CE0007944097949008F4402350D2229002E4993
:101CF0000968090747D44188491C418089B21429E1
:101D000011D03AE08188491C818089B289087C29F8
:101D100034D825490968090707D44188491C4180FE
:101D200089B2022929D10121417000212DE01E49EB
:101D30000968090721D5002141707047C188491EF3
:101D400089B2022903D8C900164ACA40027000218C
:101D5000417022E04188491C41808288521C828067
:101D6000114A1268120712D489B2104A914204D360
:101D7000002141800E490180704770470421417065
:101D800000218180704700218180418070470021BF
:101D9000418002214170C188491CC1807047C04602
:101DA000780000200102040010080048DD05000052
:101DB0000303000010B518480378002B2BD01749F7
:101DC0000A78032A27D05B1E032B22D87B441B7979
:101DD0005B009F440114040C022A18D119E0114A37
:101DE0000023137003220A700F490B7011E0022ABE
:101DF0000FD10B490A78022A09D0022208E0022AF0
:101E000007D10A490A78521CD3B2042B00D101220F
:101E10000A700021017010BD78000020B100002080
:101E20008F000020A8000020B4020020AC00002099
:101E30001FB50124E004214600F07CFA01A9CC7111
:101E40000020087108200190DF48FFF7D1FE1FBD78
:101E5000F0B585B001246004214600F06BFAE0047F
:101E6000214600F067FAFF2702370397022001900E
:101E700002900920C006009002AD0C4A2946904706
:101E8000039780240294D04E30462946074A904753
:101E900003974027029730462946044A9047019805
:101EA00000998862B462B76205B0F0BDF11B00080A
:101EB000F0B58BB00124A004214600F03BFAE0020B
:101EC000214600F04FFA8120400009901020089030
:101ED000164D08A92846FFF78BFE04260322284644
:101EE0003146FFF7CCFE05A9002088720881104F0B
:101EF00006971F2005900F4D284600F04FFC6946BD
:101F00008E80200204900C48039002970B480090AA
:101F1000284600F003FC2846214600F0CFFB284667
:101F2000214600F0D7FB0BB0F0BDC04600040048CE
:101F30000F270000002C0140020008007000010083
:101F400070470000B0B501788278002A16D08A0761
:101F5000D20EFF2393400D4C0C190325AC4325688A
:101F60009D4340788001C0B29040284320601F20EC
:101F700008400121814006480160B0BD1F2001409A
:101F80000120884003490860B0BDC04600E400E07D
:101F900000E100E080E100E070470000B0B57A4861
:101FA0000078401E092815D87844007940008744FD
:101FB000041D2935414D5965D0710024734DE0B29F
:101FC000092800D9DCE029780A460B4601F03EF8E2
:101FD000641CF4E70024E0B2092800D9D0E0002115
:101FE0000A460B4601F032F8641CF4E70024674D02
:101FF000E0B2092860D229780A460B4601F026F89B
:10200000641CF5E70024614DE0B208285FD229780E
:102010000A460B4601F01AF8641CF5E700245B4DF4
:10202000E0B207285ED229780A460B4601F00EF886
:10203000641CF5E70024554DE0B206285DD22978EE
:102040000A460B4601F002F8641CF5E700244F4DE8
:10205000E0B205285CD229780A460B4600F0F6FF6C
:10206000641CF5E70024494DE0B204285BD22978CE
:102070000A460B4600F0EAFF641CF5E70024434DD6
:10208000E0B203285AD229780A460B4600F0DEFF58
:10209000641CF5E73D48027800200146034600F045
:1020A000D5FF0124E0B209286AD800210A460B4670
:1020B00000F0CCFF641CF5E70924E0B209285FD8E2
:1020C00000210A460B4600F0C1FF641CF5E7082416
:1020D000E0B2092854D800210A460B4600F0B6FFAA
:1020E000641CF5E70724E0B2092849D800210A4614
:1020F0000B4600F0ABFF641CF5E70624E0B20928AC
:102100003ED800210A460B4600F0A0FF641CF5E70C
:102110000524E0B2092833D800210A460B4600F016
:1021200095FF641CF5E70424E0B2092828D80021B3
:102130000A460B4600F08AFF641CF5E70324E0B270
:1021400009281DD800210A460B4600F07FFF641CB9
:10215000F5E700240D4DE0B2022806D22A780021CE
:102160000B4600F073FF641CF5E70224E0B2092877
:1021700006D800210A460B4600F068FF641CF5E70C
:1021800000F048FFB0BDC046B0000020B6020020FD
:10219000FEB50121480400F0CDF8FF260236019675
:1021A000042700970920C4066D4620462946FFF7FC
:1021B0001FFD01962026009603482946FFF718FDCB
:1021C000A76201488662FEBD0008004810B51449A8
:1021D0000A7814480378934202D1012A00D010BD36
:1021E0000270012AFBD1104A042313600F4B012215
:1021F0001A704378002B0DD00D4B1B880D4CA34259
:10220000EDD30D4B1A7002220A700C490A7000219E
:10221000417010BD427006480021018010BDC046CB
:10222000B10000206800002018000048A80000202D
:10223000B200002071170000AC0000208F000020C9
:10224000FEB5054600270297007801240228019474
:1022500001D16F7802242E193046394600F0B6FFBE
:1022600039196A185278695C090289188142019CFF
:102270004DD130780024042849D1751C254902AE7F
:10228000254F28463246B8473B46244F38602846FB
:1022900020493246984778602149224F28463246E5
:1022A000B8471E49886028461D493246B8471B4F2B
:1022B000F8600298083002901B4928463246164BB7
:1022C00098473861194A2846314690477861284630
:1022D00010493246104B9847B86115492846324696
:1022E000104B9847F8612846114932460D4B9847E4
:1022F0003862029808300290284631460B4FB847A2
:102300000649486228463146B84704498862204653
:10231000FEBDC0460000204175310008B802002013
:102320000000C8429731000800007A44AD3100082F
:1023300000401C46044A002902D01168014301E014
:10234000116881431160704714100240044A00294B
:1023500002D01168014301E01168814311607047A8
:102360001C100240044A002902D01168014301E018
:10237000116881431160704718100240044A002917
:1023800002D01168014301E0116881431160704778
:102390000C100240F8B50446274F38680C21014064
:1023A0000C2901D125482060254D25603868C008DA
:1023B0001E2101402348415A2846FDF74DFF06469D
:1023C000606038684005400F1F49085CC640A66041
:1023D0001E480168890F08D18A4800684000C00E75
:1023E000811C1B48FDF738FF11E001218B070322F8
:1023F0009207056815409D4207D100681040C90743
:1024000088420F4D04D0B00801E070080C4DE06028
:102410002561F86AF86A80070BD0F96A0320014049
:10242000012901D12E4604E0F96A014003292E4614
:1024300000D16661F8BDC0460410024050BD0100E5
:102440000048E801A4360008C43600081024014002
:102450000090D003B0B50546134C2046FEF7FDFDB5
:1024600004212046FEF7B5FD681EC1B2022907D837
:1024700040B280000DA1095807222046FEF7A6FDB4
:1024800001212046FEF7C5FD0028F9D02046FEF7C1
:10249000DFFD04212046FEF7BCFD0028F9D02046D0
:1024A000FEF7B4FDB0BDC0460024014004000000AA
:1024B000080000001000000070470000F8B50C464E
:1024C000064600F083FE009001200002844204D8FA
:1024D000114802250570401C05E00F4803250570D2
:1024E000210A4170801C04700B4F78193146224636
:1024F000FDF770FE2819C1B2009B1A0A7A54411CDC
:10250000C9B27B54811CC9B203227A54C01CC1B227
:10251000384600F019FAF8BDE402002070470000C8
:1025200070B585B0344801680122114301604168EB
:10253000324B0B404360016B13239943016300212D
:1025400081602F4B1B681C0C1C4205D104685B0585
:102550009B0C04681C430460049103910291019157
:1025600000910368134303600F23DB02254C2568A9
:102570009D4325600723DD0226682E432660664DB5
:102580000668022426400396049E761C0496039E49
:10259000002E02D1049EAE42F2D10568AD0701D4EF
:1025A000039100E00392184A039D012D21D1156883
:1025B0000295029D9D430295029D25431560446846
:1025C0000194F024019DA5430195019C4460446859
:1025D00000941B02009C9C430094009B4360436852
:1025E0000324A34343604368436043681B079B0F76
:1025F000FBD1516705B070BD001002401CB8FFF858
:1026000020F8FF1FE81002400020024010B5894C5E
:102610000121204600F06AF8002833D0012120462D
:1026200000F048F818480188491C018017480188C3
:10263000491C018016480188491C01801548018801
:10264000491C018014480188491C018013480188F5
:10265000491C018012480188491C018011480188E9
:10266000491C018010480188491C01800F480188DD
:10267000491C01800E480188491C0180FFF72CFB92
:10268000FEF77EFD10BDC046AE000020B202002065
:10269000BE000020920000209A000020AA00002026
:1026A000B2000020BC0000208C000020B6000020FA
:1026B000A6000020184A4A400261704702680029BB
:1026C00002D001210A4301E001490A40026070473B
:1026D000FEFF0000426C044B002902D0591C0A4343
:1026E00000E01A4042647047FF7F00000269C06842
:1026F0000A4203D0084201D00120704700207047F1
:10270000002A02D0C2680A4303E0034A5140C2686B
:102710000A40C2607047C046FFFF000070B5026A01
:102720001A4B13400362026A20239A438B891B01D0
:1027300013434A8812011A43446873231B028569B4
:102740009D430B881B022B43274DA84214D1C02563
:10275000AA43CD892D014026B54315438A8812012D
:102760002A430B4D2C400D8AAD000A4E2E402643C5
:102770004C8AA4003443A4B2A4B244609BB28361E7
:102780008968816391B2016270BDC046EFFF0000AD
:10279000FFF30000FCF700008163704710B5046888
:1027A000114A904203D001239B07984204D1702321
:1027B0009C434B88234300E023461E4CA04205D097
:1027C00003242402A3430C891C4300E01C46A3B24B
:1027D00003604B68C3620B888362904201D1897A9F
:1027E00011630121416110BD002C0140BFB51020D3
:1027F00001242146FFF7AAFD01A9002008810C4809
:1028000002901F2001900B4D2846FFF7C7FF284676
:1028100021462246FFF774FF28462146FFF74EFF68
:1028200068468470FF2112310180FFF78BFBBFBD2A
:10283000E70300000010004010B57F4CE0698006FF
:102840000AD52021204600F08BF8606A10490A78EA
:10285000A44B9854501C0870E069C0060CD59F48E2
:10286000012101700A48002101701021204600F06A
:1028700077F8204600F0E4F8E069000706D5082163
:10288000204600F06DF8204600F0DAF810BDC04692
:10289000B8000020F0B58BB0054601242005214684
:1028A000FFF748FDA0032146FFF75CFD81204000B3
:1028B0000990022008901D4E08AF30463946FFF7B8
:1028C00097F9304621462246FFF7D9F9FC8040208F
:1028D000089030463946FFF78BF9062130462246EC
:1028E000FFF7CDF90020079002950C210691059085
:1028F00004900390504D02A9284600F053F8284652
:10290000214600F02FF80A492846224600F033F805
:1029100008492846224600F02EF801A884701B21A1
:102920000180FFF70FFB0BB0F0BDC046000C004864
:10293000050105000401040002490A681206FCD5DD
:10294000C86070471C380140B0B50C4605462006EB
:1029500005D02878FFF7F0FF641E6D1CF7E7B0BDC7
:102960000162704702680123002901D01A4300E088
:102970009A430260704710B5CCB20123090AC9B26C
:10298000032903D0022902D1001D00E00830A34032
:10299000002A02D00168194301E0016899430160EF
:1029A00010BD0000F0B587B00D4604460068012751
:1029B000B84320600320010362688A43A968114379
:1029C000616021681B4A0A4069681143EA680A434A
:1029D0002969114321600002A168814368690843A5
:1029E000A06001AE3046FFF7D5FC1348844201D009
:1029F000083600E0143636682068000400D57600FA
:102A00002D6830462946FDF727FC29464143711AB7
:102A1000FA036B08994200D3401C2168114204D08C
:102A2000064901400007400F401880B2E06007B03F
:102A3000F0BDC046F3E9FFFF00380140F0FF0000A1
:102A4000416A014808407047FF010000B0B52048C6
:102A5000007802280ED1204C2078032836D8C046B2
:102A60007844007940008744011A140E0420FFF7CF
:102A700016F90CE017480021C160016141618161D4
:102A800015480170B0BD15480078012801D101201A
:102A90001BE013480088642818D3002015E00F4875
:102AA000017801290DD1002505700E48FFF7C8FBFC
:102AB0000B490D8002212170002800D101210A4814
:102AC000DFE707480021018003202070B0BDC04629
:102AD000B1000020B8020020BA000020C001002090
:102AE000BC000020C0000020B9000020B0B52F4875
:102AF0000078401E032811D87844007940008744AC
:102B00000118232F00242A4DE0B2052833D22B7858
:102B100000210A4600F09AFA641CF5E70024E0B2AE
:102B200009283FD800210A460B4600F08FFA641CA2
:102B3000F5E70024E0B2052828D200210A460B461A
:102B400000F084FA641CF5E70024194DE0B209286E
:102B500028D82B7800210A4600F078FA641CF5E7A3
:102B60000024E0B209281DD800210A460B4600F0D7
:102B70006DFA641CF5E70524E0B2092812D800219B
:102B80000A460B4600F062FA641CF5E70524084D7E
:102B9000E0B2092806D82B7800210A4600F056FA40
:102BA000641CF5E700F036FAB0BDC046B50200205F
:102BB000B602002009481021016001600160016136
:102BC0007047C04605481021016001600160016046
:102BD000016001600160016001617047180C0048EC
:102BE00010B5774800887D218A00904211D80020D6
:102BF000FF2102460B4600F029FA0124E0B2092821
:102C000000D9D9E000210A460B4600F01FFA641CE7
:102C1000F4E7CA0090420AD80024E0B2022814D295
:102C20000022FF210B4600F011FA641CF5E7654A0B
:102C3000904216D80024E0B2032820D20022FF21BF
:102C40000B4600F003FA641CF5E70224E0B2092801
:102C500000D9B1E000210A460B4600F0F7F9641CE8
:102C6000F4E70A01904216D80024E0B2042820D2EA
:102C70000022FF210B4600F0E9F9641CF5E703246C
:102C8000E0B2092800D997E000210A460B4600F07F
:102C9000DDF9641CF4E74C4A904215D80024E0B2F8
:102CA00005281FD20022FF210B4600F0CFF9641C3B
:102CB000F5E70424E0B209287ED800210A460B4635
:102CC00000F0C4F9641CF5E7404A904215D800248E
:102CD000E0B206281FD20022FF210B4600F0B6F911
:102CE000641CF5E70524E0B2092865D800210A46EE
:102CF0000B4600F0ABF9641CF5E7354A904215D855
:102D00000024E0B207281FD20022FF210B4600F06A
:102D10009DF9641CF5E70624E0B209284CD800218F
:102D20000A460B4600F092F9641CF5E74901884217
:102D300015D80024E0B2082833D20022FF210B4628
:102D400000F084F9641CF5E70724E0B2092833D8C1
:102D500000210A460B4600F079F9641CF5E71D498D
:102D6000002488420FD3E0B2092825D80022FF2191
:102D70000B4600F06BF9641CF5E70022FF210B46BF
:102D800000F064F9641CE0B20928F6D30924E0B22B
:102D9000092811D800210A460B4600F057F9641C97
:102DA000F5E70824E0B2092806D800210A460B46B8
:102DB00000F04CF9641CF5E700F02CF910BDC0469A
:102DC000B2000020DC050000C4090000B80B0000C0
:102DD000AC0D000095110000012132280A4601D3F4
:102DE0000020C243064803789A18130600D0114603
:102DF000CAB2322A00D332210170C8B27047C0462D
:102E00000100002070B57B4D2878FFF7E5FF0446F0
:102E1000D4480078401E092815D8C0467844007967
:102E200040008744041C27323D48535EC769002692
:102E3000F0B2092800D9D3E021462246234600F00B
:102E400005F9761CF4E70024E0B2092800D9C7E0B0
:102E500000210A460B4600F0F9F8641CF4E700264E
:102E6000F0B2092859D221462246234600F0EEF856
:102E7000761CF5E70026F0B2082859D221462246F2
:102E8000234600F0E3F8761CF5E70026F0B20728A9
:102E900059D221462246234600F0D8F8761CF5E7A1
:102EA0000026F0B2062859D221462246234600F0D9
:102EB000CDF8761CF5E70026F0B2052859D2214658
:102EC0002246234600F0C2F8761CF5E70026F0B251
:102ED000042859D221462246234600F0B7F8761C32
:102EE000F5E70026F0B2032859D2214622462346B0
:102EF00000F0ACF8761CF5E70020014622460346B8
:102F000000F0A4F80124E0B2092869D800210A469B
:102F10000B4600F09BF8641CF5E70924E0B2092891
:102F20005ED800210A460B4600F090F8641CF5E7D5
:102F30000824E0B2092853D800210A460B4600F0C5
:102F400085F8641CF5E70724E0B2092848D8002179
:102F50000A460B4600F07AF8641CF5E70624E0B256
:102F600009283DD800210A460B4600F06FF8641C82
:102F7000F5E70524E0B2092832D800210A460B46BD
:102F800000F064F8641CF5E70424E0B2092827D8AF
:102F900000210A460B4600F059F8641CF5E70324AB
:102FA000E0B209281CD800210A460B4600F04EF872
:102FB000641CF5E70026F0B2022806D20021224662
:102FC0000B4600F043F8761CF5E70224E0B209282E
:102FD00006D800210A460B4600F038F8641CF5E7D5
:102FE0002878401CC1B2642900D10020287000F06C
:102FF00011F870BDB102002080B5FEF759FE2948D6
:103000000021EF2904D8E0220270491C401CF8E797
:1030100080BDC046B0B5012080F310880A48102159
:103020000160204C0025EF2D0AD82078E02802D13D
:10303000FFF7C0FD01E0FFF7C5FD6D1C641CF2E762
:10304000002080F31088B0BD280C0048B0B51824CB
:103050004443144800190024182C22D0072C04D80B
:103060004DB2002D08DA002507E00F2C09D855B223
:10307000002D0BDA00250AE01F25ED430555490018
:103080000DE05DB2002D06DA002505E01F25ED43B9
:103090000555520003E01F25ED4305555B00641CF8
:1030A000DAE7B0BDC1010020B0B529480188142974
:1030B00000D2B0BD0024048026480578002D0FD032
:1030C000012D1AD02448032D1AD10078002818D1D8
:1030D000002505E000210A460B46FFF7B7FF6D1CEF
:1030E000E8B20928F6D9FFF795FF1C4800210170C6
:1030F0001B4801701B480170B0BDFFF771FDB0BDEA
:10310000007802280BD003280CD1E0B20928D0D8CF
:10311000FF210A460B46FFF799FF641CF5E7FFF70E
:1031200071FEB0BD10480078401EC0B2022804D81D
:10313000C0000E49C1400E480170094800780128BE
:1031400002D1FEF72BFFB0BDFFF7D0FCB0BDC046EB
:10315000B2020020B100002098000020B50200203B
:10316000B4020020B0000020AC000020CC801E0083
:10317000B602002010B50C46116843185B78405C1D
:10318000891C11600002C01800B2FDF7B3FD214692
:10319000FDF7B6FC10BD10B50C46114600F006F860
:1031A000FDF7A8FD2146FDF7ABFC10BDB0B50A68E0
:1031B0008318DC789D785B78805C121D0A600006BD
:1031C00019040818290240180019B0BDB0B5002232
:1031D000074B00290AD0047895B22D0A65406C008F
:1031E0001C5B12026240491E401CF2E790B2B0BD67
:1031F000CC360008FEF72CFEFDF7ACFFFDF794FE81
:10320000FFF7FAFEFEF7C4FFFEF712FEE1204002D0
:10321000FFF740FBFEF74CFEFFF7E8FA0D480068A9
:10322000000702D40C4801210170FEF7C3FDFFF72F
:103230003BFFFEF7CBFFFEF73DF8FEF791FCFEF7F4
:1032400039FCFDF7B7FFFFF701FCFDF713FFFEF7B1
:1032500087F8EAE7100800487800002010B500F071
:1032600043F8EFF30080800001D5012010BD00205D
:1032700010BD10B500F038F8EFF300804000800F6B
:10328000012800D0002010BD10B500F05FF8EFF36A
:1032900000804000800F012801D0012010BD0020D7
:1032A00010BD10B500F052F8EFF30080800001D49B
:1032B000012010BD002010BD10B500F0BFF8EFF3E5
:1032C0000080800001D5012010BD002010BD10B588
:1032D00000F0DEF8EFF300804000800F012801D0FD
:1032E000012010BD002010BD70B501252D050C007A
:1032F0001C4310D4EC4206D4AC420AD4994200D00C
:1033000070BD904270BDE94217D4EB4215D499428A
:1033100070BD894270BDEC4206D5AC42F9D58B42F6
:1033200000D070BD824270BD6D004C00EC4204D2F2
:103330005C00EC4201D28B4270BD034C30B4FDF70F
:10334000E5FC30BC70BD00BF1900130470B5012549
:103350002D050C001C4310D4EC4206D4AC420AD418
:10336000994200D070BD904270BDE94217D4EB4243
:1033700015D4994270BD894270BDEC4206D5AC426D
:10338000F9D58B4200D070BD824270BD6D004C00FB
:10339000EC4204D25C00EC4201D28B4270BD034C83
:1033A00030B4FDF7B3FC30BC70BD00BF190016048B
:1033B00070B50125ED0704004C4020D4441A01D219
:1033C000001B0919C60D4B00F2B2FF2A29D01B0EB3
:1033D0002CD000020C0228432C43D31ADC400519E0
:1033E00010D2280A02D3401C6D0611D0761EF605B5
:1033F0008019FF2A00DA70BDC00DC00570BD69409C
:1034000000F0CEF801200543C541521C761CE8E7C8
:1034100064089C40C90161408900E7D10124A043B0
:10342000E4E71B0E440200D0034870BD002AFCD123
:10343000C00FC00770BD00BF0000C07F0123DB05C7
:1034400002000A430DD4DA4203D49A4207D48842D8
:103450007047D84214D4D94212D48842704780426F
:103460007047DA4203D59A42F9D5814270475B0032
:103470004200DA4204D24A00DA4201D28142704765
:1034800010B5024AFDF792FC10BD00BF09001304FD
:103490000123DB0502000A430DD4DA4203D49A4229
:1034A00007D488427047D84214D4D94212D48842F3
:1034B000704780427047DA4203D59A42F9D581427B
:1034C00070475B004200DA4204D24A00DA4201D27D
:1034D0008142704710B5024AFDF768FC10BD00BF7D
:1034E0000900160470B5420064414B005C41120EA5
:1034F00039D01B0E38D0FF2A3CD0FF2B3AD0D2183F
:103500007F3A40024902400A490A4518ED01060087
:103510004E43000A090A48430104731A4019190C62
:103520004318990F04D05B08012149075B1A521C0C
:10353000D80904D3401CF50301D19D0607D0FF2A0A
:1035400008D2D50506D0E4072043401970BD0125F7
:10355000A843F4E7002A01DCE00770BD2402FF2045
:103560002043C00570BD1B0EFF2A03D0FF2B01D0E6
:10357000E00770BDFF2636064500B54206D84D006F
:10358000B54203D8D218FF2A00D0E7E7004870BD43
:103590000000C07F70B50125ED0704004C4022D427
:1035A000441A02D26C40001B0919C60D4B00F2B23E
:1035B000FF2A4BD01B0E50D000020C02A8432C4314
:1035C000D31ADC40051B05D5AD0019D36D08761E56
:1035D000521E37D0F605280A01D2801970BD7041FD
:1035E0006D0603D070BD6940FFF7E8FE9C400902FC
:1035F0006140490001D0401E70BD0124A04370BD50
:103600006D081DD001202B0C01D12D0410302B0E84
:1036100001D12D0208302B0F01D12D01001DAB0F60
:1036200001D1AD00801CEB0F01D16D00401C361A9A
:10363000121A6D00680AF5054019012A02DB70BDF7
:10364000002070BDC036300AC00770BD1B0E44029A
:1036500001D1FF2B00D1024870BD002AF0D070BD0F
:103660000000C07F8182838485868788898B8C8DCA
:103670008E8F919293959697999A9C9D9FA0A2A3C5
:10368000A5A7A8AAACAEB0B2B3B5B7B9BCBEC0C20C
:10369000C5C7C9CCCED1D4D7D9DCDFE2E6E9ECF09E
:1036A000F3F7FAFE0100060001000100010001002D
:1036B000010001000200040008001000400080002A
:1036C00000010002000000000102030400002110BC
:1036D000422063308440A550C660E770088129917C
:1036E0004AA16BB18CC1ADD1CEE1EFF13112100224
:1036F00073325222B5529442F772D66239931883CC
:103700007BB35AA3BDD39CC3FFF3DEE362244334EF
:1037100020040114E664C774A44485546AA54BB51B
:1037200028850995EEE5CFF5ACC58DD553367226C3
:1037300011163006D776F6669556B4465BB77AA76B
:1037400019973887DFF7FEE79DD7BCC7C448E5580F
:103750008668A7784008611802282338CCC9EDD9BB
:103760008EE9AFF9488969990AA92BB9F55AD44A63
:10377000B77A966A711A500A333A122AFDDBDCCB0B
:10378000BFFB9EEB799B588B3BBB1AABA66C877C2F
:10379000E44CC55C222C033C600C411CAEED8FFD5B
:1037A000ECCDCDDD2AAD0BBD688D499D977EB66E03
:1037B000D55EF44E133E322E511E700E9FFFBEEFAB
:1037C000DDDFFCCF1BBF3AAF599F788F8891A9816D
:1037D000CAB1EBA10CD12DC14EF16FE18010A10057
:1037E000C230E3200450254046706760B983989347
:1037F000FBA3DAB33DC31CD37FE35EF3B1029012A7
:10380000F322D2323542145277625672EAB5CBA512
:10381000A89589856EF54FE52CD50DC5E234C324F6
:10382000A01481046674476424540544DBA7FAB7E6
:103830009987B8975FE77EF71DC73CD7D326F23646
:103840009106B01657667676154634564CD96DC932
:103850000EF92FE9C899E9898AB9ABA94458654896
:1038600006782768C018E1088238A3287DCB5CDB86
:103870003FEB1EFBF98BD89BBBAB9ABB754A545AE6
:10388000376A167AF10AD01AB32A923A2EFD0FED52
:103890006CDD4DCDAABD8BADE89DC98D267C076C36
:1038A000645C454CA23C832CE01CC10C1FEF3EFF26
:1038B0005DCF7CDF9BAFBABFD98FF89F176E367E86
:1038C000554E745E932EB23ED10EF01EF0380008B5
:1038D000000000200800000004010008F83800087B
:1038E00008000020E00700002001000800000000A0
:0838F0000101000000000000CE
:04000005080000C12E
:00000001FF
