:020000040800F2
:10000000C01800205D010008652D00083524000897
:10001000612D0008050B0008693800080000000089
:10002000000000000000000000000000F1320008A5
:10003000412000080000000073010008750100085D
:1000400077010008770100087701000877010008B0
:1000500077010008770100087701000877010008A0
:100060007701000877010008770100087701000890
:100070007701000877010008770100087701000880
:100080007701000877010008770100087701000870
:100090007701000877010008770100084520000873
:1000A0007701000877010008770100087701000850
:1000B0007701000877010008770100087701000840
:1000C0007701000877010008770100087701000830
:1000D0007701000877010008770100087701000820
:1000E0007701000877010008770100087701000810
:1000F0007701000877010008770100087701000800
:100100007701000877010008770100081935000819
:100110007701000877010008411000087701000806
:1001200077010008770100087701000877010008CF
:1001300077010008770100087701000877010008BF
:100140007701000877010008DFF80CD000F044F9CF
:100150000048004745410008C01800200648804775
:1001600006480047FEE7FEE7FEE7FEE7FEE7FEE79C
:10017000FEE7FEE7FEE7FEE7353400084901000828
:100180002DE9F04D81EA030404F0004B21F0004515
:1001900014464FF0000A23F0004150EA050220D037
:1001A00054EA01021DD0C5F30A570246C5F31303F2
:1001B000C1F31300C1F30A5640F4801543F48013D1
:1001C000A7EB0608101BD64608F2FD3873EB0500B6
:1001D00002D308F1010801E092185B41B8F1000F69
:1001E00003DA00200146BDE8F08D00204FF48011B5
:1001F000064684460EE0171B73EB050705D3121B5A
:1002000063EB050306434CEA010C49084FEA300052
:1002100092185B4150EA0107EDD152EA030012D077
:1002200082EA040083EA0501084305D0101BAB41B4
:1002300006D20122002306E000224FF0004302E034
:100240006FF0010253101AEB06004CEB085110EB53
:100250000A0041EB0B01BDE8F04D00F060B80EB5AF
:1002600040F2334102910021CDE900110A460B46CC
:1002700000F064F803B000BD01F0004330B421F099
:10028000004150EA010206D00A0DA2F56072C1F3E6
:100290001301002A02DC30BC00207047440F44EAFE
:1002A000C104C100E01830BC00EBC250AFF30080C5
:1002B0000029A8BF7047401C490008BF20F001007A
:1002C000704710B4B0FA80FC00FA0CF050EA010458
:1002D00004BF10BC704749B1CCF1200421FA04F4EA
:1002E00011FA0CF118BF012121430843A3EB0C01C3
:1002F000CB1D4FEA00614FEA102042BF002010BC26
:10030000704700EBC35010440029A4BF10BC7047D5
:10031000401C490008BF20F0010010BC704710B518
:10032000141E73F1000408DA401C41F10001921818
:100330005B411A4301D120F0010010BD2DE9F04DC1
:1003400092469B4611B1B1FA81F202E0B0FA80F216
:100350002032904600F052F804460F4640EA0A0068
:1003600041EA0B0153465A46084313D0114653EA5B
:10037000010019D0C8F14002504600F04EF8054681
:100380000E4650465946424600F038F8084305D01C
:10039000012004E020463946BDE8F08D00200543E9
:1003A00046EAE0762C4337430A986305E40AA0EB5B
:1003B00008000022FD0A44EA47540A3002D5002012
:1003C0000146E9E7010510196941DDE90845001911
:1003D0006941BDE8F04DA2E7064C074D06E0E06834
:1003E00040F0010394E8070098471034AC42F6D37C
:1003F000FFF7AEFE6445000884450008202A04DBB0
:10040000203A00FA02F1002070479140C2F1200327
:1004100020FA03F3194390407047202A04DB203A66
:1004200021FA02F00021704721FA02F3D040C2F114
:100430002002914008431946704770B58C1810F897
:10044000015B15F0070301D110F8013B2A1106D119
:1004500010F8012B03E010F8016B01F8016B5B1E33
:10046000F9D12B0705D40023521E0DD401F8013B0E
:10047000FAE710F8013BCB1A921C03E013F8015B7A
:1004800001F8015B521EF9D5A142D8D3002070BDFE
:10049000104800680068642805DB0E4800680068A2
:1004A00010F1640F11DD0C480068C0F3002060B942
:1004B0000A4800690A4988420AD30A48007820F0AD
:1004C0000700C01C0749087002E0002003490861CA
:1004D00070470000B8000020100801405C010020B7
:1004E00040771B000400002070B5FF2400262B4835
:1004F0000078C0F3400000284ED0802028490860D2
:1005000042F2AC6127484069C181274890ED100A4A
:10051000FBEE040AB4EEE00AF1EE10FA0EDD90ED07
:10052000100AF3EE040AB4EEE00AF1EE10FA05D276
:1005300000201E49888101201D4908701B488089C0
:1005400042F21071884227DD19480078012823D132
:10055000002017490870002112484069C1811048E5
:1005600018380068C0F3002028B11248007820F045
:100570002000104908700948057824F0020404702E
:1005800001E0701CC6B20121002001F041FD08B954
:100590000A2EF6DB0148057070BD0000B80100208E
:1005A0002808014074000020780300205C0100202E
:1005B000D00000200400002070B5FF24002625484C
:1005C0000078C0F38000002843D02348007820F052
:1005D000800080302049087042F2AC611F484069B9
:1005E00081811F4800680068642805DC1C48006899
:1005F000006810F1640F05DA00201A4948810120D3
:100600001949087017484089B0F5FA6F21DB164880
:10061000007801281DD10020134908700E48007889
:1006200020F080000C49087000210C48406981814D
:100630000848057824F00404047001E0701CC6B278
:100640000121002001F0E4FC08B90A2EF6DB014884
:10065000057070BDB8010020040000207400002067
:10066000B80000205C010020CF0000204C4800783A
:10067000F0BB4C480068C0F30020F8B14A4890ED48
:100680000C0AF8EE080AB4EEE00AF1EE10FA08D30C
:1006900090ED0E0AF8EE080AB4EEE00AF1EE10FA58
:1006A0007CD280203F491831086042F2AC613F485B
:1006B0004069418201203A4908706FE03A4890ED64
:1006C0000C0AFBEE040AB4EEE00AF1EE10FA08D3CD
:1006D00090ED0E0AFBEE040AB4EEE00AF1EE10FA19
:1006E0005CD23348007820F080008030304900E050
:1006F00009E0087042F2AC612C4840694182012057
:10070000274908704AE027480068C0F3002028B352
:10071000254890ED0C0AF9EE040AB4EEE00AF1EE79
:1007200010FA08DC90ED0E0AF9EE040AB4EEE00AC5
:10073000F1EE10FA32DD1B480068C0F3002028B14A
:100740001B48007820F02000194908700021174844
:10075000406941820020124908701FE0124890ED64
:100760000C0AFAEE0E0AB4EEE00AF1EE10FA08DC1A
:1007700090ED0E0AFAEE0E0AB4EEE00AF1EE10FA6F
:100780000CDD0B48007820F080000949087000213A
:100790000648406941820020014908707047000006
:1007A000D2000020100801407803002074000020CF
:1007B000040000203C480078B8BB3C4890ED0B0A90
:1007C000DFED3B0AB4EEE00AF1EE10FA1ADC90ED30
:1007D0000D0ADFED380AB4EEE00AF1EE10FA11DC92
:1007E00090ED0C0ADFED340AB4EEE00AF1EE10FAF7
:1007F00008DC90ED0E0ADFED300AB4EEE00AF1EE0F
:1008000010FA50DD80202D4908602D48007820F036
:10081000800080302A49087042F2AC612948406962
:1008200001820120204908703DE0FFE71F4890ED5C
:100830000B0ADFED250AB4EEE00AF1EE10FA32D22F
:1008400090ED0D0ADFED1A0AB4EEE00AF1EE10FAAF
:1008500029D290ED0C0ADFED1D0AB4EEE00AF1EEAC
:1008600010FA20D290ED0E0ADFED180AB4EEE00A7D
:10087000F1EE10FA17D200200B4908700021114840
:10088000406901820E48007820F080000C49087011
:100890000A4818380068C0F3002020B108460078E4
:1008A00020F0200008707047D1000020780300205D
:1008B0000000A0420000AA4200008C42280801402B
:1008C00004000020740000200000964200008242D4
:1008D00070B5FF24002619480078C0F3801058B383
:1008E00080201749086042F2AC61164840690181D6
:1008F0001548006800BB124818380068C0F3002093
:1009000028B11248007820F020001049087000211A
:100910000C48406901810948057824F040040470BE
:1009200001E0701CC6B20121002001F071FB08B982
:100930000A2EF6DB0148057070BD0000B8010020EA
:100940002808014074000020140100200400002049
:1009500010B5FFF7BDFF00F033F8FFF72DFEFFF7EE
:10096000C3FD00F007F8FFF725FFFFF77FFE03F058
:10097000F9F910BD0E48007800F00100B8B101206F
:100980000C49086002200860086008200860000325
:10099000094908600948007820F00700C01C074991
:1009A00008700846007820F040004030087070471A
:1009B000B8010020280C0140280801400400002054
:1009C0002DE9F041FF270024002621480078C0F3DC
:1009D0004010002839D01F48007820F08000803077
:1009E0001C49087042F2AC611B484069418100BF5C
:1009F0000AE01A4830F8140040F6AC51884201DA97
:100A0000701CC6B2601CC4B2142CF2DBEEB9002418
:100A10001048007820F080000E49087000210E4830
:100A2000406941810A48057827F0200700200849DD
:100A3000087001E0601CC4B20121002001F0E8FA56
:100A400008B90A2CF6DB02480570BDE8F081000009
:100A5000B801002004000020740000207C03002066
:100A600010B5002017490860174890F86700010486
:100A7000154890F8680001EB0021134890F86900D0
:100A800008441249086000240FE0114830F81400AF
:100A900041F23601884206DD0120A040094909687B
:100AA000084308490860601CC4B2142CEDDB0548FB
:100AB000006806490968884203D00248006800F0CF
:100AC00009F810BD14010020B80100200C0100201D
:100AD0007C03002010B504466FF07F4084420DD2A5
:100AE000200C074981F86700210A054880F8681042
:100AF00080F869400321672001F08AFA10BD0000E8
:100B0000B801002000BFFEE71FB5684601F082FC77
:100B10000121084602F01CFB0121042002F018FB11
:100B20004FF40060ADF800000020029001208DF825
:100B3000040003906946074801F078FB4FF48050A9
:100B4000ADF80000022002906946024801F06EFBF9
:100B50001FBD000000080140B1F5007F3AD00FDC56
:100B6000202928D006DC01291CD004291DD0082901
:100B700040D11DE0402921D0B1F5807F3AD126E057
:100B8000B1F5004F31D006DCB1F5806F25D0B1F55D
:100B9000006F2FD124E0B1F5803F12D0B1F5003FB6
:100BA00028D111E0154A826025E00822C26022E0C7
:100BB0001022C2601FE0082202611CE010220261C4
:100BC00019E00822426016E01022426013E004227D
:100BD000426010E0042242600DE0042242600AE01C
:100BE000002282610422426005E000228261042228
:100BF000426000E000BF00BF70470000010101003B
:100C000000B589B00121480602F082FA294800F0B7
:100C100053F806A800F004FA00208DF81E008DF8A5
:100C20001F008DF820008DF821008DF82200012092
:100C30008DF8230000208DF81A008DF81B00092084
:100C40008DF81C0004208DF81D000220ADF818005E
:100C500006A9184800F0D5F800208DF812008DF88C
:100C6000130001208DF814000020ADF80800ADF845
:100C70000A00ADF80C00ADF80E00ADF81000012030
:100C80008DF8150002A800F047F901220221094859
:100C900000F0AEF836208DF8040000208DF8050035
:100CA00001208DF806008DF8070001A802F05CF81D
:100CB00009B000BD0064004010B50446012148069B
:100CC00002F036FA00214FF0007002F031FA10BD48
:100CD00070B504460D46002660692840002871D092
:100CE000B5F5807F5CD010DC082D35D006DC012DF9
:100CF00020D0022D24D0042D72D127E0102D31D028
:100D0000202D35D0402D6BD138E0B5F5004F60D0A7
:100D100009DCB5F5007F49D0B5F5806F4CD0B5F54D
:100D2000006F5DD14FE0B5F5803F2DD0B5F5003FA8
:100D300056D12FE0A0682D4900F098FB064651E0FF
:100D4000E068032100F092FB06464BE0E0680821D2
:100D500000F08CFB064645E0E068102100F086FBC1
:100D600006463FE02069032100F080FB064639E09B
:100D70002069082100F07AFB064633E02069102143
:100D800000F074FB06462DE06068082100F06EFB61
:100D9000064627E06068102100F068FB064621E067
:100DA000A069012100F062FB06461BE0A069022158
:100DB00000F05CFB064615E0A069042100F056FB3C
:100DC00006460FE00FE0A069702100F04FFB0646D9
:100DD00008E06068042100F049FB064602E0FFE7F6
:100DE000002600BF00E00026304670BD0101010072
:100DF0001AB143690B43436102E043698B4343618A
:100E0000704730B5024600200023146824F0020425
:100E10001460146844F00104146000E05B1C546822
:100E200004F001041CB94FF6FF74A342F6D15468D4
:100E300004F001040CB900206CE08C79012C04D181
:100E4000146844F08004146003E0146824F0800403
:100E50001460CC79012C04D1146844F0400414606F
:100E600003E0146824F0400414600C7A012C04D1CF
:100E7000146844F02004146003E0146824F0200493
:100E800014604C7A012C04D1146844F010041460EE
:100E900003E0146824F0100414608C7A012C04D14F
:100EA000146844F00804146003E0146824F0080493
:100EB0001460CC7A012C04D1146844F0040414604A
:100EC00003E0146824F0040414608C78A407CD783F
:100ED00044EA05640D7944EA05444D7944EA055431
:100EE0000D886D1E2C43D461146824F00104146035
:100EF000002300E05B1C546804F001041CB14FF6B1
:100F0000FF74A342F6D1546804F001040CB1002030
:100F100000E0012030BD000010B50021837A0122DD
:100F200002FA03F13D4A126842F001023B4B1A609B
:100F30003A4A1C3212688A43384B1C331A60027BCF
:100F4000CAB9364A0C3212688A43344B0C331A60E1
:100F50004288C38842EA0343304A4032847A42F8E6
:100F600034300288838842EA03432C4A4032847A30
:100F700002EBC4025360027B012A19D1274A0C32CA
:100F800012680A43254B0C331A604288038842EAF0
:100F90000343224A4032847A42F83430C28883883C
:100FA00042EA03431D4A4032847A02EBC402536092
:100FB000C27A3AB9194A121D12688A43174B1B1D8F
:100FC0001A6006E0154A121D12680A43134B1B1DD6
:100FD0001A60028932B9114A143212688A430F4BDF
:100FE00014331A600289012A06D10C4A143212689D
:100FF0000A430A4B14331A60427B012A06D1074A7E
:101000001C3212680A43054B1C331A60034A1268EB
:1010100022F00102014B1A6010BD00000066004082
:1010200000218171C171017241728172C17281703E
:10103000C1700321017102214171012101807047BA
:1010400010B502210848FFF743FE60B102210648AF
:10105000FFF782FD054A0021034800F00BF8044920
:10106000024802F091FC10BD0064004048010020DD
:10107000B800002010B500F5D87303EB01131B680E
:1010800003F004031372137A53B900F5D87303EB1A
:1010900001131B6840F2FF7404EA5353136009E024
:1010A00000F5D87303EB01131B686FF0604404EA8A
:1010B000D303536000F5D87303EB01131B6803F0EF
:1010C0000203537200F5D87303EB01135B6803F05E
:1010D0000F03937200F5D87303EB01135B681B0ACF
:1010E000D37400F5D87303EB01139B68D37200F53A
:1010F000D87303EB01139B681C0A147300F5D873B3
:1011000003EB01139B681C0C547300F5D87303EBBD
:1011100001139B681B0E937300F5D87303EB011347
:10112000DB68D37300F5D87303EB0113DB681C0A8B
:10113000147400F5D87303EB0113DB681C0C5474B2
:1011400000F5D87303EB0113DB681B0E937421B910
:10115000C36843F02003C36003E0036943F0200346
:10116000036110BD10B502460020936803F0806350
:10117000B3F1806F00D110E0936803F00063B3F126
:10118000006F01D1012008E0936803F08053B3F1B0
:10119000805F01D1022000E00420042874D002F511
:1011A000C07303EB00131B6803F0010402F5C07366
:1011B00003EB00131C600B7A7BB94B7A0C8843EA73
:1011C000445302F5C07404EB00142468234302F571
:1011D000C07404EB0014236010E00B7A4C6843EAFF
:1011E000C4034C7A234302F5C07404EB0014246852
:1011F000234302F5C07404EB001423608B7A03F0E0
:101200000F038B7202F5C07303EB00135B6823F0CE
:101210000F0402F5C07303EB00135C6002F5C073AA
:1012200003EB00135B688C7A234302F5C07404EB74
:10123000001463608B7B1C064B7B44EA03440B7BEE
:1012400044EA0323CC7A234302F5C07404EB001470
:10125000A3608B7C1C064B7C44EA03440B7C44EA71
:101260000323CC7B234302F5C07404EB0014E3603A
:1012700002F5C07303EB00131B6843F0010402F591
:10128000C07303EB00131C6010BD0000F0EE400AB9
:1012900040B99FED190A194981ED000A1849C1EDBD
:1012A000000A25E0154991ED000A154991ED001A53
:1012B00030EE010A114981ED000A124991ED001A40
:1012C0000E49D1ED001AB7EE000A01EE210A0E49CF
:1012D00091ED001A0949D1ED001A21EE211AD1ED44
:1012E000001A01EE210A80EE801A054981ED001AEC
:1012F000034991ED000A704700000000F000002053
:10130000F4000020E8000020EC0000201FB5684633
:1013100001F080F80121042001F01AFF4FF48070E1
:10132000ADF8000010208DF8020000208DF80400B8
:1013300002906946014800F079FF1FBD0008014096
:101340001248007810B101281CD108E00020104993
:1013500008810E480078401C0C49087013E00C48C6
:101360000089B0F57A7F0CDB80200A4908600A48C2
:10137000007820F020002030074908700020034941
:10138000087000E000BF00BF70470000CE000020E2
:101390005C010020180801400400002010B52D4811
:1013A0000068C0F30020F0B12B48007800F007007F
:1013B00004280AD14FF4FA7028490880264800789A
:1013C00020F00700401C244908702348007820F0D2
:1013D00010001030204908709FED210A2148006854
:1013E00080ED010A0BE01C48007820F010001A493B
:1013F00008709FED1D0A1B48006880ED010A164821
:101400000078C0F30010B8B913480078C0F3C000EA
:1014100038B91148007820F00700C01C0E49087048
:1014200017E080200B49183108600B48007820F045
:101430002000094908700CE00748007800F0070018
:10144000022806D104480078C0F3401008B9FFF71D
:1014500077FF10BD100801400400002006000020A6
:101460000000A84274000020000000000246002096
:1014700002EA01030BB1012000E0002070470000E8
:1014800010B500200449087000BF0121002000F0C1
:10149000BFFD0028F9D010BDB8010020002040F2A7
:1014A000596172B600BF1C4A126902F00202022A98
:1014B00003D00A1EA1F10101F5D100BF174A12683D
:1014C00022F00072154B1A601A46126842F0007240
:1014D0001A6000BF104A106820F4C06040F48060B9
:1014E000106040F2596100BF0B4A126902F002021B
:1014F0001AB10A1EA1F10101F6D140F2596100BFF3
:10150000054A126902F00202022A03D00A1EA1F162
:101510000101F5D162B6704700700040201800400C
:1015200010B501F015FA01F0C3F820200649087043
:1015300000F012F900BF00F04DFD0028FBD0FFF7CE
:101540009FFF01F0BFFE10BDD500002010B506487A
:10155000407820F00F000E30034948700121084602
:1015600000F056FD10BD0000B801002010B50221AA
:10157000002000F035FD00283AD01E484078C0F326
:10158000801068B14521072000F02AFD40B100F02D
:1015900037F80321672000F023FD08B1FFF760FA58
:1015A00014484078C0F3401058B10221084600F0BA
:1015B00017FD30B1B7EE000A00F05CFC0E4880ED7C
:1015C0000F0A0C484078C0F3001088B103210420B2
:1015D00000F006FD60B1B7EE000A00F069FC0648B5
:1015E00080ED100A90ED100A0448406880ED000A72
:1015F00010BD0000B8010020780300207400002016
:1016000010B52DED048B00F07DFC00EE100AB8EE55
:10161000400ADFED4A0A80EE201A494880ED001AA0
:101620009FED480A4848006880ED000A002432E037
:10163000204600F089FCBCEEC00A10EE100A81B210
:101640003F48001D20F8141030F814103E48C068C0
:10165000801C20F814103A49091D31F81400FEF7D7
:10166000FEFD41EC190B9FED390B53EC102BFEF7EF
:1016700087FD41EC180BFEF7FFFD00EE100A324823
:101680000068D0ED000A30EE200A2F48006880ED97
:10169000000A601CC4B2142CCADB00F0D1FB28483D
:1016A00080ED0B0A90ED0B0ADFED2A0A20EE200AEE
:1016B000BDEEC00A10EE100A00B223498969888085
:1016C000002000F03BFB1E4880ED0C0A90ED0C0A58
:1016D000DFED200A20EE200ABDEEC00A10EE100A4F
:1016E00081B2194840698180022000F027FB14482C
:1016F00080ED0D0A90ED0D0ADFED160A20EE200AAE
:10170000BDEEC00A10EE100A0F4949694880032057
:1017100000F014FB0A4880ED0E0A90ED0E0ADFED92
:101720000D0A20EE200ABDEEC00A10EE100A81B2AA
:1017300005484069C180BDEC048B10BD00007A44AF
:10174000780300200000000074000020000000006A
:1017500000408F400000C842FE4890F8510020F041
:101760008000FC4981F85100084690F8510020F0B3
:10177000400081F85100084690F8510020F0200008
:1017800081F85100084690F8510020F0100081F8CF
:101790005100084690F8510020F00C0081F85100EB
:1017A000084690F8510020F0030081F851000846E7
:1017B00090F8520020F08000803081F852000846F6
:1017C00090F8520020F0600081F85200084690F82E
:1017D000520020F01F001E3081F85200084690F899
:1017E000530020F0800081F85300084690F8530021
:1017F00020F04000403081F85300084690F8530034
:1018000020F0200081F85300084690F8530020F0A3
:101810001000103081F85300084690F8530020F073
:101820000800083081F85300084690F8530020F073
:10183000040081F85300084690F8530020F002009D
:1018400081F85300084690F8530020F00100401C36
:1018500081F85300084690F8540020F08000803052
:1018600081F85400084690F8540020F040004030C1
:1018700081F85400084690F8540020F020002030F1
:1018800081F85400084690F8540020F01000103001
:1018900081F85400084690F8540020F00800083001
:1018A00081F85400084690F8540020F0040081F8B4
:1018B0005400084690F8540020F0020081F85400CB
:1018C000084690F8540020F00100401C81F85400B4
:1018D000084690F8550020F0800081F85500084631
:1018E00090F8550020F07000203081F8550008462F
:1018F00090F8550020F00800083081F8550008469F
:1019000090F8550020F00400001D81F855000846AD
:1019100090F8550020F0020081F85500084690F834
:10192000550020F0010081F85500084690F8560057
:1019300020F0F000F03081F856008748007891F8E8
:10194000561060F38301834880F8561090F85600D3
:1019500020F00300C01C7F4981F85600002081F868
:10196000570081F858007C48407881F859007A483F
:10197000807881F85A007848C07881F85B00764812
:10198000007981F85C00002081F85D00084690F83D
:101990005E0020F0800081F85E00084690F85E004E
:1019A00020F04000403081F85E006B48407991F8AB
:1019B0005E1060F30501674880F85E1090F85F00E4
:1019C00020F08000634981F85F00084690F85F00CE
:1019D00020F04000403081F85F005F48807991F846
:1019E0005F1060F305015B4880F85F105A48C079CA
:1019F000584981F860005848007A81F8610008462B
:101A000090F8620020F0800081F86200084690F8AB
:101A1000620020F04000403081F862004E48407A79
:101A200091F8621060F305014A4880F862104A4854
:101A3000807A484981F86300002081F8640081F8C9
:101A4000650081F866000021424880F8691080F83E
:101A5000681000203F4981F86700F02081F86A0093
:101A6000002081F86B00084690F86C0020F0F00030
:101A700081F86C00084690F86C0020F008000830EF
:101A800081F86C00084690F86C0020F00400001DFE
:101A900081F86C00084690F86C0020F0020081F894
:101AA0006C00084690F86C0020F0010081F86C0092
:101AB000084690F86D0020F08000803081F86D00BD
:101AC000084690F86D0020F03800283081F86D004D
:101AD000084690F86D0020F0040081F86D0008467B
:101AE00090F86D0020F0020081F86D00084690F833
:101AF0006D0020F0010081F86D00084690F86E003E
:101B000020F08000803081F86E00084690F86E006A
:101B100020F04000403081F86E00084690F86E00DA
:101B200020F03000303081F86E00084690F86E00EA
:101B300020F00C000C3081F86E00084690F86E0022
:101B400020F00300C01C81F86E00002081F86F00B7
:101B5000014803E0B8010020D6000020C07A81F8D7
:101B600070007448007B91F8711060F3071172489F
:101B700080F871106F48007B01096F4890F8710080
:101B800061F303006C4981F871006A48407B81F879
:101B900072006848807B91F8731060F30711664803
:101BA00080F873106348807B0109634890F87300E4
:101BB00061F30300604981F87300084690F87400EF
:101BC00020F0C000403081F87400084690F874009E
:101BD00020F03800303081F87400084690F8740026
:101BE00020F00700401C81F87400084690F875004A
:101BF00020F0C000403081F87500084690F875006C
:101C000020F0380081F87500084690F8750020F043
:101C1000070081F87500084690F8760020F08000F3
:101C200081F87600084690F8760020F07F0081F871
:101C30007600084690F8770020F08000803081F828
:101C40007700084690F8770020F04000403081F897
:101C50007700084690F8770020F0200081F87700A0
:101C6000084690F8770020F0100081F877000846C9
:101C700090F8770020F0080081F87700084690F887
:101C8000770020F0070081F87700084690F8780088
:101C900020F0800081F87800084690F8780020F065
:101CA000700081F87800084690F8780020F0700005
:101CB00081F87800084690F8790020F080008030A4
:101CC00081F87900084690F8790020F04000403013
:101CD00081F87900084690F8790020F02000203043
:101CE00081F87900084690F8790020F01000103053
:101CF00081F87900084690F8790020F00800083053
:101D000081F87900084690F8790020F00400001D61
:101D100081F87900084690F8790020F00200801CD4
:101D200081F87900084690F8790020F0010081F8E8
:101D300079007047D6000020B801002010B5024697
:101D40002220394B1B7C384CE47B43EA042302EE0F
:101D5000103A354B113303EB42035C78324B1133AD
:101D600013F8123044EA032302EE903AB8EE423AF6
:101D7000DFED2E3A23EE233AF0EE430AB8EE623A54
:101D8000DFED2A3A23EE233AB0EE431AC1EE203AB1
:101D9000274B1B8803EE103AB8EE433A23EE833A02
:101DA000C1EE203AB7EE004A34EE634AC3EE043A7D
:101DB0009FED203A83EE834AF0EE441A00210DE0B5
:101DC0001D4B03EB810393ED003AB4EEE13AF1EEE3
:101DD00010FA02DB4B1CD9B200E008468142EFDB6F
:101DE000154B03EB800393ED003A431E124C04EBBA
:101DF0008303D3ED003A33EE633A234603EB8003CB
:101E0000D3ED003A33EEE14AC4EE033A0B4B53F8FC
:101E1000203003EE103AB8EEC33AB1EE044AB0EE09
:101E2000430A03EEC40A10BDB8010020CDCCCC3D5E
:101E3000FC00002000007A4480440008F8430008B9
:101E40000948807B0849497B40EA012000EE900A5E
:101E5000F8EE601A9FED052A9FED051A11EE821A21
:101E6000B0EE410A70470000B8010020C68A7A3EF1
:101E700066A68743F0EE400A0A48C0780949897887
:101E800040EA012000B201EE100AB8EEC10ADFED0F
:101E9000061A20EE210ADFED051A60EE211A81EE06
:101EA000A00A7047B8010020ACC5A73600007A44EC
:101EB000F0EE400A0F4909790A030E49497942EACE
:101EC00001120C49897942EA111000F4002109B18C
:101ED0000949084300EE100AB8EEC00A9FED071A40
:101EE00020EE010A9FED061A20EE011A81EE200A6B
:101EF00070470000B80100200000F0FFACC5A73417
:101F000000007A440E48007A0D49C97940EA012060
:101F100000EE100AB8EE401AF7EE001A21EE211A70
:101F2000DFED081A21EE211AF0EE410AB6EE001A92
:101F300030EE811ABCEEC11A11EE100A7047000093
:101F4000B8010020CDCC4C4170B52DED028B05467B
:101F50002E46132D04DD9FED1A0ABDEC028B70BDD9
:101F6000184800EB46004178164810F8160041EA80
:101F7000002414481D3890F86D0000F0010048B1AD
:101F800020B200EE100AB8EEC00ADFED0F0A20EE14
:101F9000208A07E000EE104AB8EE400ADFED0B0A97
:101FA00020EE208A2846B0EE480AFFF76FF9B0EE1F
:101FB000408ADFED070AB6EE000A08EE200ACCE7F9
:101FC00000000000D501002017B7513917B7D138EC
:101FD00000007A4410B52921512000F019F810BDF5
:101FE00070B504460D4603260CE0084801192A4640
:101FF000204600F083FB08B1012070BD052001F0F0
:1020000077FC761E002EF0DC0020F6E7B8010020F9
:1020100070B504460D4603260CE0084801192A460F
:10202000204600F0BDFC08B1012070BD052001F084
:102030005FFC761E002EF0DC0020F6E7B8010020E1
:102040007047000010B5202000F02AF8D0B1202001
:1020500000F020F801200C490860022008600860A8
:10206000082008600003094908600948007820F04A
:102070000700C01C064908700846007820F04000A0
:102080004030087010BD0000280C014028080140B5
:10209000040000200149086070470000140401405A
:1020A000014600200022074B1B6803EA0102054B92
:1020B00014331B680B4013B10AB1012000E000206B
:1020C0007047000000040140002123498279002A62
:1020D0003AD00A46126803689A430B461A600A1DF2
:1020E000126803689A430B1D1A60027911440A684A
:1020F00003681A430A60184A0832126803689A4350
:10210000154B08331A601A1D126803689A43124B64
:102110000C331A604279102A0ED11A1F1268036814
:102120001A430D4B08331A601A1D126803681A43CC
:10213000094B0C331A600DE00749427911440A68D3
:1021400003681A430A6005E0027911440A680368CB
:102150009A430A60704700000004014010B5012155
:10216000022000F07FFE0121084600F07BFE0321E3
:10217000012000F03FFE10BD00B587B0012109200D
:1021800000F0E6FF03A800F045F92020ADF80C00B0
:1021900001208DF810000020059003A9124800F0DE
:1021A00045F80521012000F021F8202001900020B1
:1021B0008DF808000C208DF8090001208DF80A0028
:1021C00001A8FFF781FF17208DF8000000208DF88F
:1021D00001008DF8020001208DF80300684600F030
:1021E000C3FD07B000BD0000000C014030B5024641
:1021F0000D4B8C1053F824308C07250F0324AC4072
:10220000A343094C8D1044F8253023468C1053F815
:1022100024308C07240F02FA04F41C43024B8D1067
:1022200043F8254030BD000004000140F0B50346EE
:1022300000250020002400220026E3E00F884FF054
:10224000010C0CFA02FC07EA0C06002E6FD05500B8
:102250008F68022F07D08F68122F04D08F6817B1B4
:102260008F68032F25D102F008078FB1586A5707EE
:102270004FEAD76C0F2707FA0CF7B8434FEA427CB6
:102280004FEADC6CCF6807FA0CF73843586210E06D
:10229000186A57074FEAD76C0F2707FA0CF7B843AD
:1022A0004FEA427C4FEADC6CCF6807FA0CF7384300
:1022B00018621C680F7A07F00F000327AF40BC4379
:1022C00000FA05F73C431C60DC680F7907F0030057
:1022D0000327AF40BC4300FA05F73C43DC600F7AAC
:1022E00007F003076FB18F68032F0AD0DC6A8F787D
:1022F00007F003000327AF40BC4300FA05F73C4357
:10230000DC62986801279740B843CF7807F001074F
:102310009740384398600F79022F09D19F6A4FF098
:10232000010C0CFA02FC47EA0C079F620BE068E024
:102330000F79012F07D19F694FF0010C0CFA02FCB5
:1023400047EA0C079F618F68012F08D08F68022F22
:1023500005D08F68112F02D08F68122F09D15868CD
:1023600001279740B8430F7AC7F3001797403843C7
:1023700058608F6807F08057002F42D0244F38688C
:1023800001279740B8438F6807F48037B7F5803F3F
:1023900002D10127974038431D4F38603F1D3868F0
:1023A00001279740B8438F6807F40037B7F5003F1F
:1023B00002D1012797403843154F3F1D38603F1D1C
:1023C000386801279740B8438F6807F48017B7F53E
:1023D000801F02D10127974038430D4F08373860DE
:1023E0003F1D386801279740B8438F6807F40017EE
:1023F000B7F5001F02D1012797403843044F0C372F
:102400003860521C0F881741002F7FF417AFF0BDC2
:10241000000401404FF6FF7101800021C17081600E
:102420000F21C16000210171817070478162704786
:102430008161704700BFFEE770B5024600240025A9
:1024400000230020958A138B1B0445EA030626F01F
:102450007F4404EA01068E4201D1012000E0002001
:1024600070BD21B1028842F48062028004E00288DB
:102470004FF6FF331A400280704700001FB56846D0
:1024800000F0F8F80F4800F021F80020ADF8040043
:102490004BF6FF70ADF80600D020ADF808004FF401
:1024A0008060ADF80A000001ADF80C00064800900D
:1024B0006946044800F068F80121024800F022F85B
:1024C0001FBD000000540040A086010010B5044666
:1024D0000B48844209D10121480500F029FE002162
:1024E0004FF4001000F024FE08E00121880500F000
:1024F0001FFE00214FF4800000F01AFE10BD000006
:102500000054004021B1028842F00102028004E040
:1025100002884FF6FE731A400280704721B102888C
:1025200042F48072028004E002884FF6FF631A4092
:102530000280704721B1028842F40072028004E0F8
:1025400002884FF6FF531A40028070470CB50246CE
:10255000002000230193009300920B0F019321F0C0
:102560007F41019B1BB1009B1433009303E0090CD6
:10257000009B18330093009B1B680B400BB101209C
:1025800000E000200CBD00002DE9F04387B00446B8
:102590000D460026B1460427DFF8CC80A6884FF60A
:1025A000C070064001A800F0E3FDDDF80C802F4864
:1025B000B8FBF0F01FFA80F946EA0906A6802088E9
:1025C0004FF6FE710840208000262949286888427D
:1025D0000CD828684000B8FBF0F087B2042F00DA6E
:1025E00004273E4309F10100208427E0E8884BF6E8
:1025F000FF71884206D1286800EB4000B8FBF0F07C
:1026000087B209E0286800EBC00101EB0010B8FBBD
:10261000F0F087B247F48047C7F30B0008B947F0E2
:10262000010747F4004006434FF4967009FB00F0A1
:102630004FF47A7190FBF1F0401C2084A68320882F
:1026400040F00100208026884FF6F5300640A8882B
:102650006989084306432680A8892989084320817F
:1026600007B0BDE8F083000000127A0040420F007E
:10267000A086010041F288310160002181804BF683
:10268000FF71C1800021018141814FF4804181812E
:1026900070470146088AC0B2704712B141F001018B
:1026A00002E04FF6FE7319400182704701827047C5
:1026B0001FB56846FFF7AEFE0121082000F048FD77
:1026C0000121480500F024FDC020ADF800000020E5
:1026D0008DF8030012200290012003908DF8040071
:1026E00069460448FFF7A2FD0348FFF7EFFEFFF736
:1026F000C5FE1FBD000C0140005400402DE9F84309
:1027000080460F4614462A4800784006000E8DF891
:1027100000008DF80180B4F5167F46D84FF6FF70A3
:1027200000EA4403234A0221684600F045F80028E5
:102730003BD01F480078012101EB4000C0B28DF86A
:1027400002001C4800788DF803000421684601F05F
:10275000E7FC18494978884227D1012C1DDD661E07
:10276000144DAD1C0BE00121284601F0D9FC69781D
:10277000884202D00020BDE8F883761EAD1C002EF2
:10278000F1DC26460B4D04E0287838707F1C761E5D
:10279000AD1C002EF8DC0120EDE7012C04D105482A
:1027A000007838700120E6E700BF0020E3E7000072
:1027B000D5000020490200202DE9F0470746884651
:1027C00015461E4697F80090B8F1020F02DA002075
:1027D000BDE8F0874FF4003408E034B95848FFF7FB
:1027E00075FEFFF74BFE0020F2E7641E4FF4003148
:1027F0005348FFF7ABFE0028EFD101215048FFF707
:102800008DFE4FF4803408E034B900BF01214C48FC
:10281000FFF790FE0020DBE7641E4A494848FFF7B7
:102820000BFE0028F0D0002249464548FFF735FF4F
:102830004FF4803402E004B9E8E7641E424940489E
:10284000FFF7FAFD0028F6D012E0781C0746017861
:102850003B48FFF72BFF4FF4803402E004B9D5E783
:10286000641E3949891C3648FFF7E6FD0028F5D07B
:10287000A8F1010080B2B0F10008E6D1002E58DDC9
:1028800001212F48FFF74AFE4FF4803402E004B9DB
:10289000BCE7641E2B492A48FFF7CEFD0028F6D07E
:1028A000012249462648FFF7F8FE4FF4803402E043
:1028B00004B9ABE7641E2349491C2148FFF7BCFD5E
:1028C0000028F5D0012E1ADD01211D48FFF7C9FDB2
:1028D00011E04FF4803402E004B997E7641E19490F
:1028E0003F311748FFF7A8FD0028F5D01448FFF73F
:1028F000D0FE05F8010B701E80B2061EE9D1002142
:102900000F48FFF7AEFD01210D48FFF713FE4FF40E
:10291000803402E004B979E7641E0C490848FFF7E7
:1029200015FE0028F6D00648FFF7B3FE05F8010BA8
:1029300003E000210248FFF794FD012048E7000072
:102940000054004001000300820007004000001016
:102950001FB56846FFF75EFD0121082000F0F8FB77
:10296000C020ADF8000010208DF8020000208DF886
:1029700004000120029069460848FFF757FC4021F7
:102980000648FFF755FD80210448FFF74FFD05205D
:1029900000F0D4FFFFF78CFE1FBD0000000C0140CB
:1029A0002DE9F04107460D469046184C2E46184832
:1029B0000078002141EA400004F8010B04F8017B93
:1029C00016F8010B04F8010B0321104801F0A8FBD5
:1029D00004F8010B09E0307804F8010B3046761C4E
:1029E000012101F09DFB04F8010BA8F1010080B268
:1029F000B0F10008EFDC0548201A81B200231A4626
:102A00000248FFF7D9FEBDE8F0810000490200202E
:102A1000D50000204E48007805281DD2DFE800F0E0
:102A2000031D477079004B48006800F0010070B149
:102A300049480088401C48490880084600881428F6
:102A40000AD10020088001204149087004E00020DC
:102A5000414908804149088078E03F480088401C8F
:102A60003D4908803D480088401C3C490880394861
:102A7000006800F0010058B939480088401C384906
:102A800008800220324908700020334908800DE098
:102A90003148008840F2DC51884207DD00202E4991
:102AA000088003202A4908702E4908704EE02B4800
:102AB0000088401C2949088008460088B0F5FA7F44
:102AC00017DA2448006800F0010070B1224800883D
:102AD000401C214908800846008802280FD10020A8
:102AE000088001201A49087009E000201A4908806E
:102AF00005E000201949088004201549087025E0E8
:102B00001448006800F0010010B900201049087056
:102B10001CE013480088012804D0022806D00328AE
:102B20000CD107E001200F49087008E002200D4990
:102B3000087004E004200B49087000E000BF00BFEB
:102B40000020074908800249087000BF00BF704795
:102B500029010020100801402A0100202C0100203A
:102B60002E010020280100201FB56846FFF752FC07
:102B70000121042000F0ECFA0120ADF80000102043
:102B80008DF8020002208DF80400002002906946B2
:102B90000148FFF74BFB1FBD0008014029480078A2
:102BA00000B9704727480078012806D0022821D0B4
:102BB000032820D004283FD13DE02348007800F0CE
:102BC000070028B12048007800F00700042810D141
:102BD0004FF4FA701D4908801B48007820F0080067
:102BE0000830194908700846007820F00700401C9A
:102BF000087021E020E01448007800F0070068B970
:102C00001148007820F0080008300F490870084685
:102C1000007820F00700401C08700BE00A4800789C
:102C2000C0F3401030B90848007820F00700C01CFD
:102C30000549087000E000BF00BF0020014908708E
:102C400000BFAEE72801002004000020060000209D
:102C50001FB56846FFF7DEFB0121082000F078FA77
:102C60001020ADF800008DF8020002208DF804005D
:102C70000120029069460448FFF7D8FA1020024963
:102C8000283108601FBD0000000C01401FB56846D8
:102C9000FFF7C0FB0121042000F05AFA0820ADF82C
:102CA000000010208DF8020000208DF804000120A3
:102CB000029069460348FFF7B9FA08200149283114
:102CC00008601FBD000801400748008807490988BF
:102CD000884208DB0020044908800548006880F02D
:102CE00008000349086070475C01002006000020CE
:102CF000140801401FB56846FFF78CFB0121042032
:102D000000F026FA0121082000F022FA0B20ADF88D
:102D1000000010208DF8020000208DF80400012032
:102D2000029069460C48FFF781FA48F28000ADF83E
:102D3000000069460948FFF779FA01200649283161
:102D40000860022008600820086000030349283159
:102D50000860802008601FBD000C01400008014091
:102D600000BFFEE77047000070B5002100230F226E
:102D7000C47804B3154C246804F4E064C4F5E0643A
:102D8000210AC1F10403CA40447804FA03F18478AB
:102D90001440214309010E4C0678A155047804F033
:102DA0001F050124AC4005786D11AD0005F1E0254B
:102DB000C5F8004109E0047804F01F050124AC4087
:102DC000044D0678761145F8264070BD0CED00E004
:102DD00000E400E080E100E010B501F00DFA01F040
:102DE000F3F901F017FA01F02FFA40F2DC5000F08D
:102DF000FBFA10BD10B50246154B5B6943F00103A9
:102E0000134C636123465B6943F00203636123460D
:102E10005B6943F0040363612346986820F44050E3
:102E200008439860186820F0070040F0030018601D
:102E3000084B1B6843F00403064C236000BF00BF2F
:102E4000012A01D130BF02E040BF20BF20BF10BD2A
:102E50000070004010ED00E010B50121080700F0FF
:102E600057F910BD02460020064B9868012904D18D
:102E700020F007001043986002E09043014B9860F7
:102E800070470000007000402B48007830B10128E6
:102E90000DD002281BD003284AD12CE0002027495E
:102EA000C88025480078401C2349087041E0234829
:102EB000C088C8280ADB10202149086000201F496B
:102EC000C8801D480078401C1B49087031E01B4831
:102ED000C088B0F5967F0DDB082019490860000313
:102EE0001849086000201549C88013480078401C24
:102EF000114908701DE01148C088B0F5FA7F16DB53
:102F000001200F4908600220086008200C49103198
:102F1000086000030B491031086000200649087062
:102F20000948007820F00700801C0749087000E07D
:102F300000BF00BF70470000CD0000205C010020F2
:102F4000180C0140180801400400002039480068AE
:102F500000F0010060B937480068C0F3002038B9BC
:102F60003548007820F00700C01C3349087054E051
:102F70003048006800F00100B0B12E480068C0F38E
:102F8000002088B92C48007820F0080008302A4931
:102F900008700846007820F0100008700846007895
:102FA00020F00700087038E02248006800F00100B7
:102FB000B8B920480068C0F3002090B11E480078DE
:102FC00020F008001C4908700846007820F0100026
:102FD000103008700846007820F00700401C087088
:102FE0001BE01448006800F00100B0B1114800680F
:102FF000C0F3002088B11048007820F008000830A5
:103000000D4908700846007820F010001030087054
:103010000846007820F00700087007480078C0F3E1
:10302000801030B10448007820F00700C01C02492D
:1030300008707047100801400400002010B52F48A8
:10304000007800F00700052853D2DFE800F0030401
:1030500007083F004EE0FFF717FF4BE04AE008206B
:1030600027490860102027490860012008600220D5
:1030700008600820086000032149103108608020A2
:1030800008602148006880B11C480078C0F38010B7
:1030900058B94FF47A701D4908801848007820F01C
:1030A0000700001D1549087010BDFEF74FFA00BF5C
:1030B00013480838006800F001000028F8D14FF4E8
:1030C000FA7000F03BFCFFF749F813E00E48006887
:1030D00020B10A480078C0F3801048B108200849A0
:1030E0000860FEF733FA0A2000F028FCFFF736F8F4
:1030F00000E000BF00BF00BFD6E7000004000020D2
:1031000018080140280C014014010020060000208E
:1031100029B1064AD2690243044BDA6104E0034A4A
:10312000D2698243014BDA6170470000001002400F
:1031300029B1064A12690243044B1A6104E0034AAA
:1031400012698243014B1A6170470000001002406F
:1031500029B1064A92690243044B9A6104E0034A8A
:1031600092698243014B9A6170470000001002404F
:10317000F0B5002100BF0023002600240025484FA1
:103180007F68DFF820C107EA0C03454F7F6807F42A
:103190008036434F7F6AC7F3021503F000671FB9FB
:1031A000022707EB934304E04FF4F877C7EB93470C
:1031B0007B1C66B93A4F3F6C07F001071FB13A4FCD
:1031C00003FB07F20FE0394F03FB07F20BE0344F2C
:1031D0007F6807F400371FB1354F03FB07F202E0A9
:1031E000314F03FB07F22E4F3F6C07F0020707B188
:1031F00052082B4F7F6807F00C0131B1042909D028
:1032000008290AD00C290DD10AE02A4F57F8257059
:1032100007600CE0254F076009E0234F076006E0D8
:10322000026004E0234F57F82570076000BF00BF1D
:103230001B4F7F6807F0F00109091F4F7C5C07688E
:10324000E7404760164F7F6807F4E061090A1A4FAC
:103250007C5C4768E7408760114F7F6807F46051E6
:10326000C90A154F7C5C4768E740C7600C4FFF6A8E
:1032700007F00F01114F7C5C4768B7FBF4F747611B
:10328000074FFF6A07F4F871090901F00F07DFF82B
:1032900030C03CF81740B2FBF4F70761F0BD000006
:1032A0000010024000003C0800127A000024F400E4
:1032B00000093D0048450008084500081845000879
:1032C0002845000810B501217E20FEF789FE06483A
:1032D00090F87E0000EBC00101EB001041F6902158
:1032E00008440249088010BDB8010020FC000020FD
:1032F00070470000F0B5002400250027002635485F
:10330000006840F480303349086000BF31480068ED
:10331000C0F340467F1C16B9B7F5005FF6D12D48C3
:103320000068C0F340461EB92B482C490860F0BD28
:10333000FEF7B4F82A48006820F003002849086026
:103340000846006840F001000860224840682149B2
:1033500048600846406840F40050486008464068AD
:1033600040F4A0604860084640681E49084019497A
:1033700048600846006C20F0030008640846446872
:1033800044F48034056C44F4003400BF44F4601409
:1033900044600564006840F08070086000BF0D481C
:1033A000006800F000700028F9D00A48406820F05A
:1033B0000300084948600846406840F00300486040
:1033C00000BF0448406800F00C000C28F9D100BF91
:1033D000ADE700000010024000093D0000000020A1
:1033E00000200240FFFFC0F710B50446B4F57A7F15
:1033F00002DBB4F5FA6F00DD10BD2146024800F093
:10340000FDF900BFF8E70000002C0140042808D1B6
:103410004FF0E021096941F004014FF0E022116111
:1034200007E04FF0E021096921F004014FF0E022AC
:103430001161704710B52F48006840F470002D49A5
:1034400008602D48406A40F004002B494862084655
:1034500040682A49084028494860084600682849C9
:103460000840254908600846006820F4802008606C
:1034700008464068234908401F4948604FF4E0402F
:10348000C862401008630020486308641E488860D2
:103490000846C06940F08050C8611C48006800F4CC
:1034A0008060B0F5806F0CD100BF1948006820F033
:1034B0000070174908600846006840F00070086016
:1034C00000BF1448006840F09000124908600846A8
:1034D000006800F4807020B10846006820F4007095
:1034E0000860FFF707FF4FF000600249803908606D
:1034F00010BD000088ED00E00010024000C0FFF8A1
:10350000FFFFF6FEFFFF00070080BF0400700040D1
:10351000201800400020024010B50121184800F09A
:1035200059F800282AD00121154800F02DF8154837
:103530000088401C1349088008464088401C488089
:1035400008468088401C88800846C088401CC88087
:1035500008460089401C088108464089401C488173
:1035600008468089401C88810846C089401CC88163
:1035700008460069401C0861FFF74CFA10BD0000C6
:10358000001000405C010020CA43026170471AB17C
:1035900083890B43838102E083898B438381704756
:1035A00021B1026842F00102026003E0026822F0E9
:1035B00001020260704731B1B0F8442042F4004289
:1035C000A0F8442005E0B0F84420C2F30E02A0F8B1
:1035D0004420704730B502460020002300241569BE
:1035E00005EA0103958905EA010413B10CB1012034
:1035F00000E0002030BD000070B500240022002350
:10360000056A25F010050562026A4368048B48F6D6
:10361000FF752C404FF6FF452C400D884FF6FF7686
:1036200006EA05252C4322F020020D8942EA051204
:103630004D8842EA0512104DA84202D00F4DA84213
:1036400013D122F080024D8942EA051222F0400295
:103650008D8842EA051223F4806323F400638D8988
:1036600043EA8503CD8943EA850343600483CD881B
:103670000587026270BD0000002C0140003401404B
:103680000021018041808180C1800181418181814F
:10369000C18170474FF6FF71818000210180C18098
:1036A0004180017241728172C172017341738173F1
:1036B000704700000A4600210168484B984211D02B
:1036C000474B98420ED0B0F1804F0BD0454B9842FB
:1036D00008D0454B984205D0444B984202D0444B09
:1036E000984203D121F0700153881943414B98420D
:1036F00006D0414B984203D021F44071D38819433E
:1037000001609388838513880385344B984202D0E7
:10371000334B984201D1137A0386012383820168D7
:103720002E4B984211D02E4B98420ED0B0F1804FC4
:103730000BD02C4B984208D02B4B984205D02B4BEA
:10374000984202D02A4B984206D1537A13B141F4E1
:10375000006101E021F40061254B984214D1937A75
:1037600013B141F4805101E021F48051D37A13B1B7
:1037700041F4005101E021F40051137B13B141F4F5
:10378000804101E021F48041144B98420ED0144B4B
:1037900098420BD0B0F1804F08D0124B984205D020
:1037A000114B984202D0124B984206D1537B13B171
:1037B00041F4004101E021F4004101604168B0F1B1
:1037C000804F02D0084B984206D1937B13B141F44D
:1037D000807101E021F4807141607047002C01404C
:1037E000003401400004004000080040000C00408C
:1037F000003C00400010004000140040018770476A
:1038000000B585B001211020FFF782FC6846FFF764
:1038100041FF40F2E730ADF804001F20ADF8000092
:103820000020ADF80600ADF8020069460D48FFF72C
:1038300041FF33208DF8100000208DF81100012089
:103840008DF812008DF8130004A8FFF78DFA0122FD
:1038500011460448FFF79BFE01210248FFF7A0FE36
:1038600005B000BD0010004000BFFEE710B5042009
:10387000FFF7CCFD074800680749B0FBF1F00749A6
:103880000860084600684FF47A71484304490860AC
:1038900010BD00000000002040420F002001002069
:1038A000240100200146114A12684A434FF0E023E8
:1038B0005A6100229A611A46126942F001021A61A5
:1038C00000BF4FF0E022106900F001021AB100F4CD
:1038D0008032002AF5D04FF0E022126922F0010276
:1038E0004FF0E0231A6100229A6170472401002002
:1038F0000146114A12684A434FF0E0235A61002200
:103900009A611A46126942F001021A6100BF4FF033
:10391000E022106900F001021AB100F48032002A9E
:10392000F5D04FF0E022126922F001024FF0E023BF
:103930001A6100229A617047200100202DE9F041B0
:10394000044610480078B4FBF0F086B20D480078C9
:10395000B4FBF0F100FB114087B21EB92046FFF71F
:10396000A1FF0DE0002505E006480078FFF79AFF6B
:10397000681C85B2B542F7DB17B13846FFF792FFF6
:10398000BDE8F0811C01002030B5024602F10B00B9
:103990005468C4F30F230F2B62D004DC092B07D02B
:1039A0000E2B7DD131E0102B7BD01B2BF9D1C6E043
:1039B000C479857944EA052424B200EE104AB8EEB1
:1039C000C00ADFED6F0A80EE201A0C6884ED011A40
:1039D0004479057944EA052424B200EE104AB8EE91
:1039E000C00AF2EE040A80EE201A0C6884ED021A76
:1039F000C478857844EA0524457844EA0544057886
:103A000044EA05640D682C60B7E0C479857944EA1E
:103A10000524457944EA0544057944EA056400EE45
:103A2000104AB8EEC00ADFED570A80EE201A4C6843
:103A300084ED001AC478857844EA0524457844EA80
:103A40000544057844EA056400EE104AB8EEC00A61
:103A5000DFED4C0A80EE201A4C6884ED011A8CE0F0
:103A6000C479857944EA0524457944EA0544057911
:103A700044EA056400EE104AB8EEC00ADFED410AE0
:103A800080EE201A8C6884ED001AC478857844EAA8
:103A90000524457844EA0544057844EA056401E0D4
:103AA0006AE00BE000EE104AB8EEC00ADFED350A1E
:103AB00080EE201A8C6884ED011A5EE0C479857965
:103AC00044EA052424B200EE104AB8EEC00ADFED45
:103AD0002E0A80EE201ACC6884ED001A447905790C
:103AE00044EA052424B200EE104AB8EEC00AF2EE11
:103AF000040A80EE201ACC6884ED011AC478857817
:103B000044EA052424B200EE104AB8EEC00AF2EEF0
:103B1000040A80EE201ACC6884ED021A44780578F5
:103B200044EA052424B200EE104AB8EEC00AF2EED0
:103B3000040A80EE201ACC6884ED031A1DE0447953
:103B4000057944EA052424B200EE104AB8EEC00A12
:103B5000F2EE040A80EE201A0C6984ED001AC47893
:103B6000857844EA0524457844EA0544057844EA22
:103B700005640D696C6000E000BF00BF30BD00004F
:103B800000007A4400401C460000484210B57048CE
:103B90008088322805DB6F48007800F00700022893
:103BA00000D010BD00206A4988806B4800780F283B
:103BB00075D2DFE800F00812202E3C4A5866757F67
:103BC0008993A1ABB9006549654800F065FA624880
:103BD0000078401C60490870B6E000205F49C96861
:103BE00008705E495E4800F0FDF95B480078401CB3
:103BF00059490870A8E003205849C9680870574916
:103C0000574800F0EFF954480078401C52490870BA
:103C10009AE006205149C96808705049504800F0A0
:103C2000E1F94D480078401C4B4908708CE00920B0
:103C30004A49C96808704949494800F0D3F94648DB
:103C40000078401C444908707EE00C204349C96854
:103C500008704249424800F0C5F93F480078401CCE
:103C60003D49087070E00F203C49C96808703B4925
:103C70003B4800F0B7F938480078401C36490870D6
:103C800062E012203549C96808703449344800F0B0
:103C9000A9F931480078401C2F49087054E04FE0E2
:103CA0002E492F4800F0A8F82B480078401C2A49DC
:103CB000087049E029492A4800F004F926480078AC
:103CC000401C254908703FE02449254800F0C6F80B
:103CD00021480078401C2049087035E000201F4929
:103CE000496908701D491E4800F020F91A480078FB
:103CF000401C1949087027E01849194800F0E2F8FB
:103D000015480078401C144908701DE00320134931
:103D1000496908701149124800F008F90E48007806
:103D2000401C0D4908700FE006200C4949690870D5
:103D30000A490B4800F0FAF800200749087003E030
:103D400000200549087000BF00BF00BF29E7000040
:103D50005C01002004000020CC0000207400002042
:103D6000A401002010B51F48007860B91E480078F3
:103D70000121B1EBD01F33D101201A490870002076
:103D80001A49C8812CE0184800780121B1EBD01FF6
:103D90001FD11648C08900EE100AF8EE400A9FEDC8
:103DA000140A9FED141A01EE200ABCEEC00A10EEB0
:103DB000100A84B20D48C08942F21071884204DDB5
:103DC000481C0A49C8814FF47A742046FFF70CFB5F
:103DD00006E000200349087040F2DC50FFF704FBC6
:103DE00010BD0000D3000020040000205C01002072
:103DF0000080BB44CDCC4CBD70B504460D462A2096
:103E000085F8280095F82800FF2141EA00260020C7
:103E10002060666004202072002060720820A0727A
:103E200028690078E072002121736173A173286909
:103E30004068010EE17328694068010C217428690B
:103E40008088010A617428690179A17421460248B9
:103E5000FDF788F970BD00000064004070B50446AD
:103E60000D462C2085F8280095F82800FF2141EA0E
:103E7000002600202060666004202072002060720E
:103E80000620A072A8694088000AE072A8698178BB
:103E90002173A869008801126173A8690178A17370
:103EA000A8698088010AE173A86901792174002159
:103EB0006174A17421460248FDF754F970BD0000F9
:103EC0000064004070B504460D46272085F82800A0
:103ED00095F82800FF2141EA002600202060666056
:103EE00004202072002060720820A0726868C078E8
:103EF000E0726868817821736868417861736868E6
:103F00000178A1736868C179E17368688179217467
:103F100068684179617468680179A1742146024832
:103F2000FDF720F970BD00000064004070B5044644
:103F30000D462B2085F8280095F82800FF2141EA3E
:103F4000002600202060666004202072002060723D
:103F50000820A07268690078E072182121736869EE
:103F6000801C6969097830F8110001126173686971
:103F7000801C6969097810F81110A17368690078CC
:103F8000092822DA6869801C69690978491C30F8B7
:103F900011000112E1736869801C69690978491C84
:103FA00010F8111021746869801C69690978891CEE
:103FB00030F81100011261746869801C6969097820
:103FC000891C10F81110A17404E00021E173217420
:103FD0006174A17421460248FDF7C4F870BD000069
:103FE0000064004070B505460C46292084F828007E
:103FF00094F82800FF2141EA0026002028606E6026
:1040000004202872002068720820A872E0680078F6
:10401000E872E06841782973E068801CE1680978FB
:1040200030F8110001126973E068801CE1680978BA
:1040300010F81110A973E068801CE1680978491C28
:1040400030F811000112E973E068801CE16809781A
:10405000491C10F811102974E0680078122811DA50
:10406000E068801CE1680978891C30F811000112B1
:104070006974E068801CE1680978891C10F81110E7
:10408000A97402E000216974A97429460148FDF76A
:1040900069F870BD0064004070B504460D462620E6
:1040A00085F8280095F82800FF2141EA0026002025
:1040B0002060666004202072002060720820A072D8
:1040C0002868C078E0722868817821732868417870
:1040D000617328680178A1732868C179E173286841
:1040E0008179217428684179617428680179A17403
:1040F00021460248FDF736F870BD0000006400401C
:1041000002E008C8121F08C1002AFAD170477047A0
:10411000002001E001C1121F002AFBD170470000FE
:1041200010B50246002004E013784340044CE05CE4
:10413000521C0B1EA1F10104A1B2F5D110BD00006B
:10414000C94200081E48FFF713F8FFF78FFB0A204B
:10415000FFF7F4FBFEF79AFDFCF7D6FCFCF750FDE9
:10416000FDF7DEF9FEF7C6FDFEF772FDFFF748FB2F
:10417000FEF732FEFDF7CAF8FEF76EFEFEF7F4FC1E
:10418000FDF7FAFF0A20FFF7D9FBFEF7DFFE0D4827
:10419000007820F00700401C0A4908700FE0FEF785
:1041A00093FDFEF7FBFCFEF749FFFDF7DFF9FFF794
:1041B000EDFCFDF7F3F8FCF7CBFBFCF769F9EEE754
:1041C00030010020040000201FB56846FEF722F9E8
:1041D0004FF40070ADF8000010208DF802000020B0
:1041E0008DF8040002200290039069460148FEF712
:1041F0001DF81FBD0008014010B501210420FEF785
:10420000A7FF0121C802FEF7A3FF01210846FEF720
:104210009FFF10BD1FB56846FFF73CFA44F61F60CC
:10422000ADF804003F20ADF800000020ADF8060016
:10423000ADF802008DF8080069460248FFF73AFA27
:104240001FBD0000002C01401FB56846FFF718FA9B
:104250007020ADF800000120ADF802000020ADF89C
:10426000040040F2DC50ADF806000220ADF8080072
:104270000820ADF80A004001ADF80C000020ADF8B0
:104280000E0069460548FFF7B7F901210348FFF71B
:1042900087F901210148FFF78EF91FBD002C01406D
:1042A000009E59F92CFF280540401818B047C71840
:1042B00018501088000000000000000068CD28E7BA
:1042C000485DC8000000C0000000070E091C1B125A
:1042D00015383F363124232A2D70777E796C6B6236
:1042E00065484F464154535A5DE0E7EEE9FCFBF266
:1042F000F5D8DFD6D1C4C3CACD90979E998C8B8256
:1043000085A8AFA6A1B4B3BABDC7C0C9CEDBDCD502
:10431000D2FFF8F1F6E3E4EDEAB7B0B9BEABACA575
:10432000A28F88818693949D9A2720292E3B3C3525
:10433000321F18111603040D0A5750595E4B4C4595
:10434000426F68616673747D7A898E878095929BCF
:104350009CB1B6BFB8ADAAA3A4F9FEF7F0E5E2EBB5
:10436000ECC1C6CFC8DDDAD3D4696E676075727BE5
:104370007C51565F584D4A4344191E171005020BD5
:104380000C21262F283D3A33344E49404752555C84
:104390005B7671787F6A6D64633E39303722252CF5
:1043A0002B0601080F1A1D1413AEA9A0A7B2B5BCA5
:1043B000BB9691989F8A8D8483DED9D0D7C2C5CC15
:1043C000CBE6E1E8EFFAFDF4F3000000009E59F9B6
:1043D0002CFF280540401818B047C71818501088FF
:1043E000000000000000000068CD28E7485DC8001C
:1043F0000000C00000000000D8FFFFFFDDFFFFFF4E
:10440000E2FFFFFFE7FFFFFFECFFFFFFF1FFFFFF12
:10441000F6FFFFFFFBFFFFFF0000000005000000AC
:104420000A0000000F000000140000001900000046
:104430001E00000023000000280000002D000000E6
:1044400032000000370000003C0000004100000086
:10445000460000004B000000500000005500000026
:104460005A0000005F0000006400000069000000C6
:104470006E00000073000000780000007D00000066
:10448000E9A64343C72B1443AAB1E242351EAF420B
:10449000587988429A995642BE9F294268910742AC
:1044A00083C0D941022BB04173688F41B4C86A41BF
:1044B000C74B4141000020413D0A05410456DE4002
:1044C00021B0BA4010589D40E9268540713D6240B8
:1044D00060E54040068125408D970E406666F63FB8
:1044E000CBA1D53F23DBB93FD34DA23F7B148E3FF9
:1044F0001058793FE3A55B3F4A0C423F31082C3FFF
:104500007593183F9EEF073F00000000010203046F
:10451000010203040607080901020406080A0C1038
:10452000202020202020202001000200040006007E
:1045300008000A000C00100020004000800000016C
:104540000001000100010001A0860100400D0300F0
:10455000801A060000350C0040420F0080841E00C7
:1045600000093D00844500080000002030010000E3
:104570003A040008DC4500083001002090170000D4
:1045800010410008112490D0030319F401022A14E9
:1045900009262B22081B2010041A18041A20041ABA
:1045A0004C041370011B2054081A5A041A64041A8C
:1045B0006C04011C1A88301AA0241AA8041A940C3E
:1045C000BAB03019D3411718182801E79432901760
:0C45D000A2E7BB3459D9022CB402139BA3
:0400000508000149A5
:00000001FF
