:020000040800F2
:10000000B818002061010008BB2400086F1C00081C
:10001000B9240008F50A00083D2E00080000000081
:100020000000000000000000000000005929000846
:100030005D19000800000000770100087901000840
:100040007B0100087B0100087B0100087B010008A0
:100050007B0100087B0100087B0100087B01000890
:100060007B0100087B0100087B0100087B01000880
:100070007B0100087B0100087B0100087B01000870
:100080007B0100087B0100087B0100087B01000860
:100090007B0100087B0100087B0100086119000852
:1000A0007B0100087B0100087B0100087B01000840
:1000B0007B0100087B0100087B0100087B01000830
:1000C0007B0100087B0100087B0100087B01000820
:1000D0007B0100087B0100087B0100087B01000810
:1000E0007B0100087B0100087B0100087B01000800
:1000F0007B0100087B0100087B0100087B010008F0
:100100007B0100087B0100087B010008092B000827
:100110007B0100087B0100086D0F00087B010008CF
:100120007B0100087B0100087B0100087B010008BF
:100130007B0100087B0100087B0100087B010008AF
:100140007B0100087B010008DFF810D000F046F9C1
:1001500000480047A9350008AFF30080B818002018
:100160000648804706480047FEE7FEE7FEE7FEE751
:10017000FEE7FEE7FEE7FEE7FEE7FEE7512A00089E
:10018000490100082DE9F04D81EA030404F0004B19
:1001900021F0004514464FF0000A23F0004150EAD8
:1001A000050220D054EA01021DD0C5F30A570246C9
:1001B000C5F31303C1F31300C1F30A5640F48015CD
:1001C00043F48013A7EB0608101BD64608F2FD384F
:1001D00073EB050002D308F1010801E092185B41BE
:1001E000B8F1000F03DA00200146BDE8F08D0020D1
:1001F0004FF48011064684460EE0171B73EB05078B
:1002000005D3121B63EB050306434CEA010C4908B6
:100210004FEA300092185B4150EA0107EDD152EAF3
:10022000030012D082EA040083EA0501084305D0E6
:10023000101BAB4106D20122002306E000224FF042
:10024000004302E06FF0010253101AEB06004CEB82
:10025000085110EB0A0041EB0B01BDE8F04D00F036
:1002600060B80EB540F2334102910021CDE9001192
:100270000A460B4600F064F803B000BD01F00043ED
:1002800030B421F0004150EA010206D00A0DA2F577
:100290006072C1F31301002A02DC30BC00207047F9
:1002A000440F44EAC104C100E01830BC00EBC25066
:1002B000AFF300800029A8BF7047401C490008BF69
:1002C00020F00100704710B4B0FA80FC00FA0CF086
:1002D00050EA010404BF10BC704749B1CCF12004BE
:1002E00021FA04F411FA0CF118BF0121214308434B
:1002F000A3EB0C01CB1D4FEA00614FEA102042BF77
:10030000002010BC704700EBC35010440029A4BF6C
:1003100010BC7047401C490008BF20F0010010BC11
:10032000704710B5141E73F1000408DA401C41F147
:10033000000192185B411A4301D120F0010010BD69
:100340002DE9F04D92469B4611B1B1FA81F202E0DF
:10035000B0FA80F22032904600F052F804460F4680
:1003600040EA0A0041EA0B0153465A46084313D0BB
:10037000114653EA010019D0C8F14002504600F07E
:100380004EF805460E4650465946424600F038F8AB
:10039000084305D0012004E020463946BDE8F08D31
:1003A0000020054346EAE0762C4337430A9863056C
:1003B000E40AA0EB08000022FD0A44EA47540A3090
:1003C00002D500200146E9E7010510196941DDE980
:1003D000084500196941BDE8F04DA2E7064C074DFC
:1003E00006E0E06840F0010394E807009847103405
:1003F000AC42F6D3FFF7ACFEF0390008103A000823
:10040000202A04DB203A00FA02F1002070479140D4
:10041000C2F1200320FA03F3194390407047202AC9
:1004200004DB203A21FA02F00021704721FA02F39E
:10043000D040C2F12002914008431946704730B5C0
:100440008C1810F8012B12F00F0301D110F8013BAA
:10045000120906D110F8012B03E010F8015B01F836
:10046000015B5B1EF9D101E001F8013B521EFBD19B
:10047000A142E6D3002030BD114800220068016887
:1004800010486331C72907D20F490968090AC9070B
:1004900002D10E49096841B102610D490D4B49680D
:1004A0004968994200DD026170470B4B016999422E
:1004B000F3D30A490B7823F00703DB1C0B70ECE73E
:1004C000BC00002058010020100801400C01002051
:1004D000780000209A99993E40771B000600002082
:1004E0002DE9F04100242348274BDFF88CC0026C33
:1004F00022480025224F4169224E587862450DD985
:1005000040F004005870214A8020106042F2AC6034
:10051000C88101207070BD81BDE8F08112F1814F6A
:10052000FAD27278012AF7D1BA8942F21077BA4228
:10053000F2D97570CD81154918390968C90509D5F1
:10054000C10707D1C10605D4800603D4187820F06E
:10055000200018700E4E3578FD20307001E0641CCC
:10056000E4B20121002001F0DFF908B90A2CF6D32A
:100570003570D1E7740300200000A0C1780000208E
:1005800058010020D3000020060000202808014068
:10059000B40100202DE9F04700243F48424BDFF82A
:1005A0000481DFF8F8A0D0F840903D4E19783F4F15
:1005B000DFF8FCC000255878D8F81420D1454DDD6F
:1005C00040F00800587041F08001197042F2AC69A7
:1005D000A2F80C909CF800205AB9364A12681268AA
:1005E0006432C92A01D37D8103E07D8101228CF828
:1005F00000207A89B2F5FA6F2ED39CF80020012AE8
:100600002AD18CF80050820714D4820606D53068AF
:10061000C0050FD521F0800018700BE0C00606D58C
:100620003068C00506D521F08000187002E021F086
:1006300080001870D8F8140085811F4E3578FB2093
:10064000307001E0641CE4B20121002001F06CF97B
:1006500008B90A2CF6D33570BDE8F08720F0080100
:1006600059708CF800507D8195818807F4D40E482C
:100670008A06007820F0800004D53168C905EBD5E2
:100680001870E9E7C90604D53168C905E4D51870C2
:10069000E2E71870E0E70000740300200000E64283
:1006A00010080140780000200600002058010020BA
:1006B000D3000020BC000020B40100202DE9F0434D
:1006C0003D4A3E483B4D3E4C5369EE78816B026B90
:1006D0002778DFF8F0C06078002E17D0DCF80060D3
:1006E0004FF000085FEAC6592646767826F02006C5
:1006F00043D5DFF8D4904A4501D3494520D2DCF8F0
:100700000010C90533D5C1072AD030E0DCF800005D
:1007100042F2AC665FEAC05829484FF0010C4078BD
:1007200040F020000ED5294FBA4201D8B94207D96E
:10073000607024498020183108605E8285F803C00B
:10074000BDE8F083DFF88880424501D84145F7D9FC
:10075000607047F0800020705E8285F803C0EFE78C
:10076000410704D4C00602D427F020002070A3F86B
:100770001280667085F80380E2E7164FBA4201D313
:10078000B942DDD281070ED401070CD4C1060C4852
:10079000007820F0800005D5DCF80010C90502D5EE
:1007A000207000E02070A3F81280667085F8038046
:1007B000C6E70000D300002078000020740300206A
:1007C00006000020100801400000A0C0000040C04A
:1007D0000000A0C1000070C12DE9F043314B2E4F45
:1007E000314E2F4CD3E90D0297F80290196BDFF8C8
:1007F000AC806469DB6A96F800C07578B9F1000FC7
:1008000020D0DFF8A8C0634535DA404533DA284800
:10081000814230DA82422EDA25F010007070002119
:10082000B9702182234A810728D4010726D4314692
:100830008306097821F080011FD51368DB051DD5DB
:1008400031701BE0434507DC1B4B984204DC1B481E
:10085000814201DC82420EDD45F0100070701549C6
:100860008020183108604CF08000307042F2AC609B
:1008700020820120B870BDE8F08331701168C9058D
:10088000F9D5C107F7D14107F5D48006F3D4307804
:1008900020F020003070EEE7D30000200000A042DE
:1008A000780000207403002006000020000096421B
:1008B00000008242100801400000AA4200008C4261
:1008C00070B500241C4D2878400633D51B49802084
:1008D00008601B4A42F2AC605169088119494878A6
:1008E00040F001004870184B1B68002B22D120F00B
:1008F00001004870114B183B1B68DB0509D5430705
:1009000007D4C30605D4800603D4087820F020005D
:1009100008705169002008812E78BF20287001E0FE
:10092000641CE4B20121002000F0FEFF08B90A2C8B
:10093000F6D32E7070BD0000B401002028080140DD
:1009400078000020060000200C01002010B5FFF701
:10095000B7FF00F02FF8FFF71DFEFFF7C1FD00F015
:1009600009F8FFF739FFFFF7A9FEBDE8104002F0D4
:1009700077BC00000B480078C00712D00A4801215C
:10098000016002210160016008210160080307493C
:1009900008600749087820F00700C01C40F04000BC
:1009A00008707047B4010020280C0140280801405D
:1009B000060000202DE9F04100200021284D2A7872
:1009C00092064AD5274F7A7842F002027A703B7835
:1009D00043F080033B70DFF890C042F2AC64DCF877
:1009E00014607481214C40F6AC5604EB4008B8F812
:1009F0000480B04501D2491CC9B2401CC0B21428C1
:100A0000F3D3002929D10024100715D418489106E2
:100A100006D50068C0050FD523F0800038700BE0C4
:100A2000D10606D50068C00506D523F080003870D1
:100A300002E023F080003870DCF8141000204881B8
:100A40002E78287001E0641CE4B20121002000F03F
:100A50006BFF08B90A2CF6D32E70BDE8F0810000B8
:100A6000B40100200600002078000020740300205C
:100A700010080140F0B41349002088601248027841
:100A800043781204807802EB032215184D60002091
:100A90000E4B41F23604012603EB40029288A2423B
:100AA00004D98F6806FA00F23A438A60401CC0B24B
:100AB0001428F1D38868A84202D0F0BC00F008B82E
:100AC000F0BC7047040100201B02002074030020CA
:100AD0006FF07F41884209D20549020C0A70020A70
:100AE0004A7088700321672000F01EBF7047000025
:100AF0001B020020FEE700001FB5684601F0A8F8C1
:100B00000121084601F082FE0121042001F07EFE51
:100B10004FF40060ADF800000020029001208DF835
:100B200004000390074C6946204600F0E5FFA1143D
:100B3000ADF80010022102916946204600F0DCFF6A
:100B40001FBD00000008014030B508231024042216
:100B5000B1F5007F33D011DC20292AD007DC012930
:100B600022D0042923D0082900D1C46030BD4029F7
:100B700021D0B1F5807FF9D1426030BD0025B1F5BB
:100B8000004F20D008DCB1F5806F1AD0B1F5006FAE
:100B9000F3D18561426030BDB1F5803F0DD0B1F534
:100BA000003FF8D1446030BD0849816030BDC3606A
:100BB00030BD036130BD046130BD436030BD426073
:100BC00030BD426030BD8561426030BD0101010031
:100BD00070B588B00121480601F0FCFD264E304674
:100BE00000F04CF805A800F0B1F900248DF81A4087
:100BF0008DF81B408DF81C408DF81D408DF81E406F
:100C000001258DF81F508DF816408DF817400920EA
:100C10008DF8180004208DF819000220ADF814009A
:100C200005A9304600F0A6F88DF80E408DF80F406B
:100C30008DF81050ADF80440ADF80640ADF808400E
:100C4000ADF80A40ADF80C408DF8115001A800F045
:100C500013F901220221304600F082F836208DF887
:100C600000008DF801408DF802508DF80350684661
:100C700001F024FC08B070BD0064004010B50121F3
:100C80004C06204601F0B4FD2046BDE8104000218E
:100C900001F0AEBD0246002053690B425DD0B1F5B4
:100CA000807F4AD016DC082937D009DC01292CD0F6
:100CB00002292ED0042950D1D068082100F0BCBAF6
:100CC00010292ED0202930D0402946D1106910217A
:100CD00000F0B2BAB1F5004F3BD00CDCB1F5007FAB
:100CE0002FD0B1F5806F30D0B1F5006F35D190695C
:100CF000702100F0A1BAB1F5803F1AD0B1F5003FE4
:100D00002BD15068102100F097BA9068134900F079
:100D100093BAD068032100F08FBAD068102100F098
:100D20008BBA1069032100F087BA1069082100F01E
:100D300083BA5068082100F07FBA9069012100F061
:100D40007BBA9069022100F077BA9069042100F023
:100D500073BA5068042100F06FBA704701010100B6
:100D6000002A03D042690A434261704742698A43BC
:100D70004261704710B50022036823F0020303604C
:100D8000036843F0010303604FF6FF7300E0521C59
:100D90004468E40701D19A42F9D14268D2073ED0B3
:100DA0008A79012A3DD0026822F080020260CA7965
:100DB000012A3BD0026822F0400202600A7A012A2E
:100DC00039D0026822F0200202604A7A012A37D024
:100DD000026822F0100202608A7A012A35D0026885
:100DE00022F008020260CA7A012A33D0026822F097
:100DF000040202608A78CC78920742EA04620C7995
:100E000042EA04424C79098842EA0452491E0A43E4
:100E1000C261016821F001010160002120E0002091
:100E200010BD026842F080020260C0E7026842F032
:100E300040020260C2E7026842F020020260C4E79A
:100E4000026842F010020260C6E7026842F008023F
:100E50000260C8E7026842F004020260CAE7491C67
:100E60004268D20701D09942F9D14068C00701D049
:100E7000002010BD012010BDF0B5827A0121914003
:100E8000304C226842F0010222602E4D1C352A6847
:100E90008A432A602B4A067B0C322B4B002E14D13E
:100EA00016688E4316604688C78846EA0746877AE2
:100EB00003EBC707C7F840660688878846EA0746F7
:100EC000877A03EBC707C7F84466067B012E14D167
:100ED00016680E4316604288068842EA0642867A01
:100EE00003EBC606C6F84026C288868842EA064258
:100EF000867A03EBC603C3F84426124AC37A121D4E
:100F00003BB113680B4313600E4A0389143223B1BB
:100F100006E013688B431360F6E713688B43136096
:100F20000389012B02D113680B431360407B012816
:100F300002D1286808432860206820F00100206062
:100F4000F0BD00000066004000600040002181719B
:100F5000C171017241728172C1728170C1700321CD
:100F600001710221417101210180704710B50B4CC4
:100F700002212046FFF78EFE00280ED002212046D7
:100F8000FFF7E2FD064A0021204600F00DF8BDE81B
:100F900010400449024801F0C3BF10BD0064004086
:100FA00044010020BC00002010B500EB0113D3F871
:100FB000B04104F004041472002C2CD0D3F8B041DA
:100FC000E408546003F5D8731C6804F002045472FA
:100FD0005C6804F00F0494725C68240AD4749C6802
:100FE000D4729C68240A14739C68240C54739C6803
:100FF000240E9473DC68D473DC68240A1474DC68EF
:10100000240C5474DB681B0E937449B1016941F0E0
:101010002001016110BDD3F8B041640D1460D1E727
:10102000C16841F02001C16010BD30B5024600200A
:1010300093685B010AD49068000101D5012005E0A6
:101040009068C00001D5022000E0042004283BD0B5
:1010500002EB0012D2F8803103F00103C2F88031B4
:101060000B7A93B3D2F880414D681C434B7A43EA24
:10107000C5031C43C2F880418B7A03F00F038B72C7
:1010800002F5C072536823F00F03536053688C7AE3
:1010900023435360CB7A8C7B0D7B43EA04634C7B08
:1010A000240444EA052423439360CB7B8C7C43EAED
:1010B00004634C7C097C240444EA01210B43D36083
:1010C000116841F00101116030BDFFE7D2F88031B5
:1010D0004C7A23430C8843EA4453C2F88031CBE76F
:1010E000124900281AD0D1ED020A91ED031A70EED0
:1010F000810AC1ED020AD1ED001AB7EE001A01EE25
:10110000A01AD1ED011A61EEA01A01EEA01AC0EEEC
:10111000010AC1ED030A91ED030A7047DFED040AED
:10112000C1ED020A81ED030AF5E70000F00000209E
:10113000000000001FB5684600F08AFD0121042070
:1011400001F064FB4FF48070ADF8000010208DF8C2
:10115000020000208DF8040002906946014800F06A
:10116000CBFC1FBD000801400C4900220C4B487805
:1011700000280FD001280CD11889B0F57A7F08D348
:10118000084B802018600848037843F02003037060
:101190004A7070471A81012048707047D1000020C2
:1011A00058010020180801400600002030B41C48F7
:1011B00000681D4AC3051B480168107814D500F06B
:1011C0000703042B07D1194C4FF4FA73238020F046
:1011D0000700401C1070107840F0100010709FED58
:1011E000140A81ED010A06E020F0100010709FED56
:1011F000110A81ED010A1078C10608D4084B80213C
:101200001833196020F02000107030BC704700F0D7
:1012100007010229F9D18006F7D430BCFFF7A4BF3B
:101220001008014078000020060000200400002083
:101230000000A84200000000024600200A4200D040
:101240000120704710B505490020087001210020D9
:1012500000F06AFB0028F9D010BD0000B4010020A6
:1012600010B540F25964204672B6134A11698907D5
:1012700002D4401E411CF9D11048016821F00071D0
:101280000160016841F000710160106820F4C060E5
:1012900040F4806010602146084613699B0702D520
:1012A000401E431CF9D11069800702D4491E481C16
:1012B000F9D162B610BD0000007000402018004057
:1012C00010B500F033FF00F0E9FD09492020087057
:1012D00000F0E8F808490748086000F007FB00281C
:1012E000FBD0FFF7AFFFBDE8104001F01FBB0000CF
:1012F000D800002005020020DC00002004484178CE
:1013000021F00F010E3141700121084600F00CBBA5
:10131000B401002070B50221002000F0EBFA002893
:1013200033D01A4C607840060DD54521072000F0D7
:10133000E1FA40B100F030F80321672000F0DAFA5A
:1013400008B1FFF797FB6078114D80060AD502219E
:10135000084600F0CFFA28B1B7EE000A00F030FAE4
:1013600085ED0F0A6078C0060FD50321042000F038
:10137000C1FA002809D0B7EE000A00F03FFA85ED67
:10138000100A0448406880ED010A70BDB4010020D5
:1013900074030020780000202DE9F0412DED028B30
:1013A00000F052FA00EE100ADFED370A374EB8EEC1
:1013B000400A80EE201A86ED001A364D9FED340A61
:1013C000286880ED000A00249FED338B0227204619
:1013D00000F054FABCEEC00A06EB440110EE100A0D
:1013E0008880EA6807EB4403D0528888FEF739FF0B
:1013F00053EC182BFEF7C6FEFEF740FF00EE100A76
:101400002868D0ED000A30EE200A80ED000A641C46
:10141000E4B2142CDBD300F0BDF986ED0B0A9FED8E
:10142000208AA96920EE080ABDEEC00A10EE100A53
:101430008880002000F046F986ED0C0A20EE080AAC
:101440006969BDEEC00A10EE100A8880022000F023
:1014500039F986ED0D0A20EE080A6969BDEEC00A69
:1014600010EE100A4880032000F02CF986ED0E0AD9
:1014700020EE080A6969BDEEC00A10EE100AC880A5
:10148000BDEC028BBDE8F08100007A4474030020BB
:1014900000000000780000200000000000408F40A5
:1014A0000000C8428548002100F8091C10F8081CFB
:1014B00041F0800121F0600121F01F011E3100F890
:1014C000081C10F8071C21F0800141F0400121F0B8
:1014D000200141F0100121F0080121F0040121F068
:1014E000020121F0010100F8071C10F8061C21F090
:1014F000800141F0400141F0200141F0100141F034
:10150000080121F0040121F0020121F0010100F89D
:10151000061C10F8051C21F0800121F0700120311B
:1015200041F0080141F0040121F0020121F0010124
:1015300000F8051C10F8041C41F0F00260490B781B
:1015400063F3830242F0030200F8042C3F2200F808
:10155000032C052200F8022C4A7800F8012C8A7826
:101560000270CA7842700A798270B022C270027921
:1015700022F0800242F040024B7963F305020271CF
:10158000427942F0800242F040028B7963F3050217
:101590004271CA7982710A7AC271027A22F080029B
:1015A00042F040024B7A63F3050202728A7A427279
:1015B000882282720022C2720273C27382734273E3
:1015C000F02303744274827C22F0F00242F008029D
:1015D00042F0040222F0020222F001028274C27C74
:1015E00022F0800242F0400222F03802083222F05B
:1015F000040222F0020222F00102C274027D42F0D3
:10160000800242F0400242F0300242F00C0242F00E
:101610000302027528224275CA7A82750A7BC37D4D
:1016200062F30713120962F30303C3754A7B027660
:10163000897B427E61F30712090961F30302427656
:10164000817E21F0C001403121F03801303121F09C
:101650000701491C8176C17E21F0C001403121F093
:10166000380121F00701C17600210177417F41F067
:10167000800141F0400121F0200121F0100121F012
:10168000080121F007014177817F21F0800121F0DD
:1016900070018177C17F41F0800141F0400141F04C
:1016A000200141F0100141F0080141F0040141F036
:1016B000020121F00101C177704700000E020020F5
:1016C000E000002010B522222D490B7CCC7B43EAA0
:1016D000042301EB4000817C407C41EA002000EEC5
:1016E000103A9FED281AB8EE400A60EE010A00EEAB
:1016F000100AB8EE400A20EE011A234881EE200AB3
:10170000008800EE900AF8EE600A20EE201AF7EE4C
:10171000000A30EEC00AC1EE000A9FED1C1A80EEEE
:10172000810A00211A480CE000EB8103D3ED000A86
:10173000F4EEC00AF1EE10FA02DB491CC9B200E077
:101740000A469142F0D300EB8201D1ED000A511E0E
:1017500000EB810030EEC00A90ED001A0C4830EE2C
:10176000C11A883850F82200C0EE010A00EE100AB3
:10177000B1EE041AB8EEC00A00EEC10A10BD0000B6
:10178000B4010020CDCCCC3D0001002000007A4403
:101790000C3900080748817B407B41EA002000EEBD
:1017A000100A9FED051AF8EE400A9FED040A10EEAC
:1017B000810A7047B4010020C68A7A3E66A6874334
:1017C0000B48C178807841EA002000B200EE900A10
:1017D0009FED081AF8EEE00A60EE810A9FED061A06
:1017E00020EE811AC1EE000AB0EE600A70470000D8
:1017F000B4010020ACC5A73600007A440E48017938
:1018000042790903807941EA021141EA101001038B
:1018100001D50A49084300EE900A9FED091AF8EE37
:10182000E00A60EE810A9FED071A20EE811AC1EEF0
:10183000000AB0EE600A7047B40100200000F0FF1B
:10184000ACC5A73400007A440A48017AC07941EA5D
:10185000002000EE100ADFED080AB8EE400A20EE84
:10186000200AF6EE000A30EE200ABCEEC00A10EEA6
:10187000100A7047B4010020CDCC4C4110B513289C
:1018800002D99FED150A10BD144A02EB40018B7F6F
:10189000497F43EA012192F86D20D20709D009B2AD
:1018A00000EE101ADFED0E0AB8EEC00A20EE200A94
:1018B00007E000EE101ADFED0B0AB8EE400A20EE4A
:1018C000200AFFF70DFCF0EE400A9FED071AB6EE76
:1018D000000A00EE810A10BD00000000B4010020E3
:1018E00017B7513917B7D13800007A442921512050
:1018F00000F01AB82DE9F04106460F4603240948C6
:10190000851929463A46304600F0EEFA10B101201A
:10191000BDE8F081052001F0C3FA641E002CF0DC64
:101920000020F5E7B40100202DE9F04106460F46FE
:1019300003240948851929463A46304600F01EFC22
:1019400010B10120BDE8F081052001F0A9FA641E64
:10195000002CF0DC0020F5E7B40100207047000007
:1019600010B5202000F026F8002815D0202000F027
:101970001BF80A4801210160022101600160082171
:1019800001600803064908600649087820F007004E
:10199000C01C40F04000087010BD0000280C014041
:1019A0002808014006000020014908607047000037
:1019B0001404014001460020054A12680A40044B05
:1019C00014331B680B4202D0002A00D0012070475C
:1019D0000004014030B51B4A83790168002B2AD0EE
:1019E00013688B431360111D0B680468A3430B60DD
:1019F000017911440B68046823430B60114C0834CF
:101A00002168036899432160231D19680568A9436B
:101A100019604179102905D011440A680068024311
:101A20000A6030BD216802681143216019680068AE
:101A30000143196030BD0079104402688A43026096
:101A400030BD00000004014010B50121022000F06B
:101A5000A5FD0121084600F0A1FD0321BDE81040CD
:101A6000012000F06DBD000070B588B00121092093
:101A700000F0CCFE04A800F0EBF82026ADF81060D2
:101A800001258DF814500024069404A90F4800F095
:101A900033F80521012000F01BF802968DF80C4068
:101AA0000C208DF80D008DF80E5002A8FFF792FF64
:101AB00017208DF804008DF805408DF806408DF84C
:101AC000075001A800F0FAFC08B070BD000C0140FE
:101AD00010B5084A21F003031A4453688907090F17
:101AE00003248C40A34353605368884003435360EE
:101AF00010BD0000000001402DE9F04F0023DFF889
:101B00004C914FF00F0C09F1040A0AF1040B4FF04D
:101B100003080BF1040E91E001229A401440002CBE
:101B20007ED05C008D68022D04D0122D02D00DB144
:101B3000032D16D11D070AD5466A5D07ED0E0CFA76
:101B400005F7BE43CF68AF403743476209E0066AF6
:101B50005D07ED0E0CFA05F7BE43CF68AF40374383
:101B6000076207680D7A05F00F0608FA04F5AF431F
:101B7000A6403E430660C7680E7906F00306AF43F1
:101B8000A6403E43C6608E68B70709D0032E07D033
:101B9000C76A8E7806F00306AF43A6403E43C6628E
:101BA00084689443CD7805F001059D402543856008
:101BB0000C79022C02D0012C04D006E0846A144374
:101BC000846202E08469144384618C68012C05D02E
:101BD000022C03D0112C01D0122C06D1456895435C
:101BE000C4F300149C402C4344608D68EC0024D561
:101BF000D9F800409443ED0300D51443C9F80040E0
:101C0000DAF8004094438D68AD0300D51443CAF858
:101C10000040DBF8004094438D68ED0202D500E0FF
:101C20000BE01443CBF80040DEF8004094438D688D
:101C3000AD0200D51443CEF800405B1C0C8834FA8A
:101C400003F27FF469AFBDE8F08F000000040140AB
:101C50004FF6FF7101800021C17081600F22C260C8
:101C60000171817070478162704781617047FEE742
:101C7000034600209A8A1B8B1B041A4322F07F42E2
:101C8000914300D101207047002904D0018841F41C
:101C9000806101807047018821F480610180704774
:101CA0001FB5684600F0DEF80F4C204600F020F823
:101CB0000021ADF804104BF6FF71ADF80610D021ED
:101CC000ADF808102115ADF80A100901ADF80C1097
:101CD000064900916946204600F064F8012120463B
:101CE00000F022F81FBD000000540040A086010053
:101CF00010B50C4988420AD101214C05204600F05C
:101D000077FD2046BDE81040002100F071BD0121A3
:101D10008C05204600F06CFD2046BDE810400021F7
:101D200000F066BD00540040002904D0018841F055
:101D3000010101807047018821F001010180704795
:101D4000002904D0018841F4807101807047018826
:101D500021F4807101807047002904D0018841F48A
:101D6000007101807047018821F400710180704783
:101D70000CB50246002000920A0F019221F07F412B
:101D8000019A002A03D0009A1432009203E0090C51
:101D9000009A18320092009A12680A4200D001207C
:101DA0000CBD000070B586B004460D46A08820F03A
:101DB0003F06684600F038FD02982849B0FBF1F173
:101DC00089B20E43A680228822F001022280244B91
:101DD0002A689A4209D85200B0FBF2F080B2042877
:101DE00000D20420491C218423E0EB88A3F53F4660
:101DF000FF3E0BD002EBC20303EB0212B0FBF2F08A
:101E000080B240F48040020506D007E002EB4202B7
:101E1000B0FBF2F080B2F6E740F0010040F4004081
:101E20004FF4967251434FF47A72B1FBF2F1491CB0
:101E30002184A083208840F00100208020884FF674
:101E4000F5310840A9886A89114301432180A88996
:101E500029890843208106B070BD000040420F0070
:101E6000A086010041F288310160002181804BF69B
:101E7000FF72C280018141814FF4804181817047AE
:101E8000008AC0B27047002A02D041F0010101E08F
:101E900001F0FE0101827047018270471FB568465C
:101EA000FFF7D6FE0121082000F0B0FC0121480513
:101EB00000F090FCC020ADF8000000208DF8030079
:101EC00012200290012003908DF804006946044816
:101ED000FFF712FE0348FFF70BFFFFF7E1FE1FBD00
:101EE000000C014000540040F8B50E461546264C43
:101EF000217849008DF800108DF80100B5F5167FA6
:101F000040D84FF6FF7000EA4503204A0221684698
:101F100000F03EF880B32078012101EB40008DF8FD
:101F200002001A4F38788DF803000421684601F04A
:101F30002BFB7978884225D1012D1ED9A5F101040A
:101F400007F102070BE04FF00101384601F01CFBDE
:101F50007978884201D00020F8BD641EBF1C002C97
:101F6000F1DC0A4804E010F8021B06F8011B6D1EA4
:101F7000002DF8DC0120F8BD04E003D13878307082
:101F80000120F8E70020F6E7D800002045020020F5
:101F90002DE9F84F80460F4615461E4698F800007A
:101FA0000090022F02D20020BDE8F88F4FF40034D9
:101FB000DFF86891A24601E084B1641E51464846AC
:101FC000FFF7D6FE0028F7D101214846FFF7B8FEFB
:101FD0004FF4803B5C46DFF848A108E04846FFF735
:101FE00087FEFFF75DFE0020DEE76CB1641E514600
:101FF0004846FFF73DFE0028F7D0002248460099EA
:10200000FFF741FF5C4608E001214846FFF7A4FEC8
:102010000020C9E7002CF7D0641E42494846FFF76C
:1020200027FE0028F6D010E018F8011F4846FFF7F9
:1020300033FF5C4602E0002CE6D0641E3949484676
:10204000891CFFF715FE0028F5D07F1E3F043F0CCA
:10205000EAD1EEB301214846FFF772FED846444666
:1020600002E0002CD0D0641E51464846FFF700FE27
:102070000028F6D0012248460099FFF704FF4746A2
:10208000274C641C02E0002FBED07F1E214648462C
:10209000FFF7EEFD0028F6D0012E1ED9012148469B
:1020A000FFF7F2FD1E4C3F3411E0C34604E0BBF1E4
:1020B000000FA9D0ABF1010B21464846FFF7D8FD30
:1020C0000028F4D04846FFF7DBFE05F8010B00E0DE
:1020D0001DE0761E3604360CE7D100214846FFF796
:1020E000D3FD01214846FFF737FE0F4C04E0B8F15D
:1020F000000F89D0A8F1010821464846FFF738FEB5
:102100000028F4D04846FFF7BBFE287003E000210A
:102110004846FFF7B9FD012046E7000000540040A3
:102120000100030082000700400000101FB5684650
:10213000FFF78EFD0121082000F068FBC020ADF8FC
:10214000000010208DF8020000208DF8040001200E
:102150000290094C69462046FFF7CEFC40212046FC
:10216000FFF783FD80212046FFF77DFD052000F06D
:10217000B1FEFFF793FE1FBD000C014070B516467F
:10218000134D144A127852002A70687011F8010B2E
:10219000A8700C460321284601F0F6F9E8702D1DC1
:1021A00008E0207828702046641C012101F0ECF939
:1021B0006870AD1C761E3604360CF2D10448281A1D
:1021C000BDE8704081B200231A460148FFF7E0BE27
:1021D00045020020D80000200149886070470000B7
:1021E0000030004002494CF6CC40086070470000C7
:1021F0000030004010B545F2555000F01BF80320A8
:1022000000F012F840F2E240FFF7E6FF00F004F8B9
:10221000BDE81040FFF7E6BF02494AF6AA20086071
:1022200070470000003000400149486070470000DE
:102230000030004001490860704700000030004055
:102240002DE9F043304900200B4691F801805A886F
:102250009C88521C641C022701262C4DDB884FF001
:10226000040C92B2A4B2B8F1050F0CD2DFE808F06A
:10227000031023363B002B68DB0706D04A80142A64
:1022800001D148804E70BDE8F08348808880FAE72D
:102290004A808C802C68E40708D040F2DC539A42D4
:1022A000F1D94880032048700870ECE75B1CCB80B4
:1022B0004F704880E7E78C80B4F5FA7F0AD22B682C
:1022C000DB0705D04A80022ADDD148804E70DAE76C
:1022D0004880D8E7888081F801C0D4E72A68D2070F
:1022E000D1D14870CFE7012B04D0022B04D0032BAF
:1022F00006D103E00E7003E00F7001E081F800C02A
:10230000C8804870BFE70000240100201008014089
:102310001FB56846FFF79CFC0121042000F076FA07
:102320000120ADF8000010208DF8020002208DF889
:1023300004000020029069460148FFF7DDFB1FBD45
:102340000008014010B5174C2178002923D0164B06
:102350000129187840F0080204D0022919D0032975
:1023600017D10EE0410703D000F00700042810D178
:102370000E494FF4FA70088022F00700401C1870D4
:1023800007E0410708D0810603D420F00700C01CF5
:1023900018700020207010BD22F00700401C18703B
:1023A000F7E70000240100200600002004000020C0
:1023B0001FB56846FFF74CFC0121082000F026FA03
:1023C0001024ADF800408DF8024002208DF8040082
:1023D0000120029069460348FFF78EFB0148283030
:1023E00004601FBD000C01401FB56846FFF730FCBC
:1023F0000121042000F00AFA0824ADF80040102062
:102400008DF8020000208DF804000120029069463A
:102410000348FFF771FB0248283004601FBD00002D
:10242000000801400648074A01881288914206D3F5
:10243000002101800448016881F0080101607047B3
:102440005801002004000020140801401FB5684610
:10245000FFF7FEFB0121042000F0D8F9012108203C
:1024600000F0D4F90B20ADF8000010208DF8020028
:1024700000208DF804000124029469460C48FFF7FF
:102480003BFB48F28000ADF8000069460948FFF7C1
:1024900033FB0748283004600221016008210160F5
:1024A0000448090328300160802101601FBD00003D
:1024B000000C014000080140FEE7704770B50F2393
:1024C000C27801260178002A1ED0144A126802F44C
:1024D000E062C2F5E062120AC2F10404D34045781A
:1024E000A54082781A402A43120101F1E02181F8C7
:1024F0000024007800F01F018E404009800000F1A8
:10250000E020C0F8006170BD01F01F00864048095E
:10251000800000F1E020C0F8806170BD0CED00E0AB
:1025200010B501F0D9F801F0BFF801F0E5F801F0BD
:10253000FDF8BDE8104040F2DC5000F06FBA00003A
:10254000124A536943F001035361536943F0020394
:102550005361536943F004035361936823F4405378
:102560000B439360116821F0070141F003011160F2
:1025700007490A6842F004020A60012803D040BFFC
:1025800020BF20BF704730BF704700000070004080
:1025900010ED00E00121080700F01CB9054B9A6816
:1025A000012902D082439A60704722F0070101435B
:1025B00099607047007000402DE9F041204A0023E7
:1025C000012710781F4C002822D0214602261E4DDC
:1025D000C98801281FD04FF0080C4FF4004802288A
:1025E00020D0032812D1B1F5FA7F0FD32F602E60CF
:1025F00015481030C0F800C01448C0F800801370AF
:102600001349087820F00700801C0870BDE8F081AD
:10261000E3801770FAE7C829F8D310202860E38018
:102620001670F3E7B1F5967FF0D3C5F800C0074800
:102630001038C0F80080E38003201070E6E7000047
:10264000D100002058010020180C0140280801404A
:102650000600002070B5224B1868224D224AC007A0
:102660004FF0010403D11868000AC0070ED01868A3
:10267000C6071D48017841F0080003D01E68360ADD
:10268000F60705D01E68F60709D014E02C701EE08E
:102690002C7020F0100020F00700107017E01E686A
:1026A000F60508D521F0080040F0100020F00700E2
:1026B000401C10700BE01968C90708D01968C905DB
:1026C00005D52C7040F0100020F007001070107835
:1026D000410603D520F00700C01C107070BD00003B
:1026E0001008014024010020060000202DE9F041DF
:1026F0002D4D2F4829462B784A7803F007040826E9
:102700002A4F006822F04001052C25D2DFE804F0B2
:10271000240324073A00BDE8F041FFF74DBF3E60B7
:10272000244C102727600127276002272760266096
:102730001E4CBE03103426608026266023F008035A
:102740002B7058B1580609D41B494FF47A70088091
:1027500023F00700001D2870BDE8F081500601D469
:1027600000F0F0FE6970FEF7C9FD104808380168F6
:10277000C907FCD14FF4FA7000F0ACFBBDE8F041A2
:10278000FFF762B908B15806E6D53E60500601D49D
:1027900000F0D8FE6970FEF7B1FD0A2000F09AFB48
:1027A000BDE8F041FFF750B90600002018080140CD
:1027B0000C010020280C0140040000200448416A5C
:1027C00041F080714162416A21F08071416270473D
:1027D00000100240054A002903D0D1690143D161AC
:1027E0007047D1698143D1617047000000100240F9
:1027F000054A002903D0116901431161704711692D
:10280000814311617047000000100240054A002911
:1028100003D091690143916170479169814391614E
:10282000704700000010024030B53A4B59683A4AF0
:1028300011405A6802F480325C6AC4F302140D013C
:1028400003D4022505EB914103E06FF4F77505EB26
:1028500091412AB15A6892030BD5304A51430AE09C
:102860001A6CD20702D02E4A514304E02D4A51433C
:1028700001E02B4A51431A6C920700D549085A6867
:1028800002F00C02284DBAB3042A3AD0082A3BD0F1
:102890000C2A3CD055F8242002605A6802F0F0025D
:1028A0001209214C403CA55C0268EA4042605D6828
:1028B00005F4E0652D0A655D22FA05F585605D6821
:1028C00005F46055ED0A645D22FA04F5C560DC6A22
:1028D00004F00F04144D303D2C5DB2FBF4F2426164
:1028E000DA6A120902F00F0205F1100333F8122020
:1028F000B1FBF2F1016130BDFFE755F82420026021
:10290000CBE7084A0260C8E7054A0260C5E70160F4
:10291000C3E700000010024000003C0800093D0031
:1029200000127A000024F400D439000810B5012107
:102930007E20FEF7DFFF064890F87E0000EBC00126
:1029400001EB001041F6902108440249088010BDB7
:10295000B4010020000100207047000010B50020E5
:10296000294C216841F4803121604FF400522168E4
:10297000C1F34041401C09B99042F8D12068C0F32E
:102980004040D8B3FEF76CFC2048016821F00301F9
:102990000160016841F00101016060686060606889
:1029A00040F400506060606840F4A060606060685F
:1029B000174908406060206C20F0030020646068C4
:1029C00040F48031206C41F4003141F460116160C9
:1029D0002064206840F08070206020688001FCD571
:1029E000606820F003006060606840F00300606091
:1029F0006068C0F381000328FAD110BDFFE70649E3
:102A000004480860F9E7000000100240002002407E
:102A1000FFFFC0F700093D0000000020A0F57A711B
:102A2000B1F57A7F03D80146014800F0D1B970476B
:102A3000002C01404FF0E021042804D0086920F068
:102A4000040008617047086940F00400086170479D
:102A500010B52448016841F4700101602248416AC0
:102A600041F0040141624168204A1140416001681F
:102A70001F4A11400160016821F480210160416812
:102A80001C4A114041604FF4E041C16249100163AA
:102A900000214163016418498160C16941F080519E
:102AA000C16116480068400508D51548016821F045
:102AB00000710160016841F0007101601148016816
:102AC00041F0900101600168C90503D5016821F456
:102AD00000710160FFF742FF02494FF0006080394A
:102AE000086010BD88ED00E00010024000C0FFF853
:102AF000FFFFF6FEFFFF00070080BF0400700040EC
:102B0000201800400020024010B5164C012120463C
:102B100000F053F8002823D00121204600F026F8C9
:102B200011480188491C01804188491C41808188E5
:102B3000491C8180C188491CC1800189491C0181CF
:102B40004189491C41818189491C8181C189491C74
:102B5000C1810169491C0161BDE81040FFF770BBEC
:102B600010BD00000010004058010020C943016161
:102B70007047002A03D082890A4382817047828984
:102B80008A4382817047002904D0016841F0010125
:102B900001607047016821F0010101607047002960
:102BA00005D030F8441F41F400410180704730F8EF
:102BB000441FC1F30E0101807047024600201369D3
:102BC0000B4092890A40002B02D0002A00D001203D
:102BD0007047000070B5026A22F010020262026AB9
:102BE0004368048B24F4E04424F440750C884FF6C9
:102BF000FF7606EA04242C4322F020020D8942EAE3
:102C000005124D8842EA05120F4DA84202D00F4D21
:102C1000A84213D122F080024D8942EA051222F027
:102C200040028D8842EA051223F4806323F4006396
:102C30008D8943EA8503CD8943EA85034360048394
:102C4000C9880187026270BD002C01400034014038
:102C50000021018041808180C18001814181818189
:102C6000C18170474FF6FF71818000210180C180D2
:102C70004180017241728172C1720173417381732B
:102C8000704700002DE9F04302684B4CDFF82081CB
:102C9000DFF82091494F4A4E25054A4B40450BD05D
:102CA000A04209D0A84207D0B84205D0984203D02C
:102CB000484501D0B04204D122F0700C4A8842EA63
:102CC0000C02DFF804C1604508D0DFF800C16045A0
:102CD00004D022F4407CCA8842EA0C0202608A884E
:102CE00082850A880285404501D0A04201D10A7A36
:102CF000028601228282026840450BD0A04209D0A0
:102D0000A84207D0B84205D0984203D0484501D028
:102D1000B04209D191F809C0BCF1000F02D042F4D1
:102D2000006201E022F40062B0421DD191F80AC0B5
:102D3000BCF1000F02D042F4805201E022F4805234
:102D400091F80BC0BCF1000F02D042F4005201E038
:102D500022F4005291F80CC0BCF1000F02D042F4F2
:102D6000804201E022F48042404509D0A04207D0D1
:102D7000A84205D0B84203D0984201D0B04206D153
:102D80004C7B14B142F4004201E022F400420260A4
:102D90004268A84201D0984206D1897B11B142F421
:102DA000807201E022F480724260BDE8F08300008E
:102DB000002C0140000C00400034014000040040A1
:102DC000003C00400008004000100040001400409B
:102DD0000187704730B585B001211020FFF7FAFC5C
:102DE0006846FFF73FFF40F2E730ADF804001F20D0
:102DF000ADF800000024ADF80640ADF802400E4DDD
:102E000069462846FFF73EFF33218DF810108DF8F4
:102E1000114001218DF812108DF8131004A8FFF74E
:102E20004DFB012211462846FFF7A3FE012128464B
:102E3000FFF7A9FE05B030BD00100040FEE700001E
:102E400010B50420FFF7F6FD054806490068B0FB01
:102E5000F1F0054948604FF47A725043886010BD24
:102E60000000002040420F00180100200B49896833
:102E700048434FF0E021486100238B61086940F02E
:102E8000010008610869C20701D0C003FAD50869CA
:102E900020F0010008618B617047000018010020DC
:102EA0000B49496848434FF0E021486100238B619A
:102EB000086940F0010008610869C20701D0C00339
:102EC000FAD5086920F0010008618B6170470000A5
:102ED000180100202DE9F041104E3178B0FBF1F2DD
:102EE00095B2B0FBF1F201FB12018FB2002D01D0BF
:102EF000002408E0BDE8F041FFF7B8BF3078FFF7E5
:102F0000B5FF641CA4B2AC42F8D3002F04D03846FD
:102F1000BDE8F041FFF7AABFBDE8F081180100202D
:102F200010B500F10B024068C0F30F20B2EE040AA6
:102F3000DFED6E0A0F2876D02ADC092847D00E284C
:102F400025D1D0799379147940EA032053791B0471
:102F500043EA0463184300EE100A4868B8EEC00A5A
:102F600080EE201A80ED001AD078937840EA032092
:102F7000537812781B0443EA0262104300EE100AF1
:102F80004868B8EEC00A80EE201A80ED011A10BD24
:102F9000102870D01B28FAD15079137940EA032009
:102FA00000B200EE900A0869F8EEE00A80EE801A9E
:102FB00080ED001AD0789378096940EA03205378AD
:102FC00012781B0443EA02621043486010BDD379B3
:102FD000907943EA002000B200EE900AF8EEE00A91
:102FE0009FED431A0868C0EE811AC0ED011A5079AE
:102FF000137940EA032000B200EE900A0868F8EE68
:10300000E00A80EE801A80ED021AD0789378096881
:1030100040EA0320537812781B0443EA026210430B
:10302000086010BDFFE7D0799379147940EA032056
:1030300053791B0443EA0463184300EE100A8868BE
:10304000B8EEC00A80EE201A80ED001AD07893788E
:1030500040EA0320537812781B0443EA02621043CB
:1030600000EE100A8868B8EEC00A80EE201A80EDE3
:10307000011AD6E7FFE7D07993799FED1E1A40EA4F
:10308000032000B200EE900AC868F8EEE00AC0EE35
:10309000811AC0ED001A5079137940EA032000B27A
:1030A00000EE900AC868F8EEE00A80EE801A80ED23
:1030B000011AD078937840EA032000B200EE900A1B
:1030C000C868F8EEE00A80EE801A80ED021A5078A7
:1030D000127840EA022000B200EE900AC868F8EECA
:1030E000E00A80EE801A80ED031A9AE700401C4641
:1030F00000007A44000048422DE9F041534881889D
:10310000322921D35249097801F0070102291BD144
:10311000002585804F4C504906222678C868032335
:1031200049690F2E76D2DFE806F008111A232C36F3
:10313000404A545C646C767E87004749474800F0FB
:10314000D5F92078401C2070BDE8F0810570424917
:10315000424800F07FF92078401C2070F4E70370AB
:103160003D493E4800F076F92078401C2070EBE79E
:1031700002703949394800F06DF92078401C207000
:10318000E2E7092101703449344800F063F92078FE
:10319000401C2070D8E70C2101702F492F4800F007
:1031A00059F92078401C2070CEE70F2101702A4980
:1031B0002A4800F04FF92078401C2070C4E7122103
:1031C00001702549254800F045F92078401C207001
:1031D000BAE72149214800F071F82078401C20709E
:1031E000B2E71D491D4800F0BBF82078401C207054
:1031F000AAE71949194800F089F82078401C207086
:10320000A2E70D701449154800F0D6F82078401C4C
:10321000207099E717E01049104800F0A1F82078D5
:10322000401C207090E70B700B490C4800F0C4F86C
:103230002078401C207087E70A700749074800F093
:10324000BBF8257080E725707EE70000580100205C
:1032500006000020D000002078000020A0010020FF
:1032600070B5124C1248002521790078002908D049
:1032700000061AD42571BDE8704040F2DC50FFF71B
:10328000CDBB000611D50B4800680068002804DD9E
:103290004FF47A70FFF7C2FB03E04FF4FA60FFF7D8
:1032A000BDFB012020710448C58170BDD300002002
:1032B00006000020BC000020580100202A2281F8CE
:1032C000282042F6FF230022026043600423037299
:1032D0004272082383720B691B78C37202734273B4
:1032E00082730A695268120EC2730A695268120C1C
:1032F00002740A699288120A427409690979817410
:1033000001460148FDF791BE006400402C2281F87F
:10331000282042F6FF430022026043600423037228
:103320004272062383728B695B881B0AC3728B69A6
:103330009B7803738B691B881B0A43738B691B780B
:1033400083738B699B881B0AC3738969097901742C
:103350004274827401460148FDF767BE0064004074
:10336000272281F8282042F2FF7300220260436086
:10337000042303724272082282724A68D278C272AF
:103380004A68927802734A68527842734A6812789F
:1033900082734A68D279C2734A68927902744A6821
:1033A0005279427449680979817401460148FDF7F0
:1033B0003CBE00000064004030B42B2281F828207D
:1033C00042F6FF3200250560426004220272457217
:1033D000082282724A691278C272182202734A69FC
:1033E0000224137804EB4303D25A120A42734A6947
:1033F000137804EB4303D25C82734B691A78092A71
:103400001CD2521C04EB42029A5A120AC2734A6935
:1034100013785B1C04EB4303D25C02744A69137893
:103420009B1C04EB4303D25A120A427449690A787E
:10343000921C04EB4202895C817403E0C57305743D
:1034400045748574014630BC0148FDF7EEBD0000AF
:103450000064004030B4292281F8282042F6FF128F
:1034600000250560426004220272457208228272C1
:10347000CA681278C272CA6852780273CA68022493
:10348000137804EB4303D25A120A4273CA681378C2
:1034900004EB4303D25C8273CA6813785B1C04EBB1
:1034A0004303D25A120AC273CA6813785B1C04EB36
:1034B0004303D25C0274CB681A78122A0DD2921C94
:1034C00004EB42029A5A120A4274C9680A78921CA2
:1034D00004EB4202895C817401E045748574014605
:1034E00030BC0148FDF7A1BD00640040262281F8F0
:1034F000282042F2FF63002202604360042303722B
:103500004272082282720A68D278C2720A6892787D
:1035100002730A68527842730A68127882730A68E2
:10352000D279C2730A68927902740A685279427435
:1035300009680979817401460148FDF776BD0000EC
:1035400000640040BFF34F8F05480168054A01F44D
:10355000E06111430160BFF34F8F00BFFDE7000042
:103560000CED00E00400FA0502E008C8121F08C1D3
:10357000002AFAD170477047002001E001C1121FF4
:10358000002AFBD17047000010B50022054C03E073
:1035900010F8013B5340E25C491E89B2F8D2104654
:1035A00010BD0000843700083A48FFF73DF9FEF7E8
:1035B0005BFAFFF745FC0A20FFF78CFCFEF7A8FE3C
:1035C000FDF7B8FDFFF746F8FEF70EFFFDF794FA9A
:1035D000FDF7FEFAFDF774FEFEF738FFFEF7E8FE92
:1035E000FFF7F8FBFEF79CFFFEF7D4FF3220FFF752
:1035F00071FC294C607820F04000607027494A6ACD
:10360000920023D5264D08272F60FEF7F3FD254EA7
:10361000102030603220FFF75DFC01203060022076
:103620003060204810300760380328608020286010
:1036300040F2DC50FFF7F2F9607820F04000607053
:10364000207820F00700801C20700DE0496AC90036
:1036500008D5217821F00701C91C217040F04000F5
:10366000607001E0FEF7C6FDFFF7A8F8FEF7DAFE8E
:10367000FEF768FEFFF73AF8FDF74CFEFFF73CFD5A
:10368000FDF794FDFDF762F9FCF7F6FEFEF7C4FDC9
:10369000ECE700002C010020060000200010024092
:1036A00028080140180C01401FB56846FEF7D0FA03
:1036B0004FF40070ADF8000010208DF802000020DB
:1036C0008DF8040002200290039069460148FEF73D
:1036D00013FA1FBD0008014010B501210420FFF7B7
:1036E00095F80121C802FFF791F80121BDE81040CB
:1036F0000846FFF78BB800001FB56846FFF7B2FA1F
:1037000044F61F60ADF804003F20ADF80000002033
:10371000ADF80600ADF802008DF8080069460248D1
:10372000FFF7B0FA1FBD0000002C01401FB568462E
:10373000FFF78EFA7020ADF800000120ADF802000E
:103740000020ADF8040040F2DC51ADF80610022173
:10375000ADF808100821ADF80A104901ADF80C10B9
:10376000ADF80E00064C69462046FFF733FA0121FA
:103770002046FFF708FA01212046FFF710FA1FBD87
:10378000002C014000070E091C1B1215383F363172
:1037900024232A2D70777E796C6B6265484F4641F1
:1037A00054535A5DE0E7EEE9FCFBF2F5D8DFD6D1E1
:1037B000C4C3CACD90979E998C8B8285A8AFA6A1D1
:1037C000B4B3BABDC7C0C9CEDBDCD5D2FFF8F1F6C1
:1037D000E3E4EDEAB7B0B9BEABACA5A28F888186B1
:1037E00093949D9A2720292E3B3C35321F181116A1
:1037F00003040D0A5750595E4B4C45426F68616691
:1038000073747D7A898E878095929B9CB1B6BFB880
:10381000ADAAA3A4F9FEF7F0E5E2EBECC1C6CFC870
:10382000DDDAD3D4696E676075727B7C51565F5860
:103830004D4A4344191E171005020B0C21262F2850
:103840003D3A33344E49404752555C5B7671787F40
:103850006A6D64633E39303722252C2B0601080F30
:103860001A1D1413AEA9A0A7B2B5BCBB9691989F20
:103870008A8D8483DED9D0D7C2C5CCCBE6E1E8EF10
:10388000FAFDF4F3D8FFFFFFDDFFFFFFE2FFFFFFCC
:10389000E7FFFFFFECFFFFFFF1FFFFFFF6FFFFFF7A
:1038A000FBFFFFFF00000000050000000A00000011
:1038B0000F00000014000000190000001E000000AE
:1038C00023000000280000002D000000320000004E
:1038D000370000003C0000004100000046000000EE
:1038E0004B00000050000000550000005A0000008E
:1038F0005F00000064000000690000006E0000002E
:1039000073000000780000007D000000E9A643433A
:10391000C72B1443AAB1E242351EAF425879884200
:103920009A995642BE9F29426891074283C0D94165
:10393000022BB04173688F41B4C86A41C74B414103
:10394000000020413D0A05410456DE4021B0BA4046
:1039500010589D40E9268540713D624060E5404039
:10396000068125408D970E406666F63FCBA1D53F78
:1039700023DBB93FD34DA23F7B148E3F1058793FD4
:10398000E3A55B3F4A0C423F31082C3F7593183F3B
:103990009EEF073F00000000010203040102030440
:1039A0000607080901020406080A0C10202020203E
:1039B00020202020010002000400060008000A0068
:1039C0000C001000200040008000000100010001F8
:1039D00000010001A0860100400D0300801A0600CE
:1039E00000350C0040420F0080841E0000093D009D
:1039F000103A0008000000202C0100003E040008DE
:103A00006C3A00082C0100208C1700007835000863
:103A100007200090D003F401022B14022814320C6A
:103A200033201433201C33202433205037206C01E2
:103A300000205833205E332068332070021D20366A
:103A400084010020A43320AC372090010020B40270
:103A5000112072032918182801E7D4CE840921A265
:0C3A6000E7BB3459D900B402149B0000ED
:0400000508000149A5
:00000001FF
