:020000040800F2
:10000000101500205D010008E104000865040008E7
:10001000DD040008A50100080D0A0008000000002A
:100020000000000000000000000000003D07000884
:100030004D020008000000007301000835080008A8
:1000400077010008770100087701000877010008B0
:1000500077010008770100087701000877010008A0
:100060007701000877010008770100087701000890
:100070007701000877010008770100087701000880
:100080007701000877010008770100087701000870
:100090007701000877010008770100087701000860
:1000A0007701000877010008770100087701000850
:1000B0007701000877010008770100087701000840
:1000C0007701000877010008770100087701000830
:1000D0007701000877010008770100087701000820
:1000E0007701000877010008770100087701000810
:1000F0007701000877010008770100087701000800
:1001000077010008770100087701000877010008EF
:1001100077010008770100087701000877010008DF
:1001200077010008770100087701000877010008CF
:1001300077010008770100087701000877010008BF
:100140007701000877010008DFF80CD000F018F8FC
:1001500000480047690B000810150020064880473A
:1001600006480047FEE7FEE7FEE7FEE7FEE7FEE79C
:10017000FEE7FEE7FEE7FEE7390800084901000850
:10018000064C074D06E0E06840F0010394E80700E4
:1001900098471034AC42F6D3FFF7DAFF740C00082E
:1001A000940C000800BFFEE7002040F2596172B6CF
:1001B00000BF1C4A126902F00202022A03D00A1E82
:1001C000A1F10101F5D100BF174A126822F00072B7
:1001D000154B1A601A46126842F000721A6000BF8E
:1001E000104A106820F4C06040F48060106040F253
:1001F000596100BF0B4A126902F002021AB10A1ECD
:10020000A1F10101F6D140F2596100BF054A12691E
:1002100002F00202022A03D00A1EA1F10101F5D167
:1002200062B67047007000402018004029B1064AAD
:1002300052680243044B5A6004E0034A5268824306
:10024000014B5A6070470000002004E070470146EF
:1002500000BF48F2D04201FB02F000E0401E00283F
:10026000FCD17047F0B50346002500200024002291
:100270000026E3E00F884FF0010C0CFA02FC07EABD
:100280000C06002E6FD055008F68022F07D08F68A4
:10029000122F04D08F6817B18F68032F25D102F079
:1002A00008078FB1586A57074FEAD76C0F2707FA2C
:1002B0000CF7B8434FEA427C4FEADC6CCF6807FA90
:1002C0000CF73843586210E0186A57074FEAD76CAA
:1002D0000F2707FA0CF7B8434FEA427C4FEADC6C71
:1002E000CF6807FA0CF7384318621C680F7A07F0DA
:1002F0000F000327AF40BC4300FA05F73C431C60E6
:10030000DC680F7907F003000327AF40BC4300FA15
:1003100005F73C43DC600F7A07F003076FB18F6885
:10032000032F0AD0DC6A8F7807F003000327AF4061
:10033000BC4300FA05F73C43DC629868012797400C
:10034000B843CF7807F001079740384398600F799A
:10035000022F09D19F6A4FF0010C0CFA02FC47EA08
:100360000C079F620BE068E00F79012F07D19F69AE
:100370004FF0010C0CFA02FC47EA0C079F618F68F2
:10038000012F08D08F68022F05D08F68112F02D05F
:100390008F68122F09D1586801279740B8430F7A08
:1003A000C7F300179740384358608F6807F08057AD
:1003B000002F42D0244F386801279740B8438F68F8
:1003C00007F48037B7F5803F02D1012797403843C3
:1003D0001D4F38603F1D386801279740B8438F682C
:1003E00007F40037B7F5003F02D1012797403843A3
:1003F000154F3F1D38603F1D386801279740B843AF
:100400008F6807F48017B7F5801F02D10127974046
:1004100038430D4F083738603F1D38680127974033
:10042000B8438F6807F40017B7F5001F02D1012702
:1004300097403843044F0C373860521C0F881741DF
:10044000002F7FF417AFF0BD000401404FF6FF719D
:1004500001800021C17081600F21C1600021017104
:100460008170704700BFFEE742694A4042617047B1
:100470007FB504460D466846FFF7E8FF13488442FF
:1004800004D10121042000F09FF816E010488442B6
:1004900004D10121082000F097F80EE00D488442B5
:1004A00004D10121102000F08FF806E00A488442B0
:1004B00003D10121202000F087F8ADF80050012081
:1004C000029069462046FFF7CDFE7FBD000801403F
:1004D000000C0140001001400014014000BFFEE785
:1004E00070470000024949690143014A5161704760
:1004F0000070004010B50246154B5B6943F00103E4
:10050000134C636123465B6943F002036361234636
:100510005B6943F0040363612346986820F440500C
:1005200008439860186820F0070040F00300186046
:10053000084B1B6843F00403064C236000BF00BF58
:10054000012A01D130BF02E040BF20BF20BF10BD53
:100550000070004010ED00E002460020012A07D1A3
:10056000074BDB680B400BB1012008E0002006E0E0
:10057000034B1B690B400BB1012000E000207047CA
:100580000070004002460020064B9868012904D103
:1005900020F007001043986002E09043014B986000
:1005A000704700000070004029B1064AD26902433A
:1005B000044BDA6104E0034AD2698243014BDA61F9
:1005C000704700000010024029B1064A92690243B8
:1005D000044B9A6104E0034A92698243014B9A6199
:1005E0007047000000100240F0B5002100BF00235A
:1005F000002600240025484F7F68DFF820C107EA65
:100600000C03454F7F6807F48036434F7F6AC7F37A
:10061000021503F000671FB9022707EB934304E0BC
:100620004FF4F877C7EB93477B1C66B93A4F3F6CA2
:1006300007F001071FB13A4F03FB07F20FE0394FF4
:1006400003FB07F20BE0344F7F6807F400371FB15C
:10065000354F03FB07F202E0314F03FB07F22E4F49
:100660003F6C07F0020707B152082B4F7F6807F075
:100670000C0131B1042909D008290AD00C290DD167
:100680000AE02A4F57F8257007600CE0254F0760F5
:1006900009E0234F076006E0026004E0234F57F8AB
:1006A0002570076000BF00BF1B4F7F6807F0F00197
:1006B00009091F4F7C5C0768E7404760164F7F6859
:1006C00007F4E061090A1A4F7C5C4768E7408760DD
:1006D000114F7F6807F46051C90A154F7C5C476869
:1006E000E740C7600C4FFF6A07F00F01114F7C5CB9
:1006F0004768B7FBF4F74761074FFF6A07F4F871E3
:10070000090901F00F07DFF830C03CF81740B2FBD1
:10071000F4F70761F0BD00000010024000003C0843
:1007200000127A000024F40000093D00580C000873
:10073000180C0008280C0008380C0008704700004E
:10074000F0B500240025002700263548006840F455
:1007500080303349086000BF31480068C0F340462C
:100760007F1C16B9B7F5005FF6D12D480068C0F3BD
:1007700040461EB92B482C490860F0BDFFF714FD18
:100780002A48006820F003002849086008460068ED
:1007900040F001000860224840682149486008464E
:1007A000406840F4005048600846406840F4A0604B
:1007B0004860084640681E49084019494860084694
:1007C000006C20F0030008640846446844F4803458
:1007D000056C44F4003400BF44F4601444600564C4
:1007E000006840F08070086000BF0D48006800F0AD
:1007F00000700028F9D00A48406820F0030008493A
:1008000048600846406840F00300486000BF044864
:10081000406800F00C000C28F9D100BFADE70000E3
:100820000010024000093D000000002000200240AE
:10083000FFFFC0F77047000010B52F48006840F474
:1008400070002D4908602D48406A40F004002B4993
:100850004862084640682A490840284948600846D6
:10086000006828490840254908600846006820F4C7
:100870008020086008464068234908401F494860B6
:100880004FF4E040C86240100863002048630864E9
:100890001E4888600846C06940F08050C8611C4806
:1008A000006800F48060B0F5806F0CD100BF19487B
:1008B000006820F00070174908600846006840F0A2
:1008C0000070086000BF1448006840F090001249B2
:1008D00008600846006800F4807020B1084600688F
:1008E00020F400700860FFF72BFF4FF00060024912
:1008F0008039086010BD000088ED00E00010024063
:1009000000C0FFF8FFFFF6FEFFFF00070080BF04F6
:1009100000700040201800400020024021B1828970
:1009200042F40052828104E082894DF6FF731A403E
:100930008281704702460020B1F5007F00D100BFE0
:1009400013880B400BB1012000E00020704700002D
:100950002DE9F04786B005460F460024A24600BFA9
:1009600000BF0026B88900B100BF2E462C8A4CF685
:10097000FF700440F88804432C82AC894EF6F310D3
:100980000440B88839890843798908430443AC8115
:10099000AC8A4FF6FF400440B8890443AC826846F5
:1009A000FFF722FE1448864205D01448864202D042
:1009B0001348864202D1DDF80CA001E0DDF808A062
:1009C0000AEBCA0000EB0A1039688900B0FBF1F8A5
:1009D0006420B8FBF0F004012009642101FB1089B8
:1009E000322000EB0910B0FBF1F000F00F000443DF
:1009F0002C8106B0BDE8F08700380140005001406E
:100A000000540140C1F308028280704700BFFEE736
:100A10001FB56846FFF71AFD01210420FFF7D4FD3A
:100A20000120ADF800000020029002208DF80400A3
:100A300069460248FFF716FC1FBD00000008014090
:100A4000014A024900F013B8910A0008080000208A
:100A500002E008C8121F08C1002AFAD17047704787
:100A6000002001E001C1121F002AFBD170472DE9CF
:100A7000F04116460F460446002503E03946B047CC
:100A8000641C6D1C20780028F8D12846BDE8F08150
:100A900070B504460D460D2C03D1012013490860A2
:100AA00016E00A2C11D11148006850B90D211048E8
:100AB000FFF7A8FF00BF40210D48FFF73BFF0028CC
:100AC000F9D000200949086002E0002007490860C9
:100AD000E1B20748FFF796FF00BF40210448FFF747
:100AE00029FF0028F9D0204670BD00000400002036
:100AF0000038014000B589B005A8FFF7A7FC012127
:100B00000520FFF761FD01218803FFF75DFD4FF42C
:100B10000070ADF814000220079000208DF8170037
:100B20000420089005A90E48FFF79CFB4FF4E13024
:100B300001900020ADF80800ADF80A00ADF80C00F7
:100B4000ADF810000820ADF80E0001A90548FFF728
:100B5000FFFE01210348FFF7E1FE09B000BD0000E0
:100B600000080140003801404FF480711F48FFF732
:100B70007FFCFFF74DFFFFF7BDFF1DA0FFF760FFF4
:100B800001210807FFF710FD01210220FFF7FAFC01
:100B900001210420FFF74AFB4FF4FA60FFF757FBEF
:100BA00022E04FF480710120FFF7D6FC18B14FF41A
:100BB0008070FFF797FC02210120FFF7CDFC10B1F8
:100BC0000220FFF78FFC4FF41670FFF740FB4FF445
:100BD00080710648FFF748FC09A0FFF731FF4FF48A
:100BE00000510120FFF786FCDBE700000008014010
:100BF0000D0A204D4355205265736574210D0A007E
:100C00000D0A20204D435520476F746F20537461A7
:100C10006E646279210D0A000000000001020304E5
:100C2000010203040607080901020406080A0C1061
:100C300020202020202020200100020004000600A7
:100C400008000A000C001000200040008000000195
:100C50000001000100010001A0860100400D030019
:100C6000801A060000350C0040420F0080841E00F0
:100C700000093D00940C0008000000200C0000005A
:100C8000500A0008A00C00080C0000200415000009
:100C9000600A00080090D00300000000000000007F
:0400000508000149A5
:00000001FF
